{
  "contractName": "AccountLevels",
  "abi": [
    {
      "constant": true,
      "inputs": [
        {
          "name": "user",
          "type": "address"
        }
      ],
      "name": "accountLevel",
      "outputs": [
        {
          "name": "",
          "type": "uint256"
        }
      ],
      "payable": false,
      "stateMutability": "view",
      "type": "function"
    }
  ],
  "bytecode": "0x608060405234801561001057600080fd5b5060ce8061001f6000396000f300608060405260043610603f576000357c0100000000000000000000000000000000000000000000000000000000900463ffffffff1680631cbd0519146044575b600080fd5b348015604f57600080fd5b506082600480360381019080803573ffffffffffffffffffffffffffffffffffffffff1690602001909291905050506098565b6040518082815260200191505060405180910390f35b60008090509190505600a165627a7a7230582011bf889ab8731e2cc3a806cd4f021770cf0419e65f1854e62fe8005ecf644cd10029",
  "source": "pragma solidity ^0.4.19;\n\ncontract AccountLevels {\n    //given a user, returns an account level\n    //0 = regular user (pays take fee and make fee)\n    //1 = market maker silver (pays take fee, no make fee, gets rebate)\n    //2 = market maker gold (pays take fee, no make fee, gets entire counterparty's take fee as rebate)\n    function accountLevel(address user) constant returns(uint) {\n        return 0;\n    }\n}\n",
  "sourcePath": "/Users/facu/Documents/Laburo/Spiking/Ethereum/0x/0x-monorepo/packages/contracts/contracts/1.0.0/EtherDelta/AccountLevels.sol",
  "compiler": {
    "name": "solc",
    "version": "0.4.24+commit.e67f0147.Emscripten.clang"
  },
  "schemaVersion": "2.0.1",
  "updatedAt": "2018-10-16T20:38:35.254Z"
}