{
  "contractName": "Arbitrage",
  "abi": [
    {
      "constant": true,
      "inputs": [],
      "name": "owner",
      "outputs": [
        {
          "name": "",
          "type": "address"
        }
      ],
      "payable": false,
      "stateMutability": "view",
      "type": "function"
    },
    {
      "constant": false,
      "inputs": [
        {
          "name": "newOwner",
          "type": "address"
        }
      ],
      "name": "transferOwnership",
      "outputs": [],
      "payable": false,
      "stateMutability": "nonpayable",
      "type": "function"
    },
    {
      "inputs": [
        {
          "name": "_exchangeAddress",
          "type": "address"
        },
        {
          "name": "_etherDeltaAddress",
          "type": "address"
        },
        {
          "name": "_proxyAddress",
          "type": "address"
        }
      ],
      "payable": false,
      "stateMutability": "nonpayable",
      "type": "constructor"
    },
    {
      "constant": false,
      "inputs": [
        {
          "name": "tokenAddress",
          "type": "address"
        }
      ],
      "name": "setAllowances",
      "outputs": [],
      "payable": false,
      "stateMutability": "nonpayable",
      "type": "function"
    },
    {
      "constant": false,
      "inputs": [
        {
          "name": "addresses",
          "type": "address[6]"
        },
        {
          "name": "values",
          "type": "uint256[12]"
        },
        {
          "name": "v",
          "type": "uint8[2]"
        },
        {
          "name": "r",
          "type": "bytes32[2]"
        },
        {
          "name": "s",
          "type": "bytes32[2]"
        }
      ],
      "name": "makeAtomicTrade",
      "outputs": [],
      "payable": false,
      "stateMutability": "nonpayable",
      "type": "function"
    }
  ],
  "bytecode": "0x608060405234801561001057600080fd5b50604051606080611236833981018060405281019080805190602001909291908051906020019092919080519060200190929190505050336000806101000a81548173ffffffffffffffffffffffffffffffffffffffff021916908373ffffffffffffffffffffffffffffffffffffffff16021790555082600160006101000a81548173ffffffffffffffffffffffffffffffffffffffff021916908373ffffffffffffffffffffffffffffffffffffffff16021790555081600260006101000a81548173ffffffffffffffffffffffffffffffffffffffff021916908373ffffffffffffffffffffffffffffffffffffffff16021790555080600360006101000a81548173ffffffffffffffffffffffffffffffffffffffff021916908373ffffffffffffffffffffffffffffffffffffffff1602179055505050506110da8061015c6000396000f300608060405260043610610062576000357c0100000000000000000000000000000000000000000000000000000000900463ffffffff1680633c059027146100675780638da5cb5b146100aa578063f2fde38b14610101578063f41cd05914610144575b600080fd5b34801561007357600080fd5b506100a8600480360381019080803573ffffffffffffffffffffffffffffffffffffffff16906020019092919050505061019a565b005b3480156100b657600080fd5b506100bf610560565b604051808273ffffffffffffffffffffffffffffffffffffffff1673ffffffffffffffffffffffffffffffffffffffff16815260200191505060405180910390f35b34801561010d57600080fd5b50610142600480360381019080803573ffffffffffffffffffffffffffffffffffffffff169060200190929190505050610585565b005b34801561015057600080fd5b506101986004803603810190808060c001909192919290806101800190919291929080604001909192919290806040019091929192908060400190919291929050505061065a565b005b60008060009054906101000a900473ffffffffffffffffffffffffffffffffffffffff1673ffffffffffffffffffffffffffffffffffffffff163373ffffffffffffffffffffffffffffffffffffffff161415156101f757600080fd5b8190508073ffffffffffffffffffffffffffffffffffffffff1663095ea7b3600260009054906101000a900473ffffffffffffffffffffffffffffffffffffffff167fffffffffffffffffffffffffffffffffffffffffffffffffffffffffffffffff6040518363ffffffff167c0100000000000000000000000000000000000000000000000000000000028152600401808373ffffffffffffffffffffffffffffffffffffffff1673ffffffffffffffffffffffffffffffffffffffff16815260200182815260200192505050602060405180830381600087803b1580156102df57600080fd5b505af11580156102f3573d6000803e3d6000fd5b505050506040513d602081101561030957600080fd5b8101908080519060200190929190505050508073ffffffffffffffffffffffffffffffffffffffff1663095ea7b3600360009054906101000a900473ffffffffffffffffffffffffffffffffffffffff167fffffffffffffffffffffffffffffffffffffffffffffffffffffffffffffffff6040518363ffffffff167c0100000000000000000000000000000000000000000000000000000000028152600401808373ffffffffffffffffffffffffffffffffffffffff1673ffffffffffffffffffffffffffffffffffffffff16815260200182815260200192505050602060405180830381600087803b15801561040057600080fd5b505af1158015610414573d6000803e3d6000fd5b505050506040513d602081101561042a57600080fd5b8101908080519060200190929190505050508073ffffffffffffffffffffffffffffffffffffffff1663095ea7b36000809054906101000a900473ffffffffffffffffffffffffffffffffffffffff167fffffffffffffffffffffffffffffffffffffffffffffffffffffffffffffffff6040518363ffffffff167c0100000000000000000000000000000000000000000000000000000000028152600401808373ffffffffffffffffffffffffffffffffffffffff1673ffffffffffffffffffffffffffffffffffffffff16815260200182815260200192505050602060405180830381600087803b15801561052057600080fd5b505af1158015610534573d6000803e3d6000fd5b505050506040513d602081101561054a57600080fd5b8101908080519060200190929190505050505050565b6000809054906101000a900473ffffffffffffffffffffffffffffffffffffffff1681565b6000809054906101000a900473ffffffffffffffffffffffffffffffffffffffff1673ffffffffffffffffffffffffffffffffffffffff163373ffffffffffffffffffffffffffffffffffffffff161415156105e057600080fd5b600073ffffffffffffffffffffffffffffffffffffffff168173ffffffffffffffffffffffffffffffffffffffff1614151561065757806000806101000a81548173ffffffffffffffffffffffffffffffffffffffff021916908373ffffffffffffffffffffffffffffffffffffffff1602179055505b50565b6000809054906101000a900473ffffffffffffffffffffffffffffffffffffffff1673ffffffffffffffffffffffffffffffffffffffff163373ffffffffffffffffffffffffffffffffffffffff161415156106b557600080fd5b61077b856006806020026040519081016040528092919082600660200280828437820191505050505085600c806020026040519081016040528092919082600c602002808284378201915050505050856002806020026040519081016040528092919082600260200280828437820191505050505085600280602002604051908101604052809291908260026020028082843782019150505050508560028060200260405190810160405280929190826002602002808284378201915050505050610848565b610841856006806020026040519081016040528092919082600660200280828437820191505050505085600c806020026040519081016040528092919082600c602002808284378201915050505050856002806020026040519081016040528092919082600260200280828437820191505050505085600280602002604051908101604052809291908260026020028082843782019150505050508560028060200260405190810160405280929190826002602002808284378201915050505050610bf1565b5050505050565b610850611068565b61085861108b565b600060a06040519081016040528089600060068110151561087557fe5b602002015173ffffffffffffffffffffffffffffffffffffffff1673ffffffffffffffffffffffffffffffffffffffff1681526020018960016006811015156108ba57fe5b602002015173ffffffffffffffffffffffffffffffffffffffff1673ffffffffffffffffffffffffffffffffffffffff1681526020018960026006811015156108ff57fe5b602002015173ffffffffffffffffffffffffffffffffffffffff1673ffffffffffffffffffffffffffffffffffffffff16815260200189600360068110151561094457fe5b602002015173ffffffffffffffffffffffffffffffffffffffff1673ffffffffffffffffffffffffffffffffffffffff16815260200189600460068110151561098957fe5b602002015173ffffffffffffffffffffffffffffffffffffffff1673ffffffffffffffffffffffffffffffffffffffff16815250925060c060405190810160405280886000600c811015156109da57fe5b60200201518152602001886001600c811015156109f357fe5b60200201518152602001886002600c81101515610a0c57fe5b60200201518152602001886003600c81101515610a2557fe5b60200201518152602001886004600c81101515610a3e57fe5b60200201518152602001886005600c81101515610a5757fe5b60200201518152509150866006600c81101515610a7057fe5b60200201519050600160009054906101000a900473ffffffffffffffffffffffffffffffffffffffff1673ffffffffffffffffffffffffffffffffffffffff1663741bcc938484848a6000600281101515610ac757fe5b60200201518a6000600281101515610adb57fe5b60200201518a6000600281101515610aef57fe5b60200201516040518763ffffffff167c01000000000000000000000000000000000000000000000000000000000281526004018087600560200280838360005b83811015610b4a578082015181840152602081019050610b2f565b5050505090500186600660200280838360005b83811015610b78578082015181840152602081019050610b5d565b505050509050018581526020018460ff1660ff168152602001836000191660001916815260200182600019166000191681526020019650505050505050600060405180830381600087803b158015610bcf57600080fd5b505af1158015610be3573d6000803e3d6000fd5b505050505050505050505050565b600084600b600c81101515610c0257fe5b60200201519050600260009054906101000a900473ffffffffffffffffffffffffffffffffffffffff1673ffffffffffffffffffffffffffffffffffffffff1663338b5dea876002600681101515610c5657fe5b6020020151876007600c81101515610c6a57fe5b60200201516040518363ffffffff167c0100000000000000000000000000000000000000000000000000000000028152600401808373ffffffffffffffffffffffffffffffffffffffff1673ffffffffffffffffffffffffffffffffffffffff16815260200182815260200192505050600060405180830381600087803b158015610cf457600080fd5b505af1158015610d08573d6000803e3d6000fd5b50505050600260009054906101000a900473ffffffffffffffffffffffffffffffffffffffff1673ffffffffffffffffffffffffffffffffffffffff16630a19b14a876002600681101515610d5957fe5b6020020151876007600c81101515610d6d57fe5b6020020151896003600681101515610d8157fe5b6020020151896008600c81101515610d9557fe5b60200201518a6009600c81101515610da957fe5b60200201518b600a600c81101515610dbd57fe5b60200201518d6005600681101515610dd157fe5b60200201518c6001600281101515610de557fe5b60200201518c6001600281101515610df957fe5b60200201518c6001600281101515610e0d57fe5b60200201518c6040518c63ffffffff167c0100000000000000000000000000000000000000000000000000000000028152600401808c73ffffffffffffffffffffffffffffffffffffffff1673ffffffffffffffffffffffffffffffffffffffff1681526020018b81526020018a73ffffffffffffffffffffffffffffffffffffffff1673ffffffffffffffffffffffffffffffffffffffff1681526020018981526020018881526020018781526020018673ffffffffffffffffffffffffffffffffffffffff1673ffffffffffffffffffffffffffffffffffffffff1681526020018560ff1660ff168152602001846000191660001916815260200183600019166000191681526020018281526020019b505050505050505050505050600060405180830381600087803b158015610f4557600080fd5b505af1158015610f59573d6000803e3d6000fd5b50505050600260009054906101000a900473ffffffffffffffffffffffffffffffffffffffff1673ffffffffffffffffffffffffffffffffffffffff16639e281a98876003600681101515610faa57fe5b6020020151876008600c81101515610fbe57fe5b60200201516040518363ffffffff167c0100000000000000000000000000000000000000000000000000000000028152600401808373ffffffffffffffffffffffffffffffffffffffff1673ffffffffffffffffffffffffffffffffffffffff16815260200182815260200192505050600060405180830381600087803b15801561104857600080fd5b505af115801561105c573d6000803e3d6000fd5b50505050505050505050565b60a060405190810160405280600590602082028038833980820191505090505090565b60c0604051908101604052806006906020820280388339808201915050905050905600a165627a7a72305820e0570367e07ce8db60c86d7a864ee7e2e1817e672795a3ddc684c0cd2abdfaa70029",
  "source": "pragma solidity ^0.4.19;\n\nimport { IExchange_v1 as Exchange } from \"../Exchange/IExchange_v1.sol\";\nimport { EtherDelta } from \"../EtherDelta/EtherDelta.sol\";\nimport { Ownable_v1 as Ownable } from \"../Ownable/Ownable_v1.sol\";\nimport { IToken_v1 as Token } from \"../Token/IToken_v1.sol\";\n\n/// @title Arbitrage - Facilitates atomic arbitrage of ERC20 tokens between EtherDelta and 0x Exchange contract.\n/// @author Leonid Logvinov - <leo@0xProject.com>\ncontract Arbitrage is Ownable {\n\n    Exchange exchange;\n    EtherDelta etherDelta;\n    address proxyAddress;\n\n    uint256 constant MAX_UINT = 2**256 - 1;\n\n    function Arbitrage(address _exchangeAddress, address _etherDeltaAddress, address _proxyAddress) {\n        exchange = Exchange(_exchangeAddress);\n        etherDelta = EtherDelta(_etherDeltaAddress);\n        proxyAddress = _proxyAddress;\n    }\n\n    /*\n     * Makes token tradeable by setting an allowance for etherDelta and 0x proxy contract.\n     * Also sets an allowance for the owner of the contracts therefore allowing to withdraw tokens.\n     */\n    function setAllowances(address tokenAddress) external onlyOwner {\n        Token token = Token(tokenAddress);\n        token.approve(address(etherDelta), MAX_UINT);\n        token.approve(proxyAddress, MAX_UINT);\n        token.approve(owner, MAX_UINT);\n    }\n\n    /*\n     * Because of the limits on the number of local variables in Solidity we need to compress parameters while loosing\n     * readability. Scheme of the parameter layout:\n     *\n     * addresses\n     * 0..4 orderAddresses\n     * 5 user\n     *\n     * values\n     * 0..5 orderValues\n     * 6 fillTakerTokenAmount\n     * 7 amountGet\n     * 8 amountGive\n     * 9 expires\n     * 10 nonce\n     * 11 amount\n\n     * signature\n     * exchange then etherDelta\n     */\n    function makeAtomicTrade(\n        address[6] addresses, uint[12] values,\n        uint8[2] v, bytes32[2] r, bytes32[2] s\n    ) external onlyOwner {\n        makeExchangeTrade(addresses, values, v, r, s);\n        makeEtherDeltaTrade(addresses, values, v, r, s);\n    }\n\n    function makeEtherDeltaTrade(\n        address[6] addresses, uint[12] values,\n        uint8[2] v, bytes32[2] r, bytes32[2] s\n    ) internal {\n        uint amount = values[11];\n        etherDelta.depositToken(\n            addresses[2], // tokenGet === makerToken\n            values[7] // amountGet\n        );\n        etherDelta.trade(\n            addresses[2], // tokenGet === makerToken\n            values[7], // amountGet\n            addresses[3], // tokenGive === takerToken\n            values[8], // amountGive\n            values[9], // expires\n            values[10], // nonce\n            addresses[5], // user\n            v[1],\n            r[1],\n            s[1],\n            amount\n        );\n        etherDelta.withdrawToken(\n            addresses[3], // tokenGive === tokenToken\n            values[8] // amountGive\n        );\n    }\n\n    function makeExchangeTrade(\n        address[6] addresses, uint[12] values,\n        uint8[2] v, bytes32[2] r, bytes32[2] s\n    ) internal {\n        address[5] memory orderAddresses = [\n            addresses[0], // maker\n            addresses[1], // taker\n            addresses[2], // makerToken\n            addresses[3], // takerToken\n            addresses[4] // feeRecepient\n        ];\n        uint[6] memory orderValues = [\n            values[0], // makerTokenAmount\n            values[1], // takerTokenAmount\n            values[2], // makerFee\n            values[3], // takerFee\n            values[4], // expirationTimestampInSec\n            values[5]  // salt\n        ];\n        uint fillTakerTokenAmount = values[6]; // fillTakerTokenAmount\n        // Execute Exchange trade. It either succeeds in full or fails and reverts all the changes.\n        exchange.fillOrKillOrder(orderAddresses, orderValues, fillTakerTokenAmount, v[0], r[0], s[0]);\n    }\n}\n",
  "sourcePath": "/Users/facu/Documents/Laburo/Spiking/Ethereum/0x/0x-monorepo/packages/contracts/contracts/1.0.0/Arbitrage/Arbitrage.sol",
  "compiler": {
    "name": "solc",
    "version": "0.4.24+commit.e67f0147.Emscripten.clang"
  },
  "schemaVersion": "2.0.1",
  "updatedAt": "2018-10-16T20:38:35.250Z"
}