{
  "contractName": "AssetProxyOwner",
  "abi": [
    {
      "constant": true,
      "inputs": [
        {
          "name": "",
          "type": "uint256"
        }
      ],
      "name": "owners",
      "outputs": [
        {
          "name": "",
          "type": "address"
        }
      ],
      "payable": false,
      "stateMutability": "view",
      "type": "function"
    },
    {
      "constant": false,
      "inputs": [
        {
          "name": "owner",
          "type": "address"
        }
      ],
      "name": "removeOwner",
      "outputs": [],
      "payable": false,
      "stateMutability": "nonpayable",
      "type": "function"
    },
    {
      "constant": false,
      "inputs": [
        {
          "name": "transactionId",
          "type": "uint256"
        }
      ],
      "name": "revokeConfirmation",
      "outputs": [],
      "payable": false,
      "stateMutability": "nonpayable",
      "type": "function"
    },
    {
      "constant": true,
      "inputs": [
        {
          "name": "",
          "type": "address"
        }
      ],
      "name": "isOwner",
      "outputs": [
        {
          "name": "",
          "type": "bool"
        }
      ],
      "payable": false,
      "stateMutability": "view",
      "type": "function"
    },
    {
      "constant": true,
      "inputs": [
        {
          "name": "",
          "type": "uint256"
        },
        {
          "name": "",
          "type": "address"
        }
      ],
      "name": "confirmations",
      "outputs": [
        {
          "name": "",
          "type": "bool"
        }
      ],
      "payable": false,
      "stateMutability": "view",
      "type": "function"
    },
    {
      "constant": true,
      "inputs": [],
      "name": "secondsTimeLocked",
      "outputs": [
        {
          "name": "",
          "type": "uint256"
        }
      ],
      "payable": false,
      "stateMutability": "view",
      "type": "function"
    },
    {
      "constant": true,
      "inputs": [
        {
          "name": "pending",
          "type": "bool"
        },
        {
          "name": "executed",
          "type": "bool"
        }
      ],
      "name": "getTransactionCount",
      "outputs": [
        {
          "name": "count",
          "type": "uint256"
        }
      ],
      "payable": false,
      "stateMutability": "view",
      "type": "function"
    },
    {
      "constant": false,
      "inputs": [
        {
          "name": "owner",
          "type": "address"
        }
      ],
      "name": "addOwner",
      "outputs": [],
      "payable": false,
      "stateMutability": "nonpayable",
      "type": "function"
    },
    {
      "constant": true,
      "inputs": [
        {
          "name": "transactionId",
          "type": "uint256"
        }
      ],
      "name": "isConfirmed",
      "outputs": [
        {
          "name": "",
          "type": "bool"
        }
      ],
      "payable": false,
      "stateMutability": "view",
      "type": "function"
    },
    {
      "constant": false,
      "inputs": [
        {
          "name": "_secondsTimeLocked",
          "type": "uint256"
        }
      ],
      "name": "changeTimeLock",
      "outputs": [],
      "payable": false,
      "stateMutability": "nonpayable",
      "type": "function"
    },
    {
      "constant": true,
      "inputs": [
        {
          "name": "",
          "type": "address"
        }
      ],
      "name": "isAssetProxyRegistered",
      "outputs": [
        {
          "name": "",
          "type": "bool"
        }
      ],
      "payable": false,
      "stateMutability": "view",
      "type": "function"
    },
    {
      "constant": true,
      "inputs": [
        {
          "name": "transactionId",
          "type": "uint256"
        }
      ],
      "name": "getConfirmationCount",
      "outputs": [
        {
          "name": "count",
          "type": "uint256"
        }
      ],
      "payable": false,
      "stateMutability": "view",
      "type": "function"
    },
    {
      "constant": true,
      "inputs": [
        {
          "name": "",
          "type": "uint256"
        }
      ],
      "name": "transactions",
      "outputs": [
        {
          "name": "destination",
          "type": "address"
        },
        {
          "name": "value",
          "type": "uint256"
        },
        {
          "name": "data",
          "type": "bytes"
        },
        {
          "name": "executed",
          "type": "bool"
        }
      ],
      "payable": false,
      "stateMutability": "view",
      "type": "function"
    },
    {
      "constant": true,
      "inputs": [],
      "name": "getOwners",
      "outputs": [
        {
          "name": "",
          "type": "address[]"
        }
      ],
      "payable": false,
      "stateMutability": "view",
      "type": "function"
    },
    {
      "constant": true,
      "inputs": [
        {
          "name": "from",
          "type": "uint256"
        },
        {
          "name": "to",
          "type": "uint256"
        },
        {
          "name": "pending",
          "type": "bool"
        },
        {
          "name": "executed",
          "type": "bool"
        }
      ],
      "name": "getTransactionIds",
      "outputs": [
        {
          "name": "_transactionIds",
          "type": "uint256[]"
        }
      ],
      "payable": false,
      "stateMutability": "view",
      "type": "function"
    },
    {
      "constant": true,
      "inputs": [
        {
          "name": "transactionId",
          "type": "uint256"
        }
      ],
      "name": "getConfirmations",
      "outputs": [
        {
          "name": "_confirmations",
          "type": "address[]"
        }
      ],
      "payable": false,
      "stateMutability": "view",
      "type": "function"
    },
    {
      "constant": true,
      "inputs": [],
      "name": "transactionCount",
      "outputs": [
        {
          "name": "",
          "type": "uint256"
        }
      ],
      "payable": false,
      "stateMutability": "view",
      "type": "function"
    },
    {
      "constant": false,
      "inputs": [
        {
          "name": "_required",
          "type": "uint256"
        }
      ],
      "name": "changeRequirement",
      "outputs": [],
      "payable": false,
      "stateMutability": "nonpayable",
      "type": "function"
    },
    {
      "constant": false,
      "inputs": [
        {
          "name": "transactionId",
          "type": "uint256"
        }
      ],
      "name": "confirmTransaction",
      "outputs": [],
      "payable": false,
      "stateMutability": "nonpayable",
      "type": "function"
    },
    {
      "constant": false,
      "inputs": [
        {
          "name": "destination",
          "type": "address"
        },
        {
          "name": "value",
          "type": "uint256"
        },
        {
          "name": "data",
          "type": "bytes"
        }
      ],
      "name": "submitTransaction",
      "outputs": [
        {
          "name": "transactionId",
          "type": "uint256"
        }
      ],
      "payable": false,
      "stateMutability": "nonpayable",
      "type": "function"
    },
    {
      "constant": true,
      "inputs": [
        {
          "name": "",
          "type": "uint256"
        }
      ],
      "name": "confirmationTimes",
      "outputs": [
        {
          "name": "",
          "type": "uint256"
        }
      ],
      "payable": false,
      "stateMutability": "view",
      "type": "function"
    },
    {
      "constant": true,
      "inputs": [],
      "name": "MAX_OWNER_COUNT",
      "outputs": [
        {
          "name": "",
          "type": "uint256"
        }
      ],
      "payable": false,
      "stateMutability": "view",
      "type": "function"
    },
    {
      "constant": true,
      "inputs": [],
      "name": "required",
      "outputs": [
        {
          "name": "",
          "type": "uint256"
        }
      ],
      "payable": false,
      "stateMutability": "view",
      "type": "function"
    },
    {
      "constant": false,
      "inputs": [
        {
          "name": "owner",
          "type": "address"
        },
        {
          "name": "newOwner",
          "type": "address"
        }
      ],
      "name": "replaceOwner",
      "outputs": [],
      "payable": false,
      "stateMutability": "nonpayable",
      "type": "function"
    },
    {
      "constant": false,
      "inputs": [
        {
          "name": "transactionId",
          "type": "uint256"
        }
      ],
      "name": "executeTransaction",
      "outputs": [],
      "payable": false,
      "stateMutability": "nonpayable",
      "type": "function"
    },
    {
      "inputs": [
        {
          "name": "_owners",
          "type": "address[]"
        },
        {
          "name": "_assetProxyContracts",
          "type": "address[]"
        },
        {
          "name": "_required",
          "type": "uint256"
        },
        {
          "name": "_secondsTimeLocked",
          "type": "uint256"
        }
      ],
      "payable": false,
      "stateMutability": "nonpayable",
      "type": "constructor"
    },
    {
      "payable": true,
      "stateMutability": "payable",
      "type": "fallback"
    },
    {
      "anonymous": false,
      "inputs": [
        {
          "indexed": false,
          "name": "assetProxyContract",
          "type": "address"
        },
        {
          "indexed": false,
          "name": "isRegistered",
          "type": "bool"
        }
      ],
      "name": "AssetProxyRegistration",
      "type": "event"
    },
    {
      "anonymous": false,
      "inputs": [
        {
          "indexed": true,
          "name": "transactionId",
          "type": "uint256"
        },
        {
          "indexed": false,
          "name": "confirmationTime",
          "type": "uint256"
        }
      ],
      "name": "ConfirmationTimeSet",
      "type": "event"
    },
    {
      "anonymous": false,
      "inputs": [
        {
          "indexed": false,
          "name": "secondsTimeLocked",
          "type": "uint256"
        }
      ],
      "name": "TimeLockChange",
      "type": "event"
    },
    {
      "anonymous": false,
      "inputs": [
        {
          "indexed": true,
          "name": "sender",
          "type": "address"
        },
        {
          "indexed": true,
          "name": "transactionId",
          "type": "uint256"
        }
      ],
      "name": "Confirmation",
      "type": "event"
    },
    {
      "anonymous": false,
      "inputs": [
        {
          "indexed": true,
          "name": "sender",
          "type": "address"
        },
        {
          "indexed": true,
          "name": "transactionId",
          "type": "uint256"
        }
      ],
      "name": "Revocation",
      "type": "event"
    },
    {
      "anonymous": false,
      "inputs": [
        {
          "indexed": true,
          "name": "transactionId",
          "type": "uint256"
        }
      ],
      "name": "Submission",
      "type": "event"
    },
    {
      "anonymous": false,
      "inputs": [
        {
          "indexed": true,
          "name": "transactionId",
          "type": "uint256"
        }
      ],
      "name": "Execution",
      "type": "event"
    },
    {
      "anonymous": false,
      "inputs": [
        {
          "indexed": true,
          "name": "transactionId",
          "type": "uint256"
        }
      ],
      "name": "ExecutionFailure",
      "type": "event"
    },
    {
      "anonymous": false,
      "inputs": [
        {
          "indexed": true,
          "name": "sender",
          "type": "address"
        },
        {
          "indexed": false,
          "name": "value",
          "type": "uint256"
        }
      ],
      "name": "Deposit",
      "type": "event"
    },
    {
      "anonymous": false,
      "inputs": [
        {
          "indexed": true,
          "name": "owner",
          "type": "address"
        }
      ],
      "name": "OwnerAddition",
      "type": "event"
    },
    {
      "anonymous": false,
      "inputs": [
        {
          "indexed": true,
          "name": "owner",
          "type": "address"
        }
      ],
      "name": "OwnerRemoval",
      "type": "event"
    },
    {
      "anonymous": false,
      "inputs": [
        {
          "indexed": false,
          "name": "required",
          "type": "uint256"
        }
      ],
      "name": "RequirementChange",
      "type": "event"
    },
    {
      "constant": false,
      "inputs": [
        {
          "name": "assetProxyContract",
          "type": "address"
        },
        {
          "name": "isRegistered",
          "type": "bool"
        }
      ],
      "name": "registerAssetProxy",
      "outputs": [],
      "payable": false,
      "stateMutability": "nonpayable",
      "type": "function"
    },
    {
      "constant": false,
      "inputs": [
        {
          "name": "transactionId",
          "type": "uint256"
        }
      ],
      "name": "executeRemoveAuthorizedAddressAtIndex",
      "outputs": [],
      "payable": false,
      "stateMutability": "nonpayable",
      "type": "function"
    }
  ],
  "bytecode": "0x60806040523480156200001157600080fd5b50604051620030cb380380620030cb833981018060405281019080805182019291906020018051820192919060200180519060200190929190805190602001909291905050506000808584848282600082518260328211158015620000765750818111155b801562000084575060008114155b801562000092575060008214155b15156200009e57600080fd5b600092505b8451831015620001d957600260008685815181101515620000c057fe5b9060200190602002015173ffffffffffffffffffffffffffffffffffffffff1673ffffffffffffffffffffffffffffffffffffffff16815260200190815260200160002060009054906101000a900460ff161580156200014f5750600085848151811015156200012c57fe5b9060200190602002015173ffffffffffffffffffffffffffffffffffffffff1614155b15156200015b57600080fd5b60016002600087868151811015156200017057fe5b9060200190602002015173ffffffffffffffffffffffffffffffffffffffff1673ffffffffffffffffffffffffffffffffffffffff16815260200190815260200160002060006101000a81548160ff0219169083151502179055508280600101935050620000a3565b8460039080519060200190620001f19291906200034a565b5083600481905550505050505080600681905550505050600091505b84518210156200033e5784828151811015156200022657fe5b906020019060200201519050600073ffffffffffffffffffffffffffffffffffffffff168173ffffffffffffffffffffffffffffffffffffffff1614151515620002d8576040517f08c379a00000000000000000000000000000000000000000000000000000000081526004018080602001828103825260138152602001807f494e56414c49445f41535345545f50524f58590000000000000000000000000081525060200191505060405180910390fd5b6001600860008373ffffffffffffffffffffffffffffffffffffffff1673ffffffffffffffffffffffffffffffffffffffff16815260200190815260200160002060006101000a81548160ff02191690831515021790555081806001019250506200020d565b5050505050506200041f565b828054828255906000526020600020908101928215620003c6579160200282015b82811115620003c55782518260006101000a81548173ffffffffffffffffffffffffffffffffffffffff021916908373ffffffffffffffffffffffffffffffffffffffff160217905550916020019190600101906200036b565b5b509050620003d59190620003d9565b5090565b6200041c91905b808211156200041857600081816101000a81549073ffffffffffffffffffffffffffffffffffffffff021916905550600101620003e0565b5090565b90565b612c9c806200042f6000396000f30060806040526004361061015f576000357c0100000000000000000000000000000000000000000000000000000000900463ffffffff168063025e7c27146101b9578063173825d91461022657806320ea8d86146102695780632f54bf6e146102965780633411c81c146102f15780633589b35c1461035657806337bd78a01461038357806354741525146103ae5780635a1a66af146103fd5780637065cb481461044c578063784547a71461048f5780637ad28c51146104d457806383250f79146105015780638b51d13f1461055c5780639ace38c21461059d578063a0e67e2b14610688578063a8abe69a146106f4578063b5dc40c314610798578063b77bf6001461081a578063ba51a6df14610845578063c01a8c8414610872578063c64274741461089f578063d38f2d8214610946578063d74f8edd14610987578063dc8452cd146109b2578063e20056e6146109dd578063ee22610b14610a40575b60003411156101b7573373ffffffffffffffffffffffffffffffffffffffff167fe1fffcc4923d04b559f4d29a8bfc6cda04eb5b0d3c460751c2402c5c5cc9109c346040518082815260200191505060405180910390a25b005b3480156101c557600080fd5b506101e460048036038101908080359060200190929190505050610a6d565b604051808273ffffffffffffffffffffffffffffffffffffffff1673ffffffffffffffffffffffffffffffffffffffff16815260200191505060405180910390f35b34801561023257600080fd5b50610267600480360381019080803573ffffffffffffffffffffffffffffffffffffffff169060200190929190505050610aab565b005b34801561027557600080fd5b5061029460048036038101908080359060200190929190505050610d44565b005b3480156102a257600080fd5b506102d7600480360381019080803573ffffffffffffffffffffffffffffffffffffffff169060200190929190505050610eec565b604051808215151515815260200191505060405180910390f35b3480156102fd57600080fd5b5061033c60048036038101908080359060200190929190803573ffffffffffffffffffffffffffffffffffffffff169060200190929190505050610f0c565b604051808215151515815260200191505060405180910390f35b34801561036257600080fd5b5061038160048036038101908080359060200190929190505050610f3b565b005b34801561038f57600080fd5b50610398611449565b6040518082815260200191505060405180910390f35b3480156103ba57600080fd5b506103e760048036038101908080351515906020019092919080351515906020019092919050505061144f565b6040518082815260200191505060405180910390f35b34801561040957600080fd5b5061044a600480360381019080803573ffffffffffffffffffffffffffffffffffffffff1690602001909291908035151590602001909291905050506114e1565b005b34801561045857600080fd5b5061048d600480360381019080803573ffffffffffffffffffffffffffffffffffffffff16906020019092919050505061160d565b005b34801561049b57600080fd5b506104ba60048036038101908080359060200190929190505050611812565b604051808215151515815260200191505060405180910390f35b3480156104e057600080fd5b506104ff600480360381019080803590602001909291905050506118f7565b005b34801561050d57600080fd5b50610542600480360381019080803573ffffffffffffffffffffffffffffffffffffffff169060200190929190505050611972565b604051808215151515815260200191505060405180910390f35b34801561056857600080fd5b5061058760048036038101908080359060200190929190505050611992565b6040518082815260200191505060405180910390f35b3480156105a957600080fd5b506105c860048036038101908080359060200190929190505050611a5d565b604051808573ffffffffffffffffffffffffffffffffffffffff1673ffffffffffffffffffffffffffffffffffffffff1681526020018481526020018060200183151515158152602001828103825284818151815260200191508051906020019080838360005b8381101561064a57808201518184015260208101905061062f565b50505050905090810190601f1680156106775780820380516001836020036101000a031916815260200191505b509550505050505060405180910390f35b34801561069457600080fd5b5061069d611b52565b6040518080602001828103825283818151815260200191508051906020019060200280838360005b838110156106e05780820151818401526020810190506106c5565b505050509050019250505060405180910390f35b34801561070057600080fd5b506107416004803603810190808035906020019092919080359060200190929190803515159060200190929190803515159060200190929190505050611be0565b6040518080602001828103825283818151815260200191508051906020019060200280838360005b83811015610784578082015181840152602081019050610769565b505050509050019250505060405180910390f35b3480156107a457600080fd5b506107c360048036038101908080359060200190929190505050611d51565b6040518080602001828103825283818151815260200191508051906020019060200280838360005b838110156108065780820151818401526020810190506107eb565b505050509050019250505060405180910390f35b34801561082657600080fd5b5061082f611f8e565b6040518082815260200191505060405180910390f35b34801561085157600080fd5b5061087060048036038101908080359060200190929190505050611f94565b005b34801561087e57600080fd5b5061089d6004803603810190808035906020019092919050505061204e565b005b3480156108ab57600080fd5b50610930600480360381019080803573ffffffffffffffffffffffffffffffffffffffff16906020019092919080359060200190929190803590602001908201803590602001908080601f01602080910402602001604051908101604052809392919081815260200183838082843782019150505050505091929192905050506122bb565b6040518082815260200191505060405180910390f35b34801561095257600080fd5b50610971600480360381019080803590602001909291905050506122da565b6040518082815260200191505060405180910390f35b34801561099357600080fd5b5061099c6122f2565b6040518082815260200191505060405180910390f35b3480156109be57600080fd5b506109c76122f7565b6040518082815260200191505060405180910390f35b3480156109e957600080fd5b50610a3e600480360381019080803573ffffffffffffffffffffffffffffffffffffffff169060200190929190803573ffffffffffffffffffffffffffffffffffffffff1690602001909291905050506122fd565b005b348015610a4c57600080fd5b50610a6b60048036038101908080359060200190929190505050612612565b005b600381815481101515610a7c57fe5b906000526020600020016000915054906101000a900473ffffffffffffffffffffffffffffffffffffffff1681565b60003073ffffffffffffffffffffffffffffffffffffffff163373ffffffffffffffffffffffffffffffffffffffff16141515610ae757600080fd5b81600260008273ffffffffffffffffffffffffffffffffffffffff1673ffffffffffffffffffffffffffffffffffffffff16815260200190815260200160002060009054906101000a900460ff161515610b4057600080fd5b6000600260008573ffffffffffffffffffffffffffffffffffffffff1673ffffffffffffffffffffffffffffffffffffffff16815260200190815260200160002060006101000a81548160ff021916908315150217905550600091505b600160038054905003821015610cc5578273ffffffffffffffffffffffffffffffffffffffff16600383815481101515610bd357fe5b9060005260206000200160009054906101000a900473ffffffffffffffffffffffffffffffffffffffff1673ffffffffffffffffffffffffffffffffffffffff161415610cb8576003600160038054905003815481101515610c3157fe5b9060005260206000200160009054906101000a900473ffffffffffffffffffffffffffffffffffffffff16600383815481101515610c6b57fe5b9060005260206000200160006101000a81548173ffffffffffffffffffffffffffffffffffffffff021916908373ffffffffffffffffffffffffffffffffffffffff160217905550610cc5565b8180600101925050610b9d565b6001600381818054905003915081610cdd9190612b9f565b506003805490506004541115610cfc57610cfb600380549050611f94565b5b8273ffffffffffffffffffffffffffffffffffffffff167f8001553a916ef2f495d26a907cc54d96ed840d7bda71e73194bf5a9df7a76b9060405160405180910390a2505050565b33600260008273ffffffffffffffffffffffffffffffffffffffff1673ffffffffffffffffffffffffffffffffffffffff16815260200190815260200160002060009054906101000a900460ff161515610d9d57600080fd5b81336001600083815260200190815260200160002060008273ffffffffffffffffffffffffffffffffffffffff1673ffffffffffffffffffffffffffffffffffffffff16815260200190815260200160002060009054906101000a900460ff161515610e0857600080fd5b8360008082815260200190815260200160002060030160009054906101000a900460ff16151515610e3857600080fd5b60006001600087815260200190815260200160002060003373ffffffffffffffffffffffffffffffffffffffff1673ffffffffffffffffffffffffffffffffffffffff16815260200190815260200160002060006101000a81548160ff021916908315150217905550843373ffffffffffffffffffffffffffffffffffffffff167ff6a317157440607f36269043eb55f1287a5a19ba2216afeab88cd46cbcfb88e960405160405180910390a35050505050565b60026020528060005260406000206000915054906101000a900460ff1681565b60016020528160005260406000206020528060005260406000206000915091509054906101000a900460ff1681565b60008160008082815260200190815260200160002060030160009054906101000a900460ff16151515610f6d57600080fd5b82610f7781611812565b1515610feb576040517f08c379a00000000000000000000000000000000000000000000000000000000081526004018080602001828103825260168152602001807f54585f4e4f545f46554c4c595f434f4e4649524d45440000000000000000000081525060200191505060405180910390fd5b8360008060008381526020019081526020016000209050600860008260000160009054906101000a900473ffffffffffffffffffffffffffffffffffffffff1673ffffffffffffffffffffffffffffffffffffffff1673ffffffffffffffffffffffffffffffffffffffff16815260200190815260200160002060009054906101000a900460ff1615156110e7576040517f08c379a00000000000000000000000000000000000000000000000000000000081526004018080602001828103825260188152602001807f554e524547495354455245445f41535345545f50524f5859000000000000000081525060200191505060405180910390fd5b60405180807f72656d6f7665417574686f72697a6564416464726573734174496e646578286181526020017f6464726573732c75696e74323536290000000000000000000000000000000000815250602f01905060405180910390207bffffffffffffffffffffffffffffffffffffffffffffffffffffffff19166112126000836002018054600181600116156101000203166002900480601f0160208091040260200160405190810160405280929190818152602001828054600181600116156101000203166002900480156111ff5780601f106111d4576101008083540402835291602001916111ff565b820191906000526020600020905b8154815290600101906020018083116111e257829003601f168201915b50505050506128f490919063ffffffff16565b7bffffffffffffffffffffffffffffffffffffffffffffffffffffffff19161415156112a6576040517f08c379a00000000000000000000000000000000000000000000000000000000081526004018080602001828103825260198152602001807f494e56414c49445f46554e4354494f4e5f53454c4543544f520000000000000081525060200191505060405180910390fd5b600080878152602001908152602001600020945060018560030160006101000a81548160ff0219169083151502179055506113bf8560000160009054906101000a900473ffffffffffffffffffffffffffffffffffffffff16866001015487600201805460018160011615610100020316600290049050886002018054600181600116156101000203166002900480601f0160208091040260200160405190810160405280929190818152602001828054600181600116156101000203166002900480156113b55780601f1061138a576101008083540402835291602001916113b5565b820191906000526020600020905b81548152906001019060200180831161139857829003601f168201915b50505050506129d2565b156113f657857f33e13ecb54c3076d8e8bb8c2881800a4d972b792045ffae98fdf46df365fed7560405160405180910390a2611441565b857f526441bb6c1aba3c9a4a6ca1d6545da9c2333c8c48343ef398eb858d72b7923660405160405180910390a260008560030160006101000a81548160ff0219169083151502179055505b505050505050565b60065481565b600080600090505b6005548110156114da5783801561148e575060008082815260200190815260200160002060030160009054906101000a900460ff16155b806114c157508280156114c0575060008082815260200190815260200160002060030160009054906101000a900460ff165b5b156114cd576001820191505b8080600101915050611457565b5092915050565b3073ffffffffffffffffffffffffffffffffffffffff163373ffffffffffffffffffffffffffffffffffffffff1614151561151b57600080fd5b8160008173ffffffffffffffffffffffffffffffffffffffff161415151561154257600080fd5b81600860008573ffffffffffffffffffffffffffffffffffffffff1673ffffffffffffffffffffffffffffffffffffffff16815260200190815260200160002060006101000a81548160ff0219169083151502179055507fdaef8ff7dc66c5e34eb9c338aab679d9f427f89868d9228494455a4d982eb2b08383604051808373ffffffffffffffffffffffffffffffffffffffff1673ffffffffffffffffffffffffffffffffffffffff168152602001821515151581526020019250505060405180910390a1505050565b3073ffffffffffffffffffffffffffffffffffffffff163373ffffffffffffffffffffffffffffffffffffffff1614151561164757600080fd5b80600260008273ffffffffffffffffffffffffffffffffffffffff1673ffffffffffffffffffffffffffffffffffffffff16815260200190815260200160002060009054906101000a900460ff161515156116a157600080fd5b8160008173ffffffffffffffffffffffffffffffffffffffff16141515156116c857600080fd5b600160038054905001600454603282111580156116e55750818111155b80156116f2575060008114155b80156116ff575060008214155b151561170a57600080fd5b6001600260008773ffffffffffffffffffffffffffffffffffffffff1673ffffffffffffffffffffffffffffffffffffffff16815260200190815260200160002060006101000a81548160ff02191690831515021790555060038590806001815401808255809150509060018203906000526020600020016000909192909190916101000a81548173ffffffffffffffffffffffffffffffffffffffff021916908373ffffffffffffffffffffffffffffffffffffffff160217905550508473ffffffffffffffffffffffffffffffffffffffff167ff39e6e1eb0edcf53c221607b54b00cd28f3196fed0a24994dc308b8f611b682d60405160405180910390a25050505050565b6000806000809150600090505b6003805490508110156118ef5760016000858152602001908152602001600020600060038381548110151561185057fe5b9060005260206000200160009054906101000a900473ffffffffffffffffffffffffffffffffffffffff1673ffffffffffffffffffffffffffffffffffffffff1673ffffffffffffffffffffffffffffffffffffffff16815260200190815260200160002060009054906101000a900460ff16156118cf576001820191505b6004548214156118e257600192506118f0565b808060010191505061181f565b5b5050919050565b3073ffffffffffffffffffffffffffffffffffffffff163373ffffffffffffffffffffffffffffffffffffffff1614151561193157600080fd5b806006819055507fd1c9101a34feff75cccef14a28785a0279cb0b49c1f321f21f5f422e746b4377816040518082815260200191505060405180910390a150565b60086020528060005260406000206000915054906101000a900460ff1681565b600080600090505b600380549050811015611a57576001600084815260200190815260200160002060006003838154811015156119cb57fe5b9060005260206000200160009054906101000a900473ffffffffffffffffffffffffffffffffffffffff1673ffffffffffffffffffffffffffffffffffffffff1673ffffffffffffffffffffffffffffffffffffffff16815260200190815260200160002060009054906101000a900460ff1615611a4a576001820191505b808060010191505061199a565b50919050565b60006020528060005260406000206000915090508060000160009054906101000a900473ffffffffffffffffffffffffffffffffffffffff1690806001015490806002018054600181600116156101000203166002900480601f016020809104026020016040519081016040528092919081815260200182805460018160011615610100020316600290048015611b355780601f10611b0a57610100808354040283529160200191611b35565b820191906000526020600020905b815481529060010190602001808311611b1857829003601f168201915b5050505050908060030160009054906101000a900460ff16905084565b60606003805480602002602001604051908101604052809291908181526020018280548015611bd657602002820191906000526020600020905b8160009054906101000a900473ffffffffffffffffffffffffffffffffffffffff1673ffffffffffffffffffffffffffffffffffffffff1681526020019060010190808311611b8c575b5050505050905090565b606080600080600554604051908082528060200260200182016040528015611c175781602001602082028038833980820191505090505b50925060009150600090505b600554811015611cc357858015611c5a575060008082815260200190815260200160002060030160009054906101000a900460ff16155b80611c8d5750848015611c8c575060008082815260200190815260200160002060030160009054906101000a900460ff165b5b15611cb657808383815181101515611ca157fe5b90602001906020020181815250506001820191505b8080600101915050611c23565b878703604051908082528060200260200182016040528015611cf45781602001602082028038833980820191505090505b5093508790505b86811015611d46578281815181101515611d1157fe5b9060200190602002015184898303815181101515611d2b57fe5b90602001906020020181815250508080600101915050611cfb565b505050949350505050565b606080600080600380549050604051908082528060200260200182016040528015611d8b5781602001602082028038833980820191505090505b50925060009150600090505b600380549050811015611ed857600160008681526020019081526020016000206000600383815481101515611dc857fe5b9060005260206000200160009054906101000a900473ffffffffffffffffffffffffffffffffffffffff1673ffffffffffffffffffffffffffffffffffffffff1673ffffffffffffffffffffffffffffffffffffffff16815260200190815260200160002060009054906101000a900460ff1615611ecb57600381815481101515611e4f57fe5b9060005260206000200160009054906101000a900473ffffffffffffffffffffffffffffffffffffffff168383815181101515611e8857fe5b9060200190602002019073ffffffffffffffffffffffffffffffffffffffff16908173ffffffffffffffffffffffffffffffffffffffff16815250506001820191505b8080600101915050611d97565b81604051908082528060200260200182016040528015611f075781602001602082028038833980820191505090505b509350600090505b81811015611f86578281815181101515611f2557fe5b906020019060200201518482815181101515611f3d57fe5b9060200190602002019073ffffffffffffffffffffffffffffffffffffffff16908173ffffffffffffffffffffffffffffffffffffffff16815250508080600101915050611f0f565b505050919050565b60055481565b3073ffffffffffffffffffffffffffffffffffffffff163373ffffffffffffffffffffffffffffffffffffffff16141515611fce57600080fd5b6003805490508160328211158015611fe65750818111155b8015611ff3575060008114155b8015612000575060008214155b151561200b57600080fd5b826004819055507fa3f1ee9126a074d9326c682f561767f710e927faa811f7a99829d49dc421797a836040518082815260200191505060405180910390a1505050565b33600260008273ffffffffffffffffffffffffffffffffffffffff1673ffffffffffffffffffffffffffffffffffffffff16815260200190815260200160002060009054906101000a900460ff1615156120a757600080fd5b81600080600083815260200190815260200160002060000160009054906101000a900473ffffffffffffffffffffffffffffffffffffffff1673ffffffffffffffffffffffffffffffffffffffff161415151561210357600080fd5b82336001600083815260200190815260200160002060008273ffffffffffffffffffffffffffffffffffffffff1673ffffffffffffffffffffffffffffffffffffffff16815260200190815260200160002060009054906101000a900460ff1615151561216f57600080fd5b8461217981611812565b1515156121ee576040517f08c379a00000000000000000000000000000000000000000000000000000000081526004018080602001828103825260128152602001807f54585f46554c4c595f434f4e4649524d4544000000000000000000000000000081525060200191505060405180910390fd5b600180600088815260200190815260200160002060003373ffffffffffffffffffffffffffffffffffffffff1673ffffffffffffffffffffffffffffffffffffffff16815260200190815260200160002060006101000a81548160ff021916908315150217905550853373ffffffffffffffffffffffffffffffffffffffff167f4a504a94899432a9846e1aa406dceb1bcfd538bb839071d49d1e5e23f5be30ef60405160405180910390a36122a386611812565b156122b3576122b286426129f9565b5b505050505050565b60006122c8848484612a4d565b90506122d38161204e565b9392505050565b60076020528060005260406000206000915090505481565b603281565b60045481565b60003073ffffffffffffffffffffffffffffffffffffffff163373ffffffffffffffffffffffffffffffffffffffff1614151561233957600080fd5b82600260008273ffffffffffffffffffffffffffffffffffffffff1673ffffffffffffffffffffffffffffffffffffffff16815260200190815260200160002060009054906101000a900460ff16151561239257600080fd5b82600260008273ffffffffffffffffffffffffffffffffffffffff1673ffffffffffffffffffffffffffffffffffffffff16815260200190815260200160002060009054906101000a900460ff161515156123ec57600080fd5b600092505b6003805490508310156124d5578473ffffffffffffffffffffffffffffffffffffffff1660038481548110151561242457fe5b9060005260206000200160009054906101000a900473ffffffffffffffffffffffffffffffffffffffff1673ffffffffffffffffffffffffffffffffffffffff1614156124c8578360038481548110151561247b57fe5b9060005260206000200160006101000a81548173ffffffffffffffffffffffffffffffffffffffff021916908373ffffffffffffffffffffffffffffffffffffffff1602179055506124d5565b82806001019350506123f1565b6000600260008773ffffffffffffffffffffffffffffffffffffffff1673ffffffffffffffffffffffffffffffffffffffff16815260200190815260200160002060006101000a81548160ff0219169083151502179055506001600260008673ffffffffffffffffffffffffffffffffffffffff1673ffffffffffffffffffffffffffffffffffffffff16815260200190815260200160002060006101000a81548160ff0219169083151502179055508473ffffffffffffffffffffffffffffffffffffffff167f8001553a916ef2f495d26a907cc54d96ed840d7bda71e73194bf5a9df7a76b9060405160405180910390a28373ffffffffffffffffffffffffffffffffffffffff167ff39e6e1eb0edcf53c221607b54b00cd28f3196fed0a24994dc308b8f611b682d60405160405180910390a25050505050565b60008160008082815260200190815260200160002060030160009054906101000a900460ff1615151561264457600080fd5b8261264e81611812565b15156126c2576040517f08c379a00000000000000000000000000000000000000000000000000000000081526004018080602001828103825260168152602001807f54585f4e4f545f46554c4c595f434f4e4649524d45440000000000000000000081525060200191505060405180910390fd5b836006546007600083815260200190815260200160002054014210151515612752576040517f08c379a00000000000000000000000000000000000000000000000000000000081526004018080602001828103825260148152602001807f54494d455f4c4f434b5f494e434f4d504c45544500000000000000000000000081525060200191505060405180910390fd5b600080868152602001908152602001600020935060018460030160006101000a81548160ff02191690831515021790555061286b8460000160009054906101000a900473ffffffffffffffffffffffffffffffffffffffff16856001015486600201805460018160011615610100020316600290049050876002018054600181600116156101000203166002900480601f0160208091040260200160405190810160405280929190818152602001828054600181600116156101000203166002900480156128615780601f1061283657610100808354040283529160200191612861565b820191906000526020600020905b81548152906001019060200180831161284457829003601f168201915b50505050506129d2565b156128a257847f33e13ecb54c3076d8e8bb8c2881800a4d972b792045ffae98fdf46df365fed7560405160405180910390a26128ed565b847f526441bb6c1aba3c9a4a6ca1d6545da9c2333c8c48343ef398eb858d72b7923660405160405180910390a260008460030160006101000a81548160ff0219169083151502179055505b5050505050565b600060048201835110151515612998576040517f08c379a00000000000000000000000000000000000000000000000000000000081526004018080602001828103825260258152602001807f475245415445525f4f525f455155414c5f544f5f345f4c454e4754485f52455181526020017f554952454400000000000000000000000000000000000000000000000000000081525060400191505060405180910390fd5b6020820191508183015190507fffffffff000000000000000000000000000000000000000000000000000000008116905080905092915050565b6000806040516020840160008287838a8c6187965a03f19250505080915050949350505050565b806007600084815260200190815260200160002081905550817f0b237afe65f1514fd7ea3f923ea4fe792bdd07000a912b6cd1602a8e7f573c8d826040518082815260200191505060405180910390a25050565b60008360008173ffffffffffffffffffffffffffffffffffffffff1614151515612a7657600080fd5b60055491506080604051908101604052808673ffffffffffffffffffffffffffffffffffffffff1681526020018581526020018481526020016000151581525060008084815260200190815260200160002060008201518160000160006101000a81548173ffffffffffffffffffffffffffffffffffffffff021916908373ffffffffffffffffffffffffffffffffffffffff160217905550602082015181600101556040820151816002019080519060200190612b35929190612bcb565b5060608201518160030160006101000a81548160ff0219169083151502179055509050506001600560008282540192505081905550817fc0ba8fe4b176c1714197d43b9cc6bcf797a4a7461c5fe8d0ef6e184ae7601e5160405160405180910390a2509392505050565b815481835581811115612bc657818360005260206000209182019101612bc59190612c4b565b5b505050565b828054600181600116156101000203166002900490600052602060002090601f016020900481019282601f10612c0c57805160ff1916838001178555612c3a565b82800160010185558215612c3a579182015b82811115612c39578251825591602001919060010190612c1e565b5b509050612c479190612c4b565b5090565b612c6d91905b80821115612c69576000816000905550600101612c51565b5090565b905600a165627a7a72305820de37ccd518933dc506a3c788240fd08620523cdcce1b01f1ff8459f8215d85b20029",
  "source": "/*\n\n  Copyright 2018 ZeroEx Intl.\n\n  Licensed under the Apache License, Version 2.0 (the \"License\");\n  you may not use this file except in compliance with the License.\n  You may obtain a copy of the License at\n\n    http://www.apache.org/licenses/LICENSE-2.0\n\n  Unless required by applicable law or agreed to in writing, software\n  distributed under the License is distributed on an \"AS IS\" BASIS,\n  WITHOUT WARRANTIES OR CONDITIONS OF ANY KIND, either express or implied.\n  See the License for the specific language governing permissions and\n  limitations under the License.\n\n*/\n\npragma solidity 0.4.24;\n\nimport \"../../multisig/MultiSigWalletWithTimeLock.sol\";\nimport \"../../utils/LibBytes/LibBytes.sol\";\n\n\ncontract AssetProxyOwner is\n    MultiSigWalletWithTimeLock\n{\n    using LibBytes for bytes;\n\n    event AssetProxyRegistration(address assetProxyContract, bool isRegistered);\n\n    // Mapping of AssetProxy contract address =>\n    // if this contract is allowed to call the AssetProxy's `removeAuthorizedAddressAtIndex` method without a time lock.\n    mapping (address => bool) public isAssetProxyRegistered;\n\n    bytes4 constant internal REMOVE_AUTHORIZED_ADDRESS_AT_INDEX_SELECTOR = bytes4(keccak256(\"removeAuthorizedAddressAtIndex(address,uint256)\"));\n\n    /// @dev Function will revert if the transaction does not call `removeAuthorizedAddressAtIndex`\n    ///      on an approved AssetProxy contract.\n    modifier validRemoveAuthorizedAddressAtIndexTx(uint256 transactionId) {\n        Transaction storage txn = transactions[transactionId];\n        require(\n            isAssetProxyRegistered[txn.destination],\n            \"UNREGISTERED_ASSET_PROXY\"\n        );\n        require(\n            txn.data.readBytes4(0) == REMOVE_AUTHORIZED_ADDRESS_AT_INDEX_SELECTOR,\n            \"INVALID_FUNCTION_SELECTOR\"\n        );\n        _;\n    }\n\n    /// @dev Contract constructor sets initial owners, required number of confirmations,\n    ///      time lock, and list of AssetProxy addresses.\n    /// @param _owners List of initial owners.\n    /// @param _assetProxyContracts Array of AssetProxy contract addresses.\n    /// @param _required Number of required confirmations.\n    /// @param _secondsTimeLocked Duration needed after a transaction is confirmed and before it becomes executable, in seconds.\n    constructor (\n        address[] memory _owners,\n        address[] memory _assetProxyContracts,\n        uint256 _required,\n        uint256 _secondsTimeLocked\n    )\n        public\n        MultiSigWalletWithTimeLock(_owners, _required, _secondsTimeLocked)\n    {\n        for (uint256 i = 0; i < _assetProxyContracts.length; i++) {\n            address assetProxy = _assetProxyContracts[i];\n            require(\n                assetProxy != address(0),\n                \"INVALID_ASSET_PROXY\"\n            );\n            isAssetProxyRegistered[assetProxy] = true;\n        }\n    }\n\n    /// @dev Registers or deregisters an AssetProxy to be able to execute\n    ///      `removeAuthorizedAddressAtIndex` without a timelock.\n    /// @param assetProxyContract Address of AssetProxy contract.\n    /// @param isRegistered Status of approval for AssetProxy contract.\n    function registerAssetProxy(address assetProxyContract, bool isRegistered)\n        public\n        onlyWallet\n        notNull(assetProxyContract)\n    {\n        isAssetProxyRegistered[assetProxyContract] = isRegistered;\n        emit AssetProxyRegistration(assetProxyContract, isRegistered);\n    }\n\n    /// @dev Allows execution of `removeAuthorizedAddressAtIndex` without time lock.\n    /// @param transactionId Transaction ID.\n    function executeRemoveAuthorizedAddressAtIndex(uint256 transactionId)\n        public\n        notExecuted(transactionId)\n        fullyConfirmed(transactionId)\n        validRemoveAuthorizedAddressAtIndexTx(transactionId)\n    {\n        Transaction storage txn = transactions[transactionId];\n        txn.executed = true;\n        if (external_call(txn.destination, txn.value, txn.data.length, txn.data)) {\n            emit Execution(transactionId);\n        } else {\n            emit ExecutionFailure(transactionId);\n            txn.executed = false;\n        }\n    }\n}\n",
  "sourcePath": "/Users/facu/Documents/Laburo/Spiking/Ethereum/0x/0x-monorepo/packages/contracts/contracts/2.0.0/protocol/AssetProxyOwner/AssetProxyOwner.sol",
  "compiler": {
    "name": "solc",
    "version": "0.4.24+commit.e67f0147.Emscripten.clang"
  },
  "schemaVersion": "2.0.1",
  "updatedAt": "2018-10-16T20:38:35.331Z"
}