{
  "contractName": "ERC721Proxy",
  "abi": [
    {
      "constant": false,
      "inputs": [
        {
          "name": "target",
          "type": "address"
        }
      ],
      "name": "addAuthorizedAddress",
      "outputs": [],
      "payable": false,
      "stateMutability": "nonpayable",
      "type": "function"
    },
    {
      "constant": true,
      "inputs": [
        {
          "name": "",
          "type": "uint256"
        }
      ],
      "name": "authorities",
      "outputs": [
        {
          "name": "",
          "type": "address"
        }
      ],
      "payable": false,
      "stateMutability": "view",
      "type": "function"
    },
    {
      "constant": false,
      "inputs": [
        {
          "name": "target",
          "type": "address"
        }
      ],
      "name": "removeAuthorizedAddress",
      "outputs": [],
      "payable": false,
      "stateMutability": "nonpayable",
      "type": "function"
    },
    {
      "constant": true,
      "inputs": [],
      "name": "owner",
      "outputs": [
        {
          "name": "",
          "type": "address"
        }
      ],
      "payable": false,
      "stateMutability": "view",
      "type": "function"
    },
    {
      "constant": false,
      "inputs": [
        {
          "name": "target",
          "type": "address"
        },
        {
          "name": "index",
          "type": "uint256"
        }
      ],
      "name": "removeAuthorizedAddressAtIndex",
      "outputs": [],
      "payable": false,
      "stateMutability": "nonpayable",
      "type": "function"
    },
    {
      "constant": true,
      "inputs": [
        {
          "name": "",
          "type": "address"
        }
      ],
      "name": "authorized",
      "outputs": [
        {
          "name": "",
          "type": "bool"
        }
      ],
      "payable": false,
      "stateMutability": "view",
      "type": "function"
    },
    {
      "constant": true,
      "inputs": [],
      "name": "getAuthorizedAddresses",
      "outputs": [
        {
          "name": "",
          "type": "address[]"
        }
      ],
      "payable": false,
      "stateMutability": "view",
      "type": "function"
    },
    {
      "constant": false,
      "inputs": [
        {
          "name": "newOwner",
          "type": "address"
        }
      ],
      "name": "transferOwnership",
      "outputs": [],
      "payable": false,
      "stateMutability": "nonpayable",
      "type": "function"
    },
    {
      "payable": false,
      "stateMutability": "nonpayable",
      "type": "fallback"
    },
    {
      "anonymous": false,
      "inputs": [
        {
          "indexed": true,
          "name": "target",
          "type": "address"
        },
        {
          "indexed": true,
          "name": "caller",
          "type": "address"
        }
      ],
      "name": "AuthorizedAddressAdded",
      "type": "event"
    },
    {
      "anonymous": false,
      "inputs": [
        {
          "indexed": true,
          "name": "target",
          "type": "address"
        },
        {
          "indexed": true,
          "name": "caller",
          "type": "address"
        }
      ],
      "name": "AuthorizedAddressRemoved",
      "type": "event"
    },
    {
      "constant": true,
      "inputs": [],
      "name": "getProxyId",
      "outputs": [
        {
          "name": "",
          "type": "bytes4"
        }
      ],
      "payable": false,
      "stateMutability": "pure",
      "type": "function"
    }
  ],
  "bytecode": "0x6080604052336000806101000a81548173ffffffffffffffffffffffffffffffffffffffff021916908373ffffffffffffffffffffffffffffffffffffffff16021790555061133c806100536000396000f300608060405260043610610099576000357c0100000000000000000000000000000000000000000000000000000000900463ffffffff16806342f1181e146102d6578063494503d41461031957806370712939146103865780638da5cb5b146103c95780639ad2674414610420578063ae25532e1461046d578063b9181611146104d6578063d39de6e914610531578063f2fde38b1461059d575b3480156100a557600080fd5b507fffffffff00000000000000000000000000000000000000000000000000000000600035167fa85e59e4000000000000000000000000000000000000000000000000000000008114156102d15760405173ffffffffffffffffffffffffffffffffffffffff331681526001602082015260408120541515610192577f08c379a0000000000000000000000000000000000000000000000000000000006000527c20000000000000000000000000000000000000000000000000000000006020527c1553454e4445525f4e4f545f415554484f52495a454400000000000000604052600060605260646000fd5b6001606435031561020e577f08c379a0000000000000000000000000000000000000000000000000000000006000527c20000000000000000000000000000000000000000000000000000000006020527c0e494e56414c49445f414d4f554e540000000000000000000000000000604052600060605260646000fd5b7f23b872dd000000000000000000000000000000000000000000000000000000006000526040602460043760043560206048820160443760288101356000806064600080855af1801561026057600080f35b7f08c379a0000000000000000000000000000000000000000000000000000000006000527c20000000000000000000000000000000000000000000000000000000006020527c0f5452414e534645525f4641494c454400000000000000000000000000604052600060605260646000fd5b600080fd5b3480156102e257600080fd5b50610317600480360381019080803573ffffffffffffffffffffffffffffffffffffffff1690602001909291905050506105e0565b005b34801561032557600080fd5b5061034460048036038101908080359060200190929190505050610880565b604051808273ffffffffffffffffffffffffffffffffffffffff1673ffffffffffffffffffffffffffffffffffffffff16815260200191505060405180910390f35b34801561039257600080fd5b506103c7600480360381019080803573ffffffffffffffffffffffffffffffffffffffff1690602001909291905050506108be565b005b3480156103d557600080fd5b506103de610c35565b604051808273ffffffffffffffffffffffffffffffffffffffff1673ffffffffffffffffffffffffffffffffffffffff16815260200191505060405180910390f35b34801561042c57600080fd5b5061046b600480360381019080803573ffffffffffffffffffffffffffffffffffffffff16906020019092919080359060200190929190505050610c5a565b005b34801561047957600080fd5b50610482611096565b60405180827bffffffffffffffffffffffffffffffffffffffffffffffffffffffff19167bffffffffffffffffffffffffffffffffffffffffffffffffffffffff1916815260200191505060405180910390f35b3480156104e257600080fd5b50610517600480360381019080803573ffffffffffffffffffffffffffffffffffffffff1690602001909291905050506110d3565b604051808215151515815260200191505060405180910390f35b34801561053d57600080fd5b506105466110f3565b6040518080602001828103825283818151815260200191508051906020019060200280838360005b8381101561058957808201518184015260208101905061056e565b505050509050019250505060405180910390f35b3480156105a957600080fd5b506105de600480360381019080803573ffffffffffffffffffffffffffffffffffffffff169060200190929190505050611181565b005b6000809054906101000a900473ffffffffffffffffffffffffffffffffffffffff1673ffffffffffffffffffffffffffffffffffffffff163373ffffffffffffffffffffffffffffffffffffffff161415156106a4576040517f08c379a00000000000000000000000000000000000000000000000000000000081526004018080602001828103825260138152602001807f4f4e4c595f434f4e54524143545f4f574e45520000000000000000000000000081525060200191505060405180910390fd5b600160008273ffffffffffffffffffffffffffffffffffffffff1673ffffffffffffffffffffffffffffffffffffffff16815260200190815260200160002060009054906101000a900460ff16151515610766576040517f08c379a00000000000000000000000000000000000000000000000000000000081526004018080602001828103825260198152602001807f5441524745545f414c52454144595f415554484f52495a45440000000000000081525060200191505060405180910390fd5b60018060008373ffffffffffffffffffffffffffffffffffffffff1673ffffffffffffffffffffffffffffffffffffffff16815260200190815260200160002060006101000a81548160ff02191690831515021790555060028190806001815401808255809150509060018203906000526020600020016000909192909190916101000a81548173ffffffffffffffffffffffffffffffffffffffff021916908373ffffffffffffffffffffffffffffffffffffffff160217905550503373ffffffffffffffffffffffffffffffffffffffff168173ffffffffffffffffffffffffffffffffffffffff167f3147867c59d17e8fa9d522465651d44aae0a9e38f902f3475b97e58072f0ed4c60405160405180910390a350565b60028181548110151561088f57fe5b906000526020600020016000915054906101000a900473ffffffffffffffffffffffffffffffffffffffff1681565b60008060009054906101000a900473ffffffffffffffffffffffffffffffffffffffff1673ffffffffffffffffffffffffffffffffffffffff163373ffffffffffffffffffffffffffffffffffffffff16141515610984576040517f08c379a00000000000000000000000000000000000000000000000000000000081526004018080602001828103825260138152602001807f4f4e4c595f434f4e54524143545f4f574e45520000000000000000000000000081525060200191505060405180910390fd5b600160008373ffffffffffffffffffffffffffffffffffffffff1673ffffffffffffffffffffffffffffffffffffffff16815260200190815260200160002060009054906101000a900460ff161515610a45576040517f08c379a00000000000000000000000000000000000000000000000000000000081526004018080602001828103825260158152602001807f5441524745545f4e4f545f415554484f52495a4544000000000000000000000081525060200191505060405180910390fd5b600160008373ffffffffffffffffffffffffffffffffffffffff1673ffffffffffffffffffffffffffffffffffffffff16815260200190815260200160002060006101000a81549060ff0219169055600090505b600280549050811015610bd7578173ffffffffffffffffffffffffffffffffffffffff16600282815481101515610acc57fe5b9060005260206000200160009054906101000a900473ffffffffffffffffffffffffffffffffffffffff1673ffffffffffffffffffffffffffffffffffffffff161415610bca576002600160028054905003815481101515610b2a57fe5b9060005260206000200160009054906101000a900473ffffffffffffffffffffffffffffffffffffffff16600282815481101515610b6457fe5b9060005260206000200160006101000a81548173ffffffffffffffffffffffffffffffffffffffff021916908373ffffffffffffffffffffffffffffffffffffffff1602179055506001600281818054905003915081610bc491906112bf565b50610bd7565b8080600101915050610a99565b3373ffffffffffffffffffffffffffffffffffffffff168273ffffffffffffffffffffffffffffffffffffffff167f1f32c1b084e2de0713b8fb16bd46bb9df710a3dbeae2f3ca93af46e016dcc6b060405160405180910390a35050565b6000809054906101000a900473ffffffffffffffffffffffffffffffffffffffff1681565b6000809054906101000a900473ffffffffffffffffffffffffffffffffffffffff1673ffffffffffffffffffffffffffffffffffffffff163373ffffffffffffffffffffffffffffffffffffffff16141515610d1e576040517f08c379a00000000000000000000000000000000000000000000000000000000081526004018080602001828103825260138152602001807f4f4e4c595f434f4e54524143545f4f574e45520000000000000000000000000081525060200191505060405180910390fd5b600160008373ffffffffffffffffffffffffffffffffffffffff1673ffffffffffffffffffffffffffffffffffffffff16815260200190815260200160002060009054906101000a900460ff161515610ddf576040517f08c379a00000000000000000000000000000000000000000000000000000000081526004018080602001828103825260158152602001807f5441524745545f4e4f545f415554484f52495a4544000000000000000000000081525060200191505060405180910390fd5b60028054905081101515610e5b576040517f08c379a00000000000000000000000000000000000000000000000000000000081526004018080602001828103825260138152602001807f494e4445585f4f55545f4f465f424f554e44530000000000000000000000000081525060200191505060405180910390fd5b8173ffffffffffffffffffffffffffffffffffffffff16600282815481101515610e8157fe5b9060005260206000200160009054906101000a900473ffffffffffffffffffffffffffffffffffffffff1673ffffffffffffffffffffffffffffffffffffffff16141515610f37576040517f08c379a000000000000000000000000000000000000000000000000000000000815260040180806020018281038252601b8152602001807f415554484f52495a45445f414444524553535f4d49534d41544348000000000081525060200191505060405180910390fd5b600160008373ffffffffffffffffffffffffffffffffffffffff1673ffffffffffffffffffffffffffffffffffffffff16815260200190815260200160002060006101000a81549060ff02191690556002600160028054905003815481101515610f9d57fe5b9060005260206000200160009054906101000a900473ffffffffffffffffffffffffffffffffffffffff16600282815481101515610fd757fe5b9060005260206000200160006101000a81548173ffffffffffffffffffffffffffffffffffffffff021916908373ffffffffffffffffffffffffffffffffffffffff160217905550600160028181805490500391508161103791906112bf565b503373ffffffffffffffffffffffffffffffffffffffff168273ffffffffffffffffffffffffffffffffffffffff167f1f32c1b084e2de0713b8fb16bd46bb9df710a3dbeae2f3ca93af46e016dcc6b060405160405180910390a35050565b600060405180807f455243373231546f6b656e28616464726573732c75696e743235362900000000815250601c0190506040518091039020905090565b60016020528060005260406000206000915054906101000a900460ff1681565b6060600280548060200260200160405190810160405280929190818152602001828054801561117757602002820191906000526020600020905b8160009054906101000a900473ffffffffffffffffffffffffffffffffffffffff1673ffffffffffffffffffffffffffffffffffffffff168152602001906001019080831161112d575b5050505050905090565b6000809054906101000a900473ffffffffffffffffffffffffffffffffffffffff1673ffffffffffffffffffffffffffffffffffffffff163373ffffffffffffffffffffffffffffffffffffffff16141515611245576040517f08c379a00000000000000000000000000000000000000000000000000000000081526004018080602001828103825260138152602001807f4f4e4c595f434f4e54524143545f4f574e45520000000000000000000000000081525060200191505060405180910390fd5b600073ffffffffffffffffffffffffffffffffffffffff168173ffffffffffffffffffffffffffffffffffffffff161415156112bc57806000806101000a81548173ffffffffffffffffffffffffffffffffffffffff021916908373ffffffffffffffffffffffffffffffffffffffff1602179055505b50565b8154818355818111156112e6578183600052602060002091820191016112e591906112eb565b5b505050565b61130d91905b808211156113095760008160009055506001016112f1565b5090565b905600a165627a7a72305820d3492900e7e55497cfcf92c257276a298e0eaf6a30f19f5b435d00c5fa86f13f0029",
  "source": "/*\n\n  Copyright 2018 ZeroEx Intl.\n\n  Licensed under the Apache License, Version 2.0 (the \"License\");\n  you may not use this file except in compliance with the License.\n  You may obtain a copy of the License at\n\n    http://www.apache.org/licenses/LICENSE-2.0\n\n  Unless required by applicable law or agreed to in writing, software\n  distributed under the License is distributed on an \"AS IS\" BASIS,\n  WITHOUT WARRANTIES OR CONDITIONS OF ANY KIND, either express or implied.\n  See the License for the specific language governing permissions and\n  limitations under the License.\n\n*/\n\npragma solidity 0.4.24;\n\nimport \"./MixinAuthorizable.sol\";\n\n\ncontract ERC721Proxy is\n    MixinAuthorizable\n{\n    // Id of this proxy.\n    bytes4 constant internal PROXY_ID = bytes4(keccak256(\"ERC721Token(address,uint256)\"));\n\n    // solhint-disable-next-line payable-fallback\n    function () \n        external\n    {\n        assembly {\n            // The first 4 bytes of calldata holds the function selector\n            let selector := and(calldataload(0), 0xffffffff00000000000000000000000000000000000000000000000000000000)\n\n            // `transferFrom` will be called with the following parameters:\n            // assetData Encoded byte array.\n            // from Address to transfer asset from.\n            // to Address to transfer asset to.\n            // amount Amount of asset to transfer.\n            // bytes4(keccak256(\"transferFrom(bytes,address,address,uint256)\")) = 0xa85e59e4\n            if eq(selector, 0xa85e59e400000000000000000000000000000000000000000000000000000000) {\n\n                // To lookup a value in a mapping, we load from the storage location keccak256(k, p),\n                // where k is the key left padded to 32 bytes and p is the storage slot\n                let start := mload(64)\n                mstore(start, and(caller, 0xffffffffffffffffffffffffffffffffffffffff))\n                mstore(add(start, 32), authorized_slot)\n\n                // Revert if authorized[msg.sender] == false\n                if iszero(sload(keccak256(start, 64))) {\n                    // Revert with `Error(\"SENDER_NOT_AUTHORIZED\")`\n                    mstore(0, 0x08c379a000000000000000000000000000000000000000000000000000000000)\n                    mstore(32, 0x0000002000000000000000000000000000000000000000000000000000000000)\n                    mstore(64, 0x0000001553454e4445525f4e4f545f415554484f52495a454400000000000000)\n                    mstore(96, 0)\n                    revert(0, 100)\n                }\n\n                // `transferFrom`.\n                // The function is marked `external`, so no abi decodeding is done for\n                // us. Instead, we expect the `calldata` memory to contain the\n                // following:\n                //\n                // | Area     | Offset | Length  | Contents                            |\n                // |----------|--------|---------|-------------------------------------|\n                // | Header   | 0      | 4       | function selector                   |\n                // | Params   |        | 4 * 32  | function parameters:                |\n                // |          | 4      |         |   1. offset to assetData (*)        |\n                // |          | 36     |         |   2. from                           |\n                // |          | 68     |         |   3. to                             |\n                // |          | 100    |         |   4. amount                         |\n                // | Data     |        |         | assetData:                          |\n                // |          | 132    | 32      | assetData Length                    |\n                // |          | 164    | **      | assetData Contents                  |\n                //\n                // (*): offset is computed from start of function parameters, so offset\n                //      by an additional 4 bytes in the calldata.\n                //\n                // (**): see table below to compute length of assetData Contents\n                //\n                // WARNING: The ABIv2 specification allows additional padding between\n                //          the Params and Data section. This will result in a larger\n                //          offset to assetData.\n\n                // Asset data itself is encoded as follows:\n                //\n                // | Area     | Offset | Length  | Contents                            |\n                // |----------|--------|---------|-------------------------------------|\n                // | Header   | 0      | 4       | function selector                   |\n                // | Params   |        | 2 * 32  | function parameters:                |\n                // |          | 4      | 12 + 20 |   1. token address                  |\n                // |          | 36     |         |   2. tokenId                        |\n                \n                // We construct calldata for the `token.transferFrom` ABI.\n                // The layout of this calldata is in the table below.\n                // \n                // | Area     | Offset | Length  | Contents                            |\n                // |----------|--------|---------|-------------------------------------|\n                // | Header   | 0      | 4       | function selector                   |\n                // | Params   |        | 3 * 32  | function parameters:                |\n                // |          | 4      |         |   1. from                           |\n                // |          | 36     |         |   2. to                             |\n                // |          | 68     |         |   3. tokenId                        |\n\n                // There exists only 1 of each token.\n                // require(amount == 1, \"INVALID_AMOUNT\")\n                if sub(calldataload(100), 1) {\n                    // Revert with `Error(\"INVALID_AMOUNT\")`\n                    mstore(0, 0x08c379a000000000000000000000000000000000000000000000000000000000)\n                    mstore(32, 0x0000002000000000000000000000000000000000000000000000000000000000)\n                    mstore(64, 0x0000000e494e56414c49445f414d4f554e540000000000000000000000000000)\n                    mstore(96, 0)\n                    revert(0, 100)\n                }\n\n                /////// Setup Header Area ///////\n                // This area holds the 4-byte `transferFrom` selector.\n                // Any trailing data in transferFromSelector will be\n                // overwritten in the next `mstore` call.\n                mstore(0, 0x23b872dd00000000000000000000000000000000000000000000000000000000)\n                \n                /////// Setup Params Area ///////\n                // We copy the fields `from` and `to` in bulk\n                // from our own calldata to the new calldata.\n                calldatacopy(4, 36, 64)\n\n                // Copy `tokenId` field from our own calldata to the new calldata.\n                let assetDataOffset := calldataload(4)\n                calldatacopy(68, add(assetDataOffset, 72), 32)\n\n                /////// Call `token.transferFrom` using the calldata ///////\n                let token := calldataload(add(assetDataOffset, 40))\n                let success := call(\n                    gas,            // forward all gas\n                    token,          // call address of token contract\n                    0,              // don't send any ETH\n                    0,              // pointer to start of input\n                    100,            // length of input\n                    0,              // write output to null\n                    0               // output size is 0 bytes\n                )\n                if success {\n                    return(0, 0)\n                }\n                \n                // Revert with `Error(\"TRANSFER_FAILED\")`\n                mstore(0, 0x08c379a000000000000000000000000000000000000000000000000000000000)\n                mstore(32, 0x0000002000000000000000000000000000000000000000000000000000000000)\n                mstore(64, 0x0000000f5452414e534645525f4641494c454400000000000000000000000000)\n                mstore(96, 0)\n                revert(0, 100)\n            }\n\n            // Revert if undefined function is called\n            revert(0, 0)\n        }\n    }\n\n    /// @dev Gets the proxy id associated with the proxy address.\n    /// @return Proxy id.\n    function getProxyId()\n        external\n        pure\n        returns (bytes4)\n    {\n        return PROXY_ID;\n    }\n}\n",
  "sourcePath": "/Users/facu/Documents/Laburo/Spiking/Ethereum/0x/0x-monorepo/packages/contracts/contracts/2.0.0/protocol/AssetProxy/ERC721Proxy.sol",
  "compiler": {
    "name": "solc",
    "version": "0.4.24+commit.e67f0147.Emscripten.clang"
  },
  "schemaVersion": "2.0.1",
  "updatedAt": "2018-10-16T20:38:35.328Z"
}