{
  "contractName": "EtherDelta",
  "abi": [
    {
      "constant": true,
      "inputs": [
        {
          "name": "",
          "type": "address"
        },
        {
          "name": "",
          "type": "bytes32"
        }
      ],
      "name": "orderFills",
      "outputs": [
        {
          "name": "",
          "type": "uint256"
        }
      ],
      "payable": false,
      "stateMutability": "view",
      "type": "function"
    },
    {
      "constant": true,
      "inputs": [
        {
          "name": "",
          "type": "address"
        },
        {
          "name": "",
          "type": "address"
        }
      ],
      "name": "tokens",
      "outputs": [
        {
          "name": "",
          "type": "uint256"
        }
      ],
      "payable": false,
      "stateMutability": "view",
      "type": "function"
    },
    {
      "constant": true,
      "inputs": [],
      "name": "feeMake",
      "outputs": [
        {
          "name": "",
          "type": "uint256"
        }
      ],
      "payable": false,
      "stateMutability": "view",
      "type": "function"
    },
    {
      "constant": true,
      "inputs": [],
      "name": "feeAccount",
      "outputs": [
        {
          "name": "",
          "type": "address"
        }
      ],
      "payable": false,
      "stateMutability": "view",
      "type": "function"
    },
    {
      "constant": true,
      "inputs": [],
      "name": "feeRebate",
      "outputs": [
        {
          "name": "",
          "type": "uint256"
        }
      ],
      "payable": false,
      "stateMutability": "view",
      "type": "function"
    },
    {
      "constant": true,
      "inputs": [
        {
          "name": "",
          "type": "address"
        },
        {
          "name": "",
          "type": "bytes32"
        }
      ],
      "name": "orders",
      "outputs": [
        {
          "name": "",
          "type": "bool"
        }
      ],
      "payable": false,
      "stateMutability": "view",
      "type": "function"
    },
    {
      "constant": true,
      "inputs": [],
      "name": "feeTake",
      "outputs": [
        {
          "name": "",
          "type": "uint256"
        }
      ],
      "payable": false,
      "stateMutability": "view",
      "type": "function"
    },
    {
      "constant": true,
      "inputs": [],
      "name": "accountLevelsAddr",
      "outputs": [
        {
          "name": "",
          "type": "address"
        }
      ],
      "payable": false,
      "stateMutability": "view",
      "type": "function"
    },
    {
      "constant": true,
      "inputs": [],
      "name": "admin",
      "outputs": [
        {
          "name": "",
          "type": "address"
        }
      ],
      "payable": false,
      "stateMutability": "view",
      "type": "function"
    },
    {
      "inputs": [
        {
          "name": "admin_",
          "type": "address"
        },
        {
          "name": "feeAccount_",
          "type": "address"
        },
        {
          "name": "accountLevelsAddr_",
          "type": "address"
        },
        {
          "name": "feeMake_",
          "type": "uint256"
        },
        {
          "name": "feeTake_",
          "type": "uint256"
        },
        {
          "name": "feeRebate_",
          "type": "uint256"
        }
      ],
      "payable": false,
      "stateMutability": "nonpayable",
      "type": "constructor"
    },
    {
      "payable": false,
      "stateMutability": "nonpayable",
      "type": "fallback"
    },
    {
      "anonymous": false,
      "inputs": [
        {
          "indexed": false,
          "name": "tokenGet",
          "type": "address"
        },
        {
          "indexed": false,
          "name": "amountGet",
          "type": "uint256"
        },
        {
          "indexed": false,
          "name": "tokenGive",
          "type": "address"
        },
        {
          "indexed": false,
          "name": "amountGive",
          "type": "uint256"
        },
        {
          "indexed": false,
          "name": "expires",
          "type": "uint256"
        },
        {
          "indexed": false,
          "name": "nonce",
          "type": "uint256"
        },
        {
          "indexed": false,
          "name": "user",
          "type": "address"
        }
      ],
      "name": "Order",
      "type": "event"
    },
    {
      "anonymous": false,
      "inputs": [
        {
          "indexed": false,
          "name": "tokenGet",
          "type": "address"
        },
        {
          "indexed": false,
          "name": "amountGet",
          "type": "uint256"
        },
        {
          "indexed": false,
          "name": "tokenGive",
          "type": "address"
        },
        {
          "indexed": false,
          "name": "amountGive",
          "type": "uint256"
        },
        {
          "indexed": false,
          "name": "expires",
          "type": "uint256"
        },
        {
          "indexed": false,
          "name": "nonce",
          "type": "uint256"
        },
        {
          "indexed": false,
          "name": "user",
          "type": "address"
        },
        {
          "indexed": false,
          "name": "v",
          "type": "uint8"
        },
        {
          "indexed": false,
          "name": "r",
          "type": "bytes32"
        },
        {
          "indexed": false,
          "name": "s",
          "type": "bytes32"
        }
      ],
      "name": "Cancel",
      "type": "event"
    },
    {
      "anonymous": false,
      "inputs": [
        {
          "indexed": false,
          "name": "tokenGet",
          "type": "address"
        },
        {
          "indexed": false,
          "name": "amountGet",
          "type": "uint256"
        },
        {
          "indexed": false,
          "name": "tokenGive",
          "type": "address"
        },
        {
          "indexed": false,
          "name": "amountGive",
          "type": "uint256"
        },
        {
          "indexed": false,
          "name": "get",
          "type": "address"
        },
        {
          "indexed": false,
          "name": "give",
          "type": "address"
        }
      ],
      "name": "Trade",
      "type": "event"
    },
    {
      "anonymous": false,
      "inputs": [
        {
          "indexed": false,
          "name": "token",
          "type": "address"
        },
        {
          "indexed": false,
          "name": "user",
          "type": "address"
        },
        {
          "indexed": false,
          "name": "amount",
          "type": "uint256"
        },
        {
          "indexed": false,
          "name": "balance",
          "type": "uint256"
        }
      ],
      "name": "Deposit",
      "type": "event"
    },
    {
      "anonymous": false,
      "inputs": [
        {
          "indexed": false,
          "name": "token",
          "type": "address"
        },
        {
          "indexed": false,
          "name": "user",
          "type": "address"
        },
        {
          "indexed": false,
          "name": "amount",
          "type": "uint256"
        },
        {
          "indexed": false,
          "name": "balance",
          "type": "uint256"
        }
      ],
      "name": "Withdraw",
      "type": "event"
    },
    {
      "constant": false,
      "inputs": [
        {
          "name": "admin_",
          "type": "address"
        }
      ],
      "name": "changeAdmin",
      "outputs": [],
      "payable": false,
      "stateMutability": "nonpayable",
      "type": "function"
    },
    {
      "constant": false,
      "inputs": [
        {
          "name": "accountLevelsAddr_",
          "type": "address"
        }
      ],
      "name": "changeAccountLevelsAddr",
      "outputs": [],
      "payable": false,
      "stateMutability": "nonpayable",
      "type": "function"
    },
    {
      "constant": false,
      "inputs": [
        {
          "name": "feeAccount_",
          "type": "address"
        }
      ],
      "name": "changeFeeAccount",
      "outputs": [],
      "payable": false,
      "stateMutability": "nonpayable",
      "type": "function"
    },
    {
      "constant": false,
      "inputs": [
        {
          "name": "feeMake_",
          "type": "uint256"
        }
      ],
      "name": "changeFeeMake",
      "outputs": [],
      "payable": false,
      "stateMutability": "nonpayable",
      "type": "function"
    },
    {
      "constant": false,
      "inputs": [
        {
          "name": "feeTake_",
          "type": "uint256"
        }
      ],
      "name": "changeFeeTake",
      "outputs": [],
      "payable": false,
      "stateMutability": "nonpayable",
      "type": "function"
    },
    {
      "constant": false,
      "inputs": [
        {
          "name": "feeRebate_",
          "type": "uint256"
        }
      ],
      "name": "changeFeeRebate",
      "outputs": [],
      "payable": false,
      "stateMutability": "nonpayable",
      "type": "function"
    },
    {
      "constant": false,
      "inputs": [],
      "name": "deposit",
      "outputs": [],
      "payable": true,
      "stateMutability": "payable",
      "type": "function"
    },
    {
      "constant": false,
      "inputs": [
        {
          "name": "amount",
          "type": "uint256"
        }
      ],
      "name": "withdraw",
      "outputs": [],
      "payable": false,
      "stateMutability": "nonpayable",
      "type": "function"
    },
    {
      "constant": false,
      "inputs": [
        {
          "name": "token",
          "type": "address"
        },
        {
          "name": "amount",
          "type": "uint256"
        }
      ],
      "name": "depositToken",
      "outputs": [],
      "payable": false,
      "stateMutability": "nonpayable",
      "type": "function"
    },
    {
      "constant": false,
      "inputs": [
        {
          "name": "token",
          "type": "address"
        },
        {
          "name": "amount",
          "type": "uint256"
        }
      ],
      "name": "withdrawToken",
      "outputs": [],
      "payable": false,
      "stateMutability": "nonpayable",
      "type": "function"
    },
    {
      "constant": true,
      "inputs": [
        {
          "name": "token",
          "type": "address"
        },
        {
          "name": "user",
          "type": "address"
        }
      ],
      "name": "balanceOf",
      "outputs": [
        {
          "name": "",
          "type": "uint256"
        }
      ],
      "payable": false,
      "stateMutability": "view",
      "type": "function"
    },
    {
      "constant": false,
      "inputs": [
        {
          "name": "tokenGet",
          "type": "address"
        },
        {
          "name": "amountGet",
          "type": "uint256"
        },
        {
          "name": "tokenGive",
          "type": "address"
        },
        {
          "name": "amountGive",
          "type": "uint256"
        },
        {
          "name": "expires",
          "type": "uint256"
        },
        {
          "name": "nonce",
          "type": "uint256"
        }
      ],
      "name": "order",
      "outputs": [],
      "payable": false,
      "stateMutability": "nonpayable",
      "type": "function"
    },
    {
      "constant": false,
      "inputs": [
        {
          "name": "tokenGet",
          "type": "address"
        },
        {
          "name": "amountGet",
          "type": "uint256"
        },
        {
          "name": "tokenGive",
          "type": "address"
        },
        {
          "name": "amountGive",
          "type": "uint256"
        },
        {
          "name": "expires",
          "type": "uint256"
        },
        {
          "name": "nonce",
          "type": "uint256"
        },
        {
          "name": "user",
          "type": "address"
        },
        {
          "name": "v",
          "type": "uint8"
        },
        {
          "name": "r",
          "type": "bytes32"
        },
        {
          "name": "s",
          "type": "bytes32"
        },
        {
          "name": "amount",
          "type": "uint256"
        }
      ],
      "name": "trade",
      "outputs": [],
      "payable": false,
      "stateMutability": "nonpayable",
      "type": "function"
    },
    {
      "constant": true,
      "inputs": [
        {
          "name": "tokenGet",
          "type": "address"
        },
        {
          "name": "amountGet",
          "type": "uint256"
        },
        {
          "name": "tokenGive",
          "type": "address"
        },
        {
          "name": "amountGive",
          "type": "uint256"
        },
        {
          "name": "expires",
          "type": "uint256"
        },
        {
          "name": "nonce",
          "type": "uint256"
        },
        {
          "name": "user",
          "type": "address"
        },
        {
          "name": "v",
          "type": "uint8"
        },
        {
          "name": "r",
          "type": "bytes32"
        },
        {
          "name": "s",
          "type": "bytes32"
        },
        {
          "name": "amount",
          "type": "uint256"
        },
        {
          "name": "sender",
          "type": "address"
        }
      ],
      "name": "testTrade",
      "outputs": [
        {
          "name": "",
          "type": "bool"
        }
      ],
      "payable": false,
      "stateMutability": "view",
      "type": "function"
    },
    {
      "constant": true,
      "inputs": [
        {
          "name": "tokenGet",
          "type": "address"
        },
        {
          "name": "amountGet",
          "type": "uint256"
        },
        {
          "name": "tokenGive",
          "type": "address"
        },
        {
          "name": "amountGive",
          "type": "uint256"
        },
        {
          "name": "expires",
          "type": "uint256"
        },
        {
          "name": "nonce",
          "type": "uint256"
        },
        {
          "name": "user",
          "type": "address"
        },
        {
          "name": "v",
          "type": "uint8"
        },
        {
          "name": "r",
          "type": "bytes32"
        },
        {
          "name": "s",
          "type": "bytes32"
        }
      ],
      "name": "availableVolume",
      "outputs": [
        {
          "name": "",
          "type": "uint256"
        }
      ],
      "payable": false,
      "stateMutability": "view",
      "type": "function"
    },
    {
      "constant": true,
      "inputs": [
        {
          "name": "tokenGet",
          "type": "address"
        },
        {
          "name": "amountGet",
          "type": "uint256"
        },
        {
          "name": "tokenGive",
          "type": "address"
        },
        {
          "name": "amountGive",
          "type": "uint256"
        },
        {
          "name": "expires",
          "type": "uint256"
        },
        {
          "name": "nonce",
          "type": "uint256"
        },
        {
          "name": "user",
          "type": "address"
        },
        {
          "name": "v",
          "type": "uint8"
        },
        {
          "name": "r",
          "type": "bytes32"
        },
        {
          "name": "s",
          "type": "bytes32"
        }
      ],
      "name": "amountFilled",
      "outputs": [
        {
          "name": "",
          "type": "uint256"
        }
      ],
      "payable": false,
      "stateMutability": "view",
      "type": "function"
    },
    {
      "constant": false,
      "inputs": [
        {
          "name": "tokenGet",
          "type": "address"
        },
        {
          "name": "amountGet",
          "type": "uint256"
        },
        {
          "name": "tokenGive",
          "type": "address"
        },
        {
          "name": "amountGive",
          "type": "uint256"
        },
        {
          "name": "expires",
          "type": "uint256"
        },
        {
          "name": "nonce",
          "type": "uint256"
        },
        {
          "name": "v",
          "type": "uint8"
        },
        {
          "name": "r",
          "type": "bytes32"
        },
        {
          "name": "s",
          "type": "bytes32"
        }
      ],
      "name": "cancelOrder",
      "outputs": [],
      "payable": false,
      "stateMutability": "nonpayable",
      "type": "function"
    }
  ],
  "bytecode": "0x608060405234801561001057600080fd5b5060405160c0806137a8833981018060405281019080805190602001909291908051906020019092919080519060200190929190805190602001909291908051906020019092919080519060200190929190505050856000806101000a81548173ffffffffffffffffffffffffffffffffffffffff021916908373ffffffffffffffffffffffffffffffffffffffff16021790555084600160006101000a81548173ffffffffffffffffffffffffffffffffffffffff021916908373ffffffffffffffffffffffffffffffffffffffff16021790555083600260006101000a81548173ffffffffffffffffffffffffffffffffffffffff021916908373ffffffffffffffffffffffffffffffffffffffff160217905550826003819055508160048190555080600581905550505050505050613657806101516000396000f300608060405260043610610154576000357c0100000000000000000000000000000000000000000000000000000000900463ffffffff1680630a19b14a146101665780630b9276661461024457806319774d43146102cf578063278b8c0e146103345780632e1a7d4d146103e8578063338b5dea1461041557806346be96c314610462578063508493bc1461054a57806354d03b5c146105c157806357786394146105ee5780635e1d7ae41461061957806365e17c9d146106465780636c86888b1461069d57806371ffcb16146107b3578063731c2f81146107f65780638823a9c0146108215780638f2839701461084e5780639e281a9814610891578063bb5f4629146108de578063c281309e14610947578063d0e30db014610972578063e8f6bc2e1461097c578063f3412942146109bf578063f7888aec14610a16578063f851a44014610a8d578063fb6e155f14610ae4575b34801561016057600080fd5b50600080fd5b34801561017257600080fd5b50610242600480360381019080803573ffffffffffffffffffffffffffffffffffffffff16906020019092919080359060200190929190803573ffffffffffffffffffffffffffffffffffffffff169060200190929190803590602001909291908035906020019092919080359060200190929190803573ffffffffffffffffffffffffffffffffffffffff169060200190929190803560ff1690602001909291908035600019169060200190929190803560001916906020019092919080359060200190929190505050610bcc565b005b34801561025057600080fd5b506102cd600480360381019080803573ffffffffffffffffffffffffffffffffffffffff16906020019092919080359060200190929190803573ffffffffffffffffffffffffffffffffffffffff1690602001909291908035906020019092919080359060200190929190803590602001909291905050506110e1565b005b3480156102db57600080fd5b5061031e600480360381019080803573ffffffffffffffffffffffffffffffffffffffff1690602001909291908035600019169060200190929190505050611380565b6040518082815260200191505060405180910390f35b34801561034057600080fd5b506103e6600480360381019080803573ffffffffffffffffffffffffffffffffffffffff16906020019092919080359060200190929190803573ffffffffffffffffffffffffffffffffffffffff169060200190929190803590602001909291908035906020019092919080359060200190929190803560ff169060200190929190803560001916906020019092919080356000191690602001909291905050506113a5565b005b3480156103f457600080fd5b50610413600480360381019080803590602001909291905050506117cd565b005b34801561042157600080fd5b50610460600480360381019080803573ffffffffffffffffffffffffffffffffffffffff16906020019092919080359060200190929190505050611a4c565b005b34801561046e57600080fd5b50610534600480360381019080803573ffffffffffffffffffffffffffffffffffffffff16906020019092919080359060200190929190803573ffffffffffffffffffffffffffffffffffffffff169060200190929190803590602001909291908035906020019092919080359060200190929190803573ffffffffffffffffffffffffffffffffffffffff169060200190929190803560ff16906020019092919080356000191690602001909291908035600019169060200190929190505050611dba565b6040518082815260200191505060405180910390f35b34801561055657600080fd5b506105ab600480360381019080803573ffffffffffffffffffffffffffffffffffffffff169060200190929190803573ffffffffffffffffffffffffffffffffffffffff169060200190929190505050611f5f565b6040518082815260200191505060405180910390f35b3480156105cd57600080fd5b506105ec60048036038101908080359060200190929190505050611f84565b005b3480156105fa57600080fd5b50610603611ff8565b6040518082815260200191505060405180910390f35b34801561062557600080fd5b5061064460048036038101908080359060200190929190505050611ffe565b005b34801561065257600080fd5b5061065b61207e565b604051808273ffffffffffffffffffffffffffffffffffffffff1673ffffffffffffffffffffffffffffffffffffffff16815260200191505060405180910390f35b3480156106a957600080fd5b50610799600480360381019080803573ffffffffffffffffffffffffffffffffffffffff16906020019092919080359060200190929190803573ffffffffffffffffffffffffffffffffffffffff169060200190929190803590602001909291908035906020019092919080359060200190929190803573ffffffffffffffffffffffffffffffffffffffff169060200190929190803560ff1690602001909291908035600019169060200190929190803560001916906020019092919080359060200190929190803573ffffffffffffffffffffffffffffffffffffffff1690602001909291905050506120a4565b604051808215151515815260200191505060405180910390f35b3480156107bf57600080fd5b506107f4600480360381019080803573ffffffffffffffffffffffffffffffffffffffff169060200190929190505050612167565b005b34801561080257600080fd5b5061080b612206565b6040518082815260200191505060405180910390f35b34801561082d57600080fd5b5061084c6004803603810190808035906020019092919050505061220c565b005b34801561085a57600080fd5b5061088f600480360381019080803573ffffffffffffffffffffffffffffffffffffffff16906020019092919050505061228c565b005b34801561089d57600080fd5b506108dc600480360381019080803573ffffffffffffffffffffffffffffffffffffffff1690602001909291908035906020019092919050505061232a565b005b3480156108ea57600080fd5b5061092d600480360381019080803573ffffffffffffffffffffffffffffffffffffffff16906020019092919080356000191690602001909291905050506126ed565b604051808215151515815260200191505060405180910390f35b34801561095357600080fd5b5061095c61271c565b6040518082815260200191505060405180910390f35b61097a612722565b005b34801561098857600080fd5b506109bd600480360381019080803573ffffffffffffffffffffffffffffffffffffffff1690602001909291905050506128f6565b005b3480156109cb57600080fd5b506109d4612995565b604051808273ffffffffffffffffffffffffffffffffffffffff1673ffffffffffffffffffffffffffffffffffffffff16815260200191505060405180910390f35b348015610a2257600080fd5b50610a77600480360381019080803573ffffffffffffffffffffffffffffffffffffffff169060200190929190803573ffffffffffffffffffffffffffffffffffffffff1690602001909291905050506129bb565b6040518082815260200191505060405180910390f35b348015610a9957600080fd5b50610aa2612a42565b604051808273ffffffffffffffffffffffffffffffffffffffff1673ffffffffffffffffffffffffffffffffffffffff16815260200191505060405180910390f35b348015610af057600080fd5b50610bb6600480360381019080803573ffffffffffffffffffffffffffffffffffffffff16906020019092919080359060200190929190803573ffffffffffffffffffffffffffffffffffffffff169060200190929190803590602001909291908035906020019092919080359060200190929190803573ffffffffffffffffffffffffffffffffffffffff169060200190929190803560ff16906020019092919080356000191690602001909291908035600019169060200190929190505050612a67565b6040518082815260200191505060405180910390f35b60006002308d8d8d8d8d8d604051808873ffffffffffffffffffffffffffffffffffffffff1673ffffffffffffffffffffffffffffffffffffffff166c010000000000000000000000000281526014018773ffffffffffffffffffffffffffffffffffffffff1673ffffffffffffffffffffffffffffffffffffffff166c010000000000000000000000000281526014018681526020018573ffffffffffffffffffffffffffffffffffffffff1673ffffffffffffffffffffffffffffffffffffffff166c010000000000000000000000000281526014018481526020018381526020018281526020019750505050505050506020604051808303816000865af1158015610cde573d6000803e3d6000fd5b5050506040513d6020811015610cf357600080fd5b81019080805190602001909291905050509050600760008773ffffffffffffffffffffffffffffffffffffffff1673ffffffffffffffffffffffffffffffffffffffff1681526020019081526020016000206000826000191660001916815260200190815260200160002060009054906101000a900460ff1680610e6757508573ffffffffffffffffffffffffffffffffffffffff1660018260405180807f19457468657265756d205369676e6564204d6573736167653a0a333200000000815250601c0182600019166000191681526020019150506040518091039020878787604051600081526020016040526040518085600019166000191681526020018460ff1660ff1681526020018360001916600019168152602001826000191660001916815260200194505050505060206040516020810390808403906000865af1158015610e45573d6000803e3d6000fd5b5050506020604051035173ffffffffffffffffffffffffffffffffffffffff16145b8015610e735750874311155b8015610ee057508a610edd600860008973ffffffffffffffffffffffffffffffffffffffff1673ffffffffffffffffffffffffffffffffffffffff168152602001908152602001600020600084600019166000191681526020019081526020016000205484612e3d565b11155b1515610eeb57600080fd5b610ef98c8c8c8c8a87612e5b565b610f5b600860008873ffffffffffffffffffffffffffffffffffffffff1673ffffffffffffffffffffffffffffffffffffffff168152602001908152602001600020600083600019166000191681526020019081526020016000205483612e3d565b600860008873ffffffffffffffffffffffffffffffffffffffff1673ffffffffffffffffffffffffffffffffffffffff16815260200190815260200160002060008360001916600019168152602001908152602001600020819055507f6effdda786735d5033bfad5f53e5131abcced9e52be6c507b62d639685fbed6d8c838c8e868e02811515610fe857fe5b048a33604051808773ffffffffffffffffffffffffffffffffffffffff1673ffffffffffffffffffffffffffffffffffffffff1681526020018681526020018573ffffffffffffffffffffffffffffffffffffffff1673ffffffffffffffffffffffffffffffffffffffff1681526020018481526020018373ffffffffffffffffffffffffffffffffffffffff1673ffffffffffffffffffffffffffffffffffffffff1681526020018273ffffffffffffffffffffffffffffffffffffffff1673ffffffffffffffffffffffffffffffffffffffff168152602001965050505050505060405180910390a1505050505050505050505050565b6000600230888888888888604051808873ffffffffffffffffffffffffffffffffffffffff1673ffffffffffffffffffffffffffffffffffffffff166c010000000000000000000000000281526014018773ffffffffffffffffffffffffffffffffffffffff1673ffffffffffffffffffffffffffffffffffffffff166c010000000000000000000000000281526014018681526020018573ffffffffffffffffffffffffffffffffffffffff1673ffffffffffffffffffffffffffffffffffffffff166c010000000000000000000000000281526014018481526020018381526020018281526020019750505050505050506020604051808303816000865af11580156111f3573d6000803e3d6000fd5b5050506040513d602081101561120857600080fd5b810190808051906020019092919050505090506001600760003373ffffffffffffffffffffffffffffffffffffffff1673ffffffffffffffffffffffffffffffffffffffff1681526020019081526020016000206000836000191660001916815260200190815260200160002060006101000a81548160ff0219169083151502179055507f3f7f2eda73683c21a15f9435af1028c93185b5f1fa38270762dc32be606b3e8587878787878733604051808873ffffffffffffffffffffffffffffffffffffffff1673ffffffffffffffffffffffffffffffffffffffff1681526020018781526020018673ffffffffffffffffffffffffffffffffffffffff1673ffffffffffffffffffffffffffffffffffffffff1681526020018581526020018481526020018381526020018273ffffffffffffffffffffffffffffffffffffffff1673ffffffffffffffffffffffffffffffffffffffff16815260200197505050505050505060405180910390a150505050505050565b6008602052816000526040600020602052806000526040600020600091509150505481565b60006002308b8b8b8b8b8b604051808873ffffffffffffffffffffffffffffffffffffffff1673ffffffffffffffffffffffffffffffffffffffff166c010000000000000000000000000281526014018773ffffffffffffffffffffffffffffffffffffffff1673ffffffffffffffffffffffffffffffffffffffff166c010000000000000000000000000281526014018681526020018573ffffffffffffffffffffffffffffffffffffffff1673ffffffffffffffffffffffffffffffffffffffff166c010000000000000000000000000281526014018481526020018381526020018281526020019750505050505050506020604051808303816000865af11580156114b7573d6000803e3d6000fd5b5050506040513d60208110156114cc57600080fd5b81019080805190602001909291905050509050600760003373ffffffffffffffffffffffffffffffffffffffff1673ffffffffffffffffffffffffffffffffffffffff1681526020019081526020016000206000826000191660001916815260200190815260200160002060009054906101000a900460ff168061164057503373ffffffffffffffffffffffffffffffffffffffff1660018260405180807f19457468657265756d205369676e6564204d6573736167653a0a333200000000815250601c0182600019166000191681526020019150506040518091039020868686604051600081526020016040526040518085600019166000191681526020018460ff1660ff1681526020018360001916600019168152602001826000191660001916815260200194505050505060206040516020810390808403906000865af115801561161e573d6000803e3d6000fd5b5050506020604051035173ffffffffffffffffffffffffffffffffffffffff16145b151561164b57600080fd5b88600860003373ffffffffffffffffffffffffffffffffffffffff1673ffffffffffffffffffffffffffffffffffffffff16815260200190815260200160002060008360001916600019168152602001908152602001600020819055507f1e0b760c386003e9cb9bcf4fcf3997886042859d9b6ed6320e804597fcdb28b08a8a8a8a8a8a338b8b8b604051808b73ffffffffffffffffffffffffffffffffffffffff1673ffffffffffffffffffffffffffffffffffffffff1681526020018a81526020018973ffffffffffffffffffffffffffffffffffffffff1673ffffffffffffffffffffffffffffffffffffffff1681526020018881526020018781526020018681526020018573ffffffffffffffffffffffffffffffffffffffff1673ffffffffffffffffffffffffffffffffffffffff1681526020018460ff1660ff168152602001836000191660001916815260200182600019166000191681526020019a505050505050505050505060405180910390a150505050505050505050565b80600660008073ffffffffffffffffffffffffffffffffffffffff16815260200190815260200160002060003373ffffffffffffffffffffffffffffffffffffffff1673ffffffffffffffffffffffffffffffffffffffff16815260200190815260200160002054101561184057600080fd5b6118b0600660008073ffffffffffffffffffffffffffffffffffffffff16815260200190815260200160002060003373ffffffffffffffffffffffffffffffffffffffff1673ffffffffffffffffffffffffffffffffffffffff16815260200190815260200160002054826135df565b600660008073ffffffffffffffffffffffffffffffffffffffff16815260200190815260200160002060003373ffffffffffffffffffffffffffffffffffffffff1673ffffffffffffffffffffffffffffffffffffffff168152602001908152602001600020819055503373ffffffffffffffffffffffffffffffffffffffff168160405160006040518083038185875af192505050151561195157600080fd5b7ff341246adaac6f497bc2a656f546ab9e182111d630394f0c57c710a59a2cb56760003383600660008073ffffffffffffffffffffffffffffffffffffffff16815260200190815260200160002060003373ffffffffffffffffffffffffffffffffffffffff1673ffffffffffffffffffffffffffffffffffffffff16815260200190815260200160002054604051808573ffffffffffffffffffffffffffffffffffffffff1681526020018473ffffffffffffffffffffffffffffffffffffffff1673ffffffffffffffffffffffffffffffffffffffff16815260200183815260200182815260200194505050505060405180910390a150565b60008273ffffffffffffffffffffffffffffffffffffffff161415611a7057600080fd5b8173ffffffffffffffffffffffffffffffffffffffff166323b872dd3330846040518463ffffffff167c0100000000000000000000000000000000000000000000000000000000028152600401808473ffffffffffffffffffffffffffffffffffffffff1673ffffffffffffffffffffffffffffffffffffffff1681526020018373ffffffffffffffffffffffffffffffffffffffff1673ffffffffffffffffffffffffffffffffffffffff1681526020018281526020019350505050602060405180830381600087803b158015611b4757600080fd5b505af1158015611b5b573d6000803e3d6000fd5b505050506040513d6020811015611b7157600080fd5b81019080805190602001909291905050501515611b8d57600080fd5b611c13600660008473ffffffffffffffffffffffffffffffffffffffff1673ffffffffffffffffffffffffffffffffffffffff16815260200190815260200160002060003373ffffffffffffffffffffffffffffffffffffffff1673ffffffffffffffffffffffffffffffffffffffff1681526020019081526020016000205482612e3d565b600660008473ffffffffffffffffffffffffffffffffffffffff1673ffffffffffffffffffffffffffffffffffffffff16815260200190815260200160002060003373ffffffffffffffffffffffffffffffffffffffff1673ffffffffffffffffffffffffffffffffffffffff168152602001908152602001600020819055507fdcbc1c05240f31ff3ad067ef1ee35ce4997762752e3a095284754544f4c709d7823383600660008773ffffffffffffffffffffffffffffffffffffffff1673ffffffffffffffffffffffffffffffffffffffff16815260200190815260200160002060003373ffffffffffffffffffffffffffffffffffffffff1673ffffffffffffffffffffffffffffffffffffffff16815260200190815260200160002054604051808573ffffffffffffffffffffffffffffffffffffffff1673ffffffffffffffffffffffffffffffffffffffff1681526020018473ffffffffffffffffffffffffffffffffffffffff1673ffffffffffffffffffffffffffffffffffffffff16815260200183815260200182815260200194505050505060405180910390a15050565b6000806002308d8d8d8d8d8d604051808873ffffffffffffffffffffffffffffffffffffffff1673ffffffffffffffffffffffffffffffffffffffff166c010000000000000000000000000281526014018773ffffffffffffffffffffffffffffffffffffffff1673ffffffffffffffffffffffffffffffffffffffff166c010000000000000000000000000281526014018681526020018573ffffffffffffffffffffffffffffffffffffffff1673ffffffffffffffffffffffffffffffffffffffff166c010000000000000000000000000281526014018481526020018381526020018281526020019750505050505050506020604051808303816000865af1158015611ecd573d6000803e3d6000fd5b5050506040513d6020811015611ee257600080fd5b81019080805190602001909291905050509050600860008773ffffffffffffffffffffffffffffffffffffffff1673ffffffffffffffffffffffffffffffffffffffff16815260200190815260200160002060008260001916600019168152602001908152602001600020549150509a9950505050505050505050565b6006602052816000526040600020602052806000526040600020600091509150505481565b6000809054906101000a900473ffffffffffffffffffffffffffffffffffffffff1673ffffffffffffffffffffffffffffffffffffffff163373ffffffffffffffffffffffffffffffffffffffff16141515611fdf57600080fd5b600354811115611fee57600080fd5b8060038190555050565b60035481565b6000809054906101000a900473ffffffffffffffffffffffffffffffffffffffff1673ffffffffffffffffffffffffffffffffffffffff163373ffffffffffffffffffffffffffffffffffffffff1614151561205957600080fd5b60055481108061206a575060045481115b1561207457600080fd5b8060058190555050565b600160009054906101000a900473ffffffffffffffffffffffffffffffffffffffff1681565b600082600660008f73ffffffffffffffffffffffffffffffffffffffff1673ffffffffffffffffffffffffffffffffffffffff16815260200190815260200160002060008473ffffffffffffffffffffffffffffffffffffffff1673ffffffffffffffffffffffffffffffffffffffff16815260200190815260200160002054101580156121435750826121408e8e8e8e8e8e8e8e8e8e612a67565b10155b15156121525760009050612157565b600190505b9c9b505050505050505050505050565b6000809054906101000a900473ffffffffffffffffffffffffffffffffffffffff1673ffffffffffffffffffffffffffffffffffffffff163373ffffffffffffffffffffffffffffffffffffffff161415156121c257600080fd5b80600160006101000a81548173ffffffffffffffffffffffffffffffffffffffff021916908373ffffffffffffffffffffffffffffffffffffffff16021790555050565b60055481565b6000809054906101000a900473ffffffffffffffffffffffffffffffffffffffff1673ffffffffffffffffffffffffffffffffffffffff163373ffffffffffffffffffffffffffffffffffffffff1614151561226757600080fd5b600454811180612278575060055481105b1561228257600080fd5b8060048190555050565b6000809054906101000a900473ffffffffffffffffffffffffffffffffffffffff1673ffffffffffffffffffffffffffffffffffffffff163373ffffffffffffffffffffffffffffffffffffffff161415156122e757600080fd5b806000806101000a81548173ffffffffffffffffffffffffffffffffffffffff021916908373ffffffffffffffffffffffffffffffffffffffff16021790555050565b60008273ffffffffffffffffffffffffffffffffffffffff16141561234e57600080fd5b80600660008473ffffffffffffffffffffffffffffffffffffffff1673ffffffffffffffffffffffffffffffffffffffff16815260200190815260200160002060003373ffffffffffffffffffffffffffffffffffffffff1673ffffffffffffffffffffffffffffffffffffffff1681526020019081526020016000205410156123d757600080fd5b61245d600660008473ffffffffffffffffffffffffffffffffffffffff1673ffffffffffffffffffffffffffffffffffffffff16815260200190815260200160002060003373ffffffffffffffffffffffffffffffffffffffff1673ffffffffffffffffffffffffffffffffffffffff16815260200190815260200160002054826135df565b600660008473ffffffffffffffffffffffffffffffffffffffff1673ffffffffffffffffffffffffffffffffffffffff16815260200190815260200160002060003373ffffffffffffffffffffffffffffffffffffffff1673ffffffffffffffffffffffffffffffffffffffff168152602001908152602001600020819055508173ffffffffffffffffffffffffffffffffffffffff1663a9059cbb33836040518363ffffffff167c0100000000000000000000000000000000000000000000000000000000028152600401808373ffffffffffffffffffffffffffffffffffffffff1673ffffffffffffffffffffffffffffffffffffffff16815260200182815260200192505050602060405180830381600087803b15801561258057600080fd5b505af1158015612594573d6000803e3d6000fd5b505050506040513d60208110156125aa57600080fd5b810190808051906020019092919050505015156125c657600080fd5b7ff341246adaac6f497bc2a656f546ab9e182111d630394f0c57c710a59a2cb567823383600660008773ffffffffffffffffffffffffffffffffffffffff1673ffffffffffffffffffffffffffffffffffffffff16815260200190815260200160002060003373ffffffffffffffffffffffffffffffffffffffff1673ffffffffffffffffffffffffffffffffffffffff16815260200190815260200160002054604051808573ffffffffffffffffffffffffffffffffffffffff1673ffffffffffffffffffffffffffffffffffffffff1681526020018473ffffffffffffffffffffffffffffffffffffffff1673ffffffffffffffffffffffffffffffffffffffff16815260200183815260200182815260200194505050505060405180910390a15050565b60076020528160005260406000206020528060005260406000206000915091509054906101000a900460ff1681565b60045481565b612792600660008073ffffffffffffffffffffffffffffffffffffffff16815260200190815260200160002060003373ffffffffffffffffffffffffffffffffffffffff1673ffffffffffffffffffffffffffffffffffffffff1681526020019081526020016000205434612e3d565b600660008073ffffffffffffffffffffffffffffffffffffffff16815260200190815260200160002060003373ffffffffffffffffffffffffffffffffffffffff1673ffffffffffffffffffffffffffffffffffffffff168152602001908152602001600020819055507fdcbc1c05240f31ff3ad067ef1ee35ce4997762752e3a095284754544f4c709d760003334600660008073ffffffffffffffffffffffffffffffffffffffff16815260200190815260200160002060003373ffffffffffffffffffffffffffffffffffffffff1673ffffffffffffffffffffffffffffffffffffffff16815260200190815260200160002054604051808573ffffffffffffffffffffffffffffffffffffffff1681526020018473ffffffffffffffffffffffffffffffffffffffff1673ffffffffffffffffffffffffffffffffffffffff16815260200183815260200182815260200194505050505060405180910390a1565b6000809054906101000a900473ffffffffffffffffffffffffffffffffffffffff1673ffffffffffffffffffffffffffffffffffffffff163373ffffffffffffffffffffffffffffffffffffffff1614151561295157600080fd5b80600260006101000a81548173ffffffffffffffffffffffffffffffffffffffff021916908373ffffffffffffffffffffffffffffffffffffffff16021790555050565b600260009054906101000a900473ffffffffffffffffffffffffffffffffffffffff1681565b6000600660008473ffffffffffffffffffffffffffffffffffffffff1673ffffffffffffffffffffffffffffffffffffffff16815260200190815260200160002060008373ffffffffffffffffffffffffffffffffffffffff1673ffffffffffffffffffffffffffffffffffffffff16815260200190815260200160002054905092915050565b6000809054906101000a900473ffffffffffffffffffffffffffffffffffffffff1681565b6000806000806002308f8f8f8f8f8f604051808873ffffffffffffffffffffffffffffffffffffffff1673ffffffffffffffffffffffffffffffffffffffff166c010000000000000000000000000281526014018773ffffffffffffffffffffffffffffffffffffffff1673ffffffffffffffffffffffffffffffffffffffff166c010000000000000000000000000281526014018681526020018573ffffffffffffffffffffffffffffffffffffffff1673ffffffffffffffffffffffffffffffffffffffff166c010000000000000000000000000281526014018481526020018381526020018281526020019750505050505050506020604051808303816000865af1158015612b7d573d6000803e3d6000fd5b5050506040513d6020811015612b9257600080fd5b81019080805190602001909291905050509250600760008973ffffffffffffffffffffffffffffffffffffffff1673ffffffffffffffffffffffffffffffffffffffff1681526020019081526020016000206000846000191660001916815260200190815260200160002060009054906101000a900460ff1680612d0657508773ffffffffffffffffffffffffffffffffffffffff1660018460405180807f19457468657265756d205369676e6564204d6573736167653a0a333200000000815250601c0182600019166000191681526020019150506040518091039020898989604051600081526020016040526040518085600019166000191681526020018460ff1660ff1681526020018360001916600019168152602001826000191660001916815260200194505050505060206040516020810390808403906000865af1158015612ce4573d6000803e3d6000fd5b5050506020604051035173ffffffffffffffffffffffffffffffffffffffff16145b8015612d125750894311155b1515612d215760009350612e2c565b612d838d600860008b73ffffffffffffffffffffffffffffffffffffffff1673ffffffffffffffffffffffffffffffffffffffff16815260200190815260200160002060008660001916600019168152602001908152602001600020546135df565b91508a612e0c600660008f73ffffffffffffffffffffffffffffffffffffffff1673ffffffffffffffffffffffffffffffffffffffff16815260200190815260200160002060008b73ffffffffffffffffffffffffffffffffffffffff1673ffffffffffffffffffffffffffffffffffffffff168152602001908152602001600020548f6135f8565b811515612e1557fe5b04905080821015612e2857819350612e2c565b8093505b5050509a9950505050505050505050565b6000808284019050838110151515612e5157fe5b8091505092915050565b600080600080670de0b6b3a7640000612e76866003546135f8565b811515612e7f57fe5b049350670de0b6b3a7640000612e97866004546135f8565b811515612ea057fe5b049250600091506000600260009054906101000a900473ffffffffffffffffffffffffffffffffffffffff1673ffffffffffffffffffffffffffffffffffffffff1614151561301c57600260009054906101000a900473ffffffffffffffffffffffffffffffffffffffff1673ffffffffffffffffffffffffffffffffffffffff16631cbd0519876040518263ffffffff167c0100000000000000000000000000000000000000000000000000000000028152600401808273ffffffffffffffffffffffffffffffffffffffff1673ffffffffffffffffffffffffffffffffffffffff168152602001915050602060405180830381600087803b158015612fa657600080fd5b505af1158015612fba573d6000803e3d6000fd5b505050506040513d6020811015612fd057600080fd5b81019080805190602001909291905050509050600181141561300e57670de0b6b3a7640000613001866005546135f8565b81151561300a57fe5b0491505b600281141561301b578291505b5b6130ab600660008c73ffffffffffffffffffffffffffffffffffffffff1673ffffffffffffffffffffffffffffffffffffffff16815260200190815260200160002060003373ffffffffffffffffffffffffffffffffffffffff1673ffffffffffffffffffffffffffffffffffffffff168152602001908152602001600020546130a68786612e3d565b6135df565b600660008c73ffffffffffffffffffffffffffffffffffffffff1673ffffffffffffffffffffffffffffffffffffffff16815260200190815260200160002060003373ffffffffffffffffffffffffffffffffffffffff1673ffffffffffffffffffffffffffffffffffffffff168152602001908152602001600020819055506131c3600660008c73ffffffffffffffffffffffffffffffffffffffff1673ffffffffffffffffffffffffffffffffffffffff16815260200190815260200160002060008873ffffffffffffffffffffffffffffffffffffffff1673ffffffffffffffffffffffffffffffffffffffff168152602001908152602001600020546131be6131b88886612e3d565b876135df565b612e3d565b600660008c73ffffffffffffffffffffffffffffffffffffffff1673ffffffffffffffffffffffffffffffffffffffff16815260200190815260200160002060008873ffffffffffffffffffffffffffffffffffffffff1673ffffffffffffffffffffffffffffffffffffffff168152602001908152602001600020819055506132fd600660008c73ffffffffffffffffffffffffffffffffffffffff1673ffffffffffffffffffffffffffffffffffffffff1681526020019081526020016000206000600160009054906101000a900473ffffffffffffffffffffffffffffffffffffffff1673ffffffffffffffffffffffffffffffffffffffff1673ffffffffffffffffffffffffffffffffffffffff168152602001908152602001600020546132f86132f28787612e3d565b856135df565b612e3d565b600660008c73ffffffffffffffffffffffffffffffffffffffff1673ffffffffffffffffffffffffffffffffffffffff1681526020019081526020016000206000600160009054906101000a900473ffffffffffffffffffffffffffffffffffffffff1673ffffffffffffffffffffffffffffffffffffffff1673ffffffffffffffffffffffffffffffffffffffff16815260200190815260200160002081905550613439600660008a73ffffffffffffffffffffffffffffffffffffffff1673ffffffffffffffffffffffffffffffffffffffff16815260200190815260200160002060008873ffffffffffffffffffffffffffffffffffffffff1673ffffffffffffffffffffffffffffffffffffffff168152602001908152602001600020548a61342a8a896135f8565b81151561343357fe5b046135df565b600660008a73ffffffffffffffffffffffffffffffffffffffff1673ffffffffffffffffffffffffffffffffffffffff16815260200190815260200160002060008873ffffffffffffffffffffffffffffffffffffffff1673ffffffffffffffffffffffffffffffffffffffff16815260200190815260200160002081905550613553600660008a73ffffffffffffffffffffffffffffffffffffffff1673ffffffffffffffffffffffffffffffffffffffff16815260200190815260200160002060003373ffffffffffffffffffffffffffffffffffffffff1673ffffffffffffffffffffffffffffffffffffffff168152602001908152602001600020548a6135448a896135f8565b81151561354d57fe5b04612e3d565b600660008a73ffffffffffffffffffffffffffffffffffffffff1673ffffffffffffffffffffffffffffffffffffffff16815260200190815260200160002060003373ffffffffffffffffffffffffffffffffffffffff1673ffffffffffffffffffffffffffffffffffffffff1681526020019081526020016000208190555050505050505050505050565b60008282111515156135ed57fe5b818303905092915050565b60008082840290506000841480613619575082848281151561361657fe5b04145b151561362157fe5b80915050929150505600a165627a7a723058202b9524a34b281cbe0a26e5ce3b52d10b068b7bdd7c297f8148810b73c2b030290029",
  "source": "pragma solidity ^0.4.19;\n\nimport { SafeMath_v1 as SafeMath } from \"../SafeMath/SafeMath_v1.sol\";\nimport { AccountLevels } from \"./AccountLevels.sol\";\nimport { IToken_v1 as Token } from \"../Token/IToken_v1.sol\";\n\ncontract EtherDelta is SafeMath {\n    address public admin; //the admin address\n    address public feeAccount; //the account that will receive fees\n    address public accountLevelsAddr; //the address of the AccountLevels contract\n    uint public feeMake; //percentage times (1 ether)\n    uint public feeTake; //percentage times (1 ether)\n    uint public feeRebate; //percentage times (1 ether)\n    mapping (address => mapping (address => uint)) public tokens; //mapping of token addresses to mapping of account balances (token=0 means Ether)\n    mapping (address => mapping (bytes32 => bool)) public orders; //mapping of user accounts to mapping of order hashes to booleans (true = submitted by user, equivalent to offchain signature)\n    mapping (address => mapping (bytes32 => uint)) public orderFills; //mapping of user accounts to mapping of order hashes to uints (amount of order that has been filled)\n\n    event Order(address tokenGet, uint amountGet, address tokenGive, uint amountGive, uint expires, uint nonce, address user);\n    event Cancel(address tokenGet, uint amountGet, address tokenGive, uint amountGive, uint expires, uint nonce, address user, uint8 v, bytes32 r, bytes32 s);\n    event Trade(address tokenGet, uint amountGet, address tokenGive, uint amountGive, address get, address give);\n    event Deposit(address token, address user, uint amount, uint balance);\n    event Withdraw(address token, address user, uint amount, uint balance);\n\n    function EtherDelta(address admin_, address feeAccount_, address accountLevelsAddr_, uint feeMake_, uint feeTake_, uint feeRebate_) {\n        admin = admin_;\n        feeAccount = feeAccount_;\n        accountLevelsAddr = accountLevelsAddr_;\n        feeMake = feeMake_;\n        feeTake = feeTake_;\n        feeRebate = feeRebate_;\n    }\n\n    function() {\n        throw;\n    }\n\n    function changeAdmin(address admin_) {\n        if (msg.sender != admin) throw;\n        admin = admin_;\n    }\n\n    function changeAccountLevelsAddr(address accountLevelsAddr_) {\n        if (msg.sender != admin) throw;\n        accountLevelsAddr = accountLevelsAddr_;\n    }\n\n    function changeFeeAccount(address feeAccount_) {\n        if (msg.sender != admin) throw;\n        feeAccount = feeAccount_;\n    }\n\n    function changeFeeMake(uint feeMake_) {\n        if (msg.sender != admin) throw;\n        if (feeMake_ > feeMake) throw;\n        feeMake = feeMake_;\n    }\n\n    function changeFeeTake(uint feeTake_) {\n        if (msg.sender != admin) throw;\n        if (feeTake_ > feeTake || feeTake_ < feeRebate) throw;\n        feeTake = feeTake_;\n    }\n\n    function changeFeeRebate(uint feeRebate_) {\n        if (msg.sender != admin) throw;\n        if (feeRebate_ < feeRebate || feeRebate_ > feeTake) throw;\n        feeRebate = feeRebate_;\n    }\n\n    function deposit() payable {\n        tokens[0][msg.sender] = safeAdd(tokens[0][msg.sender], msg.value);\n        Deposit(0, msg.sender, msg.value, tokens[0][msg.sender]);\n    }\n\n    function withdraw(uint amount) {\n        if (tokens[0][msg.sender] < amount) throw;\n        tokens[0][msg.sender] = safeSub(tokens[0][msg.sender], amount);\n        if (!msg.sender.call.value(amount)()) throw;\n        Withdraw(0, msg.sender, amount, tokens[0][msg.sender]);\n    }\n\n    function depositToken(address token, uint amount) {\n        //remember to call Token(address).approve(this, amount) or this contract will not be able to do the transfer on your behalf.\n        if (token==0) throw;\n        if (!Token(token).transferFrom(msg.sender, this, amount)) throw;\n        tokens[token][msg.sender] = safeAdd(tokens[token][msg.sender], amount);\n        Deposit(token, msg.sender, amount, tokens[token][msg.sender]);\n    }\n\n    function withdrawToken(address token, uint amount) {\n        if (token==0) throw;\n        if (tokens[token][msg.sender] < amount) throw;\n        tokens[token][msg.sender] = safeSub(tokens[token][msg.sender], amount);\n        if (!Token(token).transfer(msg.sender, amount)) throw;\n        Withdraw(token, msg.sender, amount, tokens[token][msg.sender]);\n    }\n\n    function balanceOf(address token, address user) constant returns (uint) {\n        return tokens[token][user];\n    }\n\n    function order(address tokenGet, uint amountGet, address tokenGive, uint amountGive, uint expires, uint nonce) {\n        bytes32 hash = sha256(this, tokenGet, amountGet, tokenGive, amountGive, expires, nonce);\n        orders[msg.sender][hash] = true;\n        Order(tokenGet, amountGet, tokenGive, amountGive, expires, nonce, msg.sender);\n    }\n\n    function trade(address tokenGet, uint amountGet, address tokenGive, uint amountGive, uint expires, uint nonce, address user, uint8 v, bytes32 r, bytes32 s, uint amount) {\n        //amount is in amountGet terms\n        bytes32 hash = sha256(this, tokenGet, amountGet, tokenGive, amountGive, expires, nonce);\n        if (!(\n            (orders[user][hash] || ecrecover(sha3(\"\\x19Ethereum Signed Message:\\n32\", hash),v,r,s) == user) &&\n            block.number <= expires &&\n            safeAdd(orderFills[user][hash], amount) <= amountGet\n        )) throw;\n        tradeBalances(tokenGet, amountGet, tokenGive, amountGive, user, amount);\n        orderFills[user][hash] = safeAdd(orderFills[user][hash], amount);\n        Trade(tokenGet, amount, tokenGive, amountGive * amount / amountGet, user, msg.sender);\n    }\n\n    function tradeBalances(address tokenGet, uint amountGet, address tokenGive, uint amountGive, address user, uint amount) private {\n        uint feeMakeXfer = safeMul(amount, feeMake) / (1 ether);\n        uint feeTakeXfer = safeMul(amount, feeTake) / (1 ether);\n        uint feeRebateXfer = 0;\n        if (accountLevelsAddr != 0x0) {\n            uint accountLevel = AccountLevels(accountLevelsAddr).accountLevel(user);\n            if (accountLevel==1) feeRebateXfer = safeMul(amount, feeRebate) / (1 ether);\n            if (accountLevel==2) feeRebateXfer = feeTakeXfer;\n        }\n        tokens[tokenGet][msg.sender] = safeSub(tokens[tokenGet][msg.sender], safeAdd(amount, feeTakeXfer));\n        tokens[tokenGet][user] = safeAdd(tokens[tokenGet][user], safeSub(safeAdd(amount, feeRebateXfer), feeMakeXfer));\n        tokens[tokenGet][feeAccount] = safeAdd(tokens[tokenGet][feeAccount], safeSub(safeAdd(feeMakeXfer, feeTakeXfer), feeRebateXfer));\n        tokens[tokenGive][user] = safeSub(tokens[tokenGive][user], safeMul(amountGive, amount) / amountGet);\n        tokens[tokenGive][msg.sender] = safeAdd(tokens[tokenGive][msg.sender], safeMul(amountGive, amount) / amountGet);\n    }\n\n    function testTrade(address tokenGet, uint amountGet, address tokenGive, uint amountGive, uint expires, uint nonce, address user, uint8 v, bytes32 r, bytes32 s, uint amount, address sender) constant returns(bool) {\n        if (!(\n            tokens[tokenGet][sender] >= amount &&\n            availableVolume(tokenGet, amountGet, tokenGive, amountGive, expires, nonce, user, v, r, s) >= amount\n        )) return false;\n        return true;\n    }\n\n    function availableVolume(address tokenGet, uint amountGet, address tokenGive, uint amountGive, uint expires, uint nonce, address user, uint8 v, bytes32 r, bytes32 s) constant returns(uint) {\n        bytes32 hash = sha256(this, tokenGet, amountGet, tokenGive, amountGive, expires, nonce);\n        if (!(\n            (orders[user][hash] || ecrecover(sha3(\"\\x19Ethereum Signed Message:\\n32\", hash),v,r,s) == user) &&\n            block.number <= expires\n        )) return 0;\n        uint available1 = safeSub(amountGet, orderFills[user][hash]);\n        uint available2 = safeMul(tokens[tokenGive][user], amountGet) / amountGive;\n        if (available1<available2) return available1;\n        return available2;\n    }\n\n    function amountFilled(address tokenGet, uint amountGet, address tokenGive, uint amountGive, uint expires, uint nonce, address user, uint8 v, bytes32 r, bytes32 s) constant returns(uint) {\n        bytes32 hash = sha256(this, tokenGet, amountGet, tokenGive, amountGive, expires, nonce);\n        return orderFills[user][hash];\n    }\n\n    function cancelOrder(address tokenGet, uint amountGet, address tokenGive, uint amountGive, uint expires, uint nonce, uint8 v, bytes32 r, bytes32 s) {\n        bytes32 hash = sha256(this, tokenGet, amountGet, tokenGive, amountGive, expires, nonce);\n        if (!(orders[msg.sender][hash] || ecrecover(sha3(\"\\x19Ethereum Signed Message:\\n32\", hash),v,r,s) == msg.sender)) throw;\n        orderFills[msg.sender][hash] = amountGet;\n        Cancel(tokenGet, amountGet, tokenGive, amountGive, expires, nonce, msg.sender, v, r, s);\n    }\n}\n",
  "sourcePath": "/Users/facu/Documents/Laburo/Spiking/Ethereum/0x/0x-monorepo/packages/contracts/contracts/1.0.0/EtherDelta/EtherDelta.sol",
  "compiler": {
    "name": "solc",
    "version": "0.4.24+commit.e67f0147.Emscripten.clang"
  },
  "schemaVersion": "2.0.1",
  "updatedAt": "2018-10-16T20:38:35.254Z"
}