{
  "contractName": "Exchange",
  "abi": [
    {
      "constant": true,
      "inputs": [
        {
          "name": "",
          "type": "bytes32"
        }
      ],
      "name": "filled",
      "outputs": [
        {
          "name": "",
          "type": "uint256"
        }
      ],
      "payable": false,
      "stateMutability": "view",
      "type": "function"
    },
    {
      "constant": false,
      "inputs": [
        {
          "components": [
            {
              "name": "makerAddress",
              "type": "address"
            },
            {
              "name": "takerAddress",
              "type": "address"
            },
            {
              "name": "feeRecipientAddress",
              "type": "address"
            },
            {
              "name": "senderAddress",
              "type": "address"
            },
            {
              "name": "makerAssetAmount",
              "type": "uint256"
            },
            {
              "name": "takerAssetAmount",
              "type": "uint256"
            },
            {
              "name": "makerFee",
              "type": "uint256"
            },
            {
              "name": "takerFee",
              "type": "uint256"
            },
            {
              "name": "expirationTimeSeconds",
              "type": "uint256"
            },
            {
              "name": "salt",
              "type": "uint256"
            },
            {
              "name": "makerAssetData",
              "type": "bytes"
            },
            {
              "name": "takerAssetData",
              "type": "bytes"
            }
          ],
          "name": "orders",
          "type": "tuple[]"
        },
        {
          "name": "takerAssetFillAmounts",
          "type": "uint256[]"
        },
        {
          "name": "signatures",
          "type": "bytes[]"
        }
      ],
      "name": "batchFillOrders",
      "outputs": [
        {
          "components": [
            {
              "name": "makerAssetFilledAmount",
              "type": "uint256"
            },
            {
              "name": "takerAssetFilledAmount",
              "type": "uint256"
            },
            {
              "name": "makerFeePaid",
              "type": "uint256"
            },
            {
              "name": "takerFeePaid",
              "type": "uint256"
            }
          ],
          "name": "totalFillResults",
          "type": "tuple"
        }
      ],
      "payable": false,
      "stateMutability": "nonpayable",
      "type": "function"
    },
    {
      "constant": true,
      "inputs": [
        {
          "name": "",
          "type": "bytes32"
        }
      ],
      "name": "cancelled",
      "outputs": [
        {
          "name": "",
          "type": "bool"
        }
      ],
      "payable": false,
      "stateMutability": "view",
      "type": "function"
    },
    {
      "constant": false,
      "inputs": [
        {
          "name": "hash",
          "type": "bytes32"
        },
        {
          "name": "signerAddress",
          "type": "address"
        },
        {
          "name": "signature",
          "type": "bytes"
        }
      ],
      "name": "preSign",
      "outputs": [],
      "payable": false,
      "stateMutability": "nonpayable",
      "type": "function"
    },
    {
      "constant": false,
      "inputs": [
        {
          "components": [
            {
              "name": "makerAddress",
              "type": "address"
            },
            {
              "name": "takerAddress",
              "type": "address"
            },
            {
              "name": "feeRecipientAddress",
              "type": "address"
            },
            {
              "name": "senderAddress",
              "type": "address"
            },
            {
              "name": "makerAssetAmount",
              "type": "uint256"
            },
            {
              "name": "takerAssetAmount",
              "type": "uint256"
            },
            {
              "name": "makerFee",
              "type": "uint256"
            },
            {
              "name": "takerFee",
              "type": "uint256"
            },
            {
              "name": "expirationTimeSeconds",
              "type": "uint256"
            },
            {
              "name": "salt",
              "type": "uint256"
            },
            {
              "name": "makerAssetData",
              "type": "bytes"
            },
            {
              "name": "takerAssetData",
              "type": "bytes"
            }
          ],
          "name": "leftOrder",
          "type": "tuple"
        },
        {
          "components": [
            {
              "name": "makerAddress",
              "type": "address"
            },
            {
              "name": "takerAddress",
              "type": "address"
            },
            {
              "name": "feeRecipientAddress",
              "type": "address"
            },
            {
              "name": "senderAddress",
              "type": "address"
            },
            {
              "name": "makerAssetAmount",
              "type": "uint256"
            },
            {
              "name": "takerAssetAmount",
              "type": "uint256"
            },
            {
              "name": "makerFee",
              "type": "uint256"
            },
            {
              "name": "takerFee",
              "type": "uint256"
            },
            {
              "name": "expirationTimeSeconds",
              "type": "uint256"
            },
            {
              "name": "salt",
              "type": "uint256"
            },
            {
              "name": "makerAssetData",
              "type": "bytes"
            },
            {
              "name": "takerAssetData",
              "type": "bytes"
            }
          ],
          "name": "rightOrder",
          "type": "tuple"
        },
        {
          "name": "leftSignature",
          "type": "bytes"
        },
        {
          "name": "rightSignature",
          "type": "bytes"
        }
      ],
      "name": "matchOrders",
      "outputs": [
        {
          "components": [
            {
              "components": [
                {
                  "name": "makerAssetFilledAmount",
                  "type": "uint256"
                },
                {
                  "name": "takerAssetFilledAmount",
                  "type": "uint256"
                },
                {
                  "name": "makerFeePaid",
                  "type": "uint256"
                },
                {
                  "name": "takerFeePaid",
                  "type": "uint256"
                }
              ],
              "name": "left",
              "type": "tuple"
            },
            {
              "components": [
                {
                  "name": "makerAssetFilledAmount",
                  "type": "uint256"
                },
                {
                  "name": "takerAssetFilledAmount",
                  "type": "uint256"
                },
                {
                  "name": "makerFeePaid",
                  "type": "uint256"
                },
                {
                  "name": "takerFeePaid",
                  "type": "uint256"
                }
              ],
              "name": "right",
              "type": "tuple"
            },
            {
              "name": "leftMakerAssetSpreadAmount",
              "type": "uint256"
            }
          ],
          "name": "matchedFillResults",
          "type": "tuple"
        }
      ],
      "payable": false,
      "stateMutability": "nonpayable",
      "type": "function"
    },
    {
      "constant": false,
      "inputs": [
        {
          "components": [
            {
              "name": "makerAddress",
              "type": "address"
            },
            {
              "name": "takerAddress",
              "type": "address"
            },
            {
              "name": "feeRecipientAddress",
              "type": "address"
            },
            {
              "name": "senderAddress",
              "type": "address"
            },
            {
              "name": "makerAssetAmount",
              "type": "uint256"
            },
            {
              "name": "takerAssetAmount",
              "type": "uint256"
            },
            {
              "name": "makerFee",
              "type": "uint256"
            },
            {
              "name": "takerFee",
              "type": "uint256"
            },
            {
              "name": "expirationTimeSeconds",
              "type": "uint256"
            },
            {
              "name": "salt",
              "type": "uint256"
            },
            {
              "name": "makerAssetData",
              "type": "bytes"
            },
            {
              "name": "takerAssetData",
              "type": "bytes"
            }
          ],
          "name": "order",
          "type": "tuple"
        },
        {
          "name": "takerAssetFillAmount",
          "type": "uint256"
        },
        {
          "name": "signature",
          "type": "bytes"
        }
      ],
      "name": "fillOrderNoThrow",
      "outputs": [
        {
          "components": [
            {
              "name": "makerAssetFilledAmount",
              "type": "uint256"
            },
            {
              "name": "takerAssetFilledAmount",
              "type": "uint256"
            },
            {
              "name": "makerFeePaid",
              "type": "uint256"
            },
            {
              "name": "takerFeePaid",
              "type": "uint256"
            }
          ],
          "name": "fillResults",
          "type": "tuple"
        }
      ],
      "payable": false,
      "stateMutability": "nonpayable",
      "type": "function"
    },
    {
      "constant": true,
      "inputs": [
        {
          "name": "",
          "type": "bytes4"
        }
      ],
      "name": "assetProxies",
      "outputs": [
        {
          "name": "",
          "type": "address"
        }
      ],
      "payable": false,
      "stateMutability": "view",
      "type": "function"
    },
    {
      "constant": false,
      "inputs": [
        {
          "components": [
            {
              "name": "makerAddress",
              "type": "address"
            },
            {
              "name": "takerAddress",
              "type": "address"
            },
            {
              "name": "feeRecipientAddress",
              "type": "address"
            },
            {
              "name": "senderAddress",
              "type": "address"
            },
            {
              "name": "makerAssetAmount",
              "type": "uint256"
            },
            {
              "name": "takerAssetAmount",
              "type": "uint256"
            },
            {
              "name": "makerFee",
              "type": "uint256"
            },
            {
              "name": "takerFee",
              "type": "uint256"
            },
            {
              "name": "expirationTimeSeconds",
              "type": "uint256"
            },
            {
              "name": "salt",
              "type": "uint256"
            },
            {
              "name": "makerAssetData",
              "type": "bytes"
            },
            {
              "name": "takerAssetData",
              "type": "bytes"
            }
          ],
          "name": "orders",
          "type": "tuple[]"
        }
      ],
      "name": "batchCancelOrders",
      "outputs": [],
      "payable": false,
      "stateMutability": "nonpayable",
      "type": "function"
    },
    {
      "constant": false,
      "inputs": [
        {
          "components": [
            {
              "name": "makerAddress",
              "type": "address"
            },
            {
              "name": "takerAddress",
              "type": "address"
            },
            {
              "name": "feeRecipientAddress",
              "type": "address"
            },
            {
              "name": "senderAddress",
              "type": "address"
            },
            {
              "name": "makerAssetAmount",
              "type": "uint256"
            },
            {
              "name": "takerAssetAmount",
              "type": "uint256"
            },
            {
              "name": "makerFee",
              "type": "uint256"
            },
            {
              "name": "takerFee",
              "type": "uint256"
            },
            {
              "name": "expirationTimeSeconds",
              "type": "uint256"
            },
            {
              "name": "salt",
              "type": "uint256"
            },
            {
              "name": "makerAssetData",
              "type": "bytes"
            },
            {
              "name": "takerAssetData",
              "type": "bytes"
            }
          ],
          "name": "orders",
          "type": "tuple[]"
        },
        {
          "name": "takerAssetFillAmounts",
          "type": "uint256[]"
        },
        {
          "name": "signatures",
          "type": "bytes[]"
        }
      ],
      "name": "batchFillOrKillOrders",
      "outputs": [
        {
          "components": [
            {
              "name": "makerAssetFilledAmount",
              "type": "uint256"
            },
            {
              "name": "takerAssetFilledAmount",
              "type": "uint256"
            },
            {
              "name": "makerFeePaid",
              "type": "uint256"
            },
            {
              "name": "takerFeePaid",
              "type": "uint256"
            }
          ],
          "name": "totalFillResults",
          "type": "tuple"
        }
      ],
      "payable": false,
      "stateMutability": "nonpayable",
      "type": "function"
    },
    {
      "constant": false,
      "inputs": [
        {
          "name": "targetOrderEpoch",
          "type": "uint256"
        }
      ],
      "name": "cancelOrdersUpTo",
      "outputs": [],
      "payable": false,
      "stateMutability": "nonpayable",
      "type": "function"
    },
    {
      "constant": false,
      "inputs": [
        {
          "components": [
            {
              "name": "makerAddress",
              "type": "address"
            },
            {
              "name": "takerAddress",
              "type": "address"
            },
            {
              "name": "feeRecipientAddress",
              "type": "address"
            },
            {
              "name": "senderAddress",
              "type": "address"
            },
            {
              "name": "makerAssetAmount",
              "type": "uint256"
            },
            {
              "name": "takerAssetAmount",
              "type": "uint256"
            },
            {
              "name": "makerFee",
              "type": "uint256"
            },
            {
              "name": "takerFee",
              "type": "uint256"
            },
            {
              "name": "expirationTimeSeconds",
              "type": "uint256"
            },
            {
              "name": "salt",
              "type": "uint256"
            },
            {
              "name": "makerAssetData",
              "type": "bytes"
            },
            {
              "name": "takerAssetData",
              "type": "bytes"
            }
          ],
          "name": "orders",
          "type": "tuple[]"
        },
        {
          "name": "takerAssetFillAmounts",
          "type": "uint256[]"
        },
        {
          "name": "signatures",
          "type": "bytes[]"
        }
      ],
      "name": "batchFillOrdersNoThrow",
      "outputs": [
        {
          "components": [
            {
              "name": "makerAssetFilledAmount",
              "type": "uint256"
            },
            {
              "name": "takerAssetFilledAmount",
              "type": "uint256"
            },
            {
              "name": "makerFeePaid",
              "type": "uint256"
            },
            {
              "name": "takerFeePaid",
              "type": "uint256"
            }
          ],
          "name": "totalFillResults",
          "type": "tuple"
        }
      ],
      "payable": false,
      "stateMutability": "nonpayable",
      "type": "function"
    },
    {
      "constant": true,
      "inputs": [
        {
          "name": "assetProxyId",
          "type": "bytes4"
        }
      ],
      "name": "getAssetProxy",
      "outputs": [
        {
          "name": "",
          "type": "address"
        }
      ],
      "payable": false,
      "stateMutability": "view",
      "type": "function"
    },
    {
      "constant": true,
      "inputs": [
        {
          "name": "",
          "type": "bytes32"
        }
      ],
      "name": "transactions",
      "outputs": [
        {
          "name": "",
          "type": "bool"
        }
      ],
      "payable": false,
      "stateMutability": "view",
      "type": "function"
    },
    {
      "constant": false,
      "inputs": [
        {
          "components": [
            {
              "name": "makerAddress",
              "type": "address"
            },
            {
              "name": "takerAddress",
              "type": "address"
            },
            {
              "name": "feeRecipientAddress",
              "type": "address"
            },
            {
              "name": "senderAddress",
              "type": "address"
            },
            {
              "name": "makerAssetAmount",
              "type": "uint256"
            },
            {
              "name": "takerAssetAmount",
              "type": "uint256"
            },
            {
              "name": "makerFee",
              "type": "uint256"
            },
            {
              "name": "takerFee",
              "type": "uint256"
            },
            {
              "name": "expirationTimeSeconds",
              "type": "uint256"
            },
            {
              "name": "salt",
              "type": "uint256"
            },
            {
              "name": "makerAssetData",
              "type": "bytes"
            },
            {
              "name": "takerAssetData",
              "type": "bytes"
            }
          ],
          "name": "order",
          "type": "tuple"
        },
        {
          "name": "takerAssetFillAmount",
          "type": "uint256"
        },
        {
          "name": "signature",
          "type": "bytes"
        }
      ],
      "name": "fillOrKillOrder",
      "outputs": [
        {
          "components": [
            {
              "name": "makerAssetFilledAmount",
              "type": "uint256"
            },
            {
              "name": "takerAssetFilledAmount",
              "type": "uint256"
            },
            {
              "name": "makerFeePaid",
              "type": "uint256"
            },
            {
              "name": "takerFeePaid",
              "type": "uint256"
            }
          ],
          "name": "fillResults",
          "type": "tuple"
        }
      ],
      "payable": false,
      "stateMutability": "nonpayable",
      "type": "function"
    },
    {
      "constant": false,
      "inputs": [
        {
          "name": "validatorAddress",
          "type": "address"
        },
        {
          "name": "approval",
          "type": "bool"
        }
      ],
      "name": "setSignatureValidatorApproval",
      "outputs": [],
      "payable": false,
      "stateMutability": "nonpayable",
      "type": "function"
    },
    {
      "constant": true,
      "inputs": [
        {
          "name": "",
          "type": "address"
        },
        {
          "name": "",
          "type": "address"
        }
      ],
      "name": "allowedValidators",
      "outputs": [
        {
          "name": "",
          "type": "bool"
        }
      ],
      "payable": false,
      "stateMutability": "view",
      "type": "function"
    },
    {
      "constant": false,
      "inputs": [
        {
          "components": [
            {
              "name": "makerAddress",
              "type": "address"
            },
            {
              "name": "takerAddress",
              "type": "address"
            },
            {
              "name": "feeRecipientAddress",
              "type": "address"
            },
            {
              "name": "senderAddress",
              "type": "address"
            },
            {
              "name": "makerAssetAmount",
              "type": "uint256"
            },
            {
              "name": "takerAssetAmount",
              "type": "uint256"
            },
            {
              "name": "makerFee",
              "type": "uint256"
            },
            {
              "name": "takerFee",
              "type": "uint256"
            },
            {
              "name": "expirationTimeSeconds",
              "type": "uint256"
            },
            {
              "name": "salt",
              "type": "uint256"
            },
            {
              "name": "makerAssetData",
              "type": "bytes"
            },
            {
              "name": "takerAssetData",
              "type": "bytes"
            }
          ],
          "name": "orders",
          "type": "tuple[]"
        },
        {
          "name": "takerAssetFillAmount",
          "type": "uint256"
        },
        {
          "name": "signatures",
          "type": "bytes[]"
        }
      ],
      "name": "marketSellOrders",
      "outputs": [
        {
          "components": [
            {
              "name": "makerAssetFilledAmount",
              "type": "uint256"
            },
            {
              "name": "takerAssetFilledAmount",
              "type": "uint256"
            },
            {
              "name": "makerFeePaid",
              "type": "uint256"
            },
            {
              "name": "takerFeePaid",
              "type": "uint256"
            }
          ],
          "name": "totalFillResults",
          "type": "tuple"
        }
      ],
      "payable": false,
      "stateMutability": "nonpayable",
      "type": "function"
    },
    {
      "constant": true,
      "inputs": [
        {
          "components": [
            {
              "name": "makerAddress",
              "type": "address"
            },
            {
              "name": "takerAddress",
              "type": "address"
            },
            {
              "name": "feeRecipientAddress",
              "type": "address"
            },
            {
              "name": "senderAddress",
              "type": "address"
            },
            {
              "name": "makerAssetAmount",
              "type": "uint256"
            },
            {
              "name": "takerAssetAmount",
              "type": "uint256"
            },
            {
              "name": "makerFee",
              "type": "uint256"
            },
            {
              "name": "takerFee",
              "type": "uint256"
            },
            {
              "name": "expirationTimeSeconds",
              "type": "uint256"
            },
            {
              "name": "salt",
              "type": "uint256"
            },
            {
              "name": "makerAssetData",
              "type": "bytes"
            },
            {
              "name": "takerAssetData",
              "type": "bytes"
            }
          ],
          "name": "orders",
          "type": "tuple[]"
        }
      ],
      "name": "getOrdersInfo",
      "outputs": [
        {
          "components": [
            {
              "name": "orderStatus",
              "type": "uint8"
            },
            {
              "name": "orderHash",
              "type": "bytes32"
            },
            {
              "name": "orderTakerAssetFilledAmount",
              "type": "uint256"
            }
          ],
          "name": "",
          "type": "tuple[]"
        }
      ],
      "payable": false,
      "stateMutability": "view",
      "type": "function"
    },
    {
      "constant": false,
      "inputs": [],
      "name": "initialize",
      "outputs": [],
      "payable": false,
      "stateMutability": "nonpayable",
      "type": "function"
    },
    {
      "constant": true,
      "inputs": [
        {
          "name": "",
          "type": "bytes32"
        },
        {
          "name": "",
          "type": "address"
        }
      ],
      "name": "preSigned",
      "outputs": [
        {
          "name": "",
          "type": "bool"
        }
      ],
      "payable": false,
      "stateMutability": "view",
      "type": "function"
    },
    {
      "constant": true,
      "inputs": [],
      "name": "owner",
      "outputs": [
        {
          "name": "",
          "type": "address"
        }
      ],
      "payable": false,
      "stateMutability": "view",
      "type": "function"
    },
    {
      "constant": true,
      "inputs": [
        {
          "name": "hash",
          "type": "bytes32"
        },
        {
          "name": "signerAddress",
          "type": "address"
        },
        {
          "name": "signature",
          "type": "bytes"
        }
      ],
      "name": "isValidSignature",
      "outputs": [
        {
          "name": "isValid",
          "type": "bool"
        }
      ],
      "payable": false,
      "stateMutability": "view",
      "type": "function"
    },
    {
      "constant": false,
      "inputs": [
        {
          "components": [
            {
              "name": "makerAddress",
              "type": "address"
            },
            {
              "name": "takerAddress",
              "type": "address"
            },
            {
              "name": "feeRecipientAddress",
              "type": "address"
            },
            {
              "name": "senderAddress",
              "type": "address"
            },
            {
              "name": "makerAssetAmount",
              "type": "uint256"
            },
            {
              "name": "takerAssetAmount",
              "type": "uint256"
            },
            {
              "name": "makerFee",
              "type": "uint256"
            },
            {
              "name": "takerFee",
              "type": "uint256"
            },
            {
              "name": "expirationTimeSeconds",
              "type": "uint256"
            },
            {
              "name": "salt",
              "type": "uint256"
            },
            {
              "name": "makerAssetData",
              "type": "bytes"
            },
            {
              "name": "takerAssetData",
              "type": "bytes"
            }
          ],
          "name": "orders",
          "type": "tuple[]"
        },
        {
          "name": "makerAssetFillAmount",
          "type": "uint256"
        },
        {
          "name": "signatures",
          "type": "bytes[]"
        }
      ],
      "name": "marketBuyOrdersNoThrow",
      "outputs": [
        {
          "components": [
            {
              "name": "makerAssetFilledAmount",
              "type": "uint256"
            },
            {
              "name": "takerAssetFilledAmount",
              "type": "uint256"
            },
            {
              "name": "makerFeePaid",
              "type": "uint256"
            },
            {
              "name": "takerFeePaid",
              "type": "uint256"
            }
          ],
          "name": "totalFillResults",
          "type": "tuple"
        }
      ],
      "payable": false,
      "stateMutability": "nonpayable",
      "type": "function"
    },
    {
      "constant": false,
      "inputs": [
        {
          "components": [
            {
              "name": "makerAddress",
              "type": "address"
            },
            {
              "name": "takerAddress",
              "type": "address"
            },
            {
              "name": "feeRecipientAddress",
              "type": "address"
            },
            {
              "name": "senderAddress",
              "type": "address"
            },
            {
              "name": "makerAssetAmount",
              "type": "uint256"
            },
            {
              "name": "takerAssetAmount",
              "type": "uint256"
            },
            {
              "name": "makerFee",
              "type": "uint256"
            },
            {
              "name": "takerFee",
              "type": "uint256"
            },
            {
              "name": "expirationTimeSeconds",
              "type": "uint256"
            },
            {
              "name": "salt",
              "type": "uint256"
            },
            {
              "name": "makerAssetData",
              "type": "bytes"
            },
            {
              "name": "takerAssetData",
              "type": "bytes"
            }
          ],
          "name": "order",
          "type": "tuple"
        },
        {
          "name": "takerAssetFillAmount",
          "type": "uint256"
        },
        {
          "name": "signature",
          "type": "bytes"
        }
      ],
      "name": "fillOrder",
      "outputs": [
        {
          "components": [
            {
              "name": "makerAssetFilledAmount",
              "type": "uint256"
            },
            {
              "name": "takerAssetFilledAmount",
              "type": "uint256"
            },
            {
              "name": "makerFeePaid",
              "type": "uint256"
            },
            {
              "name": "takerFeePaid",
              "type": "uint256"
            }
          ],
          "name": "fillResults",
          "type": "tuple"
        }
      ],
      "payable": false,
      "stateMutability": "nonpayable",
      "type": "function"
    },
    {
      "constant": false,
      "inputs": [
        {
          "name": "salt",
          "type": "uint256"
        },
        {
          "name": "signerAddress",
          "type": "address"
        },
        {
          "name": "data",
          "type": "bytes"
        },
        {
          "name": "signature",
          "type": "bytes"
        }
      ],
      "name": "executeTransaction",
      "outputs": [],
      "payable": false,
      "stateMutability": "nonpayable",
      "type": "function"
    },
    {
      "constant": false,
      "inputs": [
        {
          "name": "assetProxy",
          "type": "address"
        }
      ],
      "name": "registerAssetProxy",
      "outputs": [],
      "payable": false,
      "stateMutability": "nonpayable",
      "type": "function"
    },
    {
      "constant": true,
      "inputs": [
        {
          "components": [
            {
              "name": "makerAddress",
              "type": "address"
            },
            {
              "name": "takerAddress",
              "type": "address"
            },
            {
              "name": "feeRecipientAddress",
              "type": "address"
            },
            {
              "name": "senderAddress",
              "type": "address"
            },
            {
              "name": "makerAssetAmount",
              "type": "uint256"
            },
            {
              "name": "takerAssetAmount",
              "type": "uint256"
            },
            {
              "name": "makerFee",
              "type": "uint256"
            },
            {
              "name": "takerFee",
              "type": "uint256"
            },
            {
              "name": "expirationTimeSeconds",
              "type": "uint256"
            },
            {
              "name": "salt",
              "type": "uint256"
            },
            {
              "name": "makerAssetData",
              "type": "bytes"
            },
            {
              "name": "takerAssetData",
              "type": "bytes"
            }
          ],
          "name": "order",
          "type": "tuple"
        }
      ],
      "name": "getOrderInfo",
      "outputs": [
        {
          "components": [
            {
              "name": "orderStatus",
              "type": "uint8"
            },
            {
              "name": "orderHash",
              "type": "bytes32"
            },
            {
              "name": "orderTakerAssetFilledAmount",
              "type": "uint256"
            }
          ],
          "name": "orderInfo",
          "type": "tuple"
        }
      ],
      "payable": false,
      "stateMutability": "view",
      "type": "function"
    },
    {
      "constant": false,
      "inputs": [
        {
          "components": [
            {
              "name": "makerAddress",
              "type": "address"
            },
            {
              "name": "takerAddress",
              "type": "address"
            },
            {
              "name": "feeRecipientAddress",
              "type": "address"
            },
            {
              "name": "senderAddress",
              "type": "address"
            },
            {
              "name": "makerAssetAmount",
              "type": "uint256"
            },
            {
              "name": "takerAssetAmount",
              "type": "uint256"
            },
            {
              "name": "makerFee",
              "type": "uint256"
            },
            {
              "name": "takerFee",
              "type": "uint256"
            },
            {
              "name": "expirationTimeSeconds",
              "type": "uint256"
            },
            {
              "name": "salt",
              "type": "uint256"
            },
            {
              "name": "makerAssetData",
              "type": "bytes"
            },
            {
              "name": "takerAssetData",
              "type": "bytes"
            }
          ],
          "name": "order",
          "type": "tuple"
        }
      ],
      "name": "cancelOrder",
      "outputs": [],
      "payable": false,
      "stateMutability": "nonpayable",
      "type": "function"
    },
    {
      "constant": true,
      "inputs": [
        {
          "name": "",
          "type": "address"
        },
        {
          "name": "",
          "type": "address"
        }
      ],
      "name": "orderEpoch",
      "outputs": [
        {
          "name": "",
          "type": "uint256"
        }
      ],
      "payable": false,
      "stateMutability": "view",
      "type": "function"
    },
    {
      "constant": true,
      "inputs": [],
      "name": "ZRX_ASSET_DATA",
      "outputs": [
        {
          "name": "",
          "type": "bytes"
        }
      ],
      "payable": false,
      "stateMutability": "view",
      "type": "function"
    },
    {
      "constant": false,
      "inputs": [
        {
          "components": [
            {
              "name": "makerAddress",
              "type": "address"
            },
            {
              "name": "takerAddress",
              "type": "address"
            },
            {
              "name": "feeRecipientAddress",
              "type": "address"
            },
            {
              "name": "senderAddress",
              "type": "address"
            },
            {
              "name": "makerAssetAmount",
              "type": "uint256"
            },
            {
              "name": "takerAssetAmount",
              "type": "uint256"
            },
            {
              "name": "makerFee",
              "type": "uint256"
            },
            {
              "name": "takerFee",
              "type": "uint256"
            },
            {
              "name": "expirationTimeSeconds",
              "type": "uint256"
            },
            {
              "name": "salt",
              "type": "uint256"
            },
            {
              "name": "makerAssetData",
              "type": "bytes"
            },
            {
              "name": "takerAssetData",
              "type": "bytes"
            }
          ],
          "name": "orders",
          "type": "tuple[]"
        },
        {
          "name": "takerAssetFillAmount",
          "type": "uint256"
        },
        {
          "name": "signatures",
          "type": "bytes[]"
        }
      ],
      "name": "marketSellOrdersNoThrow",
      "outputs": [
        {
          "components": [
            {
              "name": "makerAssetFilledAmount",
              "type": "uint256"
            },
            {
              "name": "takerAssetFilledAmount",
              "type": "uint256"
            },
            {
              "name": "makerFeePaid",
              "type": "uint256"
            },
            {
              "name": "takerFeePaid",
              "type": "uint256"
            }
          ],
          "name": "totalFillResults",
          "type": "tuple"
        }
      ],
      "payable": false,
      "stateMutability": "nonpayable",
      "type": "function"
    },
    {
      "constant": true,
      "inputs": [],
      "name": "EIP712_DOMAIN_HASH",
      "outputs": [
        {
          "name": "",
          "type": "bytes32"
        }
      ],
      "payable": false,
      "stateMutability": "view",
      "type": "function"
    },
    {
      "constant": false,
      "inputs": [
        {
          "components": [
            {
              "name": "makerAddress",
              "type": "address"
            },
            {
              "name": "takerAddress",
              "type": "address"
            },
            {
              "name": "feeRecipientAddress",
              "type": "address"
            },
            {
              "name": "senderAddress",
              "type": "address"
            },
            {
              "name": "makerAssetAmount",
              "type": "uint256"
            },
            {
              "name": "takerAssetAmount",
              "type": "uint256"
            },
            {
              "name": "makerFee",
              "type": "uint256"
            },
            {
              "name": "takerFee",
              "type": "uint256"
            },
            {
              "name": "expirationTimeSeconds",
              "type": "uint256"
            },
            {
              "name": "salt",
              "type": "uint256"
            },
            {
              "name": "makerAssetData",
              "type": "bytes"
            },
            {
              "name": "takerAssetData",
              "type": "bytes"
            }
          ],
          "name": "orders",
          "type": "tuple[]"
        },
        {
          "name": "makerAssetFillAmount",
          "type": "uint256"
        },
        {
          "name": "signatures",
          "type": "bytes[]"
        }
      ],
      "name": "marketBuyOrders",
      "outputs": [
        {
          "components": [
            {
              "name": "makerAssetFilledAmount",
              "type": "uint256"
            },
            {
              "name": "takerAssetFilledAmount",
              "type": "uint256"
            },
            {
              "name": "makerFeePaid",
              "type": "uint256"
            },
            {
              "name": "takerFeePaid",
              "type": "uint256"
            }
          ],
          "name": "totalFillResults",
          "type": "tuple"
        }
      ],
      "payable": false,
      "stateMutability": "nonpayable",
      "type": "function"
    },
    {
      "constant": true,
      "inputs": [],
      "name": "currentContextAddress",
      "outputs": [
        {
          "name": "",
          "type": "address"
        }
      ],
      "payable": false,
      "stateMutability": "view",
      "type": "function"
    },
    {
      "constant": false,
      "inputs": [
        {
          "name": "newOwner",
          "type": "address"
        }
      ],
      "name": "transferOwnership",
      "outputs": [],
      "payable": false,
      "stateMutability": "nonpayable",
      "type": "function"
    },
    {
      "constant": true,
      "inputs": [],
      "name": "VERSION",
      "outputs": [
        {
          "name": "",
          "type": "string"
        }
      ],
      "payable": false,
      "stateMutability": "view",
      "type": "function"
    },
    {
      "inputs": [
        {
          "name": "_zrxAssetData",
          "type": "bytes"
        }
      ],
      "payable": false,
      "stateMutability": "nonpayable",
      "type": "constructor"
    },
    {
      "anonymous": false,
      "inputs": [
        {
          "indexed": true,
          "name": "signerAddress",
          "type": "address"
        },
        {
          "indexed": true,
          "name": "validatorAddress",
          "type": "address"
        },
        {
          "indexed": false,
          "name": "approved",
          "type": "bool"
        }
      ],
      "name": "SignatureValidatorApproval",
      "type": "event"
    },
    {
      "anonymous": false,
      "inputs": [
        {
          "indexed": true,
          "name": "makerAddress",
          "type": "address"
        },
        {
          "indexed": true,
          "name": "feeRecipientAddress",
          "type": "address"
        },
        {
          "indexed": false,
          "name": "takerAddress",
          "type": "address"
        },
        {
          "indexed": false,
          "name": "senderAddress",
          "type": "address"
        },
        {
          "indexed": false,
          "name": "makerAssetFilledAmount",
          "type": "uint256"
        },
        {
          "indexed": false,
          "name": "takerAssetFilledAmount",
          "type": "uint256"
        },
        {
          "indexed": false,
          "name": "makerFeePaid",
          "type": "uint256"
        },
        {
          "indexed": false,
          "name": "takerFeePaid",
          "type": "uint256"
        },
        {
          "indexed": true,
          "name": "orderHash",
          "type": "bytes32"
        },
        {
          "indexed": false,
          "name": "makerAssetData",
          "type": "bytes"
        },
        {
          "indexed": false,
          "name": "takerAssetData",
          "type": "bytes"
        }
      ],
      "name": "Fill",
      "type": "event"
    },
    {
      "anonymous": false,
      "inputs": [
        {
          "indexed": true,
          "name": "makerAddress",
          "type": "address"
        },
        {
          "indexed": true,
          "name": "feeRecipientAddress",
          "type": "address"
        },
        {
          "indexed": false,
          "name": "senderAddress",
          "type": "address"
        },
        {
          "indexed": true,
          "name": "orderHash",
          "type": "bytes32"
        },
        {
          "indexed": false,
          "name": "makerAssetData",
          "type": "bytes"
        },
        {
          "indexed": false,
          "name": "takerAssetData",
          "type": "bytes"
        }
      ],
      "name": "Cancel",
      "type": "event"
    },
    {
      "anonymous": false,
      "inputs": [
        {
          "indexed": true,
          "name": "makerAddress",
          "type": "address"
        },
        {
          "indexed": true,
          "name": "senderAddress",
          "type": "address"
        },
        {
          "indexed": false,
          "name": "orderEpoch",
          "type": "uint256"
        }
      ],
      "name": "CancelUpTo",
      "type": "event"
    },
    {
      "anonymous": false,
      "inputs": [
        {
          "indexed": false,
          "name": "id",
          "type": "bytes4"
        },
        {
          "indexed": false,
          "name": "assetProxy",
          "type": "address"
        }
      ],
      "name": "AssetProxyRegistered",
      "type": "event"
    }
  ],
  "bytecode": "0x608060405260008060006101000a81548160ff0219169083151502179055503480156200002b57600080fd5b5060405162007949380380620079498339810180604052620000519190810190620001c1565b8080600190805190602001906200006a929190620000b4565b505033603660006101000a81548173ffffffffffffffffffffffffffffffffffffffff021916908373ffffffffffffffffffffffffffffffffffffffff1602179055505062000297565b828054600181600116156101000203166002900490600052602060002090601f016020900481019282601f10620000f757805160ff191683800117855562000128565b8280016001018555821562000128579182015b82811115620001275782518255916020019190600101906200010a565b5b5090506200013791906200013b565b5090565b6200016091905b808211156200015c57600081600090555060010162000142565b5090565b90565b600082601f83011215156200017757600080fd5b81516200018e620001888262000234565b62000206565b91508082526020830160208301858383011115620001ab57600080fd5b620001b883828462000261565b50505092915050565b600060208284031215620001d457600080fd5b600082015167ffffffffffffffff811115620001ef57600080fd5b620001fd8482850162000163565b91505092915050565b6000604051905081810181811067ffffffffffffffff821117156200022a57600080fd5b8060405250919050565b600067ffffffffffffffff8211156200024c57600080fd5b601f19601f8301169050602081019050919050565b60005b838110156200028157808201518184015260208101905062000264565b8381111562000291576000848401525b50505050565b6176a280620002a76000396000f3006080604052600436106101c2576000357c0100000000000000000000000000000000000000000000000000000000900463ffffffff168063288cdc91146101c7578063297bb70b146102045780632ac12622146102415780633683ef8e1461027e5780633c28d861146102a75780633e228bae146102e45780633fd3c997146103215780634ac147821461035e5780634d0ae546146103875780634f9559b1146103c457806350dde190146103ed578063607041081461042a578063642f2eaf1461046757806364a3bc15146104a457806377fcce68146104e15780637b8e35141461050a5780637e1d9808146105475780637e9d74dc146105845780638129fc1c146105c157806382c174d0146105d85780638da5cb5b146106155780639363470214610640578063a3e203801461067d578063b4be83d5146106ba578063bfc8bfce146106f7578063c585bb9314610720578063c75e0a8114610749578063d46b02c314610786578063d9bfa73e146107af578063db123b1a146107ec578063dd1c7d1814610817578063e306f77914610854578063e5fa431b1461087f578063eea086ba146108bc578063f2fde38b146108e7578063ffa1ad7414610910575b600080fd5b3480156101d357600080fd5b506101ee60048036036101e99190810190615e20565b61093b565b6040516101fb91906173c0565b60405180910390f35b34801561021057600080fd5b5061022b60048036036102269190810190615d0a565b610953565b604051610238919061736e565b60405180910390f35b34801561024d57600080fd5b5061026860048036036102639190810190615e20565b610a73565b6040516102759190616dbd565b60405180910390f35b34801561028a57600080fd5b506102a560048036036102a09190810190615e85565b610a93565b005b3480156102b357600080fd5b506102ce60048036036102c99190810190615feb565b610bbe565b6040516102db9190617389565b60405180910390f35b3480156102f057600080fd5b5061030b600480360361030691908101906160ae565b610d69565b604051610318919061736e565b60405180910390f35b34801561032d57600080fd5b5061034860048036036103439190810190615f58565b610dc1565b6040516103559190616ef1565b60405180910390f35b34801561036a57600080fd5b5061038560048036036103809190810190615cc9565b610df4565b005b34801561039357600080fd5b506103ae60048036036103a99190810190615d0a565b610ec0565b6040516103bb919061736e565b60405180910390f35b3480156103d057600080fd5b506103eb60048036036103e6919081019061612d565b610fe0565b005b3480156103f957600080fd5b50610414600480360361040f9190810190615d0a565b611269565b604051610421919061736e565b60405180910390f35b34801561043657600080fd5b50610451600480360361044c9190810190615f58565b611304565b60405161045e9190616caf565b60405180910390f35b34801561047357600080fd5b5061048e60048036036104899190810190615e20565b61137f565b60405161049b9190616dbd565b60405180910390f35b3480156104b057600080fd5b506104cb60048036036104c691908101906160ae565b61139f565b6040516104d8919061736e565b60405180910390f35b3480156104ed57600080fd5b5061050860048036036105039190810190615c8d565b611443565b005b34801561051657600080fd5b50610531600480360361052c9190810190615c51565b6115d2565b60405161053e9190616dbd565b60405180910390f35b34801561055357600080fd5b5061056e60048036036105699190810190615da1565b611601565b60405161057b919061736e565b60405180910390f35b34801561059057600080fd5b506105ab60048036036105a69190810190615cc9565b611773565b6040516105b89190616d9b565b60405180910390f35b3480156105cd57600080fd5b506105d661181d565b005b3480156105e457600080fd5b506105ff60048036036105fa9190810190615e49565b611c48565b60405161060c9190616dbd565b60405180910390f35b34801561062157600080fd5b5061062a611c77565b6040516106379190616caf565b60405180910390f35b34801561064c57600080fd5b5061066760048036036106629190810190615ef1565b611c9d565b6040516106749190616dbd565b60405180910390f35b34801561068957600080fd5b506106a4600480360361069f9190810190615da1565b61241c565b6040516106b1919061736e565b60405180910390f35b3480156106c657600080fd5b506106e160048036036106dc91908101906160ae565b61254e565b6040516106ee919061736e565b60405180910390f35b34801561070357600080fd5b5061071e60048036036107199190810190616156565b6125f2565b005b34801561072c57600080fd5b5061074760048036036107429190810190615c28565b61295e565b005b34801561075557600080fd5b50610770600480360361076b9190810190615faa565b612c4a565b60405161077d91906173a5565b60405180910390f35b34801561079257600080fd5b506107ad60048036036107a89190810190615faa565b612e9c565b005b3480156107bb57600080fd5b506107d660048036036107d19190810190615c51565b612f2d565b6040516107e391906173c0565b60405180910390f35b3480156107f857600080fd5b50610801612f52565b60405161080e9190616ecf565b60405180910390f35b34801561082357600080fd5b5061083e60048036036108399190810190615da1565b612ff0565b60405161084b919061736e565b60405180910390f35b34801561086057600080fd5b506108696130dd565b6040516108769190616dd8565b60405180910390f35b34801561088b57600080fd5b506108a660048036036108a19190810190615da1565b6130e3565b6040516108b3919061736e565b60405180910390f35b3480156108c857600080fd5b506108d161329a565b6040516108de9190616caf565b60405180910390f35b3480156108f357600080fd5b5061090e60048036036109099190810190615c28565b6132c0565b005b34801561091c57600080fd5b506109256133cd565b6040516109329190616f0c565b60405180910390f35b60376020528060005260406000206000915090505481565b61095b6155da565b6000806109666155da565b6000809054906101000a900460ff161515156109b7576040517f08c379a00000000000000000000000000000000000000000000000000000000081526004016109ae9061726e565b60405180910390fd5b60016000806101000a81548160ff02191690831515021790555086519250600091505b8282141515610a4c57610a3387838151811015156109f457fe5b906020019060200201518784815181101515610a0c57fe5b906020019060200201518785815181101515610a2457fe5b90602001906020020151613406565b9050610a3f84826134a7565b81806001019250506109da565b83935060008060006101000a81548160ff0219169083151502179055505050509392505050565b60386020528060005260406000206000915054906101000a900460ff1681565b3373ffffffffffffffffffffffffffffffffffffffff168373ffffffffffffffffffffffffffffffffffffffff16141515610b4757610b05848484848080601f016020809104026020016040519081016040528093929190818152602001838380828437820191505050505050611c9d565b1515610b46576040517f08c379a0000000000000000000000000000000000000000000000000000000008152600401610b3d906170ae565b60405180910390fd5b5b6001603a6000866000191660001916815260200190815260200160002060008573ffffffffffffffffffffffffffffffffffffffff1673ffffffffffffffffffffffffffffffffffffffff16815260200190815260200160002060006101000a81548160ff02191690831515021790555050505050565b610bc6615603565b610bce615632565b610bd6615632565b60008060009054906101000a900460ff16151515610c29576040517f08c379a0000000000000000000000000000000000000000000000000000000008152600401610c209061726e565b60405180910390fd5b60016000806101000a81548160ff021916908315150217905550876101600151876101400181905250876101400151876101600181905250610c6a88612c4a565b9250610c7587612c4a565b9150610c7f613517565b9050610c8d88848389613587565b610c9987838388613587565b610ca388886137a7565b610cb7888885604001518560400151613812565b9350610cde88848660000151602001518760000151602001518860000151600001516139ff565b610d0387838660200151602001518760200151602001518860200151600001516139ff565b610d1c8882856020015186604001518860000151613b46565b610d358782846020015185604001518860200151613b46565b610d4188888387613c14565b83935060008060006101000a81548160ff021916908315150217905550505050949350505050565b610d716155da565b6060610d7e858585613de8565b9050608081825160208401305af48015610db557815183526020820151602084015260408201516040840152606082015160608401525b50819150509392505050565b603e6020528060005260406000206000915054906101000a900473ffffffffffffffffffffffffffffffffffffffff1681565b6000806000809054906101000a900460ff16151515610e48576040517f08c379a0000000000000000000000000000000000000000000000000000000008152600401610e3f9061726e565b60405180910390fd5b60016000806101000a81548160ff02191690831515021790555082519150600090505b8181141515610ea157610e948382815181101515610e8557fe5b90602001906020020151613fd7565b8080600101915050610e6b565b60008060006101000a81548160ff021916908315150217905550505050565b610ec86155da565b600080610ed36155da565b6000809054906101000a900460ff16151515610f24576040517f08c379a0000000000000000000000000000000000000000000000000000000008152600401610f1b9061726e565b60405180910390fd5b60016000806101000a81548160ff02191690831515021790555086519250600091505b8282141515610fb957610fa08783815181101515610f6157fe5b906020019060200201518784815181101515610f7957fe5b906020019060200201518785815181101515610f9157fe5b90602001906020020151614006565b9050610fac84826134a7565b8180600101925050610f47565b83935060008060006101000a81548160ff0219169083151502179055505050509392505050565b6000806000806000809054906101000a900460ff16151515611037576040517f08c379a000000000000000000000000000000000000000000000000000000000815260040161102e9061726e565b60405180910390fd5b60016000806101000a81548160ff021916908315150217905550611059613517565b93503373ffffffffffffffffffffffffffffffffffffffff168473ffffffffffffffffffffffffffffffffffffffff16146110945733611097565b60005b9250600185019150603960008573ffffffffffffffffffffffffffffffffffffffff1673ffffffffffffffffffffffffffffffffffffffff16815260200190815260200160002060008473ffffffffffffffffffffffffffffffffffffffff1673ffffffffffffffffffffffffffffffffffffffff1681526020019081526020016000205490508082111515611162576040517f08c379a0000000000000000000000000000000000000000000000000000000008152600401611159906171ee565b60405180910390fd5b81603960008673ffffffffffffffffffffffffffffffffffffffff1673ffffffffffffffffffffffffffffffffffffffff16815260200190815260200160002060008573ffffffffffffffffffffffffffffffffffffffff1673ffffffffffffffffffffffffffffffffffffffff168152602001908152602001600020819055508273ffffffffffffffffffffffffffffffffffffffff168473ffffffffffffffffffffffffffffffffffffffff167f82af639571738f4ebd4268fb0363d8957ebe1bbb9e78dba5ebd69eed39b154f08460405161124091906173c0565b60405180910390a360008060006101000a81548160ff0219169083151502179055505050505050565b6112716155da565b60008061127c6155da565b86519250600091505b82821415156112f7576112de878381518110151561129f57fe5b9060200190602002015187848151811015156112b757fe5b9060200190602002015187858151811015156112cf57fe5b90602001906020020151610d69565b90506112ea84826134a7565b8180600101925050611285565b8393505050509392505050565b6000603e6000837bffffffffffffffffffffffffffffffffffffffffffffffffffffffff19167bffffffffffffffffffffffffffffffffffffffffffffffffffffffff1916815260200190815260200160002060009054906101000a900473ffffffffffffffffffffffffffffffffffffffff169050919050565b603c6020528060005260406000206000915054906101000a900460ff1681565b6113a76155da565b6000809054906101000a900460ff161515156113f8576040517f08c379a00000000000000000000000000000000000000000000000000000000081526004016113ef9061726e565b60405180910390fd5b60016000806101000a81548160ff02191690831515021790555061141d848484614006565b905080905060008060006101000a81548160ff0219169083151502179055509392505050565b60008060009054906101000a900460ff16151515611496576040517f08c379a000000000000000000000000000000000000000000000000000000000815260040161148d9061726e565b60405180910390fd5b60016000806101000a81548160ff0219169083151502179055506114b8613517565b905081603b60008373ffffffffffffffffffffffffffffffffffffffff1673ffffffffffffffffffffffffffffffffffffffff16815260200190815260200160002060008573ffffffffffffffffffffffffffffffffffffffff1673ffffffffffffffffffffffffffffffffffffffff16815260200190815260200160002060006101000a81548160ff0219169083151502179055508273ffffffffffffffffffffffffffffffffffffffff168173ffffffffffffffffffffffffffffffffffffffff167fa8656e308026eeabce8f0bc18048433252318ab80ac79da0b3d3d8697dfba891846040516115ab9190616dbd565b60405180910390a360008060006101000a81548160ff021916908315150217905550505050565b603b6020528160005260406000206020528060005260406000206000915091509054906101000a900460ff1681565b6116096155da565b606060008060006116186155da565b6000809054906101000a900460ff16151515611669576040517f08c379a00000000000000000000000000000000000000000000000000000000081526004016116609061726e565b60405180910390fd5b60016000806101000a81548160ff02191690831515021790555088600081518110151561169257fe5b906020019060200201516101600151945088519350600092505b838314151561174a578489848151811015156116c457fe5b9060200190602002015161016001819052506116e488876020015161406d565b915061171f89848151811015156116f757fe5b9060200190602002015183898681518110151561171057fe5b90602001906020020151613406565b905061172b86826134a7565b87866020015110151561173d5761174a565b82806001019350506116ac565b85955060008060006101000a81548160ff02191690831515021790555050505050509392505050565b606060006060600084519250826040519080825280602002602001820160405280156117b957816020015b6117a661565a565b81526020019060019003908161179e5790505b509150600090505b8281141515611812576117ea85828151811015156117db57fe5b90602001906020020151612c4a565b82828151811015156117f857fe5b9060200190602002018190525080806001019150506117c1565b819350505050919050565b6000600260019054906101000a900460ff168061183e575061183d6140bf565b5b806118565750600260009054906101000a900460ff16155b1515611897576040517f08c379a000000000000000000000000000000000000000000000000000000000815260040161188e906171ae565b60405180910390fd5b600260019054906101000a900460ff1690506001600260016101000a81548160ff0219169083151502179055506001600260006101000a81548160ff02191690831515021790555060405160200180807f454950373132446f6d61696e2800000000000000000000000000000000000000815250600d01807f737472696e67206e616d652c0000000000000000000000000000000000000000815250600c01807f737472696e672076657273696f6e2c0000000000000000000000000000000000815250600f01807f6164647265737320766572696679696e67436f6e747261637400000000000000815250601901807f290000000000000000000000000000000000000000000000000000000000000081525060010190506040516020818303038152906040526040518082805190602001908083835b6020831015156119f457805182526020820191506020810190506020830392506119cf565b6001836020036101000a03801982511681845116808217855250505050505090500191505060405180910390206040805190810160405280600b81526020017f30782050726f746f636f6c0000000000000000000000000000000000000000008152506040518082805190602001908083835b602083101515611a8c5780518252602082019150602081019050602083039250611a67565b6001836020036101000a03801982511681845116808217855250505050505090500191505060405180910390206040805190810160405280600181526020017f32000000000000000000000000000000000000000000000000000000000000008152506040518082805190602001908083835b602083101515611b245780518252602082019150602081019050602083039250611aff565b6001836020036101000a03801982511681845116808217855250505050505090500191505060405180910390203073ffffffffffffffffffffffffffffffffffffffff166001026040516020018085600019166000191681526020018460001916600019168152602001836000191660001916815260200182600019166000191681526020019450505050506040516020818303038152906040526040518082805190602001908083835b602083101515611bf45780518252602082019150602081019050602083039250611bcf565b6001836020036101000a03801982511681845116808217855250505050505090500191505060405180910390206035816000191690555080600260016101000a81548160ff02191690831515021790555050565b603a6020528160005260406000206020528060005260406000206000915091509054906101000a900460ff1681565b603660009054906101000a900473ffffffffffffffffffffffffffffffffffffffff1681565b60008060008060008060008060008951111515611cef576040517f08c379a0000000000000000000000000000000000000000000000000000000008152600401611ce6906171ce565b60405180910390fd5b611cf8896140d0565b7f010000000000000000000000000000000000000000000000000000000000000090049650600780811115611d2957fe5b60ff168760ff16101515611d72576040517f08c379a0000000000000000000000000000000000000000000000000000000008152600401611d6990616fee565b60405180910390fd5b8660ff166007811115611d8157fe5b955060006007811115611d9057fe5b866007811115611d9c57fe5b1415611ddd576040517f08c379a0000000000000000000000000000000000000000000000000000000008152600401611dd49061718e565b60405180910390fd5b60016007811115611dea57fe5b866007811115611df657fe5b1415611e4e5760008951141515611e42576040517f08c379a0000000000000000000000000000000000000000000000000000000008152600401611e399061734e565b60405180910390fd5b6000975087975061240e565b60026007811115611e5b57fe5b866007811115611e6757fe5b1415611fea5760418951141515611eb3576040517f08c379a0000000000000000000000000000000000000000000000000000000008152600401611eaa90616f2e565b60405180910390fd5b886000815181101515611ec257fe5b9060200101517f010000000000000000000000000000000000000000000000000000000000000090047f0100000000000000000000000000000000000000000000000000000000000000027f010000000000000000000000000000000000000000000000000000000000000090049450611f4660018a61418790919063ffffffff16565b9350611f5c60218a61418790919063ffffffff16565b925060018b86868660405160008152602001604052604051611f819493929190616e61565b60206040516020810390808403906000865af1158015611fa5573d6000803e3d6000fd5b5050506020604051035191508173ffffffffffffffffffffffffffffffffffffffff168a73ffffffffffffffffffffffffffffffffffffffff1614975087975061240e565b60036007811115611ff757fe5b86600781111561200357fe5b1415612237576041895114151561204f576040517f08c379a000000000000000000000000000000000000000000000000000000000815260040161204690616f2e565b60405180910390fd5b88600081518110151561205e57fe5b9060200101517f010000000000000000000000000000000000000000000000000000000000000090047f0100000000000000000000000000000000000000000000000000000000000000027f0100000000000000000000000000000000000000000000000000000000000000900494506120e260018a61418790919063ffffffff16565b93506120f860218a61418790919063ffffffff16565b925060018b60405160200180807f19457468657265756d205369676e6564204d6573736167653a0a333200000000815250601c0182600019166000191681526020019150506040516020818303038152906040526040518082805190602001908083835b602083101515612181578051825260208201915060208101905060208303925061215c565b6001836020036101000a0380198251168184511680821785525050505050509050019150506040518091039020868686604051600081526020016040526040516121ce9493929190616e61565b60206040516020810390808403906000865af11580156121f2573d6000803e3d6000fd5b5050506020604051035191508173ffffffffffffffffffffffffffffffffffffffff168a73ffffffffffffffffffffffffffffffffffffffff1614975087975061240e565b6004600781111561224457fe5b86600781111561225057fe5b141561226b576122618b8b8b6141e7565b975087975061240e565b6005600781111561227857fe5b86600781111561228457fe5b14156123445761229389614341565b9050603b60008b73ffffffffffffffffffffffffffffffffffffffff1673ffffffffffffffffffffffffffffffffffffffff16815260200190815260200160002060008273ffffffffffffffffffffffffffffffffffffffff1673ffffffffffffffffffffffffffffffffffffffff16815260200190815260200160002060009054906101000a900460ff16151561232e576000975061240e565b61233a818c8c8c6143ab565b975087975061240e565b6006600781111561235157fe5b86600781111561235d57fe5b14156123d357603a60008c6000191660001916815260200190815260200160002060008b73ffffffffffffffffffffffffffffffffffffffff1673ffffffffffffffffffffffffffffffffffffffff16815260200190815260200160002060009054906101000a900460ff16975087975061240e565b6040517f08c379a000000000000000000000000000000000000000000000000000000000815260040161240590616fee565b60405180910390fd5b505050505050509392505050565b6124246155da565b60606000806000806124346155da565b89600081518110151561244357fe5b906020019060200201516101400151955089519450600093505b848414151561253e57858a8581518110151561247557fe5b90602001906020020151610140018190525061249589886000015161406d565b92506124d88a858151811015156124a857fe5b9060200190602002015160a001518b868151811015156124c457fe5b906020019060200201516080015185614508565b91506125138a858151811015156124eb57fe5b90602001906020020151838a8781518110151561250457fe5b90602001906020020151610d69565b905061251f87826134a7565b8887600001511015156125315761253e565b838060010194505061245d565b8696505050505050509392505050565b6125566155da565b6000809054906101000a900460ff161515156125a7576040517f08c379a000000000000000000000000000000000000000000000000000000000815260040161259e9061726e565b60405180910390fd5b60016000806101000a81548160ff0219169083151502179055506125cc848484613406565b905080905060008060006101000a81548160ff0219169083151502179055509392505050565b60008073ffffffffffffffffffffffffffffffffffffffff16603d60009054906101000a900473ffffffffffffffffffffffffffffffffffffffff1673ffffffffffffffffffffffffffffffffffffffff16141515612686576040517f08c379a000000000000000000000000000000000000000000000000000000000815260040161267d9061726e565b60405180910390fd5b6126cb6126c6888888888080601f01602080910402602001604051908101604052809392919081815260200183838082843782019150505050505061456d565b61475c565b9050603c6000826000191660001916815260200190815260200160002060009054906101000a900460ff16151515612738576040517f08c379a000000000000000000000000000000000000000000000000000000000815260040161272f9061708e565b60405180910390fd5b3373ffffffffffffffffffffffffffffffffffffffff168673ffffffffffffffffffffffffffffffffffffffff1614151561282d576127aa818785858080601f016020809104026020016040519081016040528093929190818152602001838380828437820191505050505050611c9d565b15156127eb576040517f08c379a00000000000000000000000000000000000000000000000000000000081526004016127e29061732e565b60405180910390fd5b85603d60006101000a81548173ffffffffffffffffffffffffffffffffffffffff021916908373ffffffffffffffffffffffffffffffffffffffff1602179055505b6001603c6000836000191660001916815260200190815260200160002060006101000a81548160ff0219169083151502179055503073ffffffffffffffffffffffffffffffffffffffff16858560405180838380828437820191505092505050600060405180830381855af491505015156128dd576040517f08c379a00000000000000000000000000000000000000000000000000000000081526004016128d4906170ee565b60405180910390fd5b3373ffffffffffffffffffffffffffffffffffffffff168673ffffffffffffffffffffffffffffffffffffffff16141515612955576000603d60006101000a81548173ffffffffffffffffffffffffffffffffffffffff021916908373ffffffffffffffffffffffffffffffffffffffff1602179055505b50505050505050565b6000806000603660009054906101000a900473ffffffffffffffffffffffffffffffffffffffff1673ffffffffffffffffffffffffffffffffffffffff163373ffffffffffffffffffffffffffffffffffffffff161415156129f5576040517f08c379a00000000000000000000000000000000000000000000000000000000081526004016129ec9061728e565b60405180910390fd5b8392508273ffffffffffffffffffffffffffffffffffffffff1663ae25532e6040518163ffffffff167c0100000000000000000000000000000000000000000000000000000000028152600401602060405180830381600087803b158015612a5c57600080fd5b505af1158015612a70573d6000803e3d6000fd5b505050506040513d601f19601f82011682018060405250612a949190810190615f81565b9150603e6000837bffffffffffffffffffffffffffffffffffffffffffffffffffffffff19167bffffffffffffffffffffffffffffffffffffffffffffffffffffffff1916815260200190815260200160002060009054906101000a900473ffffffffffffffffffffffffffffffffffffffff169050600073ffffffffffffffffffffffffffffffffffffffff168173ffffffffffffffffffffffffffffffffffffffff16141515612b7b576040517f08c379a0000000000000000000000000000000000000000000000000000000008152600401612b7290616fae565b60405180910390fd5b82603e6000847bffffffffffffffffffffffffffffffffffffffffffffffffffffffff19167bffffffffffffffffffffffffffffffffffffffffffffffffffffffff1916815260200190815260200160002060006101000a81548173ffffffffffffffffffffffffffffffffffffffff021916908373ffffffffffffffffffffffffffffffffffffffff1602179055507fd2c6b762299c609bdb96520b58a49bfb80186934d4f71a86a367571a15c031948285604051612c3c929190616ea6565b60405180910390a150505050565b612c52615632565b612c5b826147a6565b816020019060001916908160001916815250506037600082602001516000191660001916815260200190815260200160002054816040018181525050600082608001511415612cca5760016006811115612cb157fe5b816000019060ff16908160ff1681525050809050612e97565b60008260a001511415612cfd5760026006811115612ce457fe5b816000019060ff16908160ff1681525050809050612e97565b8160a001518160400151101515612d345760056006811115612d1b57fe5b816000019060ff16908160ff1681525050809050612e97565b81610100015142101515612d685760046006811115612d4f57fe5b816000019060ff16908160ff1681525050809050612e97565b6038600082602001516000191660001916815260200190815260200160002060009054906101000a900460ff1615612dbf57600680811115612da657fe5b816000019060ff16908160ff1681525050809050612e97565b81610120015160396000846000015173ffffffffffffffffffffffffffffffffffffffff1673ffffffffffffffffffffffffffffffffffffffff1681526020019081526020016000206000846060015173ffffffffffffffffffffffffffffffffffffffff1673ffffffffffffffffffffffffffffffffffffffff168152602001908152602001600020541115612e7557600680811115612e5c57fe5b816000019060ff16908160ff1681525050809050612e97565b60036006811115612e8257fe5b816000019060ff16908160ff16815250508090505b919050565b6000809054906101000a900460ff16151515612eed576040517f08c379a0000000000000000000000000000000000000000000000000000000008152600401612ee49061726e565b60405180910390fd5b60016000806101000a81548160ff021916908315150217905550612f1081613fd7565b60008060006101000a81548160ff02191690831515021790555050565b6039602052816000526040600020602052806000526040600020600091509150505481565b60018054600181600116156101000203166002900480601f016020809104026020016040519081016040528092919081815260200182805460018160011615610100020316600290048015612fe85780601f10612fbd57610100808354040283529160200191612fe8565b820191906000526020600020905b815481529060010190602001808311612fcb57829003601f168201915b505050505081565b612ff86155da565b606060008060006130076155da565b88600081518110151561301657fe5b906020019060200201516101600151945088519350600092505b83831415156130ce5784898481518110151561304857fe5b90602001906020020151610160018190525061306888876020015161406d565b91506130a3898481518110151561307b57fe5b9060200190602002015183898681518110151561309457fe5b90602001906020020151610d69565b90506130af86826134a7565b8786602001511015156130c1576130ce565b8280600101935050613030565b85955050505050509392505050565b60355481565b6130eb6155da565b60606000806000806130fb6155da565b6000809054906101000a900460ff1615151561314c576040517f08c379a00000000000000000000000000000000000000000000000000000000081526004016131439061726e565b60405180910390fd5b60016000806101000a81548160ff02191690831515021790555089600081518110151561317557fe5b906020019060200201516101400151955089519450600093505b848414151561327057858a858151811015156131a757fe5b9060200190602002015161014001819052506131c789886000015161406d565b925061320a8a858151811015156131da57fe5b9060200190602002015160a001518b868151811015156131f657fe5b906020019060200201516080015185614508565b91506132458a8581518110151561321d57fe5b90602001906020020151838a8781518110151561323657fe5b90602001906020020151613406565b905061325187826134a7565b88876000015110151561326357613270565b838060010194505061318f565b86965060008060006101000a81548160ff0219169083151502179055505050505050509392505050565b603d60009054906101000a900473ffffffffffffffffffffffffffffffffffffffff1681565b603660009054906101000a900473ffffffffffffffffffffffffffffffffffffffff1673ffffffffffffffffffffffffffffffffffffffff163373ffffffffffffffffffffffffffffffffffffffff16141515613352576040517f08c379a00000000000000000000000000000000000000000000000000000000081526004016133499061728e565b60405180910390fd5b600073ffffffffffffffffffffffffffffffffffffffff168173ffffffffffffffffffffffffffffffffffffffff161415156133ca5780603660006101000a81548173ffffffffffffffffffffffffffffffffffffffff021916908373ffffffffffffffffffffffffffffffffffffffff1602179055505b50565b6040805190810160405280600b81526020017f322e302e312d616c70686100000000000000000000000000000000000000000081525081565b61340e6155da565b613416615632565b600080600061342488612c4a565b935061342e613517565b925061343c88858589613587565b61344e8860a00151856040015161406d565b915061345a87836147c3565b905061346d8885898489600001516139ff565b61347788826147dc565b945061348e88848660200151876040015189613b46565b61349988848761484f565b849450505050509392505050565b6134b982600001518260000151614952565b8260000181815250506134d482602001518260200151614952565b8260200181815250506134ef82604001518260400151614952565b82604001818152505061350a82606001518260600151614952565b8260600181815250505050565b6000806000603d60009054906101000a900473ffffffffffffffffffffffffffffffffffffffff169150600073ffffffffffffffffffffffffffffffffffffffff168273ffffffffffffffffffffffffffffffffffffffff161461357b578161357d565b335b9050809250505090565b6003600681111561359457fe5b60ff16836000015160ff161415156135e1576040517f08c379a00000000000000000000000000000000000000000000000000000000081526004016135d8906172ce565b60405180910390fd5b600073ffffffffffffffffffffffffffffffffffffffff16846060015173ffffffffffffffffffffffffffffffffffffffff16141515613690573373ffffffffffffffffffffffffffffffffffffffff16846060015173ffffffffffffffffffffffffffffffffffffffff1614151561368f576040517f08c379a0000000000000000000000000000000000000000000000000000000008152600401613686906172ee565b60405180910390fd5b5b600073ffffffffffffffffffffffffffffffffffffffff16846020015173ffffffffffffffffffffffffffffffffffffffff1614151561373f578173ffffffffffffffffffffffffffffffffffffffff16846020015173ffffffffffffffffffffffffffffffffffffffff1614151561373e576040517f08c379a000000000000000000000000000000000000000000000000000000000815260040161373590616f4e565b60405180910390fd5b5b6000836040015114156137a15761375f8360200151856000015183611c9d565b15156137a0576040517f08c379a00000000000000000000000000000000000000000000000000000000081526004016137979061702e565b60405180910390fd5b5b50505050565b6137b98260a001518260a001516149a9565b6137cb836080015183608001516149a9565b1015151561380e576040517f08c379a00000000000000000000000000000000000000000000000000000000081526004016138059061730e565b60405180910390fd5b5050565b61381a615603565b60008060008061382e8960a001518861406d565b935061384389608001518a60a0015186614a1d565b92506138538860a001518761406d565b915061386888608001518960a0015184614a1d565b905080841015156138d25780856020015160000181815250508185602001516020018181525050846020015160000151856000015160200181815250506138c089608001518a60a00151876000015160200151614a1d565b8560000151600001818152505061392d565b828560000151600001818152505083856000015160200181815250508460000151602001518560200151600001818152505061391f8860a001518960800151876020015160000151614acf565b856020015160200181815250505b61394785600001516000015186602001516020015161406d565b85604001818152505061396b8560000151600001518a608001518b60c00151614a1d565b856000015160400181815250506139938560000151602001518a60a001518b60e00151614a1d565b856000015160600181815250506139bb85602001516000015189608001518a60c00151614a1d565b856020015160400181815250506139e38560200151602001518960a001518a60e00151614a1d565b8560200151606001818152505084945050505050949350505050565b60008314151515613a45576040517f08c379a0000000000000000000000000000000000000000000000000000000008152600401613a3c9061712e565b60405180910390fd5b828211151515613a8a576040517f08c379a0000000000000000000000000000000000000000000000000000000008152600401613a819061710e565b60405180910390fd5b8460a00151613a9d856040015184614952565b11151515613ae0576040517f08c379a0000000000000000000000000000000000000000000000000000000008152600401613ad790616f6e565b60405180910390fd5b613aee8560800151836149a9565b613afc828760a001516149a9565b11151515613b3f576040517f08c379a0000000000000000000000000000000000000000000000000000000008152600401613b369061724e565b60405180910390fd5b5050505050565b613b54828260200151614952565b603760008560001916600019168152602001908152602001600020819055508260001916856040015173ffffffffffffffffffffffffffffffffffffffff16866000015173ffffffffffffffffffffffffffffffffffffffff167f0bcc4c97732e47d9946f229edb95f5b6323f601300e4690de719993f3c371129873386600001518760200151886040015189606001518e61014001518f6101600151604051613c05989796959493929190616cca565b60405180910390a45050505050565b606060018054600181600116156101000203166002900480601f016020809104026020016040519081016040528092919081815260200182805460018160011615610100020316600290048015613cac5780601f10613c8157610100808354040283529160200191613cac565b820191906000526020600020905b815481529060010190602001808311613c8f57829003601f168201915b50505050509050613cd485610140015186600001518660000151856020015160200151614b94565b613cf584610140015185600001518760000151856000015160200151614b94565b613d0e8561014001518660000151858560400151614b94565b613d2a8186600001518760400151856000015160400151614b94565b613d468185600001518660400151856020015160400151614b94565b836040015173ffffffffffffffffffffffffffffffffffffffff16856040015173ffffffffffffffffffffffffffffffffffffffff161415613db057613dab81848760400151613da6866000015160600151876020015160600151614952565b614b94565b613de1565b613dc881848760400151856000015160600151614b94565b613de081848660400151856020015160600151614b94565b5b5050505050565b606060405190507fb4be83d5000000000000000000000000000000000000000000000000000000006020820152602481018060608101818180896000808784038652602086019550825184526020830151602085015260408301516040850152606083015160608501526080830151608085015260a083015160a085015260c083015160c085015260e083015160e085015261010083015161010085015261012083015161012085015261014083015161014085015261016083015161016085015261018084019350610180830192508484036020600a028601526101408d01519250825191506020830192506020601f830104905081845260208401935060005b81811015613f0d5783518552602085019450602084019350600181019050613eea565b508484036020600b028601526101608d01519250825191506020830192506020601f830104905081845260208401935060005b81811015613f635783518552602085019450602084019350600181019050613f40565b508b865260208601955087840386528a9250825191506020830192506020601f830104905081845260208401935060005b81811015613fb75783518552602085019450602084019350600181019050613f94565b5060208a0184038a52836040525050505050505050508090509392505050565b613fdf615632565b613fe882612c4a565b9050613ff48282614df4565b614002828260200151614f82565b5050565b61400e6155da565b614019848484613406565b9050828160200151141515614063576040517f08c379a000000000000000000000000000000000000000000000000000000000815260040161405a9061722e565b60405180910390fd5b8090509392505050565b60008282111515156140b4576040517f08c379a00000000000000000000000000000000000000000000000000000000081526004016140ab90616f8e565b60405180910390fd5b818303905092915050565b600080303b90506000811491505090565b6000808251111515614117576040517f08c379a000000000000000000000000000000000000000000000000000000000815260040161410e9061716e565b60405180910390fd5b81600183510381518110151561412957fe5b9060200101517f010000000000000000000000000000000000000000000000000000000000000090047f0100000000000000000000000000000000000000000000000000000000000000029050600182510380835250809050919050565b6000602082018351101515156141d2576040517f08c379a00000000000000000000000000000000000000000000000000000000081526004016141c990616fce565b60405180910390fd5b60208201915081830151905080905092915050565b600060608373ffffffffffffffffffffffffffffffffffffffff16631626ba7e90507c010000000000000000000000000000000000000000000000000000000002858460405160240161423b929190616e31565b604051602081830303815290604052907bffffffffffffffffffffffffffffffffffffffffffffffffffffffff19166020820180517bffffffffffffffffffffffffffffffffffffffffffffffffffffffff8381831617835250505050905060208101602081835183885afa80600081146142bd576001811461432e57614333565b7f08c379a0000000000000000000000000000000000000000000000000000000006000527c20000000000000000000000000000000000000000000000000000000006020527c0c57414c4c45545f4552524f5200000000000000000000000000000000604052600060605260646000fd5b825194505b505050819150509392505050565b6000601482511015151561438a576040517f08c379a0000000000000000000000000000000000000000000000000000000008152600401614381906172ae565b60405180910390fd5b61439882601484510361503a565b9050601482510380835250809050919050565b600060608373ffffffffffffffffffffffffffffffffffffffff16639363470290507c01000000000000000000000000000000000000000000000000000000000285858560405160240161440193929190616df3565b604051602081830303815290604052907bffffffffffffffffffffffffffffffffffffffffffffffffffffffff19166020820180517bffffffffffffffffffffffffffffffffffffffffffffffffffffffff83818316178352505050509050602081016020818351838a5afa806000811461448357600181146144f4576144f9565b7f08c379a0000000000000000000000000000000000000000000000000000000006000527c20000000000000000000000000000000000000000000000000000000006020527c0f56414c494441544f525f4552524f5200000000000000000000000000604052600060605260646000fd5b825194505b50505081915050949350505050565b6000808311151561454e576040517f08c379a00000000000000000000000000000000000000000000000000000000081526004016145459061700e565b60405180910390fd5b61456161455b85846149a9565b846150b0565b90508090509392505050565b600080600060405160200180807f5a65726f45785472616e73616374696f6e280000000000000000000000000000815250601201807f75696e743235362073616c742c00000000000000000000000000000000000000815250600d01807f61646472657373207369676e6572416464726573732c00000000000000000000815250601601807f6279746573206461746100000000000000000000000000000000000000000000815250600a01807f290000000000000000000000000000000000000000000000000000000000000081525060010190506040516020818303038152906040526040518082805190602001908083835b6020831015156146875780518252602082019150602081019050602083039250614662565b6001836020036101000a03801982511681845116808217855250505050505090500191505060405180910390209150836040518082805190602001908083835b6020831015156146ec57805182526020820191506020810190506020830392506146c7565b6001836020036101000a0380198251168184511680821785525050505050509050019150506040518091039020905060405182815286602082015273ffffffffffffffffffffffffffffffffffffffff861660408201528160608201526080812093505082925050509392505050565b60008060355490506040517f190100000000000000000000000000000000000000000000000000000000000081528160028201528360228201526042812092505081915050919050565b60006147b96147b4836150cb565b61475c565b9050809050919050565b60008183106147d257816147d4565b825b905092915050565b6147e46155da565b81816020018181525050614801828460a001518560800151614a1d565b816000018181525050614821816000015184608001518560c00151614a1d565b81604001818152505061483d828460a001518560e00151614a1d565b81606001818152505080905092915050565b606060018054600181600116156101000203166002900480601f0160208091040260200160405190810160405280929190818152602001828054600181600116156101000203166002900480156148e75780601f106148bc576101008083540402835291602001916148e7565b820191906000526020600020905b8154815290600101906020018083116148ca57829003601f168201915b505050505090506149078461014001518560000151858560000151614b94565b6149208461016001518486600001518560200151614b94565b61493881856000015186604001518560400151614b94565b61494c818486604001518560600151614b94565b50505050565b600080828401905083811015151561499f576040517f08c379a00000000000000000000000000000000000000000000000000000000081526004016149969061706e565b60405180910390fd5b8091505092915050565b60008060008414156149be5760009150614a16565b82840290508284828115156149cf57fe5b04141515614a12576040517f08c379a0000000000000000000000000000000000000000000000000000000008152600401614a099061706e565b60405180910390fd5b8091505b5092915050565b60008083111515614a63576040517f08c379a0000000000000000000000000000000000000000000000000000000008152600401614a5a9061700e565b60405180910390fd5b614a6e84848461548f565b151515614ab0576040517f08c379a0000000000000000000000000000000000000000000000000000000008152600401614aa7906170ce565b60405180910390fd5b614ac3614abd85846149a9565b846150b0565b90508090509392505050565b60008083111515614b15576040517f08c379a0000000000000000000000000000000000000000000000000000000008152600401614b0c9061700e565b60405180910390fd5b614b20848484615529565b151515614b62576040517f08c379a0000000000000000000000000000000000000000000000000000000008152600401614b59906170ce565b60405180910390fd5b614b88614b82614b7286856149a9565b614b7d86600161406d565b614952565b846150b0565b90508090509392505050565b600080600083118015614bd357508373ffffffffffffffffffffffffffffffffffffffff168573ffffffffffffffffffffffffffffffffffffffff1614155b15614dec5760038651111515614c1e576040517f08c379a0000000000000000000000000000000000000000000000000000000008152600401614c159061720e565b60405180910390fd5b7fffffffff000000000000000000000000000000000000000000000000000000006020870151169150603e6000837bffffffffffffffffffffffffffffffffffffffffffffffffffffffff19167bffffffffffffffffffffffffffffffffffffffffffffffffffffffff1916815260200190815260200160002060009054906101000a900473ffffffffffffffffffffffffffffffffffffffff169050600073ffffffffffffffffffffffffffffffffffffffff168173ffffffffffffffffffffffffffffffffffffffff1614151515614d2d576040517f08c379a0000000000000000000000000000000000000000000000000000000008152600401614d249061714e565b60405180910390fd5b604051660fffffffffffe0603f885101168060840182017fa85e59e40000000000000000000000000000000000000000000000000000000083526080600484015273ffffffffffffffffffffffffffffffffffffffff8816602484015273ffffffffffffffffffffffffffffffffffffffff87166044840152856064840152608483015b81811015614dce578951815260208101905060208a019950614db1565b61020084858403866000895af1801515614de6573d85fd5b50505050505b505050505050565b600060036006811115614e0357fe5b60ff16826000015160ff16141515614e50576040517f08c379a0000000000000000000000000000000000000000000000000000000008152600401614e47906172ce565b60405180910390fd5b600073ffffffffffffffffffffffffffffffffffffffff16836060015173ffffffffffffffffffffffffffffffffffffffff16141515614eff573373ffffffffffffffffffffffffffffffffffffffff16836060015173ffffffffffffffffffffffffffffffffffffffff16141515614efe576040517f08c379a0000000000000000000000000000000000000000000000000000000008152600401614ef5906172ee565b60405180910390fd5b5b614f07613517565b90508073ffffffffffffffffffffffffffffffffffffffff16836000015173ffffffffffffffffffffffffffffffffffffffff16141515614f7d576040517f08c379a0000000000000000000000000000000000000000000000000000000008152600401614f749061704e565b60405180910390fd5b505050565b600160386000836000191660001916815260200190815260200160002060006101000a81548160ff0219169083151502179055508060001916826040015173ffffffffffffffffffffffffffffffffffffffff16836000015173ffffffffffffffffffffffffffffffffffffffff167fdc47b3613d9fe400085f6dbdc99453462279057e6207385042827ed6b1a62cf73386610140015187610160015160405161502e93929190616d56565b60405180910390a45050565b600060148201835110151515615085576040517f08c379a000000000000000000000000000000000000000000000000000000000815260040161507c906172ae565b60405180910390fd5b60148201915073ffffffffffffffffffffffffffffffffffffffff8284015116905080905092915050565b60008082848115156150be57fe5b0490508091505092915050565b60008060008060405160200180807f4f72646572280000000000000000000000000000000000000000000000000000815250600601807f61646472657373206d616b6572416464726573732c0000000000000000000000815250601501807f616464726573732074616b6572416464726573732c0000000000000000000000815250601501807f6164647265737320666565526563697069656e74416464726573732c00000000815250601c01807f616464726573732073656e646572416464726573732c00000000000000000000815250601601807f75696e74323536206d616b65724173736574416d6f756e742c00000000000000815250601901807f75696e743235362074616b65724173736574416d6f756e742c00000000000000815250601901807f75696e74323536206d616b65724665652c000000000000000000000000000000815250601101807f75696e743235362074616b65724665652c000000000000000000000000000000815250601101807f75696e743235362065787069726174696f6e54696d655365636f6e64732c0000815250601e01807f75696e743235362073616c742c00000000000000000000000000000000000000815250600d01807f6279746573206d616b65724173736574446174612c0000000000000000000000815250601501807f62797465732074616b6572417373657444617461000000000000000000000000815250601401807f290000000000000000000000000000000000000000000000000000000000000081525060010190506040516020818303038152906040526040518082805190602001908083835b60208310151561534e5780518252602082019150602081019050602083039250615329565b6001836020036101000a038019825116818451168082178552505050505050905001915050604051809103902092508461014001516040518082805190602001908083835b6020831015156153b85780518252602082019150602081019050602083039250615393565b6001836020036101000a038019825116818451168082178552505050505050905001915050604051809103902091508461016001516040518082805190602001908083835b60208310151561542257805182526020820191506020810190506020830392506153fd565b6001836020036101000a0380198251168184511680821785525050505050509050019150506040518091039020905060208503610140860161016087018251825182518886528785528684526101a086209950828652818552808452505050505050839350505050919050565b6000806000841115156154d7576040517f08c379a00000000000000000000000000000000000000000000000000000000081526004016154ce9061700e565b60405180910390fd5b60008314806154e65750600085145b156154f45760009150615521565b838015156154fe57fe5b858409905061550d85846149a9565b6155196103e8836149a9565b101591508191505b509392505050565b600080600084111515615571576040517f08c379a00000000000000000000000000000000000000000000000000000000081526004016155689061700e565b60405180910390fd5b60008314806155805750600085145b1561558e57600091506155d2565b8380151561559857fe5b8584099050836155a8858361406d565b8115156155b157fe5b0690506155be85846149a9565b6155ca6103e8836149a9565b101591508191505b509392505050565b608060405190810160405280600081526020016000815260200160008152602001600081525090565b61012060405190810160405280615618615682565b8152602001615625615682565b8152602001600081525090565b606060405190810160405280600060ff16815260200160008019168152602001600081525090565b606060405190810160405280600060ff16815260200160008019168152602001600081525090565b608060405190810160405280600081526020016000815260200160008152602001600081525090565b60006156b78235617597565b905092915050565b600082601f83011215156156d257600080fd5b81356156e56156e082617408565b6173db565b9150818183526020840193506020810190508360005b8381101561572b578135860161571188826158cc565b8452602084019350602083019250506001810190506156fb565b5050505092915050565b600082601f830112151561574857600080fd5b813561575b61575682617430565b6173db565b9150818183526020840193506020810190508360005b838110156157a157813586016157878882615978565b845260208401935060208301925050600181019050615771565b5050505092915050565b600082601f83011215156157be57600080fd5b81356157d16157cc82617458565b6173db565b915081818352602084019350602081019050838560208402820111156157f657600080fd5b60005b83811015615826578161580c8882615c14565b8452602084019350602083019250506001810190506157f9565b5050505092915050565b600061583c82356175b7565b905092915050565b600061585082356175c3565b905092915050565b600061586482356175cd565b905092915050565b600061587882516175cd565b905092915050565b60008083601f840112151561589457600080fd5b8235905067ffffffffffffffff8111156158ad57600080fd5b6020830191508360018202830111156158c557600080fd5b9250929050565b600082601f83011215156158df57600080fd5b81356158f26158ed82617480565b6173db565b9150808252602083016020830185838301111561590e57600080fd5b615919838284617615565b50505092915050565b600082601f830112151561593557600080fd5b8135615948615943826174ac565b6173db565b9150808252602083016020830185838301111561596457600080fd5b61596f838284617615565b50505092915050565b6000610180828403121561598b57600080fd5b6159966101806173db565b905060006159a6848285016156ab565b60008301525060206159ba848285016156ab565b60208301525060406159ce848285016156ab565b60408301525060606159e2848285016156ab565b60608301525060806159f684828501615c14565b60808301525060a0615a0a84828501615c14565b60a08301525060c0615a1e84828501615c14565b60c08301525060e0615a3284828501615c14565b60e083015250610100615a4784828501615c14565b61010083015250610120615a5d84828501615c14565b6101208301525061014082013567ffffffffffffffff811115615a7f57600080fd5b615a8b848285016158cc565b6101408301525061016082013567ffffffffffffffff811115615aad57600080fd5b615ab9848285016158cc565b6101608301525092915050565b60006101808284031215615ad957600080fd5b615ae46101806173db565b90506000615af4848285016156ab565b6000830152506020615b08848285016156ab565b6020830152506040615b1c848285016156ab565b6040830152506060615b30848285016156ab565b6060830152506080615b4484828501615c14565b60808301525060a0615b5884828501615c14565b60a08301525060c0615b6c84828501615c14565b60c08301525060e0615b8084828501615c14565b60e083015250610100615b9584828501615c14565b61010083015250610120615bab84828501615c14565b6101208301525061014082013567ffffffffffffffff811115615bcd57600080fd5b615bd9848285016158cc565b6101408301525061016082013567ffffffffffffffff811115615bfb57600080fd5b615c07848285016158cc565b6101608301525092915050565b6000615c2082356175f9565b905092915050565b600060208284031215615c3a57600080fd5b6000615c48848285016156ab565b91505092915050565b60008060408385031215615c6457600080fd5b6000615c72858286016156ab565b9250506020615c83858286016156ab565b9150509250929050565b60008060408385031215615ca057600080fd5b6000615cae858286016156ab565b9250506020615cbf85828601615830565b9150509250929050565b600060208284031215615cdb57600080fd5b600082013567ffffffffffffffff811115615cf557600080fd5b615d0184828501615735565b91505092915050565b600080600060608486031215615d1f57600080fd5b600084013567ffffffffffffffff811115615d3957600080fd5b615d4586828701615735565b935050602084013567ffffffffffffffff811115615d6257600080fd5b615d6e868287016157ab565b925050604084013567ffffffffffffffff811115615d8b57600080fd5b615d97868287016156bf565b9150509250925092565b600080600060608486031215615db657600080fd5b600084013567ffffffffffffffff811115615dd057600080fd5b615ddc86828701615735565b9350506020615ded86828701615c14565b925050604084013567ffffffffffffffff811115615e0a57600080fd5b615e16868287016156bf565b9150509250925092565b600060208284031215615e3257600080fd5b6000615e4084828501615844565b91505092915050565b60008060408385031215615e5c57600080fd5b6000615e6a85828601615844565b9250506020615e7b858286016156ab565b9150509250929050565b60008060008060608587031215615e9b57600080fd5b6000615ea987828801615844565b9450506020615eba878288016156ab565b935050604085013567ffffffffffffffff811115615ed757600080fd5b615ee387828801615880565b925092505092959194509250565b600080600060608486031215615f0657600080fd5b6000615f1486828701615844565b9350506020615f25868287016156ab565b925050604084013567ffffffffffffffff811115615f4257600080fd5b615f4e86828701615922565b9150509250925092565b600060208284031215615f6a57600080fd5b6000615f7884828501615858565b91505092915050565b600060208284031215615f9357600080fd5b6000615fa18482850161586c565b91505092915050565b600060208284031215615fbc57600080fd5b600082013567ffffffffffffffff811115615fd657600080fd5b615fe284828501615ac6565b91505092915050565b6000806000806080858703121561600157600080fd5b600085013567ffffffffffffffff81111561601b57600080fd5b61602787828801615ac6565b945050602085013567ffffffffffffffff81111561604457600080fd5b61605087828801615ac6565b935050604085013567ffffffffffffffff81111561606d57600080fd5b61607987828801615922565b925050606085013567ffffffffffffffff81111561609657600080fd5b6160a287828801615922565b91505092959194509250565b6000806000606084860312156160c357600080fd5b600084013567ffffffffffffffff8111156160dd57600080fd5b6160e986828701615ac6565b93505060206160fa86828701615c14565b925050604084013567ffffffffffffffff81111561611757600080fd5b61612386828701615922565b9150509250925092565b60006020828403121561613f57600080fd5b600061614d84828501615c14565b91505092915050565b6000806000806000806080878903121561616f57600080fd5b600061617d89828a01615c14565b965050602061618e89828a016156ab565b955050604087013567ffffffffffffffff8111156161ab57600080fd5b6161b789828a01615880565b9450945050606087013567ffffffffffffffff8111156161d657600080fd5b6161e289828a01615880565b92509250509295509295509295565b6161fa8161751e565b82525050565b600061620b826174e5565b80845260208401935061621d836174d8565b60005b8281101561624f57616233868351616c4f565b61623c82617511565b9150606086019550600181019050616220565b50849250505092915050565b6162648161753e565b82525050565b6162738161754a565b82525050565b61628281617554565b82525050565b6000616293826174fb565b8084526162a7816020860160208601617624565b6162b081617657565b602085010191505092915050565b60006162c9826174f0565b8084526162dd816020860160208601617624565b6162e681617657565b602085010191505092915050565b6162fd81617603565b82525050565b600061630e82617506565b808452616322816020860160208601617624565b61632b81617657565b602085010191505092915050565b6000601282527f4c454e4754485f36355f524551554952454400000000000000000000000000006020830152604082019050919050565b6000600d82527f494e56414c49445f54414b4552000000000000000000000000000000000000006020830152604082019050919050565b6000600e82527f4f524445525f4f56455246494c4c0000000000000000000000000000000000006020830152604082019050919050565b6000601182527f55494e543235365f554e444552464c4f570000000000000000000000000000006020830152604082019050919050565b6000601a82527f41535345545f50524f58595f414c52454144595f4558495354530000000000006020830152604082019050919050565b6000602682527f475245415445525f4f525f455155414c5f544f5f33325f4c454e4754485f524560208301527f51554952454400000000000000000000000000000000000000000000000000006040830152606082019050919050565b6000601582527f5349474e41545552455f554e535550504f5254454400000000000000000000006020830152604082019050919050565b6000601082527f4449564953494f4e5f42595f5a45524f000000000000000000000000000000006020830152604082019050919050565b6000601782527f494e56414c49445f4f524445525f5349474e41545552450000000000000000006020830152604082019050919050565b6000600d82527f494e56414c49445f4d414b4552000000000000000000000000000000000000006020830152604082019050919050565b6000601082527f55494e543235365f4f564552464c4f57000000000000000000000000000000006020830152604082019050919050565b6000600f82527f494e56414c49445f54585f4841534800000000000000000000000000000000006020830152604082019050919050565b6000601182527f494e56414c49445f5349474e41545552450000000000000000000000000000006020830152604082019050919050565b6000600e82527f524f554e44494e475f4552524f520000000000000000000000000000000000006020830152604082019050919050565b6000601082527f4641494c45445f455845435554494f4e000000000000000000000000000000006020830152604082019050919050565b6000600d82527f54414b45525f4f564552504159000000000000000000000000000000000000006020830152604082019050919050565b6000601482527f494e56414c49445f54414b45525f414d4f554e540000000000000000000000006020830152604082019050919050565b6000601a82527f41535345545f50524f58595f444f45535f4e4f545f45584953540000000000006020830152604082019050919050565b6000602182527f475245415445525f5448414e5f5a45524f5f4c454e4754485f5245515549524560208301527f44000000000000000000000000000000000000000000000000000000000000006040830152606082019050919050565b6000601182527f5349474e41545552455f494c4c4547414c0000000000000000000000000000006020830152604082019050919050565b6000602e82527f436f6e747261637420696e7374616e63652068617320616c726561647920626560208301527f656e20696e697469616c697a65640000000000000000000000000000000000006040830152606082019050919050565b6000601e82527f4c454e4754485f475245415445525f5448414e5f305f524551554952454400006020830152604082019050919050565b6000601782527f494e56414c49445f4e45575f4f524445525f45504f43480000000000000000006020830152604082019050919050565b6000601e82527f4c454e4754485f475245415445525f5448414e5f335f524551554952454400006020830152604082019050919050565b6000601482527f434f4d504c4554455f46494c4c5f4641494c45440000000000000000000000006020830152604082019050919050565b6000601282527f494e56414c49445f46494c4c5f505249434500000000000000000000000000006020830152604082019050919050565b6000601282527f5245454e5452414e43595f494c4c4547414c00000000000000000000000000006020830152604082019050919050565b6000601382527f4f4e4c595f434f4e54524143545f4f574e4552000000000000000000000000006020830152604082019050919050565b6000602682527f475245415445525f4f525f455155414c5f544f5f32305f4c454e4754485f524560208301527f51554952454400000000000000000000000000000000000000000000000000006040830152606082019050919050565b6000601082527f4f524445525f554e46494c4c41424c45000000000000000000000000000000006020830152604082019050919050565b6000600e82527f494e56414c49445f53454e4445520000000000000000000000000000000000006020830152604082019050919050565b6000601882527f4e454741544956455f5350524541445f524551554952454400000000000000006020830152604082019050919050565b6000601482527f494e56414c49445f54585f5349474e41545552450000000000000000000000006020830152604082019050919050565b6000601182527f4c454e4754485f305f52455155495245440000000000000000000000000000006020830152604082019050919050565b608082016000820151616b356000850182616c91565b506020820151616b486020850182616c91565b506040820151616b5b6040850182616c91565b506060820151616b6e6060850182616c91565b50505050565b608082016000820151616b8a6000850182616c91565b506020820151616b9d6020850182616c91565b506040820151616bb06040850182616c91565b506060820151616bc36060850182616c91565b50505050565b61012082016000820151616be06000850182616b74565b506020820151616bf36080850182616b74565b506040820151616c07610100850182616c91565b50505050565b606082016000820151616c236000850182616ca0565b506020820151616c36602085018261626a565b506040820151616c496040850182616c91565b50505050565b606082016000820151616c656000850182616ca0565b506020820151616c78602085018261626a565b506040820151616c8b6040850182616c91565b50505050565b616c9a81617580565b82525050565b616ca98161758a565b82525050565b6000602082019050616cc460008301846161f1565b92915050565b600061010082019050616ce0600083018b6161f1565b616ced602083018a6161f1565b616cfa6040830189616c91565b616d076060830188616c91565b616d146080830187616c91565b616d2160a0830186616c91565b81810360c0830152616d3381856162be565b905081810360e0830152616d4781846162be565b90509998505050505050505050565b6000606082019050616d6b60008301866161f1565b8181036020830152616d7d81856162be565b90508181036040830152616d9181846162be565b9050949350505050565b60006020820190508181036000830152616db58184616200565b905092915050565b6000602082019050616dd2600083018461625b565b92915050565b6000602082019050616ded600083018461626a565b92915050565b6000606082019050616e08600083018661626a565b616e1560208301856161f1565b8181036040830152616e278184616288565b9050949350505050565b6000604082019050616e46600083018561626a565b8181036020830152616e588184616288565b90509392505050565b6000608082019050616e76600083018761626a565b616e836020830186616ca0565b616e90604083018561626a565b616e9d606083018461626a565b95945050505050565b6000604082019050616ebb6000830185616279565b616ec860208301846161f1565b9392505050565b60006020820190508181036000830152616ee981846162be565b905092915050565b6000602082019050616f0660008301846162f4565b92915050565b60006020820190508181036000830152616f268184616303565b905092915050565b60006020820190508181036000830152616f4781616339565b9050919050565b60006020820190508181036000830152616f6781616370565b9050919050565b60006020820190508181036000830152616f87816163a7565b9050919050565b60006020820190508181036000830152616fa7816163de565b9050919050565b60006020820190508181036000830152616fc781616415565b9050919050565b60006020820190508181036000830152616fe78161644c565b9050919050565b60006020820190508181036000830152617007816164a9565b9050919050565b60006020820190508181036000830152617027816164e0565b9050919050565b6000602082019050818103600083015261704781616517565b9050919050565b600060208201905081810360008301526170678161654e565b9050919050565b6000602082019050818103600083015261708781616585565b9050919050565b600060208201905081810360008301526170a7816165bc565b9050919050565b600060208201905081810360008301526170c7816165f3565b9050919050565b600060208201905081810360008301526170e78161662a565b9050919050565b6000602082019050818103600083015261710781616661565b9050919050565b6000602082019050818103600083015261712781616698565b9050919050565b60006020820190508181036000830152617147816166cf565b9050919050565b6000602082019050818103600083015261716781616706565b9050919050565b600060208201905081810360008301526171878161673d565b9050919050565b600060208201905081810360008301526171a78161679a565b9050919050565b600060208201905081810360008301526171c7816167d1565b9050919050565b600060208201905081810360008301526171e78161682e565b9050919050565b6000602082019050818103600083015261720781616865565b9050919050565b600060208201905081810360008301526172278161689c565b9050919050565b60006020820190508181036000830152617247816168d3565b9050919050565b600060208201905081810360008301526172678161690a565b9050919050565b6000602082019050818103600083015261728781616941565b9050919050565b600060208201905081810360008301526172a781616978565b9050919050565b600060208201905081810360008301526172c7816169af565b9050919050565b600060208201905081810360008301526172e781616a0c565b9050919050565b6000602082019050818103600083015261730781616a43565b9050919050565b6000602082019050818103600083015261732781616a7a565b9050919050565b6000602082019050818103600083015261734781616ab1565b9050919050565b6000602082019050818103600083015261736781616ae8565b9050919050565b60006080820190506173836000830184616b1f565b92915050565b60006101208201905061739f6000830184616bc9565b92915050565b60006060820190506173ba6000830184616c0d565b92915050565b60006020820190506173d56000830184616c91565b92915050565b6000604051905081810181811067ffffffffffffffff821117156173fe57600080fd5b8060405250919050565b600067ffffffffffffffff82111561741f57600080fd5b602082029050602081019050919050565b600067ffffffffffffffff82111561744757600080fd5b602082029050602081019050919050565b600067ffffffffffffffff82111561746f57600080fd5b602082029050602081019050919050565b600067ffffffffffffffff82111561749757600080fd5b601f19601f8301169050602081019050919050565b600067ffffffffffffffff8211156174c357600080fd5b601f19601f8301169050602081019050919050565b6000602082019050919050565b600081519050919050565b600081519050919050565b600081519050919050565b600081519050919050565b6000602082019050919050565b600073ffffffffffffffffffffffffffffffffffffffff82169050919050565b60008115159050919050565b6000819050919050565b60007fffffffff0000000000000000000000000000000000000000000000000000000082169050919050565b6000819050919050565b600060ff82169050919050565b600073ffffffffffffffffffffffffffffffffffffffff82169050919050565b60008115159050919050565b6000819050919050565b60007fffffffff0000000000000000000000000000000000000000000000000000000082169050919050565b6000819050919050565b600061760e8261751e565b9050919050565b82818337600083830152505050565b60005b83811015617642578082015181840152602081019050617627565b83811115617651576000848401525b50505050565b6000601f19601f83011690509190505600a265627a7a72305820a7aaaee2ebf9c9c497b689ea9993f365a0158ad53be047b6cf58aa16700b14d36c6578706572696d656e74616cf50037",
  "source": "/*\n\n  Copyright 2018 ZeroEx Intl.\n\n  Licensed under the Apache License, Version 2.0 (the \"License\");\n  you may not use this file except in compliance with the License.\n  You may obtain a copy of the License at\n\n    http://www.apache.org/licenses/LICENSE-2.0\n\n  Unless required by applicable law or agreed to in writing, software\n  distributed under the License is distributed on an \"AS IS\" BASIS,\n  WITHOUT WARRANTIES OR CONDITIONS OF ANY KIND, either express or implied.\n  See the License for the specific language governing permissions and\n  limitations under the License.\n\n*/\n\npragma solidity 0.4.24;\npragma experimental ABIEncoderV2;\n\nimport \"./libs/LibConstants.sol\";\nimport \"./MixinExchangeCore.sol\";\nimport \"./MixinSignatureValidator.sol\";\nimport \"./MixinWrapperFunctions.sol\";\nimport \"./MixinAssetProxyDispatcher.sol\";\nimport \"./MixinTransactions.sol\";\nimport \"./MixinMatchOrders.sol\";\n\n\n// solhint-disable no-empty-blocks\ncontract Exchange is\n    MixinExchangeCore,\n    MixinMatchOrders,\n    MixinSignatureValidator,\n    MixinTransactions,\n    MixinAssetProxyDispatcher,\n    MixinWrapperFunctions\n{\n    string constant public VERSION = \"2.0.1-alpha\";\n\n    // Mixins are instantiated in the order they are inherited\n    constructor (bytes memory _zrxAssetData)\n        public\n        LibConstants(_zrxAssetData) // @TODO: Remove when we deploy.\n        MixinExchangeCore()\n        MixinMatchOrders()\n        MixinSignatureValidator()\n        MixinTransactions()\n        MixinAssetProxyDispatcher()\n        MixinWrapperFunctions()\n    {}\n}\n",
  "sourcePath": "/Users/facu/Documents/Laburo/Spiking/Ethereum/0x/0x-monorepo/packages/contracts/contracts/2.0.0/protocol/Exchange/Exchange.sol",
  "compiler": {
    "name": "solc",
    "version": "0.4.24+commit.e67f0147.Emscripten.clang"
  },
  "schemaVersion": "2.0.1",
  "updatedAt": "2018-10-16T20:38:35.332Z"
}