{
  "contractName": "Forwarder",
  "abi": [
    {
      "constant": false,
      "inputs": [
        {
          "components": [
            {
              "name": "makerAddress",
              "type": "address"
            },
            {
              "name": "takerAddress",
              "type": "address"
            },
            {
              "name": "feeRecipientAddress",
              "type": "address"
            },
            {
              "name": "senderAddress",
              "type": "address"
            },
            {
              "name": "makerAssetAmount",
              "type": "uint256"
            },
            {
              "name": "takerAssetAmount",
              "type": "uint256"
            },
            {
              "name": "makerFee",
              "type": "uint256"
            },
            {
              "name": "takerFee",
              "type": "uint256"
            },
            {
              "name": "expirationTimeSeconds",
              "type": "uint256"
            },
            {
              "name": "salt",
              "type": "uint256"
            },
            {
              "name": "makerAssetData",
              "type": "bytes"
            },
            {
              "name": "takerAssetData",
              "type": "bytes"
            }
          ],
          "name": "orders",
          "type": "tuple[]"
        },
        {
          "name": "makerAssetFillAmount",
          "type": "uint256"
        },
        {
          "name": "signatures",
          "type": "bytes[]"
        },
        {
          "components": [
            {
              "name": "makerAddress",
              "type": "address"
            },
            {
              "name": "takerAddress",
              "type": "address"
            },
            {
              "name": "feeRecipientAddress",
              "type": "address"
            },
            {
              "name": "senderAddress",
              "type": "address"
            },
            {
              "name": "makerAssetAmount",
              "type": "uint256"
            },
            {
              "name": "takerAssetAmount",
              "type": "uint256"
            },
            {
              "name": "makerFee",
              "type": "uint256"
            },
            {
              "name": "takerFee",
              "type": "uint256"
            },
            {
              "name": "expirationTimeSeconds",
              "type": "uint256"
            },
            {
              "name": "salt",
              "type": "uint256"
            },
            {
              "name": "makerAssetData",
              "type": "bytes"
            },
            {
              "name": "takerAssetData",
              "type": "bytes"
            }
          ],
          "name": "feeOrders",
          "type": "tuple[]"
        },
        {
          "name": "feeSignatures",
          "type": "bytes[]"
        },
        {
          "name": "feePercentage",
          "type": "uint256"
        },
        {
          "name": "feeRecipient",
          "type": "address"
        }
      ],
      "name": "marketBuyOrdersWithEth",
      "outputs": [
        {
          "components": [
            {
              "name": "makerAssetFilledAmount",
              "type": "uint256"
            },
            {
              "name": "takerAssetFilledAmount",
              "type": "uint256"
            },
            {
              "name": "makerFeePaid",
              "type": "uint256"
            },
            {
              "name": "takerFeePaid",
              "type": "uint256"
            }
          ],
          "name": "orderFillResults",
          "type": "tuple"
        },
        {
          "components": [
            {
              "name": "makerAssetFilledAmount",
              "type": "uint256"
            },
            {
              "name": "takerAssetFilledAmount",
              "type": "uint256"
            },
            {
              "name": "makerFeePaid",
              "type": "uint256"
            },
            {
              "name": "takerFeePaid",
              "type": "uint256"
            }
          ],
          "name": "feeOrderFillResults",
          "type": "tuple"
        }
      ],
      "payable": true,
      "stateMutability": "payable",
      "type": "function"
    },
    {
      "constant": false,
      "inputs": [
        {
          "name": "assetData",
          "type": "bytes"
        },
        {
          "name": "amount",
          "type": "uint256"
        }
      ],
      "name": "withdrawAsset",
      "outputs": [],
      "payable": false,
      "stateMutability": "nonpayable",
      "type": "function"
    },
    {
      "constant": true,
      "inputs": [],
      "name": "owner",
      "outputs": [
        {
          "name": "",
          "type": "address"
        }
      ],
      "payable": false,
      "stateMutability": "view",
      "type": "function"
    },
    {
      "constant": false,
      "inputs": [
        {
          "components": [
            {
              "name": "makerAddress",
              "type": "address"
            },
            {
              "name": "takerAddress",
              "type": "address"
            },
            {
              "name": "feeRecipientAddress",
              "type": "address"
            },
            {
              "name": "senderAddress",
              "type": "address"
            },
            {
              "name": "makerAssetAmount",
              "type": "uint256"
            },
            {
              "name": "takerAssetAmount",
              "type": "uint256"
            },
            {
              "name": "makerFee",
              "type": "uint256"
            },
            {
              "name": "takerFee",
              "type": "uint256"
            },
            {
              "name": "expirationTimeSeconds",
              "type": "uint256"
            },
            {
              "name": "salt",
              "type": "uint256"
            },
            {
              "name": "makerAssetData",
              "type": "bytes"
            },
            {
              "name": "takerAssetData",
              "type": "bytes"
            }
          ],
          "name": "orders",
          "type": "tuple[]"
        },
        {
          "name": "signatures",
          "type": "bytes[]"
        },
        {
          "components": [
            {
              "name": "makerAddress",
              "type": "address"
            },
            {
              "name": "takerAddress",
              "type": "address"
            },
            {
              "name": "feeRecipientAddress",
              "type": "address"
            },
            {
              "name": "senderAddress",
              "type": "address"
            },
            {
              "name": "makerAssetAmount",
              "type": "uint256"
            },
            {
              "name": "takerAssetAmount",
              "type": "uint256"
            },
            {
              "name": "makerFee",
              "type": "uint256"
            },
            {
              "name": "takerFee",
              "type": "uint256"
            },
            {
              "name": "expirationTimeSeconds",
              "type": "uint256"
            },
            {
              "name": "salt",
              "type": "uint256"
            },
            {
              "name": "makerAssetData",
              "type": "bytes"
            },
            {
              "name": "takerAssetData",
              "type": "bytes"
            }
          ],
          "name": "feeOrders",
          "type": "tuple[]"
        },
        {
          "name": "feeSignatures",
          "type": "bytes[]"
        },
        {
          "name": "feePercentage",
          "type": "uint256"
        },
        {
          "name": "feeRecipient",
          "type": "address"
        }
      ],
      "name": "marketSellOrdersWithEth",
      "outputs": [
        {
          "components": [
            {
              "name": "makerAssetFilledAmount",
              "type": "uint256"
            },
            {
              "name": "takerAssetFilledAmount",
              "type": "uint256"
            },
            {
              "name": "makerFeePaid",
              "type": "uint256"
            },
            {
              "name": "takerFeePaid",
              "type": "uint256"
            }
          ],
          "name": "orderFillResults",
          "type": "tuple"
        },
        {
          "components": [
            {
              "name": "makerAssetFilledAmount",
              "type": "uint256"
            },
            {
              "name": "takerAssetFilledAmount",
              "type": "uint256"
            },
            {
              "name": "makerFeePaid",
              "type": "uint256"
            },
            {
              "name": "takerFeePaid",
              "type": "uint256"
            }
          ],
          "name": "feeOrderFillResults",
          "type": "tuple"
        }
      ],
      "payable": true,
      "stateMutability": "payable",
      "type": "function"
    },
    {
      "constant": false,
      "inputs": [
        {
          "name": "newOwner",
          "type": "address"
        }
      ],
      "name": "transferOwnership",
      "outputs": [],
      "payable": false,
      "stateMutability": "nonpayable",
      "type": "function"
    },
    {
      "inputs": [
        {
          "name": "_exchange",
          "type": "address"
        },
        {
          "name": "_zrxAssetData",
          "type": "bytes"
        },
        {
          "name": "_wethAssetData",
          "type": "bytes"
        }
      ],
      "payable": false,
      "stateMutability": "nonpayable",
      "type": "constructor"
    },
    {
      "payable": true,
      "stateMutability": "payable",
      "type": "fallback"
    }
  ],
  "bytecode": "0x60806040523480156200001157600080fd5b50604051620035203803806200352083398101806040526200003791908101906200070c565b6000838383600080336000806101000a81548173ffffffffffffffffffffffffffffffffffffffff021916908373ffffffffffffffffffffffffffffffffffffffff16021790555084600160006101000a81548173ffffffffffffffffffffffffffffffffffffffff021916908373ffffffffffffffffffffffffffffffffffffffff1602179055508360049080519060200190620000d8929190620005a7565b508260059080519060200190620000f1929190620005a7565b50620001166010846200052e6401000000000262001be1179091906401000000009004565b91506200013c6010856200052e6401000000000262001be1179091906401000000009004565b905081600260006101000a81548173ffffffffffffffffffffffffffffffffffffffff021916908373ffffffffffffffffffffffffffffffffffffffff16021790555080600360006101000a81548173ffffffffffffffffffffffffffffffffffffffff021916908373ffffffffffffffffffffffffffffffffffffffff1602179055505050505050600160009054906101000a900473ffffffffffffffffffffffffffffffffffffffff1673ffffffffffffffffffffffffffffffffffffffff16636070410860405180807f4552433230546f6b656e28616464726573732900000000000000000000000000815250601301905060405180910390206040518263ffffffff167c0100000000000000000000000000000000000000000000000000000000028152600401620002739190620008b4565b602060405180830381600087803b1580156200028e57600080fd5b505af1158015620002a3573d6000803e3d6000fd5b505050506040513d601f19601f82011682018060405250620002c99190810190620006e0565b9050600073ffffffffffffffffffffffffffffffffffffffff168173ffffffffffffffffffffffffffffffffffffffff161415151562000340576040517f08c379a00000000000000000000000000000000000000000000000000000000081526004016200033790620008f3565b60405180910390fd5b600260009054906101000a900473ffffffffffffffffffffffffffffffffffffffff1673ffffffffffffffffffffffffffffffffffffffff1663095ea7b3827fffffffffffffffffffffffffffffffffffffffffffffffffffffffffffffffff6040518363ffffffff167c0100000000000000000000000000000000000000000000000000000000028152600401620003db92919062000887565b602060405180830381600087803b158015620003f657600080fd5b505af11580156200040b573d6000803e3d6000fd5b505050506040513d601f19601f8201168201806040525062000431919081019062000794565b50600360009054906101000a900473ffffffffffffffffffffffffffffffffffffffff1673ffffffffffffffffffffffffffffffffffffffff1663095ea7b3827fffffffffffffffffffffffffffffffffffffffffffffffffffffffffffffffff6040518363ffffffff167c0100000000000000000000000000000000000000000000000000000000028152600401620004cd92919062000887565b602060405180830381600087803b158015620004e857600080fd5b505af1158015620004fd573d6000803e3d6000fd5b505050506040513d601f19601f8201168201806040525062000523919081019062000794565b505050505062000a28565b6000601482018351101515156200057c576040517f08c379a00000000000000000000000000000000000000000000000000000000081526004016200057390620008d1565b60405180910390fd5b60148201915073ffffffffffffffffffffffffffffffffffffffff8284015116905080905092915050565b828054600181600116156101000203166002900490600052602060002090601f016020900481019282601f10620005ea57805160ff19168380011785556200061b565b828001600101855582156200061b579182015b828111156200061a578251825591602001919060010190620005fd565b5b5090506200062a91906200062e565b5090565b6200065391905b808211156200064f57600081600090555060010162000635565b5090565b90565b6000620006648251620009c6565b905092915050565b60006200067a8251620009e6565b905092915050565b600082601f83011215156200069657600080fd5b8151620006ad620006a78262000943565b62000915565b91508082526020830160208301858383011115620006ca57600080fd5b620006d7838284620009f2565b50505092915050565b600060208284031215620006f357600080fd5b6000620007038482850162000656565b91505092915050565b6000806000606084860312156200072257600080fd5b6000620007328682870162000656565b935050602084015167ffffffffffffffff8111156200075057600080fd5b6200075e8682870162000682565b925050604084015167ffffffffffffffff8111156200077c57600080fd5b6200078a8682870162000682565b9150509250925092565b600060208284031215620007a757600080fd5b6000620007b7848285016200066c565b91505092915050565b620007cb8162000970565b82525050565b620007dc8162000990565b82525050565b6000602682527f475245415445525f4f525f455155414c5f544f5f32305f4c454e4754485f524560208301527f51554952454400000000000000000000000000000000000000000000000000006040830152606082019050919050565b6000601882527f554e524547495354455245445f41535345545f50524f585900000000000000006020830152604082019050919050565b6200088181620009bc565b82525050565b60006040820190506200089e6000830185620007c0565b620008ad602083018462000876565b9392505050565b6000602082019050620008cb6000830184620007d1565b92915050565b60006020820190508181036000830152620008ec81620007e2565b9050919050565b600060208201905081810360008301526200090e816200083f565b9050919050565b6000604051905081810181811067ffffffffffffffff821117156200093957600080fd5b8060405250919050565b600067ffffffffffffffff8211156200095b57600080fd5b601f19601f8301169050602081019050919050565b600073ffffffffffffffffffffffffffffffffffffffff82169050919050565b60007fffffffff0000000000000000000000000000000000000000000000000000000082169050919050565b6000819050919050565b600073ffffffffffffffffffffffffffffffffffffffff82169050919050565b60008115159050919050565b60005b8381101562000a12578082015181840152602081019050620009f5565b8381111562000a22576000848401525b50505050565b612ae88062000a386000396000f30060806040526004361061006d576000357c0100000000000000000000000000000000000000000000000000000000900463ffffffff16806318978e8214610101578063630f1e6c146101325780638da5cb5b1461015b5780639395525c14610186578063f2fde38b146101b7575b600260009054906101000a900473ffffffffffffffffffffffffffffffffffffffff1673ffffffffffffffffffffffffffffffffffffffff163373ffffffffffffffffffffffffffffffffffffffff161415156100ff576040517f08c379a00000000000000000000000000000000000000000000000000000000081526004016100f69061275d565b60405180910390fd5b005b61011b60048036036101169190810190612111565b6101e0565b60405161012992919061295d565b60405180910390f35b34801561013e57600080fd5b506101596004803603610154919081019061220f565b610362565b005b34801561016757600080fd5b50610170610434565b60405161017d91906126e2565b60405180910390f35b6101a0600480360361019b9190810190612028565b610459565b6040516101ae92919061295d565b60405180910390f35b3480156101c357600080fd5b506101de60048036036101d99190810190611fff565b61062f565b005b6101e8611cd2565b6101f0611cd2565b6000806101fb61073a565b6102c560048054600181600116156101000203166002900480601f0160208091040260200160405190810160405280929190818152602001828054600181600116156101000203166002900480156102945780601f1061026957610100808354040283529160200191610294565b820191906000526020600020905b81548152906001019060200180831161027757829003601f168201915b50505050508c60008151811015156102a857fe5b90602001906020020151610140015161082090919063ffffffff16565b156102f0576102d58b8b8b610906565b93506102e984600001518560600151610c0d565b9050610319565b6102fb8b8b8b610c5f565b93508360600151915061030f888389610906565b9250836000015190505b61032d846020015184602001518888610e9c565b6103548b600081518110151561033f57fe5b90602001906020020151610140015182611120565b505097509795505050505050565b6000809054906101000a900473ffffffffffffffffffffffffffffffffffffffff1673ffffffffffffffffffffffffffffffffffffffff163373ffffffffffffffffffffffffffffffffffffffff161415156103f3576040517f08c379a00000000000000000000000000000000000000000000000000000000081526004016103ea906128bd565b60405180910390fd5b61042f83838080601f01602080910402602001604051908101604052809392919081815260200183838082843782019150505050505082611120565b505050565b6000809054906101000a900473ffffffffffffffffffffffffffffffffffffffff1681565b610461611cd2565b610469611cd2565b600080600061047661073a565b61054060048054600181600116156101000203166002900480601f01602080910402602001604051908101604052809291908181526020018280546001816001161561010002031660029004801561050f5780601f106104e45761010080835404028352916020019161050f565b820191906000526020600020905b8154815290600101906020018083116104f257829003601f168201915b50505050508c600081518110151561052357fe5b90602001906020020151610140015161082090919063ffffffff16565b1561059157610569670de0b6b3a7640000610563670de0b6b3a76400008a61128d565b346112e4565b92506105768b848c611349565b945061058a85600001518660600151610c0d565b90506105e6565b6105bb6064670de0b6b3a7640000605f028115156105ab57fe5b04670de0b6b3a7640000346112e4565b92506105c88b848c611349565b9450846060015191506105dc89838a610906565b9350846000015190505b6105fa856020015185602001518989610e9c565b6106218b600081518110151561060c57fe5b90602001906020020151610140015182611120565b505050965096945050505050565b6000809054906101000a900473ffffffffffffffffffffffffffffffffffffffff1673ffffffffffffffffffffffffffffffffffffffff163373ffffffffffffffffffffffffffffffffffffffff161415156106c0576040517f08c379a00000000000000000000000000000000000000000000000000000000081526004016106b7906128bd565b60405180910390fd5b600073ffffffffffffffffffffffffffffffffffffffff168173ffffffffffffffffffffffffffffffffffffffff1614151561073757806000806101000a81548173ffffffffffffffffffffffffffffffffffffffff021916908373ffffffffffffffffffffffffffffffffffffffff1602179055505b50565b60003411151561077f576040517f08c379a00000000000000000000000000000000000000000000000000000000081526004016107769061277d565b60405180910390fd5b600260009054906101000a900473ffffffffffffffffffffffffffffffffffffffff1673ffffffffffffffffffffffffffffffffffffffff1663d0e30db0346040518263ffffffff167c01000000000000000000000000000000000000000000000000000000000281526004016000604051808303818588803b15801561080557600080fd5b505af1158015610819573d6000803e3d6000fd5b5050505050565b6000815183511480156108fe5750816040518082805190602001908083835b602083101515610864578051825260208201915060208101905060208303925061083f565b6001836020036101000a038019825116818451168082178552505050505050905001915050604051809103902060001916836040518082805190602001908083835b6020831015156108cb57805182526020820191506020810190506020830392506108a6565b6001836020036101000a038019825116818451168082178552505050505050905001915050604051809103902060001916145b905092915050565b61090e611cd2565b6060806000806000806000610921611cd2565b60008b141561093257889850610bfe565b60048054600181600116156101000203166002900480601f0160208091040260200160405190810160405280929190818152602001828054600181600116156101000203166002900480156109c85780601f1061099d576101008083540402835291602001916109c8565b820191906000526020600020905b8154815290600101906020018083116109ab57829003601f168201915b5050505050975060058054600181600116156101000203166002900480601f016020809104026020016040519081016040528092919081815260200182805460018160011615610100020316600290048015610a655780601f10610a3a57610100808354040283529160200191610a65565b820191906000526020600020905b815481529060010190602001808311610a4857829003601f168201915b50505050509650600095508b519450600093505b8484141515610bb557878c85815181101515610a9157fe5b906020019060200201516101400181905250868c85815181101515610ab257fe5b906020019060200201516101600181905250610ace8b87610c0d565b9250610b358c85815181101515610ae157fe5b9060200190602002015160a00151610b2f8e87815181101515610b0057fe5b90602001906020020151608001518f88815181101515610b1c57fe5b9060200190602002015160e00151610c0d565b856112e4565b9150610b7a8c85815181101515610b4857fe5b90602001906020020151610b5d84600161128d565b8c87815181101515610b6b57fe5b906020019060200201516114f6565b9050610b868982611578565b610b9889600001518a60600151610c0d565b95508a86101515610ba857610bb5565b8380600101945050610a79565b8a8610151515610bfa576040517f08c379a0000000000000000000000000000000000000000000000000000000008152600401610bf19061287d565b60405180910390fd5b8898505b50505050505050509392505050565b6000828211151515610c54576040517f08c379a0000000000000000000000000000000000000000000000000000000008152600401610c4b906127bd565b60405180910390fd5b818303905092915050565b610c67611cd2565b606080600080600080610c78611cd2565b60008b6000815181101515610c8957fe5b906020019060200201516101400151975060058054600181600116156101000203166002900480601f016020809104026020016040519081016040528092919081815260200182805460018160011615610100020316600290048015610d305780601f10610d0557610100808354040283529160200191610d30565b820191906000526020600020905b815481529060010190602001808311610d1357829003601f168201915b505050505096508b519550600094505b8585141515610e4557878c86815181101515610d5857fe5b906020019060200201516101400181905250868c86815181101515610d7957fe5b906020019060200201516101600181905250610d998b8a60000151610c0d565b9350610ddc8c86815181101515610dac57fe5b9060200190602002015160a001518d87815181101515610dc857fe5b9060200190602002015160800151866112e4565b9250610e178c86815181101515610def57fe5b90602001906020020151848c88815181101515610e0857fe5b906020019060200201516114f6565b9150610e238983611578565b886000015190508a81101515610e3857610e45565b8480600101955050610d40565b8a8110151515610e8a576040517f08c379a0000000000000000000000000000000000000000000000000000000008152600401610e819061287d565b60405180910390fd5b88985050505050505050509392505050565b6000806000806064670de0b6b3a7640000600502811515610eb957fe5b048611151515610efe576040517f08c379a0000000000000000000000000000000000000000000000000000000008152600401610ef5906128dd565b60405180910390fd5b610f08888861128d565b9350348411151515610f4f576040517f08c379a0000000000000000000000000000000000000000000000000000000008152600401610f469061279d565b60405180910390fd5b610f593485610c0d565b9250610f6e86670de0b6b3a76400008a6112e4565b9150828211151515610fb5576040517f08c379a0000000000000000000000000000000000000000000000000000000008152600401610fac9061289d565b60405180910390fd5b600083111561111657600260009054906101000a900473ffffffffffffffffffffffffffffffffffffffff1673ffffffffffffffffffffffffffffffffffffffff16632e1a7d4d846040518263ffffffff167c01000000000000000000000000000000000000000000000000000000000281526004016110359190612987565b600060405180830381600087803b15801561104f57600080fd5b505af1158015611063573d6000803e3d6000fd5b5050505060008211156110b8578473ffffffffffffffffffffffffffffffffffffffff166108fc839081150290604051600060405180830381858888f193505050501580156110b6573d6000803e3d6000fd5b505b6110c28383610c0d565b90506000811115611115573373ffffffffffffffffffffffffffffffffffffffff166108fc829081150290604051600060405180830381858888f19350505050158015611113573d6000803e3d6000fd5b505b5b5050505050505050565b60006111366000846115e890919063ffffffff16565b905060405180807f4552433230546f6b656e28616464726573732900000000000000000000000000815250601301905060405180910390207bffffffffffffffffffffffffffffffffffffffffffffffffffffffff1916817bffffffffffffffffffffffffffffffffffffffffffffffffffffffff191614156111c2576111bd838361166d565b611288565b60405180807f455243373231546f6b656e28616464726573732c75696e743235362900000000815250601c01905060405180910390207bffffffffffffffffffffffffffffffffffffffffffffffffffffffff1916817bffffffffffffffffffffffffffffffffffffffffffffffffffffffff1916141561124c57611247838361185e565b611287565b6040517f08c379a000000000000000000000000000000000000000000000000000000000815260040161127e9061283d565b60405180910390fd5b5b505050565b60008082840190508381101515156112da576040517f08c379a00000000000000000000000000000000000000000000000000000000081526004016112d19061281d565b60405180910390fd5b8091505092915050565b6000808311151561132a576040517f08c379a0000000000000000000000000000000000000000000000000000000008152600401611321906127fd565b60405180910390fd5b61133d6113378584611963565b846119d7565b90508090509392505050565b611351611cd2565b6060806000806000611361611cd2565b89600081518110151561137057fe5b906020019060200201516101400151955060058054600181600116156101000203166002900480601f0160208091040260200160405190810160405280929190818152602001828054600181600116156101000203166002900480156114175780601f106113ec57610100808354040283529160200191611417565b820191906000526020600020905b8154815290600101906020018083116113fa57829003601f168201915b5050505050945089519350600092505b83831415156114e657858a8481518110151561143f57fe5b906020019060200201516101400181905250848a8481518110151561146057fe5b906020019060200201516101600181905250611480898860200151610c0d565b91506114bb8a8481518110151561149357fe5b90602001906020020151838a868151811015156114ac57fe5b906020019060200201516114f6565b90506114c78782611578565b8887602001511015156114d9576114e6565b8280600101935050611427565b8696505050505050509392505050565b6114fe611cd2565b6060600061150d8686866119f2565b9150600160009054906101000a900473ffffffffffffffffffffffffffffffffffffffff1690506080828351602085016000855af1801561156b57825184526020830151602085015260408301516040850152606083015160608501525b5082925050509392505050565b61158a8260000151826000015161128d565b8260000181815250506115a58260200151826020015161128d565b8260200181815250506115c08260400151826040015161128d565b8260400181815250506115db8260600151826060015161128d565b8260600181815250505050565b600060048201835110151515611633576040517f08c379a000000000000000000000000000000000000000000000000000000000815260040161162a9061291d565b60405180910390fd5b6020820191508183015190507fffffffff000000000000000000000000000000000000000000000000000000008116905080905092915050565b600080611684601085611be190919063ffffffff16565b91508173ffffffffffffffffffffffffffffffffffffffff1660405180807f7472616e7366657228616464726573732c75696e7432353629000000000000008152506019019050604051809103902033856040516024016116e6929190612734565b604051602081830303815290604052907bffffffffffffffffffffffffffffffffffffffffffffffffffffffff19166020820180517bffffffffffffffffffffffffffffffffffffffffffffffffffffffff838183161783525050505060405180828051906020019080838360005b83811015611770578082015181840152602081019050611755565b50505050905090810190601f16801561179d5780820380516001836020036101000a031916815260200191505b509150506000604051808303816000865af191505090508015156117f6576040517f08c379a00000000000000000000000000000000000000000000000000000000081526004016117ed9061285d565b60405180910390fd5b3d15611816576000905060203d14156118155760206000803e60005190505b5b801515611858576040517f08c379a000000000000000000000000000000000000000000000000000000000815260040161184f9061285d565b60405180910390fd5b50505050565b6000806001831415156118a6576040517f08c379a000000000000000000000000000000000000000000000000000000000815260040161189d9061293d565b60405180910390fd5b6118ba601085611be190919063ffffffff16565b91506118d0602485611c5790919063ffffffff16565b90508173ffffffffffffffffffffffffffffffffffffffff166323b872dd3033846040518463ffffffff167c010000000000000000000000000000000000000000000000000000000002815260040161192b939291906126fd565b600060405180830381600087803b15801561194557600080fd5b505af1158015611959573d6000803e3d6000fd5b5050505050505050565b600080600084141561197857600091506119d0565b828402905082848281151561198957fe5b041415156119cc576040517f08c379a00000000000000000000000000000000000000000000000000000000081526004016119c39061281d565b60405180910390fd5b8091505b5092915050565b60008082848115156119e557fe5b0490508091505092915050565b606060405190507fb4be83d5000000000000000000000000000000000000000000000000000000006020820152602481018060608101818180896000808784038652602086019550825184526020830151602085015260408301516040850152606083015160608501526080830151608085015260a083015160a085015260c083015160c085015260e083015160e085015261010083015161010085015261012083015161012085015261014083015161014085015261016083015161016085015261018084019350610180830192508484036020600a028601526101408d01519250825191506020830192506020601f830104905081845260208401935060005b81811015611b175783518552602085019450602084019350600181019050611af4565b508484036020600b028601526101608d01519250825191506020830192506020601f830104905081845260208401935060005b81811015611b6d5783518552602085019450602084019350600181019050611b4a565b508b865260208601955087840386528a9250825191506020830192506020601f830104905081845260208401935060005b81811015611bc15783518552602085019450602084019350600181019050611b9e565b5060208a0184038a52836040525050505050505050508090509392505050565b600060148201835110151515611c2c576040517f08c379a0000000000000000000000000000000000000000000000000000000008152600401611c23906128fd565b60405180910390fd5b60148201915073ffffffffffffffffffffffffffffffffffffffff8284015116905080905092915050565b6000611c638383611c72565b60019004905080905092915050565b600060208201835110151515611cbd576040517f08c379a0000000000000000000000000000000000000000000000000000000008152600401611cb4906127dd565b60405180910390fd5b60208201915081830151905080905092915050565b608060405190810160405280600081526020016000815260200160008152602001600081525090565b6000611d078235612a75565b905092915050565b600082601f8301121515611d2257600080fd5b8135611d35611d30826129cf565b6129a2565b9150818183526020840193506020810190508360005b83811015611d7b5781358601611d618882611e47565b845260208401935060208301925050600181019050611d4b565b5050505092915050565b600082601f8301121515611d9857600080fd5b8135611dab611da6826129f7565b6129a2565b9150818183526020840193506020810190508360005b83811015611df15781358601611dd78882611e9d565b845260208401935060208301925050600181019050611dc1565b5050505092915050565b60008083601f8401121515611e0f57600080fd5b8235905067ffffffffffffffff811115611e2857600080fd5b602083019150836001820283011115611e4057600080fd5b9250929050565b600082601f8301121515611e5a57600080fd5b8135611e6d611e6882612a1f565b6129a2565b91508082526020830160208301858383011115611e8957600080fd5b611e94838284612a9f565b50505092915050565b60006101808284031215611eb057600080fd5b611ebb6101806129a2565b90506000611ecb84828501611cfb565b6000830152506020611edf84828501611cfb565b6020830152506040611ef384828501611cfb565b6040830152506060611f0784828501611cfb565b6060830152506080611f1b84828501611feb565b60808301525060a0611f2f84828501611feb565b60a08301525060c0611f4384828501611feb565b60c08301525060e0611f5784828501611feb565b60e083015250610100611f6c84828501611feb565b61010083015250610120611f8284828501611feb565b6101208301525061014082013567ffffffffffffffff811115611fa457600080fd5b611fb084828501611e47565b6101408301525061016082013567ffffffffffffffff811115611fd257600080fd5b611fde84828501611e47565b6101608301525092915050565b6000611ff78235612a95565b905092915050565b60006020828403121561201157600080fd5b600061201f84828501611cfb565b91505092915050565b60008060008060008060c0878903121561204157600080fd5b600087013567ffffffffffffffff81111561205b57600080fd5b61206789828a01611d85565b965050602087013567ffffffffffffffff81111561208457600080fd5b61209089828a01611d0f565b955050604087013567ffffffffffffffff8111156120ad57600080fd5b6120b989828a01611d85565b945050606087013567ffffffffffffffff8111156120d657600080fd5b6120e289828a01611d0f565b93505060806120f389828a01611feb565b92505060a061210489828a01611cfb565b9150509295509295509295565b600080600080600080600060e0888a03121561212c57600080fd5b600088013567ffffffffffffffff81111561214657600080fd5b6121528a828b01611d85565b97505060206121638a828b01611feb565b965050604088013567ffffffffffffffff81111561218057600080fd5b61218c8a828b01611d0f565b955050606088013567ffffffffffffffff8111156121a957600080fd5b6121b58a828b01611d85565b945050608088013567ffffffffffffffff8111156121d257600080fd5b6121de8a828b01611d0f565b93505060a06121ef8a828b01611feb565b92505060c06122008a828b01611cfb565b91505092959891949750929550565b60008060006040848603121561222457600080fd5b600084013567ffffffffffffffff81111561223e57600080fd5b61224a86828701611dfb565b9350935050602061225d86828701611feb565b9150509250925092565b61227081612a4b565b82525050565b6000602382527f44454641554c545f46554e4354494f4e5f574554485f434f4e54524143545f4f60208301527f4e4c5900000000000000000000000000000000000000000000000000000000006040830152606082019050919050565b6000601182527f494e56414c49445f4d53475f56414c55450000000000000000000000000000006020830152604082019050919050565b6000600d82527f4f564552534f4c445f57455448000000000000000000000000000000000000006020830152604082019050919050565b6000601182527f55494e543235365f554e444552464c4f570000000000000000000000000000006020830152604082019050919050565b6000602682527f475245415445525f4f525f455155414c5f544f5f33325f4c454e4754485f524560208301527f51554952454400000000000000000000000000000000000000000000000000006040830152606082019050919050565b6000601082527f4449564953494f4e5f42595f5a45524f000000000000000000000000000000006020830152604082019050919050565b6000601082527f55494e543235365f4f564552464c4f57000000000000000000000000000000006020830152604082019050919050565b6000601782527f554e535550504f525445445f41535345545f50524f58590000000000000000006020830152604082019050919050565b6000600f82527f5452414e534645525f4641494c454400000000000000000000000000000000006020830152604082019050919050565b6000601482527f434f4d504c4554455f46494c4c5f4641494c45440000000000000000000000006020830152604082019050919050565b6000601a82527f494e53554646494349454e545f4554485f52454d41494e494e470000000000006020830152604082019050919050565b6000601382527f4f4e4c595f434f4e54524143545f4f574e4552000000000000000000000000006020830152604082019050919050565b6000601882527f4645455f50455243454e544147455f544f4f5f4c4152474500000000000000006020830152604082019050919050565b6000602682527f475245415445525f4f525f455155414c5f544f5f32305f4c454e4754485f524560208301527f51554952454400000000000000000000000000000000000000000000000000006040830152606082019050919050565b6000602582527f475245415445525f4f525f455155414c5f544f5f345f4c454e4754485f52455160208301527f55495245440000000000000000000000000000000000000000000000000000006040830152606082019050919050565b6000600e82527f494e56414c49445f414d4f554e540000000000000000000000000000000000006020830152604082019050919050565b60808201600082015161269460008501826126d3565b5060208201516126a760208501826126d3565b5060408201516126ba60408501826126d3565b5060608201516126cd60608501826126d3565b50505050565b6126dc81612a6b565b82525050565b60006020820190506126f76000830184612267565b92915050565b60006060820190506127126000830186612267565b61271f6020830185612267565b61272c60408301846126d3565b949350505050565b60006040820190506127496000830185612267565b61275660208301846126d3565b9392505050565b6000602082019050818103600083015261277681612276565b9050919050565b60006020820190508181036000830152612796816122d3565b9050919050565b600060208201905081810360008301526127b68161230a565b9050919050565b600060208201905081810360008301526127d681612341565b9050919050565b600060208201905081810360008301526127f681612378565b9050919050565b60006020820190508181036000830152612816816123d5565b9050919050565b600060208201905081810360008301526128368161240c565b9050919050565b6000602082019050818103600083015261285681612443565b9050919050565b600060208201905081810360008301526128768161247a565b9050919050565b60006020820190508181036000830152612896816124b1565b9050919050565b600060208201905081810360008301526128b6816124e8565b9050919050565b600060208201905081810360008301526128d68161251f565b9050919050565b600060208201905081810360008301526128f681612556565b9050919050565b600060208201905081810360008301526129168161258d565b9050919050565b60006020820190508181036000830152612936816125ea565b9050919050565b6000602082019050818103600083015261295681612647565b9050919050565b600061010082019050612973600083018561267e565b612980608083018461267e565b9392505050565b600060208201905061299c60008301846126d3565b92915050565b6000604051905081810181811067ffffffffffffffff821117156129c557600080fd5b8060405250919050565b600067ffffffffffffffff8211156129e657600080fd5b602082029050602081019050919050565b600067ffffffffffffffff821115612a0e57600080fd5b602082029050602081019050919050565b600067ffffffffffffffff821115612a3657600080fd5b601f19601f8301169050602081019050919050565b600073ffffffffffffffffffffffffffffffffffffffff82169050919050565b6000819050919050565b600073ffffffffffffffffffffffffffffffffffffffff82169050919050565b6000819050919050565b828183376000838301525050505600a265627a7a723058208d0fb83175ac345308e3e136c83ccaa1321111d05b70120de9daeadff6ddcbb16c6578706572696d656e74616cf50037",
  "source": "/*\n\n  Copyright 2018 ZeroEx Intl.\n\n  Licensed under the Apache License, Version 2.0 (the \"License\");\n  you may not use this file except in compliance with the License.\n  You may obtain a copy of the License at\n\n    http://www.apache.org/licenses/LICENSE-2.0\n\n  Unless required by applicable law or agreed to in writing, software\n  distributed under the License is distributed on an \"AS IS\" BASIS,\n  WITHOUT WARRANTIES OR CONDITIONS OF ANY KIND, either express or implied.\n  See the License for the specific language governing permissions and\n  limitations under the License.\n\n*/\n\npragma solidity 0.4.24;\npragma experimental ABIEncoderV2;\n\nimport \"./MixinWeth.sol\";\nimport \"./MixinForwarderCore.sol\";\nimport \"./libs/LibConstants.sol\";\nimport \"./MixinAssets.sol\";\nimport \"./MixinExchangeWrapper.sol\";\n\n\n// solhint-disable no-empty-blocks\ncontract Forwarder is\n    LibConstants,\n    MixinWeth,\n    MixinAssets,\n    MixinExchangeWrapper,\n    MixinForwarderCore\n{\n    constructor (\n        address _exchange,\n        bytes memory _zrxAssetData,\n        bytes memory _wethAssetData\n    )\n        public\n        LibConstants(\n            _exchange,\n            _zrxAssetData,\n            _wethAssetData\n        )\n        MixinForwarderCore()\n    {}\n}\n",
  "sourcePath": "/Users/facu/Documents/Laburo/Spiking/Ethereum/0x/0x-monorepo/packages/contracts/contracts/2.0.0/extensions/Forwarder/Forwarder.sol",
  "compiler": {
    "name": "solc",
    "version": "0.4.24+commit.e67f0147.Emscripten.clang"
  },
  "schemaVersion": "2.0.1",
  "updatedAt": "2018-10-16T20:38:35.297Z"
}