{
  "contractName": "MultiSigWalletWithTimeLockExceptRemoveAuthorizedAddress",
  "abi": [
    {
      "constant": true,
      "inputs": [
        {
          "name": "",
          "type": "uint256"
        }
      ],
      "name": "owners",
      "outputs": [
        {
          "name": "",
          "type": "address"
        }
      ],
      "payable": false,
      "stateMutability": "view",
      "type": "function"
    },
    {
      "constant": false,
      "inputs": [
        {
          "name": "owner",
          "type": "address"
        }
      ],
      "name": "removeOwner",
      "outputs": [],
      "payable": false,
      "stateMutability": "nonpayable",
      "type": "function"
    },
    {
      "constant": false,
      "inputs": [
        {
          "name": "transactionId",
          "type": "uint256"
        }
      ],
      "name": "revokeConfirmation",
      "outputs": [],
      "payable": false,
      "stateMutability": "nonpayable",
      "type": "function"
    },
    {
      "constant": true,
      "inputs": [
        {
          "name": "",
          "type": "address"
        }
      ],
      "name": "isOwner",
      "outputs": [
        {
          "name": "",
          "type": "bool"
        }
      ],
      "payable": false,
      "stateMutability": "view",
      "type": "function"
    },
    {
      "constant": true,
      "inputs": [
        {
          "name": "",
          "type": "uint256"
        },
        {
          "name": "",
          "type": "address"
        }
      ],
      "name": "confirmations",
      "outputs": [
        {
          "name": "",
          "type": "bool"
        }
      ],
      "payable": false,
      "stateMutability": "view",
      "type": "function"
    },
    {
      "constant": true,
      "inputs": [],
      "name": "secondsTimeLocked",
      "outputs": [
        {
          "name": "",
          "type": "uint256"
        }
      ],
      "payable": false,
      "stateMutability": "view",
      "type": "function"
    },
    {
      "constant": true,
      "inputs": [
        {
          "name": "pending",
          "type": "bool"
        },
        {
          "name": "executed",
          "type": "bool"
        }
      ],
      "name": "getTransactionCount",
      "outputs": [
        {
          "name": "count",
          "type": "uint256"
        }
      ],
      "payable": false,
      "stateMutability": "view",
      "type": "function"
    },
    {
      "constant": false,
      "inputs": [
        {
          "name": "owner",
          "type": "address"
        }
      ],
      "name": "addOwner",
      "outputs": [],
      "payable": false,
      "stateMutability": "nonpayable",
      "type": "function"
    },
    {
      "constant": true,
      "inputs": [
        {
          "name": "transactionId",
          "type": "uint256"
        }
      ],
      "name": "isConfirmed",
      "outputs": [
        {
          "name": "",
          "type": "bool"
        }
      ],
      "payable": false,
      "stateMutability": "view",
      "type": "function"
    },
    {
      "constant": false,
      "inputs": [
        {
          "name": "_secondsTimeLocked",
          "type": "uint256"
        }
      ],
      "name": "changeTimeLock",
      "outputs": [],
      "payable": false,
      "stateMutability": "nonpayable",
      "type": "function"
    },
    {
      "constant": true,
      "inputs": [
        {
          "name": "transactionId",
          "type": "uint256"
        }
      ],
      "name": "getConfirmationCount",
      "outputs": [
        {
          "name": "count",
          "type": "uint256"
        }
      ],
      "payable": false,
      "stateMutability": "view",
      "type": "function"
    },
    {
      "constant": true,
      "inputs": [
        {
          "name": "",
          "type": "uint256"
        }
      ],
      "name": "transactions",
      "outputs": [
        {
          "name": "destination",
          "type": "address"
        },
        {
          "name": "value",
          "type": "uint256"
        },
        {
          "name": "data",
          "type": "bytes"
        },
        {
          "name": "executed",
          "type": "bool"
        }
      ],
      "payable": false,
      "stateMutability": "view",
      "type": "function"
    },
    {
      "constant": true,
      "inputs": [],
      "name": "getOwners",
      "outputs": [
        {
          "name": "",
          "type": "address[]"
        }
      ],
      "payable": false,
      "stateMutability": "view",
      "type": "function"
    },
    {
      "constant": true,
      "inputs": [
        {
          "name": "from",
          "type": "uint256"
        },
        {
          "name": "to",
          "type": "uint256"
        },
        {
          "name": "pending",
          "type": "bool"
        },
        {
          "name": "executed",
          "type": "bool"
        }
      ],
      "name": "getTransactionIds",
      "outputs": [
        {
          "name": "_transactionIds",
          "type": "uint256[]"
        }
      ],
      "payable": false,
      "stateMutability": "view",
      "type": "function"
    },
    {
      "constant": true,
      "inputs": [],
      "name": "TOKEN_TRANSFER_PROXY_CONTRACT",
      "outputs": [
        {
          "name": "",
          "type": "address"
        }
      ],
      "payable": false,
      "stateMutability": "view",
      "type": "function"
    },
    {
      "constant": true,
      "inputs": [
        {
          "name": "transactionId",
          "type": "uint256"
        }
      ],
      "name": "getConfirmations",
      "outputs": [
        {
          "name": "_confirmations",
          "type": "address[]"
        }
      ],
      "payable": false,
      "stateMutability": "view",
      "type": "function"
    },
    {
      "constant": true,
      "inputs": [],
      "name": "transactionCount",
      "outputs": [
        {
          "name": "",
          "type": "uint256"
        }
      ],
      "payable": false,
      "stateMutability": "view",
      "type": "function"
    },
    {
      "constant": false,
      "inputs": [
        {
          "name": "_required",
          "type": "uint256"
        }
      ],
      "name": "changeRequirement",
      "outputs": [],
      "payable": false,
      "stateMutability": "nonpayable",
      "type": "function"
    },
    {
      "constant": false,
      "inputs": [
        {
          "name": "transactionId",
          "type": "uint256"
        }
      ],
      "name": "confirmTransaction",
      "outputs": [],
      "payable": false,
      "stateMutability": "nonpayable",
      "type": "function"
    },
    {
      "constant": false,
      "inputs": [
        {
          "name": "destination",
          "type": "address"
        },
        {
          "name": "value",
          "type": "uint256"
        },
        {
          "name": "data",
          "type": "bytes"
        }
      ],
      "name": "submitTransaction",
      "outputs": [
        {
          "name": "transactionId",
          "type": "uint256"
        }
      ],
      "payable": false,
      "stateMutability": "nonpayable",
      "type": "function"
    },
    {
      "constant": true,
      "inputs": [
        {
          "name": "",
          "type": "uint256"
        }
      ],
      "name": "confirmationTimes",
      "outputs": [
        {
          "name": "",
          "type": "uint256"
        }
      ],
      "payable": false,
      "stateMutability": "view",
      "type": "function"
    },
    {
      "constant": true,
      "inputs": [],
      "name": "MAX_OWNER_COUNT",
      "outputs": [
        {
          "name": "",
          "type": "uint256"
        }
      ],
      "payable": false,
      "stateMutability": "view",
      "type": "function"
    },
    {
      "constant": true,
      "inputs": [],
      "name": "required",
      "outputs": [
        {
          "name": "",
          "type": "uint256"
        }
      ],
      "payable": false,
      "stateMutability": "view",
      "type": "function"
    },
    {
      "constant": false,
      "inputs": [
        {
          "name": "owner",
          "type": "address"
        },
        {
          "name": "newOwner",
          "type": "address"
        }
      ],
      "name": "replaceOwner",
      "outputs": [],
      "payable": false,
      "stateMutability": "nonpayable",
      "type": "function"
    },
    {
      "constant": false,
      "inputs": [
        {
          "name": "transactionId",
          "type": "uint256"
        }
      ],
      "name": "executeTransaction",
      "outputs": [],
      "payable": false,
      "stateMutability": "nonpayable",
      "type": "function"
    },
    {
      "inputs": [
        {
          "name": "_owners",
          "type": "address[]"
        },
        {
          "name": "_required",
          "type": "uint256"
        },
        {
          "name": "_secondsTimeLocked",
          "type": "uint256"
        },
        {
          "name": "_tokenTransferProxy",
          "type": "address"
        }
      ],
      "payable": false,
      "stateMutability": "nonpayable",
      "type": "constructor"
    },
    {
      "payable": true,
      "stateMutability": "payable",
      "type": "fallback"
    },
    {
      "anonymous": false,
      "inputs": [
        {
          "indexed": true,
          "name": "transactionId",
          "type": "uint256"
        },
        {
          "indexed": false,
          "name": "confirmationTime",
          "type": "uint256"
        }
      ],
      "name": "ConfirmationTimeSet",
      "type": "event"
    },
    {
      "anonymous": false,
      "inputs": [
        {
          "indexed": false,
          "name": "secondsTimeLocked",
          "type": "uint256"
        }
      ],
      "name": "TimeLockChange",
      "type": "event"
    },
    {
      "anonymous": false,
      "inputs": [
        {
          "indexed": true,
          "name": "sender",
          "type": "address"
        },
        {
          "indexed": true,
          "name": "transactionId",
          "type": "uint256"
        }
      ],
      "name": "Confirmation",
      "type": "event"
    },
    {
      "anonymous": false,
      "inputs": [
        {
          "indexed": true,
          "name": "sender",
          "type": "address"
        },
        {
          "indexed": true,
          "name": "transactionId",
          "type": "uint256"
        }
      ],
      "name": "Revocation",
      "type": "event"
    },
    {
      "anonymous": false,
      "inputs": [
        {
          "indexed": true,
          "name": "transactionId",
          "type": "uint256"
        }
      ],
      "name": "Submission",
      "type": "event"
    },
    {
      "anonymous": false,
      "inputs": [
        {
          "indexed": true,
          "name": "transactionId",
          "type": "uint256"
        }
      ],
      "name": "Execution",
      "type": "event"
    },
    {
      "anonymous": false,
      "inputs": [
        {
          "indexed": true,
          "name": "transactionId",
          "type": "uint256"
        }
      ],
      "name": "ExecutionFailure",
      "type": "event"
    },
    {
      "anonymous": false,
      "inputs": [
        {
          "indexed": true,
          "name": "sender",
          "type": "address"
        },
        {
          "indexed": false,
          "name": "value",
          "type": "uint256"
        }
      ],
      "name": "Deposit",
      "type": "event"
    },
    {
      "anonymous": false,
      "inputs": [
        {
          "indexed": true,
          "name": "owner",
          "type": "address"
        }
      ],
      "name": "OwnerAddition",
      "type": "event"
    },
    {
      "anonymous": false,
      "inputs": [
        {
          "indexed": true,
          "name": "owner",
          "type": "address"
        }
      ],
      "name": "OwnerRemoval",
      "type": "event"
    },
    {
      "anonymous": false,
      "inputs": [
        {
          "indexed": false,
          "name": "required",
          "type": "uint256"
        }
      ],
      "name": "RequirementChange",
      "type": "event"
    },
    {
      "constant": false,
      "inputs": [
        {
          "name": "transactionId",
          "type": "uint256"
        }
      ],
      "name": "executeRemoveAuthorizedAddress",
      "outputs": [],
      "payable": false,
      "stateMutability": "nonpayable",
      "type": "function"
    },
    {
      "constant": true,
      "inputs": [
        {
          "name": "data",
          "type": "bytes"
        }
      ],
      "name": "isFunctionRemoveAuthorizedAddress",
      "outputs": [
        {
          "name": "",
          "type": "bool"
        }
      ],
      "payable": false,
      "stateMutability": "view",
      "type": "function"
    }
  ],
  "bytecode": "0x60806040523480156200001157600080fd5b5060405162002d9b38038062002d9b833981018060405281019080805182019291906020018051906020019092919080519060200190929190805190602001909291905050508383838282600082518260328211158015620000735750818111155b801562000081575060008114155b80156200008f575060008214155b15156200009b57600080fd5b600092505b8451831015620001d657600260008685815181101515620000bd57fe5b9060200190602002015173ffffffffffffffffffffffffffffffffffffffff1673ffffffffffffffffffffffffffffffffffffffff16815260200190815260200160002060009054906101000a900460ff161580156200014c5750600085848151811015156200012957fe5b9060200190602002015173ffffffffffffffffffffffffffffffffffffffff1614155b15156200015857600080fd5b60016002600087868151811015156200016d57fe5b9060200190602002015173ffffffffffffffffffffffffffffffffffffffff1673ffffffffffffffffffffffffffffffffffffffff16815260200190815260200160002060006101000a81548160ff0219169083151502179055508280600101935050620000a0565b8460039080519060200190620001ee92919062000250565b508360048190555050505050508060068190555050505080600860006101000a81548173ffffffffffffffffffffffffffffffffffffffff021916908373ffffffffffffffffffffffffffffffffffffffff1602179055505050505062000325565b828054828255906000526020600020908101928215620002cc579160200282015b82811115620002cb5782518260006101000a81548173ffffffffffffffffffffffffffffffffffffffff021916908373ffffffffffffffffffffffffffffffffffffffff1602179055509160200191906001019062000271565b5b509050620002db9190620002df565b5090565b6200032291905b808211156200031e57600081816101000a81549073ffffffffffffffffffffffffffffffffffffffff021916905550600101620002e6565b5090565b90565b612a6680620003356000396000f30060806040526004361061015f576000357c0100000000000000000000000000000000000000000000000000000000900463ffffffff168063025e7c27146101b9578063173825d91461022657806320ea8d86146102695780632f54bf6e146102965780633411c81c146102f157806337bd78a0146103565780635474152514610381578063553a48fd146103d05780635711b311146104515780637065cb481461047e578063784547a7146104c15780637ad28c51146105065780638b51d13f146105335780639ace38c214610574578063a0e67e2b1461065f578063a8abe69a146106cb578063add1cbc51461076f578063b5dc40c3146107c6578063b77bf60014610848578063ba51a6df14610873578063c01a8c84146108a0578063c6427474146108cd578063d38f2d8214610974578063d74f8edd146109b5578063dc8452cd146109e0578063e20056e614610a0b578063ee22610b14610a6e575b60003411156101b7573373ffffffffffffffffffffffffffffffffffffffff167fe1fffcc4923d04b559f4d29a8bfc6cda04eb5b0d3c460751c2402c5c5cc9109c346040518082815260200191505060405180910390a25b005b3480156101c557600080fd5b506101e460048036038101908080359060200190929190505050610a9b565b604051808273ffffffffffffffffffffffffffffffffffffffff1673ffffffffffffffffffffffffffffffffffffffff16815260200191505060405180910390f35b34801561023257600080fd5b50610267600480360381019080803573ffffffffffffffffffffffffffffffffffffffff169060200190929190505050610ad9565b005b34801561027557600080fd5b5061029460048036038101908080359060200190929190505050610d72565b005b3480156102a257600080fd5b506102d7600480360381019080803573ffffffffffffffffffffffffffffffffffffffff169060200190929190505050610f1a565b604051808215151515815260200191505060405180910390f35b3480156102fd57600080fd5b5061033c60048036038101908080359060200190929190803573ffffffffffffffffffffffffffffffffffffffff169060200190929190505050610f3a565b604051808215151515815260200191505060405180910390f35b34801561036257600080fd5b5061036b610f69565b6040518082815260200191505060405180910390f35b34801561038d57600080fd5b506103ba600480360381019080803515159060200190929190803515159060200190929190505050610f6f565b6040518082815260200191505060405180910390f35b3480156103dc57600080fd5b50610437600480360381019080803590602001908201803590602001908080601f0160208091040260200160405190810160405280939291908181526020018383808284378201915050505050509192919290505050611001565b604051808215151515815260200191505060405180910390f35b34801561045d57600080fd5b5061047c6004803603810190808035906020019092919050505061113e565b005b34801561048a57600080fd5b506104bf600480360381019080803573ffffffffffffffffffffffffffffffffffffffff1690602001909291905050506114af565b005b3480156104cd57600080fd5b506104ec600480360381019080803590602001909291905050506116b4565b604051808215151515815260200191505060405180910390f35b34801561051257600080fd5b5061053160048036038101908080359060200190929190505050611799565b005b34801561053f57600080fd5b5061055e60048036038101908080359060200190929190505050611814565b6040518082815260200191505060405180910390f35b34801561058057600080fd5b5061059f600480360381019080803590602001909291905050506118df565b604051808573ffffffffffffffffffffffffffffffffffffffff1673ffffffffffffffffffffffffffffffffffffffff1681526020018481526020018060200183151515158152602001828103825284818151815260200191508051906020019080838360005b83811015610621578082015181840152602081019050610606565b50505050905090810190601f16801561064e5780820380516001836020036101000a031916815260200191505b509550505050505060405180910390f35b34801561066b57600080fd5b506106746119d4565b6040518080602001828103825283818151815260200191508051906020019060200280838360005b838110156106b757808201518184015260208101905061069c565b505050509050019250505060405180910390f35b3480156106d757600080fd5b506107186004803603810190808035906020019092919080359060200190929190803515159060200190929190803515159060200190929190505050611a62565b6040518080602001828103825283818151815260200191508051906020019060200280838360005b8381101561075b578082015181840152602081019050610740565b505050509050019250505060405180910390f35b34801561077b57600080fd5b50610784611bd3565b604051808273ffffffffffffffffffffffffffffffffffffffff1673ffffffffffffffffffffffffffffffffffffffff16815260200191505060405180910390f35b3480156107d257600080fd5b506107f160048036038101908080359060200190929190505050611bf9565b6040518080602001828103825283818151815260200191508051906020019060200280838360005b83811015610834578082015181840152602081019050610819565b505050509050019250505060405180910390f35b34801561085457600080fd5b5061085d611e36565b6040518082815260200191505060405180910390f35b34801561087f57600080fd5b5061089e60048036038101908080359060200190929190505050611e3c565b005b3480156108ac57600080fd5b506108cb60048036038101908080359060200190929190505050611ef6565b005b3480156108d957600080fd5b5061095e600480360381019080803573ffffffffffffffffffffffffffffffffffffffff16906020019092919080359060200190929190803590602001908201803590602001908080601f0160208091040260200160405190810160405280939291908181526020018383808284378201915050505050509192919290505050612163565b6040518082815260200191505060405180910390f35b34801561098057600080fd5b5061099f60048036038101908080359060200190929190505050612182565b6040518082815260200191505060405180910390f35b3480156109c157600080fd5b506109ca61219a565b6040518082815260200191505060405180910390f35b3480156109ec57600080fd5b506109f561219f565b6040518082815260200191505060405180910390f35b348015610a1757600080fd5b50610a6c600480360381019080803573ffffffffffffffffffffffffffffffffffffffff169060200190929190803573ffffffffffffffffffffffffffffffffffffffff1690602001909291905050506121a5565b005b348015610a7a57600080fd5b50610a99600480360381019080803590602001909291905050506124ba565b005b600381815481101515610aaa57fe5b906000526020600020016000915054906101000a900473ffffffffffffffffffffffffffffffffffffffff1681565b60003073ffffffffffffffffffffffffffffffffffffffff163373ffffffffffffffffffffffffffffffffffffffff16141515610b1557600080fd5b81600260008273ffffffffffffffffffffffffffffffffffffffff1673ffffffffffffffffffffffffffffffffffffffff16815260200190815260200160002060009054906101000a900460ff161515610b6e57600080fd5b6000600260008573ffffffffffffffffffffffffffffffffffffffff1673ffffffffffffffffffffffffffffffffffffffff16815260200190815260200160002060006101000a81548160ff021916908315150217905550600091505b600160038054905003821015610cf3578273ffffffffffffffffffffffffffffffffffffffff16600383815481101515610c0157fe5b9060005260206000200160009054906101000a900473ffffffffffffffffffffffffffffffffffffffff1673ffffffffffffffffffffffffffffffffffffffff161415610ce6576003600160038054905003815481101515610c5f57fe5b9060005260206000200160009054906101000a900473ffffffffffffffffffffffffffffffffffffffff16600383815481101515610c9957fe5b9060005260206000200160006101000a81548173ffffffffffffffffffffffffffffffffffffffff021916908373ffffffffffffffffffffffffffffffffffffffff160217905550610cf3565b8180600101925050610bcb565b6001600381818054905003915081610d0b9190612969565b506003805490506004541115610d2a57610d29600380549050611e3c565b5b8273ffffffffffffffffffffffffffffffffffffffff167f8001553a916ef2f495d26a907cc54d96ed840d7bda71e73194bf5a9df7a76b9060405160405180910390a2505050565b33600260008273ffffffffffffffffffffffffffffffffffffffff1673ffffffffffffffffffffffffffffffffffffffff16815260200190815260200160002060009054906101000a900460ff161515610dcb57600080fd5b81336001600083815260200190815260200160002060008273ffffffffffffffffffffffffffffffffffffffff1673ffffffffffffffffffffffffffffffffffffffff16815260200190815260200160002060009054906101000a900460ff161515610e3657600080fd5b8360008082815260200190815260200160002060030160009054906101000a900460ff16151515610e6657600080fd5b60006001600087815260200190815260200160002060003373ffffffffffffffffffffffffffffffffffffffff1673ffffffffffffffffffffffffffffffffffffffff16815260200190815260200160002060006101000a81548160ff021916908315150217905550843373ffffffffffffffffffffffffffffffffffffffff167ff6a317157440607f36269043eb55f1287a5a19ba2216afeab88cd46cbcfb88e960405160405180910390a35050505050565b60026020528060005260406000206000915054906101000a900460ff1681565b60016020528160005260406000206020528060005260406000206000915091509054906101000a900460ff1681565b60065481565b600080600090505b600554811015610ffa57838015610fae575060008082815260200190815260200160002060030160009054906101000a900460ff16155b80610fe15750828015610fe0575060008082815260200190815260200160002060030160009054906101000a900460ff165b5b15610fed576001820191505b8080600101915050610f77565b5092915050565b600080600060405180807f72656d6f7665417574686f72697a656441646472657373286164647265737329815250602001905060405180910390209150600090505b600481101561113357818160048110151561105a57fe5b1a7f0100000000000000000000000000000000000000000000000000000000000000027effffffffffffffffffffffffffffffffffffffffffffffffffffffffffffff191684828151811015156110ad57fe5b9060200101517f010000000000000000000000000000000000000000000000000000000000000090047f0100000000000000000000000000000000000000000000000000000000000000027effffffffffffffffffffffffffffffffffffffffffffffffffffffffffffff191614151561112657600080fd5b8080600101915050611043565b600192505050919050565b60008160008082815260200190815260200160002060030160009054906101000a900460ff1615151561117057600080fd5b8261117a816116b4565b15156111ee576040517f08c379a00000000000000000000000000000000000000000000000000000000081526004018080602001828103825260168152602001807f54585f4e4f545f46554c4c595f434f4e4649524d45440000000000000000000081525060200191505060405180910390fd5b8360008060008381526020019081526020016000209050600860009054906101000a900473ffffffffffffffffffffffffffffffffffffffff1673ffffffffffffffffffffffffffffffffffffffff168160000160009054906101000a900473ffffffffffffffffffffffffffffffffffffffff1673ffffffffffffffffffffffffffffffffffffffff1614151561128557600080fd5b61132a816002018054600181600116156101000203166002900480601f0160208091040260200160405190810160405280929190818152602001828054600181600116156101000203166002900480156113205780601f106112f557610100808354040283529160200191611320565b820191906000526020600020905b81548152906001019060200180831161130357829003601f168201915b5050505050611001565b151561133557600080fd5b600080878152602001908152602001600020945060018560030160006101000a81548160ff0219169083151502179055508460000160009054906101000a900473ffffffffffffffffffffffffffffffffffffffff1673ffffffffffffffffffffffffffffffffffffffff16856001015486600201604051808280546001816001161561010002031660029004801561140f5780601f106113e45761010080835404028352916020019161140f565b820191906000526020600020905b8154815290600101906020018083116113f257829003601f168201915b505091505060006040518083038185875af1925050501561145c57857f33e13ecb54c3076d8e8bb8c2881800a4d972b792045ffae98fdf46df365fed7560405160405180910390a26114a7565b857f526441bb6c1aba3c9a4a6ca1d6545da9c2333c8c48343ef398eb858d72b7923660405160405180910390a260008560030160006101000a81548160ff0219169083151502179055505b505050505050565b3073ffffffffffffffffffffffffffffffffffffffff163373ffffffffffffffffffffffffffffffffffffffff161415156114e957600080fd5b80600260008273ffffffffffffffffffffffffffffffffffffffff1673ffffffffffffffffffffffffffffffffffffffff16815260200190815260200160002060009054906101000a900460ff1615151561154357600080fd5b8160008173ffffffffffffffffffffffffffffffffffffffff161415151561156a57600080fd5b600160038054905001600454603282111580156115875750818111155b8015611594575060008114155b80156115a1575060008214155b15156115ac57600080fd5b6001600260008773ffffffffffffffffffffffffffffffffffffffff1673ffffffffffffffffffffffffffffffffffffffff16815260200190815260200160002060006101000a81548160ff02191690831515021790555060038590806001815401808255809150509060018203906000526020600020016000909192909190916101000a81548173ffffffffffffffffffffffffffffffffffffffff021916908373ffffffffffffffffffffffffffffffffffffffff160217905550508473ffffffffffffffffffffffffffffffffffffffff167ff39e6e1eb0edcf53c221607b54b00cd28f3196fed0a24994dc308b8f611b682d60405160405180910390a25050505050565b6000806000809150600090505b600380549050811015611791576001600085815260200190815260200160002060006003838154811015156116f257fe5b9060005260206000200160009054906101000a900473ffffffffffffffffffffffffffffffffffffffff1673ffffffffffffffffffffffffffffffffffffffff1673ffffffffffffffffffffffffffffffffffffffff16815260200190815260200160002060009054906101000a900460ff1615611771576001820191505b6004548214156117845760019250611792565b80806001019150506116c1565b5b5050919050565b3073ffffffffffffffffffffffffffffffffffffffff163373ffffffffffffffffffffffffffffffffffffffff161415156117d357600080fd5b806006819055507fd1c9101a34feff75cccef14a28785a0279cb0b49c1f321f21f5f422e746b4377816040518082815260200191505060405180910390a150565b600080600090505b6003805490508110156118d95760016000848152602001908152602001600020600060038381548110151561184d57fe5b9060005260206000200160009054906101000a900473ffffffffffffffffffffffffffffffffffffffff1673ffffffffffffffffffffffffffffffffffffffff1673ffffffffffffffffffffffffffffffffffffffff16815260200190815260200160002060009054906101000a900460ff16156118cc576001820191505b808060010191505061181c565b50919050565b60006020528060005260406000206000915090508060000160009054906101000a900473ffffffffffffffffffffffffffffffffffffffff1690806001015490806002018054600181600116156101000203166002900480601f0160208091040260200160405190810160405280929190818152602001828054600181600116156101000203166002900480156119b75780601f1061198c576101008083540402835291602001916119b7565b820191906000526020600020905b81548152906001019060200180831161199a57829003601f168201915b5050505050908060030160009054906101000a900460ff16905084565b60606003805480602002602001604051908101604052809291908181526020018280548015611a5857602002820191906000526020600020905b8160009054906101000a900473ffffffffffffffffffffffffffffffffffffffff1673ffffffffffffffffffffffffffffffffffffffff1681526020019060010190808311611a0e575b5050505050905090565b606080600080600554604051908082528060200260200182016040528015611a995781602001602082028038833980820191505090505b50925060009150600090505b600554811015611b4557858015611adc575060008082815260200190815260200160002060030160009054906101000a900460ff16155b80611b0f5750848015611b0e575060008082815260200190815260200160002060030160009054906101000a900460ff165b5b15611b3857808383815181101515611b2357fe5b90602001906020020181815250506001820191505b8080600101915050611aa5565b878703604051908082528060200260200182016040528015611b765781602001602082028038833980820191505090505b5093508790505b86811015611bc8578281815181101515611b9357fe5b9060200190602002015184898303815181101515611bad57fe5b90602001906020020181815250508080600101915050611b7d565b505050949350505050565b600860009054906101000a900473ffffffffffffffffffffffffffffffffffffffff1681565b606080600080600380549050604051908082528060200260200182016040528015611c335781602001602082028038833980820191505090505b50925060009150600090505b600380549050811015611d8057600160008681526020019081526020016000206000600383815481101515611c7057fe5b9060005260206000200160009054906101000a900473ffffffffffffffffffffffffffffffffffffffff1673ffffffffffffffffffffffffffffffffffffffff1673ffffffffffffffffffffffffffffffffffffffff16815260200190815260200160002060009054906101000a900460ff1615611d7357600381815481101515611cf757fe5b9060005260206000200160009054906101000a900473ffffffffffffffffffffffffffffffffffffffff168383815181101515611d3057fe5b9060200190602002019073ffffffffffffffffffffffffffffffffffffffff16908173ffffffffffffffffffffffffffffffffffffffff16815250506001820191505b8080600101915050611c3f565b81604051908082528060200260200182016040528015611daf5781602001602082028038833980820191505090505b509350600090505b81811015611e2e578281815181101515611dcd57fe5b906020019060200201518482815181101515611de557fe5b9060200190602002019073ffffffffffffffffffffffffffffffffffffffff16908173ffffffffffffffffffffffffffffffffffffffff16815250508080600101915050611db7565b505050919050565b60055481565b3073ffffffffffffffffffffffffffffffffffffffff163373ffffffffffffffffffffffffffffffffffffffff16141515611e7657600080fd5b6003805490508160328211158015611e8e5750818111155b8015611e9b575060008114155b8015611ea8575060008214155b1515611eb357600080fd5b826004819055507fa3f1ee9126a074d9326c682f561767f710e927faa811f7a99829d49dc421797a836040518082815260200191505060405180910390a1505050565b33600260008273ffffffffffffffffffffffffffffffffffffffff1673ffffffffffffffffffffffffffffffffffffffff16815260200190815260200160002060009054906101000a900460ff161515611f4f57600080fd5b81600080600083815260200190815260200160002060000160009054906101000a900473ffffffffffffffffffffffffffffffffffffffff1673ffffffffffffffffffffffffffffffffffffffff1614151515611fab57600080fd5b82336001600083815260200190815260200160002060008273ffffffffffffffffffffffffffffffffffffffff1673ffffffffffffffffffffffffffffffffffffffff16815260200190815260200160002060009054906101000a900460ff1615151561201757600080fd5b84612021816116b4565b151515612096576040517f08c379a00000000000000000000000000000000000000000000000000000000081526004018080602001828103825260128152602001807f54585f46554c4c595f434f4e4649524d4544000000000000000000000000000081525060200191505060405180910390fd5b600180600088815260200190815260200160002060003373ffffffffffffffffffffffffffffffffffffffff1673ffffffffffffffffffffffffffffffffffffffff16815260200190815260200160002060006101000a81548160ff021916908315150217905550853373ffffffffffffffffffffffffffffffffffffffff167f4a504a94899432a9846e1aa406dceb1bcfd538bb839071d49d1e5e23f5be30ef60405160405180910390a361214b866116b4565b1561215b5761215a864261279c565b5b505050505050565b60006121708484846127f0565b905061217b81611ef6565b9392505050565b60076020528060005260406000206000915090505481565b603281565b60045481565b60003073ffffffffffffffffffffffffffffffffffffffff163373ffffffffffffffffffffffffffffffffffffffff161415156121e157600080fd5b82600260008273ffffffffffffffffffffffffffffffffffffffff1673ffffffffffffffffffffffffffffffffffffffff16815260200190815260200160002060009054906101000a900460ff16151561223a57600080fd5b82600260008273ffffffffffffffffffffffffffffffffffffffff1673ffffffffffffffffffffffffffffffffffffffff16815260200190815260200160002060009054906101000a900460ff1615151561229457600080fd5b600092505b60038054905083101561237d578473ffffffffffffffffffffffffffffffffffffffff166003848154811015156122cc57fe5b9060005260206000200160009054906101000a900473ffffffffffffffffffffffffffffffffffffffff1673ffffffffffffffffffffffffffffffffffffffff161415612370578360038481548110151561232357fe5b9060005260206000200160006101000a81548173ffffffffffffffffffffffffffffffffffffffff021916908373ffffffffffffffffffffffffffffffffffffffff16021790555061237d565b8280600101935050612299565b6000600260008773ffffffffffffffffffffffffffffffffffffffff1673ffffffffffffffffffffffffffffffffffffffff16815260200190815260200160002060006101000a81548160ff0219169083151502179055506001600260008673ffffffffffffffffffffffffffffffffffffffff1673ffffffffffffffffffffffffffffffffffffffff16815260200190815260200160002060006101000a81548160ff0219169083151502179055508473ffffffffffffffffffffffffffffffffffffffff167f8001553a916ef2f495d26a907cc54d96ed840d7bda71e73194bf5a9df7a76b9060405160405180910390a28373ffffffffffffffffffffffffffffffffffffffff167ff39e6e1eb0edcf53c221607b54b00cd28f3196fed0a24994dc308b8f611b682d60405160405180910390a25050505050565b60008160008082815260200190815260200160002060030160009054906101000a900460ff161515156124ec57600080fd5b826124f6816116b4565b151561256a576040517f08c379a00000000000000000000000000000000000000000000000000000000081526004018080602001828103825260168152602001807f54585f4e4f545f46554c4c595f434f4e4649524d45440000000000000000000081525060200191505060405180910390fd5b8360065460076000838152602001908152602001600020540142101515156125fa576040517f08c379a00000000000000000000000000000000000000000000000000000000081526004018080602001828103825260148152602001807f54494d455f4c4f434b5f494e434f4d504c45544500000000000000000000000081525060200191505060405180910390fd5b600080868152602001908152602001600020935060018460030160006101000a81548160ff0219169083151502179055506127138460000160009054906101000a900473ffffffffffffffffffffffffffffffffffffffff16856001015486600201805460018160011615610100020316600290049050876002018054600181600116156101000203166002900480601f0160208091040260200160405190810160405280929190818152602001828054600181600116156101000203166002900480156127095780601f106126de57610100808354040283529160200191612709565b820191906000526020600020905b8154815290600101906020018083116126ec57829003601f168201915b5050505050612942565b1561274a57847f33e13ecb54c3076d8e8bb8c2881800a4d972b792045ffae98fdf46df365fed7560405160405180910390a2612795565b847f526441bb6c1aba3c9a4a6ca1d6545da9c2333c8c48343ef398eb858d72b7923660405160405180910390a260008460030160006101000a81548160ff0219169083151502179055505b5050505050565b806007600084815260200190815260200160002081905550817f0b237afe65f1514fd7ea3f923ea4fe792bdd07000a912b6cd1602a8e7f573c8d826040518082815260200191505060405180910390a25050565b60008360008173ffffffffffffffffffffffffffffffffffffffff161415151561281957600080fd5b60055491506080604051908101604052808673ffffffffffffffffffffffffffffffffffffffff1681526020018581526020018481526020016000151581525060008084815260200190815260200160002060008201518160000160006101000a81548173ffffffffffffffffffffffffffffffffffffffff021916908373ffffffffffffffffffffffffffffffffffffffff1602179055506020820151816001015560408201518160020190805190602001906128d8929190612995565b5060608201518160030160006101000a81548160ff0219169083151502179055509050506001600560008282540192505081905550817fc0ba8fe4b176c1714197d43b9cc6bcf797a4a7461c5fe8d0ef6e184ae7601e5160405160405180910390a2509392505050565b6000806040516020840160008287838a8c6187965a03f19250505080915050949350505050565b8154818355818111156129905781836000526020600020918201910161298f9190612a15565b5b505050565b828054600181600116156101000203166002900490600052602060002090601f016020900481019282601f106129d657805160ff1916838001178555612a04565b82800160010185558215612a04579182015b82811115612a035782518255916020019190600101906129e8565b5b509050612a119190612a15565b5090565b612a3791905b80821115612a33576000816000905550600101612a1b565b5090565b905600a165627a7a7230582037b7a137815750fb423b7f3ba025f3cad072467b85591456d24e8b7da320df070029",
  "source": "/*\n\n  Copyright 2018 ZeroEx Intl.\n\n  Licensed under the Apache License, Version 2.0 (the \"License\");\n  you may not use this file except in compliance with the License.\n  You may obtain a copy of the License at\n\n    http://www.apache.org/licenses/LICENSE-2.0\n\n  Unless required by applicable law or agreed to in writing, software\n  distributed under the License is distributed on an \"AS IS\" BASIS,\n  WITHOUT WARRANTIES OR CONDITIONS OF ANY KIND, either express or implied.\n  See the License for the specific language governing permissions and\n  limitations under the License.\n\n*/\n\npragma solidity ^0.4.10;\n\nimport \"../../2.0.0/multisig/MultiSigWalletWithTimeLock.sol\";\n\ncontract MultiSigWalletWithTimeLockExceptRemoveAuthorizedAddress is MultiSigWalletWithTimeLock {\n\n    address public TOKEN_TRANSFER_PROXY_CONTRACT;\n\n    modifier validRemoveAuthorizedAddressTx(uint transactionId) {\n        Transaction storage tx = transactions[transactionId];\n        require(tx.destination == TOKEN_TRANSFER_PROXY_CONTRACT);\n        require(isFunctionRemoveAuthorizedAddress(tx.data));\n        _;\n    }\n\n    /// @dev Contract constructor sets initial owners, required number of confirmations, time lock, and tokenTransferProxy address.\n    /// @param _owners List of initial owners.\n    /// @param _required Number of required confirmations.\n    /// @param _secondsTimeLocked Duration needed after a transaction is confirmed and before it becomes executable, in seconds.\n    /// @param _tokenTransferProxy Address of TokenTransferProxy contract.\n    function MultiSigWalletWithTimeLockExceptRemoveAuthorizedAddress(\n        address[] _owners,\n        uint _required,\n        uint _secondsTimeLocked,\n        address _tokenTransferProxy)\n        public\n        MultiSigWalletWithTimeLock(_owners, _required, _secondsTimeLocked)\n    {\n        TOKEN_TRANSFER_PROXY_CONTRACT = _tokenTransferProxy;\n    }\n\n    /// @dev Allows execution of removeAuthorizedAddress without time lock.\n    /// @param transactionId Transaction ID.\n    function executeRemoveAuthorizedAddress(uint transactionId)\n        public\n        notExecuted(transactionId)\n        fullyConfirmed(transactionId)\n        validRemoveAuthorizedAddressTx(transactionId)\n    {\n        Transaction storage tx = transactions[transactionId];\n        tx.executed = true;\n        if (tx.destination.call.value(tx.value)(tx.data))\n            Execution(transactionId);\n        else {\n            ExecutionFailure(transactionId);\n            tx.executed = false;\n        }\n    }\n\n    /// @dev Compares first 4 bytes of byte array to removeAuthorizedAddress function signature.\n    /// @param data Transaction data.\n    /// @return Successful if data is a call to removeAuthorizedAddress.\n    function isFunctionRemoveAuthorizedAddress(bytes data)\n        public\n        constant\n        returns (bool)\n    {\n        bytes4 removeAuthorizedAddressSignature = bytes4(sha3(\"removeAuthorizedAddress(address)\"));\n        for (uint i = 0; i < 4; i++) {\n            require(data[i] == removeAuthorizedAddressSignature[i]);\n        }\n        return true;\n    }\n}\n",
  "sourcePath": "/Users/facu/Documents/Laburo/Spiking/Ethereum/0x/0x-monorepo/packages/contracts/contracts/1.0.0/MultiSigWalletWithTImeLockExceptRemoveAuthorizedAddress/MultiSigWalletWithTimeLockExceptRemoveAuthorizedAddress.sol",
  "compiler": {
    "name": "solc",
    "version": "0.4.24+commit.e67f0147.Emscripten.clang"
  },
  "schemaVersion": "2.0.1",
  "updatedAt": "2018-10-16T20:38:35.282Z"
}