{
  "contractName": "ReentrantERC20Token",
  "abi": [
    {
      "constant": false,
      "inputs": [
        {
          "name": "_spender",
          "type": "address"
        },
        {
          "name": "_value",
          "type": "uint256"
        }
      ],
      "name": "approve",
      "outputs": [
        {
          "name": "",
          "type": "bool"
        }
      ],
      "payable": false,
      "stateMutability": "nonpayable",
      "type": "function"
    },
    {
      "constant": true,
      "inputs": [],
      "name": "totalSupply",
      "outputs": [
        {
          "name": "",
          "type": "uint256"
        }
      ],
      "payable": false,
      "stateMutability": "view",
      "type": "function"
    },
    {
      "constant": true,
      "inputs": [
        {
          "name": "_owner",
          "type": "address"
        }
      ],
      "name": "balanceOf",
      "outputs": [
        {
          "name": "",
          "type": "uint256"
        }
      ],
      "payable": false,
      "stateMutability": "view",
      "type": "function"
    },
    {
      "constant": false,
      "inputs": [
        {
          "name": "_to",
          "type": "address"
        },
        {
          "name": "_value",
          "type": "uint256"
        }
      ],
      "name": "transfer",
      "outputs": [
        {
          "name": "",
          "type": "bool"
        }
      ],
      "payable": false,
      "stateMutability": "nonpayable",
      "type": "function"
    },
    {
      "constant": true,
      "inputs": [
        {
          "name": "_owner",
          "type": "address"
        },
        {
          "name": "_spender",
          "type": "address"
        }
      ],
      "name": "allowance",
      "outputs": [
        {
          "name": "",
          "type": "uint256"
        }
      ],
      "payable": false,
      "stateMutability": "view",
      "type": "function"
    },
    {
      "inputs": [
        {
          "name": "_exchange",
          "type": "address"
        }
      ],
      "payable": false,
      "stateMutability": "nonpayable",
      "type": "constructor"
    },
    {
      "anonymous": false,
      "inputs": [
        {
          "indexed": true,
          "name": "_from",
          "type": "address"
        },
        {
          "indexed": true,
          "name": "_to",
          "type": "address"
        },
        {
          "indexed": false,
          "name": "_value",
          "type": "uint256"
        }
      ],
      "name": "Transfer",
      "type": "event"
    },
    {
      "anonymous": false,
      "inputs": [
        {
          "indexed": true,
          "name": "_owner",
          "type": "address"
        },
        {
          "indexed": true,
          "name": "_spender",
          "type": "address"
        },
        {
          "indexed": false,
          "name": "_value",
          "type": "uint256"
        }
      ],
      "name": "Approval",
      "type": "event"
    },
    {
      "constant": false,
      "inputs": [
        {
          "name": "_currentFunctionId",
          "type": "uint8"
        }
      ],
      "name": "setCurrentFunction",
      "outputs": [],
      "payable": false,
      "stateMutability": "nonpayable",
      "type": "function"
    },
    {
      "constant": false,
      "inputs": [
        {
          "name": "_from",
          "type": "address"
        },
        {
          "name": "_to",
          "type": "address"
        },
        {
          "name": "_value",
          "type": "uint256"
        }
      ],
      "name": "transferFrom",
      "outputs": [
        {
          "name": "",
          "type": "bool"
        }
      ],
      "payable": false,
      "stateMutability": "nonpayable",
      "type": "function"
    }
  ],
  "bytecode": "0x60806040526000600360146101000a81548160ff021916908360ff1602179055503480156200002d57600080fd5b5060405160208062001f9a83398101806040526200004f9190810190620000ad565b80600360006101000a81548173ffffffffffffffffffffffffffffffffffffffff021916908373ffffffffffffffffffffffffffffffffffffffff16021790555050620000f9565b6000620000a58251620000d9565b905092915050565b600060208284031215620000c057600080fd5b6000620000d08482850162000097565b91505092915050565b600073ffffffffffffffffffffffffffffffffffffffff82169050919050565b611e9180620001096000396000f300608060405260043610610083576000357c0100000000000000000000000000000000000000000000000000000000900463ffffffff168063095ea7b31461008857806318160ddd146100c557806323b872dd146100f057806370a082311461012d578063a9059cbb1461016a578063b348a4d4146101a7578063dd62ed3e146101d0575b600080fd5b34801561009457600080fd5b506100af60048036036100aa91908101906115ae565b61020d565b6040516100bc9190611b89565b60405180910390f35b3480156100d157600080fd5b506100da6102ff565b6040516100e79190611ce7565b60405180910390f35b3480156100fc57600080fd5b506101176004803603610112919081019061155f565b610309565b6040516101249190611b89565b60405180910390f35b34801561013957600080fd5b50610154600480360361014f91908101906114fa565b610fe2565b6040516101619190611ce7565b60405180910390f35b34801561017657600080fd5b50610191600480360361018c91908101906115ae565b61102a565b60405161019e9190611b89565b60405180910390f35b3480156101b357600080fd5b506101ce60048036036101c991908101906115ea565b611279565b005b3480156101dc57600080fd5b506101f760048036036101f29190810190611523565b611297565b6040516102049190611ce7565b60405180910390f35b600081600160003373ffffffffffffffffffffffffffffffffffffffff1673ffffffffffffffffffffffffffffffffffffffff16815260200190815260200160002060008573ffffffffffffffffffffffffffffffffffffffff1673ffffffffffffffffffffffffffffffffffffffff168152602001908152602001600020819055508273ffffffffffffffffffffffffffffffffffffffff163373ffffffffffffffffffffffffffffffffffffffff167f8c5be1e5ebec7d5bd14f71427d1e84f3dd0314c0f7b2291e5b200ac8c7c3b925846040516102ed9190611ce7565b60405180910390a36001905092915050565b6000600254905090565b6000610313611404565b6060806060806060806000600a81111561032957fe5b60ff16600360149054906101000a900460ff1660ff16141561041e57600360009054906101000a900473ffffffffffffffffffffffffffffffffffffffff1673ffffffffffffffffffffffffffffffffffffffff1663b4be83d590507c010000000000000000000000000000000000000000000000000000000002876000886040516024016103ba93929190611c41565b604051602081830303815290604052907bffffffffffffffffffffffffffffffffffffffffffffffffffffffff19166020820180517bffffffffffffffffffffffffffffffffffffffffffffffffffffffff83818316178352505050509150610e26565b6001600a81111561042b57fe5b60ff16600360149054906101000a900460ff1660ff16141561052057600360009054906101000a900473ffffffffffffffffffffffffffffffffffffffff1673ffffffffffffffffffffffffffffffffffffffff166364a3bc1590507c010000000000000000000000000000000000000000000000000000000002876000886040516024016104bc93929190611c41565b604051602081830303815290604052907bffffffffffffffffffffffffffffffffffffffffffffffffffffffff19166020820180517bffffffffffffffffffffffffffffffffffffffffffffffffffffffff83818316178352505050509150610e25565b6002600a81111561052d57fe5b60ff16600360149054906101000a900460ff1660ff16141561062157600360009054906101000a900473ffffffffffffffffffffffffffffffffffffffff1673ffffffffffffffffffffffffffffffffffffffff1663297bb70b90507c0100000000000000000000000000000000000000000000000000000000028585856040516024016105bd93929190611af8565b604051602081830303815290604052907bffffffffffffffffffffffffffffffffffffffffffffffffffffffff19166020820180517bffffffffffffffffffffffffffffffffffffffffffffffffffffffff83818316178352505050509150610e24565b6003600a81111561062e57fe5b60ff16600360149054906101000a900460ff1660ff16141561072257600360009054906101000a900473ffffffffffffffffffffffffffffffffffffffff1673ffffffffffffffffffffffffffffffffffffffff16634d0ae54690507c0100000000000000000000000000000000000000000000000000000000028585856040516024016106be93929190611af8565b604051602081830303815290604052907bffffffffffffffffffffffffffffffffffffffffffffffffffffffff19166020820180517bffffffffffffffffffffffffffffffffffffffffffffffffffffffff83818316178352505050509150610e23565b6004600a81111561072f57fe5b60ff16600360149054906101000a900460ff1660ff16141561082457600360009054906101000a900473ffffffffffffffffffffffffffffffffffffffff1673ffffffffffffffffffffffffffffffffffffffff1663e5fa431b90507c010000000000000000000000000000000000000000000000000000000002856000856040516024016107c093929190611b44565b604051602081830303815290604052907bffffffffffffffffffffffffffffffffffffffffffffffffffffffff19166020820180517bffffffffffffffffffffffffffffffffffffffffffffffffffffffff83818316178352505050509150610e22565b6005600a81111561083157fe5b60ff16600360149054906101000a900460ff1660ff16141561092657600360009054906101000a900473ffffffffffffffffffffffffffffffffffffffff1673ffffffffffffffffffffffffffffffffffffffff16637e1d980890507c010000000000000000000000000000000000000000000000000000000002856000856040516024016108c293929190611b44565b604051602081830303815290604052907bffffffffffffffffffffffffffffffffffffffffffffffffffffffff19166020820180517bffffffffffffffffffffffffffffffffffffffffffffffffffffffff83818316178352505050509150610e21565b6006600a81111561093357fe5b60ff16600360149054906101000a900460ff1660ff161415610a2957600360009054906101000a900473ffffffffffffffffffffffffffffffffffffffff1673ffffffffffffffffffffffffffffffffffffffff16633c28d86190507c010000000000000000000000000000000000000000000000000000000002878888896040516024016109c59493929190611c86565b604051602081830303815290604052907bffffffffffffffffffffffffffffffffffffffffffffffffffffffff19166020820180517bffffffffffffffffffffffffffffffffffffffffffffffffffffffff83818316178352505050509150610e20565b6007600a811115610a3657fe5b60ff16600360149054906101000a900460ff1660ff161415610b2657600360009054906101000a900473ffffffffffffffffffffffffffffffffffffffff1673ffffffffffffffffffffffffffffffffffffffff1663d46b02c390507c01000000000000000000000000000000000000000000000000000000000287604051602401610ac29190611c1f565b604051602081830303815290604052907bffffffffffffffffffffffffffffffffffffffffffffffffffffffff19166020820180517bffffffffffffffffffffffffffffffffffffffffffffffffffffffff83818316178352505050509150610e1f565b6008600a811115610b3357fe5b60ff16600360149054906101000a900460ff1660ff161415610c2357600360009054906101000a900473ffffffffffffffffffffffffffffffffffffffff1673ffffffffffffffffffffffffffffffffffffffff16634ac1478290507c01000000000000000000000000000000000000000000000000000000000285604051602401610bbf9190611ad6565b604051602081830303815290604052907bffffffffffffffffffffffffffffffffffffffffffffffffffffffff19166020820180517bffffffffffffffffffffffffffffffffffffffffffffffffffffffff83818316178352505050509150610e1e565b6009600a811115610c3057fe5b60ff16600360149054906101000a900460ff1660ff161415610d2157600360009054906101000a900473ffffffffffffffffffffffffffffffffffffffff1673ffffffffffffffffffffffffffffffffffffffff16634f9559b190507c0100000000000000000000000000000000000000000000000000000000026000604051602401610cbd9190611ba4565b604051602081830303815290604052907bffffffffffffffffffffffffffffffffffffffffffffffffffffffff19166020820180517bffffffffffffffffffffffffffffffffffffffffffffffffffffffff83818316178352505050509150610e1d565b600a80811115610d2d57fe5b60ff16600360149054906101000a900460ff1660ff161415610e1c57600360009054906101000a900473ffffffffffffffffffffffffffffffffffffffff1673ffffffffffffffffffffffffffffffffffffffff166377fcce6890507c010000000000000000000000000000000000000000000000000000000002600080604051602401610dbc929190611aad565b604051602081830303815290604052907bffffffffffffffffffffffffffffffffffffffffffffffffffffffff19166020820180517bffffffffffffffffffffffffffffffffffffffffffffffffffffffff838183161783525050505091505b5b5b5b5b5b5b5b5b5b5b600360009054906101000a900473ffffffffffffffffffffffffffffffffffffffff1673ffffffffffffffffffffffffffffffffffffffff168260405180828051906020019080838360005b83811015610e8d578082015181840152602081019050610e72565b50505050905090810190601f168015610eba5780820380516001836020036101000a031916815260200191505b509150506000604051808303816000865af19150505060646040519080825280601f01601f191660200182016040528015610f045781602001602082028038833980820191505090505b50905060646000602083013e610fc48160405180807f4572726f7228737472696e672900000000000000000000000000000000000000815250600d0190506040518091039020604051602401610f5990611bff565b604051602081830303815290604052907bffffffffffffffffffffffffffffffffffffffffffffffffffffffff19166020820180517bffffffffffffffffffffffffffffffffffffffffffffffffffffffff838183161783525050505061131e90919063ffffffff16565b151515610fd057600080fd5b60019750505050505050509392505050565b60008060008373ffffffffffffffffffffffffffffffffffffffff1673ffffffffffffffffffffffffffffffffffffffff168152602001908152602001600020549050919050565b6000816000803373ffffffffffffffffffffffffffffffffffffffff1673ffffffffffffffffffffffffffffffffffffffff16815260200190815260200160002054101515156110af576040517f08c379a00000000000000000000000000000000000000000000000000000000081526004016110a690611bbf565b60405180910390fd5b6000808473ffffffffffffffffffffffffffffffffffffffff1673ffffffffffffffffffffffffffffffffffffffff16815260200190815260200160002054826000808673ffffffffffffffffffffffffffffffffffffffff1673ffffffffffffffffffffffffffffffffffffffff168152602001908152602001600020540110151515611172576040517f08c379a000000000000000000000000000000000000000000000000000000000815260040161116990611bdf565b60405180910390fd5b816000803373ffffffffffffffffffffffffffffffffffffffff1673ffffffffffffffffffffffffffffffffffffffff16815260200190815260200160002060008282540392505081905550816000808573ffffffffffffffffffffffffffffffffffffffff1673ffffffffffffffffffffffffffffffffffffffff168152602001908152602001600020600082825401925050819055508273ffffffffffffffffffffffffffffffffffffffff163373ffffffffffffffffffffffffffffffffffffffff167fddf252ad1be2c89b69c2b068fc378daa952ba7f163c4a11628f55a4df523b3ef846040516112679190611ce7565b60405180910390a36001905092915050565b80600360146101000a81548160ff021916908360ff16021790555050565b6000600160008473ffffffffffffffffffffffffffffffffffffffff1673ffffffffffffffffffffffffffffffffffffffff16815260200190815260200160002060008373ffffffffffffffffffffffffffffffffffffffff1673ffffffffffffffffffffffffffffffffffffffff16815260200190815260200160002054905092915050565b6000815183511480156113fc5750816040518082805190602001908083835b602083101515611362578051825260208201915060208101905060208303925061133d565b6001836020036101000a038019825116818451168082178552505050505050905001915050604051809103902060001916836040518082805190602001908083835b6020831015156113c957805182526020820191506020810190506020830392506113a4565b6001836020036101000a038019825116818451168082178552505050505050905001915050604051809103902060001916145b905092915050565b61018060405190810160405280600073ffffffffffffffffffffffffffffffffffffffff168152602001600073ffffffffffffffffffffffffffffffffffffffff168152602001600073ffffffffffffffffffffffffffffffffffffffff168152602001600073ffffffffffffffffffffffffffffffffffffffff16815260200160008152602001600081526020016000815260200160008152602001600081526020016000815260200160608152602001606081525090565b60006114ca8235611dca565b905092915050565b60006114de8235611dea565b905092915050565b60006114f28235611df4565b905092915050565b60006020828403121561150c57600080fd5b600061151a848285016114be565b91505092915050565b6000806040838503121561153657600080fd5b6000611544858286016114be565b9250506020611555858286016114be565b9150509250929050565b60008060006060848603121561157457600080fd5b6000611582868287016114be565b9350506020611593868287016114be565b92505060406115a4868287016114d2565b9150509250925092565b600080604083850312156115c157600080fd5b60006115cf858286016114be565b92505060206115e0858286016114d2565b9150509250929050565b6000602082840312156115fc57600080fd5b600061160a848285016114e6565b91505092915050565b61161c81611d87565b82525050565b600061162d82611d29565b8084526020840193508360208202850161164685611d02565b60005b8481101561167f57838303885261166183835161179e565b925061166c82611d60565b9150602088019750600181019050611649565b508196508694505050505092915050565b600061169b82611d34565b808452602084019350836020820285016116b485611d0f565b60005b848110156116ed5783830388526116cf838351611993565b92506116da82611d6d565b91506020880197506001810190506116b7565b508196508694505050505092915050565b600061170982611d3f565b80845260208401935061171b83611d1c565b60005b8281101561174d57611731868351611a9e565b61173a82611d7a565b915060208601955060018101905061171e565b50849250505092915050565b61176281611da7565b82525050565b600061177382611d55565b808452611787816020860160208601611e13565b61179081611e46565b602085010191505092915050565b60006117a982611d4a565b8084526117bd816020860160208601611e13565b6117c681611e46565b602085010191505092915050565b6117dd81611e01565b82525050565b6000601a82527f45524332305f494e53554646494349454e545f42414c414e43450000000000006020830152604082019050919050565b6000601082527f55494e543235365f4f564552464c4f57000000000000000000000000000000006020830152604082019050919050565b6000601282527f5245454e5452414e43595f494c4c4547414c00000000000000000000000000006020830152604082019050919050565b6000610180830160008301516118a16000860182611613565b5060208301516118b46020860182611613565b5060408301516118c76040860182611613565b5060608301516118da6060860182611613565b5060808301516118ed6080860182611a9e565b5060a083015161190060a0860182611a9e565b5060c083015161191360c0860182611a9e565b5060e083015161192660e0860182611a9e565b5061010083015161193b610100860182611a9e565b50610120830151611950610120860182611a9e565b5061014083015184820361014086015261196a828261179e565b915050610160830151848203610160860152611986828261179e565b9150508091505092915050565b6000610180830160008301516119ac6000860182611613565b5060208301516119bf6020860182611613565b5060408301516119d26040860182611613565b5060608301516119e56060860182611613565b5060808301516119f86080860182611a9e565b5060a0830151611a0b60a0860182611a9e565b5060c0830151611a1e60c0860182611a9e565b5060e0830151611a3160e0860182611a9e565b50610100830151611a46610100860182611a9e565b50610120830151611a5b610120860182611a9e565b50610140830151848203610140860152611a75828261179e565b915050610160830151848203610160860152611a91828261179e565b9150508091505092915050565b611aa781611db3565b82525050565b6000604082019050611ac26000830185611613565b611acf6020830184611759565b9392505050565b60006020820190508181036000830152611af08184611690565b905092915050565b60006060820190508181036000830152611b128186611690565b90508181036020830152611b2681856116fe565b90508181036040830152611b3a8184611622565b9050949350505050565b60006060820190508181036000830152611b5e8186611690565b9050611b6d60208301856117d4565b8181036040830152611b7f8184611622565b9050949350505050565b6000602082019050611b9e6000830184611759565b92915050565b6000602082019050611bb960008301846117d4565b92915050565b60006020820190508181036000830152611bd8816117e3565b9050919050565b60006020820190508181036000830152611bf88161181a565b9050919050565b60006020820190508181036000830152611c1881611851565b9050919050565b60006020820190508181036000830152611c398184611888565b905092915050565b60006060820190508181036000830152611c5b8186611888565b9050611c6a60208301856117d4565b8181036040830152611c7c8184611768565b9050949350505050565b60006080820190508181036000830152611ca08187611888565b90508181036020830152611cb48186611888565b90508181036040830152611cc88185611768565b90508181036060830152611cdc8184611768565b905095945050505050565b6000602082019050611cfc6000830184611a9e565b92915050565b6000602082019050919050565b6000602082019050919050565b6000602082019050919050565b600081519050919050565b600081519050919050565b600081519050919050565b600081519050919050565b600081519050919050565b6000602082019050919050565b6000602082019050919050565b6000602082019050919050565b600073ffffffffffffffffffffffffffffffffffffffff82169050919050565b60008115159050919050565b6000819050919050565b600060ff82169050919050565b600073ffffffffffffffffffffffffffffffffffffffff82169050919050565b6000819050919050565b600060ff82169050919050565b6000611e0c82611dbd565b9050919050565b60005b83811015611e31578082015181840152602081019050611e16565b83811115611e40576000848401525b50505050565b6000601f19601f83011690509190505600a265627a7a7230582027bf8a834e34dc650454dc9058220c08399811b25c797a1cf8ba951fad68e9a86c6578706572696d656e74616cf50037",
  "source": "/*\n\n  Copyright 2018 ZeroEx Intl.\n\n  Licensed under the Apache License, Version 2.0 (the \"License\");\n  you may not use this file except in compliance with the License.\n  You may obtain a copy of the License at\n\n    http://www.apache.org/licenses/LICENSE-2.0\n\n  Unless required by applicable law or agreed to in writing, software\n  distributed under the License is distributed on an \"AS IS\" BASIS,\n  WITHOUT WARRANTIES OR CONDITIONS OF ANY KIND, either express or implied.\n  See the License for the specific language governing permissions and\n  limitations under the License.\n\n*/\n\npragma solidity 0.4.24;\npragma experimental ABIEncoderV2;\n\nimport \"../../utils/LibBytes/LibBytes.sol\";\nimport \"../../tokens/ERC20Token/ERC20Token.sol\";\nimport \"../../protocol/Exchange/interfaces/IExchange.sol\";\nimport \"../../protocol/Exchange/libs/LibOrder.sol\";\n\n\n// solhint-disable no-unused-vars\ncontract ReentrantERC20Token is\n    ERC20Token\n{\n    using LibBytes for bytes;\n\n    // solhint-disable-next-line var-name-mixedcase\n    IExchange internal EXCHANGE;\n\n    bytes internal constant REENTRANCY_ILLEGAL_REVERT_REASON = abi.encodeWithSelector(\n        bytes4(keccak256(\"Error(string)\")),\n        \"REENTRANCY_ILLEGAL\"\n    );\n\n    // All of these functions are potentially vulnerable to reentrancy\n    // We do not test any \"noThrow\" functions because `fillOrderNoThrow` makes a delegatecall to `fillOrder`\n    enum ExchangeFunction {\n        FILL_ORDER,\n        FILL_OR_KILL_ORDER,\n        BATCH_FILL_ORDERS,\n        BATCH_FILL_OR_KILL_ORDERS,\n        MARKET_BUY_ORDERS,\n        MARKET_SELL_ORDERS,\n        MATCH_ORDERS,\n        CANCEL_ORDER,\n        BATCH_CANCEL_ORDERS,\n        CANCEL_ORDERS_UP_TO,\n        SET_SIGNATURE_VALIDATOR_APPROVAL\n    }\n\n    uint8 internal currentFunctionId = 0;\n\n    constructor (address _exchange)\n        public\n    {\n        EXCHANGE = IExchange(_exchange);\n    }\n\n    /// @dev Set the current function that will be called when `transferFrom` is called.\n    /// @param _currentFunctionId Id that corresponds to function name.\n    function setCurrentFunction(uint8 _currentFunctionId)\n        external\n    {\n        currentFunctionId = _currentFunctionId;\n    }\n\n    /// @dev A version of `transferFrom` that attempts to reenter the Exchange contract.\n    /// @param _from The address of the sender\n    /// @param _to The address of the recipient\n    /// @param _value The amount of token to be transferred\n    function transferFrom(\n        address _from,\n        address _to,\n        uint256 _value\n    )\n        external\n        returns (bool)\n    {\n        // This order would normally be invalid, but it will be used strictly for testing reentrnacy.\n        // Any reentrancy checks will happen before any other checks that invalidate the order.\n        LibOrder.Order memory order;\n\n        // Initialize remaining null parameters\n        bytes memory signature;\n        LibOrder.Order[] memory orders;\n        uint256[] memory takerAssetFillAmounts;\n        bytes[] memory signatures;\n        bytes memory calldata;\n\n        // Create calldata for function that corresponds to currentFunctionId\n        if (currentFunctionId == uint8(ExchangeFunction.FILL_ORDER)) {\n            calldata = abi.encodeWithSelector(\n                EXCHANGE.fillOrder.selector,\n                order,\n                0,\n                signature\n            );\n        } else if (currentFunctionId == uint8(ExchangeFunction.FILL_OR_KILL_ORDER)) {\n            calldata = abi.encodeWithSelector(\n                EXCHANGE.fillOrKillOrder.selector,\n                order,\n                0,\n                signature\n            );\n        } else if (currentFunctionId == uint8(ExchangeFunction.BATCH_FILL_ORDERS)) {\n            calldata = abi.encodeWithSelector(\n                EXCHANGE.batchFillOrders.selector,\n                orders,\n                takerAssetFillAmounts,\n                signatures\n            );\n        } else if (currentFunctionId == uint8(ExchangeFunction.BATCH_FILL_OR_KILL_ORDERS)) {\n            calldata = abi.encodeWithSelector(\n                EXCHANGE.batchFillOrKillOrders.selector,\n                orders,\n                takerAssetFillAmounts,\n                signatures\n            );\n        } else if (currentFunctionId == uint8(ExchangeFunction.MARKET_BUY_ORDERS)) {\n            calldata = abi.encodeWithSelector(\n                EXCHANGE.marketBuyOrders.selector,\n                orders,\n                0,\n                signatures\n            );\n        } else if (currentFunctionId == uint8(ExchangeFunction.MARKET_SELL_ORDERS)) {\n            calldata = abi.encodeWithSelector(\n                EXCHANGE.marketSellOrders.selector,\n                orders,\n                0,\n                signatures\n            );\n        } else if (currentFunctionId == uint8(ExchangeFunction.MATCH_ORDERS)) {\n            calldata = abi.encodeWithSelector(\n                EXCHANGE.matchOrders.selector,\n                order,\n                order,\n                signature,\n                signature\n            );\n        } else if (currentFunctionId == uint8(ExchangeFunction.CANCEL_ORDER)) {\n            calldata = abi.encodeWithSelector(\n                EXCHANGE.cancelOrder.selector,\n                order\n            );\n        } else if (currentFunctionId == uint8(ExchangeFunction.BATCH_CANCEL_ORDERS)) {\n            calldata = abi.encodeWithSelector(\n                EXCHANGE.batchCancelOrders.selector,\n                orders\n            );\n        } else if (currentFunctionId == uint8(ExchangeFunction.CANCEL_ORDERS_UP_TO)) {\n            calldata = abi.encodeWithSelector(\n                EXCHANGE.cancelOrdersUpTo.selector,\n                0\n            );\n        } else if (currentFunctionId == uint8(ExchangeFunction.SET_SIGNATURE_VALIDATOR_APPROVAL)) {\n            calldata = abi.encodeWithSelector(\n                EXCHANGE.setSignatureValidatorApproval.selector,\n                address(0),\n                false\n            );\n        }\n\n        // Call Exchange function, swallow error\n        address(EXCHANGE).call(calldata);\n\n        // Revert reason is 100 bytes\n        bytes memory returnData = new bytes(100);\n\n        // Copy return data\n        assembly {\n            returndatacopy(add(returnData, 32), 0, 100)\n        }\n\n        // Revert if function reverted with REENTRANCY_ILLEGAL error\n        require(!REENTRANCY_ILLEGAL_REVERT_REASON.equals(returnData));\n\n        // Transfer will return true if function failed for any other reason\n        return true;\n    }\n}",
  "sourcePath": "/Users/facu/Documents/Laburo/Spiking/Ethereum/0x/0x-monorepo/packages/contracts/contracts/2.0.0/test/ReentrantERC20Token/ReentrantERC20Token.sol",
  "compiler": {
    "name": "solc",
    "version": "0.4.24+commit.e67f0147.Emscripten.clang"
  },
  "schemaVersion": "2.0.1",
  "updatedAt": "2018-10-16T20:38:35.380Z"
}