{
  "contractName": "TestAssetProxyOwner",
  "abi": [
    {
      "constant": true,
      "inputs": [
        {
          "name": "",
          "type": "uint256"
        }
      ],
      "name": "owners",
      "outputs": [
        {
          "name": "",
          "type": "address"
        }
      ],
      "payable": false,
      "stateMutability": "view",
      "type": "function"
    },
    {
      "constant": false,
      "inputs": [
        {
          "name": "owner",
          "type": "address"
        }
      ],
      "name": "removeOwner",
      "outputs": [],
      "payable": false,
      "stateMutability": "nonpayable",
      "type": "function"
    },
    {
      "constant": false,
      "inputs": [
        {
          "name": "transactionId",
          "type": "uint256"
        }
      ],
      "name": "revokeConfirmation",
      "outputs": [],
      "payable": false,
      "stateMutability": "nonpayable",
      "type": "function"
    },
    {
      "constant": true,
      "inputs": [
        {
          "name": "",
          "type": "address"
        }
      ],
      "name": "isOwner",
      "outputs": [
        {
          "name": "",
          "type": "bool"
        }
      ],
      "payable": false,
      "stateMutability": "view",
      "type": "function"
    },
    {
      "constant": true,
      "inputs": [
        {
          "name": "",
          "type": "uint256"
        },
        {
          "name": "",
          "type": "address"
        }
      ],
      "name": "confirmations",
      "outputs": [
        {
          "name": "",
          "type": "bool"
        }
      ],
      "payable": false,
      "stateMutability": "view",
      "type": "function"
    },
    {
      "constant": false,
      "inputs": [
        {
          "name": "transactionId",
          "type": "uint256"
        }
      ],
      "name": "executeRemoveAuthorizedAddressAtIndex",
      "outputs": [],
      "payable": false,
      "stateMutability": "nonpayable",
      "type": "function"
    },
    {
      "constant": true,
      "inputs": [],
      "name": "secondsTimeLocked",
      "outputs": [
        {
          "name": "",
          "type": "uint256"
        }
      ],
      "payable": false,
      "stateMutability": "view",
      "type": "function"
    },
    {
      "constant": true,
      "inputs": [
        {
          "name": "pending",
          "type": "bool"
        },
        {
          "name": "executed",
          "type": "bool"
        }
      ],
      "name": "getTransactionCount",
      "outputs": [
        {
          "name": "count",
          "type": "uint256"
        }
      ],
      "payable": false,
      "stateMutability": "view",
      "type": "function"
    },
    {
      "constant": false,
      "inputs": [
        {
          "name": "assetProxyContract",
          "type": "address"
        },
        {
          "name": "isRegistered",
          "type": "bool"
        }
      ],
      "name": "registerAssetProxy",
      "outputs": [],
      "payable": false,
      "stateMutability": "nonpayable",
      "type": "function"
    },
    {
      "constant": false,
      "inputs": [
        {
          "name": "owner",
          "type": "address"
        }
      ],
      "name": "addOwner",
      "outputs": [],
      "payable": false,
      "stateMutability": "nonpayable",
      "type": "function"
    },
    {
      "constant": true,
      "inputs": [
        {
          "name": "transactionId",
          "type": "uint256"
        }
      ],
      "name": "isConfirmed",
      "outputs": [
        {
          "name": "",
          "type": "bool"
        }
      ],
      "payable": false,
      "stateMutability": "view",
      "type": "function"
    },
    {
      "constant": false,
      "inputs": [
        {
          "name": "_secondsTimeLocked",
          "type": "uint256"
        }
      ],
      "name": "changeTimeLock",
      "outputs": [],
      "payable": false,
      "stateMutability": "nonpayable",
      "type": "function"
    },
    {
      "constant": true,
      "inputs": [
        {
          "name": "",
          "type": "address"
        }
      ],
      "name": "isAssetProxyRegistered",
      "outputs": [
        {
          "name": "",
          "type": "bool"
        }
      ],
      "payable": false,
      "stateMutability": "view",
      "type": "function"
    },
    {
      "constant": true,
      "inputs": [
        {
          "name": "transactionId",
          "type": "uint256"
        }
      ],
      "name": "getConfirmationCount",
      "outputs": [
        {
          "name": "count",
          "type": "uint256"
        }
      ],
      "payable": false,
      "stateMutability": "view",
      "type": "function"
    },
    {
      "constant": true,
      "inputs": [
        {
          "name": "",
          "type": "uint256"
        }
      ],
      "name": "transactions",
      "outputs": [
        {
          "name": "destination",
          "type": "address"
        },
        {
          "name": "value",
          "type": "uint256"
        },
        {
          "name": "data",
          "type": "bytes"
        },
        {
          "name": "executed",
          "type": "bool"
        }
      ],
      "payable": false,
      "stateMutability": "view",
      "type": "function"
    },
    {
      "constant": true,
      "inputs": [],
      "name": "getOwners",
      "outputs": [
        {
          "name": "",
          "type": "address[]"
        }
      ],
      "payable": false,
      "stateMutability": "view",
      "type": "function"
    },
    {
      "constant": true,
      "inputs": [
        {
          "name": "from",
          "type": "uint256"
        },
        {
          "name": "to",
          "type": "uint256"
        },
        {
          "name": "pending",
          "type": "bool"
        },
        {
          "name": "executed",
          "type": "bool"
        }
      ],
      "name": "getTransactionIds",
      "outputs": [
        {
          "name": "_transactionIds",
          "type": "uint256[]"
        }
      ],
      "payable": false,
      "stateMutability": "view",
      "type": "function"
    },
    {
      "constant": true,
      "inputs": [
        {
          "name": "transactionId",
          "type": "uint256"
        }
      ],
      "name": "getConfirmations",
      "outputs": [
        {
          "name": "_confirmations",
          "type": "address[]"
        }
      ],
      "payable": false,
      "stateMutability": "view",
      "type": "function"
    },
    {
      "constant": true,
      "inputs": [],
      "name": "transactionCount",
      "outputs": [
        {
          "name": "",
          "type": "uint256"
        }
      ],
      "payable": false,
      "stateMutability": "view",
      "type": "function"
    },
    {
      "constant": false,
      "inputs": [
        {
          "name": "_required",
          "type": "uint256"
        }
      ],
      "name": "changeRequirement",
      "outputs": [],
      "payable": false,
      "stateMutability": "nonpayable",
      "type": "function"
    },
    {
      "constant": false,
      "inputs": [
        {
          "name": "transactionId",
          "type": "uint256"
        }
      ],
      "name": "confirmTransaction",
      "outputs": [],
      "payable": false,
      "stateMutability": "nonpayable",
      "type": "function"
    },
    {
      "constant": false,
      "inputs": [
        {
          "name": "destination",
          "type": "address"
        },
        {
          "name": "value",
          "type": "uint256"
        },
        {
          "name": "data",
          "type": "bytes"
        }
      ],
      "name": "submitTransaction",
      "outputs": [
        {
          "name": "transactionId",
          "type": "uint256"
        }
      ],
      "payable": false,
      "stateMutability": "nonpayable",
      "type": "function"
    },
    {
      "constant": true,
      "inputs": [
        {
          "name": "",
          "type": "uint256"
        }
      ],
      "name": "confirmationTimes",
      "outputs": [
        {
          "name": "",
          "type": "uint256"
        }
      ],
      "payable": false,
      "stateMutability": "view",
      "type": "function"
    },
    {
      "constant": true,
      "inputs": [],
      "name": "MAX_OWNER_COUNT",
      "outputs": [
        {
          "name": "",
          "type": "uint256"
        }
      ],
      "payable": false,
      "stateMutability": "view",
      "type": "function"
    },
    {
      "constant": true,
      "inputs": [],
      "name": "required",
      "outputs": [
        {
          "name": "",
          "type": "uint256"
        }
      ],
      "payable": false,
      "stateMutability": "view",
      "type": "function"
    },
    {
      "constant": false,
      "inputs": [
        {
          "name": "owner",
          "type": "address"
        },
        {
          "name": "newOwner",
          "type": "address"
        }
      ],
      "name": "replaceOwner",
      "outputs": [],
      "payable": false,
      "stateMutability": "nonpayable",
      "type": "function"
    },
    {
      "constant": false,
      "inputs": [
        {
          "name": "transactionId",
          "type": "uint256"
        }
      ],
      "name": "executeTransaction",
      "outputs": [],
      "payable": false,
      "stateMutability": "nonpayable",
      "type": "function"
    },
    {
      "inputs": [
        {
          "name": "_owners",
          "type": "address[]"
        },
        {
          "name": "_assetProxyContracts",
          "type": "address[]"
        },
        {
          "name": "_required",
          "type": "uint256"
        },
        {
          "name": "_secondsTimeLocked",
          "type": "uint256"
        }
      ],
      "payable": false,
      "stateMutability": "nonpayable",
      "type": "constructor"
    },
    {
      "payable": true,
      "stateMutability": "payable",
      "type": "fallback"
    },
    {
      "anonymous": false,
      "inputs": [
        {
          "indexed": false,
          "name": "assetProxyContract",
          "type": "address"
        },
        {
          "indexed": false,
          "name": "isRegistered",
          "type": "bool"
        }
      ],
      "name": "AssetProxyRegistration",
      "type": "event"
    },
    {
      "anonymous": false,
      "inputs": [
        {
          "indexed": true,
          "name": "transactionId",
          "type": "uint256"
        },
        {
          "indexed": false,
          "name": "confirmationTime",
          "type": "uint256"
        }
      ],
      "name": "ConfirmationTimeSet",
      "type": "event"
    },
    {
      "anonymous": false,
      "inputs": [
        {
          "indexed": false,
          "name": "secondsTimeLocked",
          "type": "uint256"
        }
      ],
      "name": "TimeLockChange",
      "type": "event"
    },
    {
      "anonymous": false,
      "inputs": [
        {
          "indexed": true,
          "name": "sender",
          "type": "address"
        },
        {
          "indexed": true,
          "name": "transactionId",
          "type": "uint256"
        }
      ],
      "name": "Confirmation",
      "type": "event"
    },
    {
      "anonymous": false,
      "inputs": [
        {
          "indexed": true,
          "name": "sender",
          "type": "address"
        },
        {
          "indexed": true,
          "name": "transactionId",
          "type": "uint256"
        }
      ],
      "name": "Revocation",
      "type": "event"
    },
    {
      "anonymous": false,
      "inputs": [
        {
          "indexed": true,
          "name": "transactionId",
          "type": "uint256"
        }
      ],
      "name": "Submission",
      "type": "event"
    },
    {
      "anonymous": false,
      "inputs": [
        {
          "indexed": true,
          "name": "transactionId",
          "type": "uint256"
        }
      ],
      "name": "Execution",
      "type": "event"
    },
    {
      "anonymous": false,
      "inputs": [
        {
          "indexed": true,
          "name": "transactionId",
          "type": "uint256"
        }
      ],
      "name": "ExecutionFailure",
      "type": "event"
    },
    {
      "anonymous": false,
      "inputs": [
        {
          "indexed": true,
          "name": "sender",
          "type": "address"
        },
        {
          "indexed": false,
          "name": "value",
          "type": "uint256"
        }
      ],
      "name": "Deposit",
      "type": "event"
    },
    {
      "anonymous": false,
      "inputs": [
        {
          "indexed": true,
          "name": "owner",
          "type": "address"
        }
      ],
      "name": "OwnerAddition",
      "type": "event"
    },
    {
      "anonymous": false,
      "inputs": [
        {
          "indexed": true,
          "name": "owner",
          "type": "address"
        }
      ],
      "name": "OwnerRemoval",
      "type": "event"
    },
    {
      "anonymous": false,
      "inputs": [
        {
          "indexed": false,
          "name": "required",
          "type": "uint256"
        }
      ],
      "name": "RequirementChange",
      "type": "event"
    },
    {
      "constant": true,
      "inputs": [
        {
          "name": "id",
          "type": "uint256"
        }
      ],
      "name": "testValidRemoveAuthorizedAddressAtIndexTx",
      "outputs": [
        {
          "name": "",
          "type": "bool"
        }
      ],
      "payable": false,
      "stateMutability": "view",
      "type": "function"
    },
    {
      "constant": true,
      "inputs": [
        {
          "name": "data",
          "type": "bytes"
        }
      ],
      "name": "isFunctionRemoveAuthorizedAddressAtIndex",
      "outputs": [
        {
          "name": "",
          "type": "bool"
        }
      ],
      "payable": false,
      "stateMutability": "pure",
      "type": "function"
    }
  ],
  "bytecode": "0x60806040523480156200001157600080fd5b506040516200352f3803806200352f833981018060405281019080805182019291906020018051820192919060200180519060200190929190805190602001909291905050508383838360008085848482826000825182603282111580156200007a5750818111155b801562000088575060008114155b801562000096575060008214155b1515620000a257600080fd5b600092505b8451831015620001dd57600260008685815181101515620000c457fe5b9060200190602002015173ffffffffffffffffffffffffffffffffffffffff1673ffffffffffffffffffffffffffffffffffffffff16815260200190815260200160002060009054906101000a900460ff16158015620001535750600085848151811015156200013057fe5b9060200190602002015173ffffffffffffffffffffffffffffffffffffffff1614155b15156200015f57600080fd5b60016002600087868151811015156200017457fe5b9060200190602002015173ffffffffffffffffffffffffffffffffffffffff1673ffffffffffffffffffffffffffffffffffffffff16815260200190815260200160002060006101000a81548160ff0219169083151502179055508280600101935050620000a7565b8460039080519060200190620001f592919062000352565b5083600481905550505050505080600681905550505050600091505b8451821015620003425784828151811015156200022a57fe5b906020019060200201519050600073ffffffffffffffffffffffffffffffffffffffff168173ffffffffffffffffffffffffffffffffffffffff1614151515620002dc576040517f08c379a00000000000000000000000000000000000000000000000000000000081526004018080602001828103825260138152602001807f494e56414c49445f41535345545f50524f58590000000000000000000000000081525060200191505060405180910390fd5b6001600860008373ffffffffffffffffffffffffffffffffffffffff1673ffffffffffffffffffffffffffffffffffffffff16815260200190815260200160002060006101000a81548160ff021916908315150217905550818060010192505062000211565b5050505050505050505062000427565b828054828255906000526020600020908101928215620003ce579160200282015b82811115620003cd5782518260006101000a81548173ffffffffffffffffffffffffffffffffffffffff021916908373ffffffffffffffffffffffffffffffffffffffff1602179055509160200191906001019062000373565b5b509050620003dd9190620003e1565b5090565b6200042491905b808211156200042057600081816101000a81549073ffffffffffffffffffffffffffffffffffffffff021916905550600101620003e8565b5090565b90565b6130f880620004376000396000f300608060405260043610610175576000357c0100000000000000000000000000000000000000000000000000000000900463ffffffff168063025e7c27146101cf578063173825d91461023c57806320ea8d861461027f5780632f54bf6e146102ac5780633411c81c146103075780633589b35c1461036c57806337bd78a01461039957806354741525146103c45780635a1a66af146104135780637065cb481461046257806372cbe61d146104a5578063784547a7146105265780637ad28c511461056b57806383250f79146105985780638b51d13f146105f35780639ace38c214610634578063a0e67e2b1461071f578063a8abe69a1461078b578063b5dc40c31461082f578063b77bf600146108b1578063ba51a6df146108dc578063c01a8c8414610909578063c296e43c14610936578063c64274741461097b578063d38f2d8214610a22578063d74f8edd14610a63578063dc8452cd14610a8e578063e20056e614610ab9578063ee22610b14610b1c575b60003411156101cd573373ffffffffffffffffffffffffffffffffffffffff167fe1fffcc4923d04b559f4d29a8bfc6cda04eb5b0d3c460751c2402c5c5cc9109c346040518082815260200191505060405180910390a25b005b3480156101db57600080fd5b506101fa60048036038101908080359060200190929190505050610b49565b604051808273ffffffffffffffffffffffffffffffffffffffff1673ffffffffffffffffffffffffffffffffffffffff16815260200191505060405180910390f35b34801561024857600080fd5b5061027d600480360381019080803573ffffffffffffffffffffffffffffffffffffffff169060200190929190505050610b87565b005b34801561028b57600080fd5b506102aa60048036038101908080359060200190929190505050610e20565b005b3480156102b857600080fd5b506102ed600480360381019080803573ffffffffffffffffffffffffffffffffffffffff169060200190929190505050610fc8565b604051808215151515815260200191505060405180910390f35b34801561031357600080fd5b5061035260048036038101908080359060200190929190803573ffffffffffffffffffffffffffffffffffffffff169060200190929190505050610fe8565b604051808215151515815260200191505060405180910390f35b34801561037857600080fd5b5061039760048036038101908080359060200190929190505050611017565b005b3480156103a557600080fd5b506103ae611525565b6040518082815260200191505060405180910390f35b3480156103d057600080fd5b506103fd60048036038101908080351515906020019092919080351515906020019092919050505061152b565b6040518082815260200191505060405180910390f35b34801561041f57600080fd5b50610460600480360381019080803573ffffffffffffffffffffffffffffffffffffffff1690602001909291908035151590602001909291905050506115bd565b005b34801561046e57600080fd5b506104a3600480360381019080803573ffffffffffffffffffffffffffffffffffffffff1690602001909291905050506116e9565b005b3480156104b157600080fd5b5061050c600480360381019080803590602001908201803590602001908080601f01602080910402602001604051908101604052809392919081815260200183838082843782019150505050505091929192905050506118ee565b604051808215151515815260200191505060405180910390f35b34801561053257600080fd5b50610551600480360381019080803590602001909291905050506119a6565b604051808215151515815260200191505060405180910390f35b34801561057757600080fd5b5061059660048036038101908080359060200190929190505050611a8b565b005b3480156105a457600080fd5b506105d9600480360381019080803573ffffffffffffffffffffffffffffffffffffffff169060200190929190505050611b06565b604051808215151515815260200191505060405180910390f35b3480156105ff57600080fd5b5061061e60048036038101908080359060200190929190505050611b26565b6040518082815260200191505060405180910390f35b34801561064057600080fd5b5061065f60048036038101908080359060200190929190505050611bf1565b604051808573ffffffffffffffffffffffffffffffffffffffff1673ffffffffffffffffffffffffffffffffffffffff1681526020018481526020018060200183151515158152602001828103825284818151815260200191508051906020019080838360005b838110156106e15780820151818401526020810190506106c6565b50505050905090810190601f16801561070e5780820380516001836020036101000a031916815260200191505b509550505050505060405180910390f35b34801561072b57600080fd5b50610734611ce6565b6040518080602001828103825283818151815260200191508051906020019060200280838360005b8381101561077757808201518184015260208101905061075c565b505050509050019250505060405180910390f35b34801561079757600080fd5b506107d86004803603810190808035906020019092919080359060200190929190803515159060200190929190803515159060200190929190505050611d74565b6040518080602001828103825283818151815260200191508051906020019060200280838360005b8381101561081b578082015181840152602081019050610800565b505050509050019250505060405180910390f35b34801561083b57600080fd5b5061085a60048036038101908080359060200190929190505050611ee5565b6040518080602001828103825283818151815260200191508051906020019060200280838360005b8381101561089d578082015181840152602081019050610882565b505050509050019250505060405180910390f35b3480156108bd57600080fd5b506108c6612122565b6040518082815260200191505060405180910390f35b3480156108e857600080fd5b5061090760048036038101908080359060200190929190505050612128565b005b34801561091557600080fd5b50610934600480360381019080803590602001909291905050506121e2565b005b34801561094257600080fd5b506109616004803603810190808035906020019092919050505061244f565b604051808215151515815260200191505060405180910390f35b34801561098757600080fd5b50610a0c600480360381019080803573ffffffffffffffffffffffffffffffffffffffff16906020019092919080359060200190929190803590602001908201803590602001908080601f0160208091040260200160405190810160405280939291908181526020018383808284378201915050505050509192919290505050612717565b6040518082815260200191505060405180910390f35b348015610a2e57600080fd5b50610a4d60048036038101908080359060200190929190505050612736565b6040518082815260200191505060405180910390f35b348015610a6f57600080fd5b50610a7861274e565b6040518082815260200191505060405180910390f35b348015610a9a57600080fd5b50610aa3612753565b6040518082815260200191505060405180910390f35b348015610ac557600080fd5b50610b1a600480360381019080803573ffffffffffffffffffffffffffffffffffffffff169060200190929190803573ffffffffffffffffffffffffffffffffffffffff169060200190929190505050612759565b005b348015610b2857600080fd5b50610b4760048036038101908080359060200190929190505050612a6e565b005b600381815481101515610b5857fe5b906000526020600020016000915054906101000a900473ffffffffffffffffffffffffffffffffffffffff1681565b60003073ffffffffffffffffffffffffffffffffffffffff163373ffffffffffffffffffffffffffffffffffffffff16141515610bc357600080fd5b81600260008273ffffffffffffffffffffffffffffffffffffffff1673ffffffffffffffffffffffffffffffffffffffff16815260200190815260200160002060009054906101000a900460ff161515610c1c57600080fd5b6000600260008573ffffffffffffffffffffffffffffffffffffffff1673ffffffffffffffffffffffffffffffffffffffff16815260200190815260200160002060006101000a81548160ff021916908315150217905550600091505b600160038054905003821015610da1578273ffffffffffffffffffffffffffffffffffffffff16600383815481101515610caf57fe5b9060005260206000200160009054906101000a900473ffffffffffffffffffffffffffffffffffffffff1673ffffffffffffffffffffffffffffffffffffffff161415610d94576003600160038054905003815481101515610d0d57fe5b9060005260206000200160009054906101000a900473ffffffffffffffffffffffffffffffffffffffff16600383815481101515610d4757fe5b9060005260206000200160006101000a81548173ffffffffffffffffffffffffffffffffffffffff021916908373ffffffffffffffffffffffffffffffffffffffff160217905550610da1565b8180600101925050610c79565b6001600381818054905003915081610db99190612ffb565b506003805490506004541115610dd857610dd7600380549050612128565b5b8273ffffffffffffffffffffffffffffffffffffffff167f8001553a916ef2f495d26a907cc54d96ed840d7bda71e73194bf5a9df7a76b9060405160405180910390a2505050565b33600260008273ffffffffffffffffffffffffffffffffffffffff1673ffffffffffffffffffffffffffffffffffffffff16815260200190815260200160002060009054906101000a900460ff161515610e7957600080fd5b81336001600083815260200190815260200160002060008273ffffffffffffffffffffffffffffffffffffffff1673ffffffffffffffffffffffffffffffffffffffff16815260200190815260200160002060009054906101000a900460ff161515610ee457600080fd5b8360008082815260200190815260200160002060030160009054906101000a900460ff16151515610f1457600080fd5b60006001600087815260200190815260200160002060003373ffffffffffffffffffffffffffffffffffffffff1673ffffffffffffffffffffffffffffffffffffffff16815260200190815260200160002060006101000a81548160ff021916908315150217905550843373ffffffffffffffffffffffffffffffffffffffff167ff6a317157440607f36269043eb55f1287a5a19ba2216afeab88cd46cbcfb88e960405160405180910390a35050505050565b60026020528060005260406000206000915054906101000a900460ff1681565b60016020528160005260406000206020528060005260406000206000915091509054906101000a900460ff1681565b60008160008082815260200190815260200160002060030160009054906101000a900460ff1615151561104957600080fd5b82611053816119a6565b15156110c7576040517f08c379a00000000000000000000000000000000000000000000000000000000081526004018080602001828103825260168152602001807f54585f4e4f545f46554c4c595f434f4e4649524d45440000000000000000000081525060200191505060405180910390fd5b8360008060008381526020019081526020016000209050600860008260000160009054906101000a900473ffffffffffffffffffffffffffffffffffffffff1673ffffffffffffffffffffffffffffffffffffffff1673ffffffffffffffffffffffffffffffffffffffff16815260200190815260200160002060009054906101000a900460ff1615156111c3576040517f08c379a00000000000000000000000000000000000000000000000000000000081526004018080602001828103825260188152602001807f554e524547495354455245445f41535345545f50524f5859000000000000000081525060200191505060405180910390fd5b60405180807f72656d6f7665417574686f72697a6564416464726573734174496e646578286181526020017f6464726573732c75696e74323536290000000000000000000000000000000000815250602f01905060405180910390207bffffffffffffffffffffffffffffffffffffffffffffffffffffffff19166112ee6000836002018054600181600116156101000203166002900480601f0160208091040260200160405190810160405280929190818152602001828054600181600116156101000203166002900480156112db5780601f106112b0576101008083540402835291602001916112db565b820191906000526020600020905b8154815290600101906020018083116112be57829003601f168201915b5050505050612d5090919063ffffffff16565b7bffffffffffffffffffffffffffffffffffffffffffffffffffffffff1916141515611382576040517f08c379a00000000000000000000000000000000000000000000000000000000081526004018080602001828103825260198152602001807f494e56414c49445f46554e4354494f4e5f53454c4543544f520000000000000081525060200191505060405180910390fd5b600080878152602001908152602001600020945060018560030160006101000a81548160ff02191690831515021790555061149b8560000160009054906101000a900473ffffffffffffffffffffffffffffffffffffffff16866001015487600201805460018160011615610100020316600290049050886002018054600181600116156101000203166002900480601f0160208091040260200160405190810160405280929190818152602001828054600181600116156101000203166002900480156114915780601f1061146657610100808354040283529160200191611491565b820191906000526020600020905b81548152906001019060200180831161147457829003601f168201915b5050505050612e2e565b156114d257857f33e13ecb54c3076d8e8bb8c2881800a4d972b792045ffae98fdf46df365fed7560405160405180910390a261151d565b857f526441bb6c1aba3c9a4a6ca1d6545da9c2333c8c48343ef398eb858d72b7923660405160405180910390a260008560030160006101000a81548160ff0219169083151502179055505b505050505050565b60065481565b600080600090505b6005548110156115b65783801561156a575060008082815260200190815260200160002060030160009054906101000a900460ff16155b8061159d575082801561159c575060008082815260200190815260200160002060030160009054906101000a900460ff165b5b156115a9576001820191505b8080600101915050611533565b5092915050565b3073ffffffffffffffffffffffffffffffffffffffff163373ffffffffffffffffffffffffffffffffffffffff161415156115f757600080fd5b8160008173ffffffffffffffffffffffffffffffffffffffff161415151561161e57600080fd5b81600860008573ffffffffffffffffffffffffffffffffffffffff1673ffffffffffffffffffffffffffffffffffffffff16815260200190815260200160002060006101000a81548160ff0219169083151502179055507fdaef8ff7dc66c5e34eb9c338aab679d9f427f89868d9228494455a4d982eb2b08383604051808373ffffffffffffffffffffffffffffffffffffffff1673ffffffffffffffffffffffffffffffffffffffff168152602001821515151581526020019250505060405180910390a1505050565b3073ffffffffffffffffffffffffffffffffffffffff163373ffffffffffffffffffffffffffffffffffffffff1614151561172357600080fd5b80600260008273ffffffffffffffffffffffffffffffffffffffff1673ffffffffffffffffffffffffffffffffffffffff16815260200190815260200160002060009054906101000a900460ff1615151561177d57600080fd5b8160008173ffffffffffffffffffffffffffffffffffffffff16141515156117a457600080fd5b600160038054905001600454603282111580156117c15750818111155b80156117ce575060008114155b80156117db575060008214155b15156117e657600080fd5b6001600260008773ffffffffffffffffffffffffffffffffffffffff1673ffffffffffffffffffffffffffffffffffffffff16815260200190815260200160002060006101000a81548160ff02191690831515021790555060038590806001815401808255809150509060018203906000526020600020016000909192909190916101000a81548173ffffffffffffffffffffffffffffffffffffffff021916908373ffffffffffffffffffffffffffffffffffffffff160217905550508473ffffffffffffffffffffffffffffffffffffffff167ff39e6e1eb0edcf53c221607b54b00cd28f3196fed0a24994dc308b8f611b682d60405160405180910390a25050505050565b600060405180807f72656d6f7665417574686f72697a6564416464726573734174496e646578286181526020017f6464726573732c75696e74323536290000000000000000000000000000000000815250602f01905060405180910390207bffffffffffffffffffffffffffffffffffffffffffffffffffffffff191661197f600084612d5090919063ffffffff16565b7bffffffffffffffffffffffffffffffffffffffffffffffffffffffff1916149050919050565b6000806000809150600090505b600380549050811015611a83576001600085815260200190815260200160002060006003838154811015156119e457fe5b9060005260206000200160009054906101000a900473ffffffffffffffffffffffffffffffffffffffff1673ffffffffffffffffffffffffffffffffffffffff1673ffffffffffffffffffffffffffffffffffffffff16815260200190815260200160002060009054906101000a900460ff1615611a63576001820191505b600454821415611a765760019250611a84565b80806001019150506119b3565b5b5050919050565b3073ffffffffffffffffffffffffffffffffffffffff163373ffffffffffffffffffffffffffffffffffffffff16141515611ac557600080fd5b806006819055507fd1c9101a34feff75cccef14a28785a0279cb0b49c1f321f21f5f422e746b4377816040518082815260200191505060405180910390a150565b60086020528060005260406000206000915054906101000a900460ff1681565b600080600090505b600380549050811015611beb57600160008481526020019081526020016000206000600383815481101515611b5f57fe5b9060005260206000200160009054906101000a900473ffffffffffffffffffffffffffffffffffffffff1673ffffffffffffffffffffffffffffffffffffffff1673ffffffffffffffffffffffffffffffffffffffff16815260200190815260200160002060009054906101000a900460ff1615611bde576001820191505b8080600101915050611b2e565b50919050565b60006020528060005260406000206000915090508060000160009054906101000a900473ffffffffffffffffffffffffffffffffffffffff1690806001015490806002018054600181600116156101000203166002900480601f016020809104026020016040519081016040528092919081815260200182805460018160011615610100020316600290048015611cc95780601f10611c9e57610100808354040283529160200191611cc9565b820191906000526020600020905b815481529060010190602001808311611cac57829003601f168201915b5050505050908060030160009054906101000a900460ff16905084565b60606003805480602002602001604051908101604052809291908181526020018280548015611d6a57602002820191906000526020600020905b8160009054906101000a900473ffffffffffffffffffffffffffffffffffffffff1673ffffffffffffffffffffffffffffffffffffffff1681526020019060010190808311611d20575b5050505050905090565b606080600080600554604051908082528060200260200182016040528015611dab5781602001602082028038833980820191505090505b50925060009150600090505b600554811015611e5757858015611dee575060008082815260200190815260200160002060030160009054906101000a900460ff16155b80611e215750848015611e20575060008082815260200190815260200160002060030160009054906101000a900460ff165b5b15611e4a57808383815181101515611e3557fe5b90602001906020020181815250506001820191505b8080600101915050611db7565b878703604051908082528060200260200182016040528015611e885781602001602082028038833980820191505090505b5093508790505b86811015611eda578281815181101515611ea557fe5b9060200190602002015184898303815181101515611ebf57fe5b90602001906020020181815250508080600101915050611e8f565b505050949350505050565b606080600080600380549050604051908082528060200260200182016040528015611f1f5781602001602082028038833980820191505090505b50925060009150600090505b60038054905081101561206c57600160008681526020019081526020016000206000600383815481101515611f5c57fe5b9060005260206000200160009054906101000a900473ffffffffffffffffffffffffffffffffffffffff1673ffffffffffffffffffffffffffffffffffffffff1673ffffffffffffffffffffffffffffffffffffffff16815260200190815260200160002060009054906101000a900460ff161561205f57600381815481101515611fe357fe5b9060005260206000200160009054906101000a900473ffffffffffffffffffffffffffffffffffffffff16838381518110151561201c57fe5b9060200190602002019073ffffffffffffffffffffffffffffffffffffffff16908173ffffffffffffffffffffffffffffffffffffffff16815250506001820191505b8080600101915050611f2b565b8160405190808252806020026020018201604052801561209b5781602001602082028038833980820191505090505b509350600090505b8181101561211a5782818151811015156120b957fe5b9060200190602002015184828151811015156120d157fe5b9060200190602002019073ffffffffffffffffffffffffffffffffffffffff16908173ffffffffffffffffffffffffffffffffffffffff168152505080806001019150506120a3565b505050919050565b60055481565b3073ffffffffffffffffffffffffffffffffffffffff163373ffffffffffffffffffffffffffffffffffffffff1614151561216257600080fd5b600380549050816032821115801561217a5750818111155b8015612187575060008114155b8015612194575060008214155b151561219f57600080fd5b826004819055507fa3f1ee9126a074d9326c682f561767f710e927faa811f7a99829d49dc421797a836040518082815260200191505060405180910390a1505050565b33600260008273ffffffffffffffffffffffffffffffffffffffff1673ffffffffffffffffffffffffffffffffffffffff16815260200190815260200160002060009054906101000a900460ff16151561223b57600080fd5b81600080600083815260200190815260200160002060000160009054906101000a900473ffffffffffffffffffffffffffffffffffffffff1673ffffffffffffffffffffffffffffffffffffffff161415151561229757600080fd5b82336001600083815260200190815260200160002060008273ffffffffffffffffffffffffffffffffffffffff1673ffffffffffffffffffffffffffffffffffffffff16815260200190815260200160002060009054906101000a900460ff1615151561230357600080fd5b8461230d816119a6565b151515612382576040517f08c379a00000000000000000000000000000000000000000000000000000000081526004018080602001828103825260128152602001807f54585f46554c4c595f434f4e4649524d4544000000000000000000000000000081525060200191505060405180910390fd5b600180600088815260200190815260200160002060003373ffffffffffffffffffffffffffffffffffffffff1673ffffffffffffffffffffffffffffffffffffffff16815260200190815260200160002060006101000a81548160ff021916908315150217905550853373ffffffffffffffffffffffffffffffffffffffff167f4a504a94899432a9846e1aa406dceb1bcfd538bb839071d49d1e5e23f5be30ef60405160405180910390a3612437866119a6565b15612447576124468642612e55565b5b505050505050565b60008160008060008381526020019081526020016000209050600860008260000160009054906101000a900473ffffffffffffffffffffffffffffffffffffffff1673ffffffffffffffffffffffffffffffffffffffff1673ffffffffffffffffffffffffffffffffffffffff16815260200190815260200160002060009054906101000a900460ff16151561254d576040517f08c379a00000000000000000000000000000000000000000000000000000000081526004018080602001828103825260188152602001807f554e524547495354455245445f41535345545f50524f5859000000000000000081525060200191505060405180910390fd5b60405180807f72656d6f7665417574686f72697a6564416464726573734174496e646578286181526020017f6464726573732c75696e74323536290000000000000000000000000000000000815250602f01905060405180910390207bffffffffffffffffffffffffffffffffffffffffffffffffffffffff19166126786000836002018054600181600116156101000203166002900480601f0160208091040260200160405190810160405280929190818152602001828054600181600116156101000203166002900480156126655780601f1061263a57610100808354040283529160200191612665565b820191906000526020600020905b81548152906001019060200180831161264857829003601f168201915b5050505050612d5090919063ffffffff16565b7bffffffffffffffffffffffffffffffffffffffffffffffffffffffff191614151561270c576040517f08c379a00000000000000000000000000000000000000000000000000000000081526004018080602001828103825260198152602001807f494e56414c49445f46554e4354494f4e5f53454c4543544f520000000000000081525060200191505060405180910390fd5b600192505050919050565b6000612724848484612ea9565b905061272f816121e2565b9392505050565b60076020528060005260406000206000915090505481565b603281565b60045481565b60003073ffffffffffffffffffffffffffffffffffffffff163373ffffffffffffffffffffffffffffffffffffffff1614151561279557600080fd5b82600260008273ffffffffffffffffffffffffffffffffffffffff1673ffffffffffffffffffffffffffffffffffffffff16815260200190815260200160002060009054906101000a900460ff1615156127ee57600080fd5b82600260008273ffffffffffffffffffffffffffffffffffffffff1673ffffffffffffffffffffffffffffffffffffffff16815260200190815260200160002060009054906101000a900460ff1615151561284857600080fd5b600092505b600380549050831015612931578473ffffffffffffffffffffffffffffffffffffffff1660038481548110151561288057fe5b9060005260206000200160009054906101000a900473ffffffffffffffffffffffffffffffffffffffff1673ffffffffffffffffffffffffffffffffffffffff16141561292457836003848154811015156128d757fe5b9060005260206000200160006101000a81548173ffffffffffffffffffffffffffffffffffffffff021916908373ffffffffffffffffffffffffffffffffffffffff160217905550612931565b828060010193505061284d565b6000600260008773ffffffffffffffffffffffffffffffffffffffff1673ffffffffffffffffffffffffffffffffffffffff16815260200190815260200160002060006101000a81548160ff0219169083151502179055506001600260008673ffffffffffffffffffffffffffffffffffffffff1673ffffffffffffffffffffffffffffffffffffffff16815260200190815260200160002060006101000a81548160ff0219169083151502179055508473ffffffffffffffffffffffffffffffffffffffff167f8001553a916ef2f495d26a907cc54d96ed840d7bda71e73194bf5a9df7a76b9060405160405180910390a28373ffffffffffffffffffffffffffffffffffffffff167ff39e6e1eb0edcf53c221607b54b00cd28f3196fed0a24994dc308b8f611b682d60405160405180910390a25050505050565b60008160008082815260200190815260200160002060030160009054906101000a900460ff16151515612aa057600080fd5b82612aaa816119a6565b1515612b1e576040517f08c379a00000000000000000000000000000000000000000000000000000000081526004018080602001828103825260168152602001807f54585f4e4f545f46554c4c595f434f4e4649524d45440000000000000000000081525060200191505060405180910390fd5b836006546007600083815260200190815260200160002054014210151515612bae576040517f08c379a00000000000000000000000000000000000000000000000000000000081526004018080602001828103825260148152602001807f54494d455f4c4f434b5f494e434f4d504c45544500000000000000000000000081525060200191505060405180910390fd5b600080868152602001908152602001600020935060018460030160006101000a81548160ff021916908315150217905550612cc78460000160009054906101000a900473ffffffffffffffffffffffffffffffffffffffff16856001015486600201805460018160011615610100020316600290049050876002018054600181600116156101000203166002900480601f016020809104026020016040519081016040528092919081815260200182805460018160011615610100020316600290048015612cbd5780601f10612c9257610100808354040283529160200191612cbd565b820191906000526020600020905b815481529060010190602001808311612ca057829003601f168201915b5050505050612e2e565b15612cfe57847f33e13ecb54c3076d8e8bb8c2881800a4d972b792045ffae98fdf46df365fed7560405160405180910390a2612d49565b847f526441bb6c1aba3c9a4a6ca1d6545da9c2333c8c48343ef398eb858d72b7923660405160405180910390a260008460030160006101000a81548160ff0219169083151502179055505b5050505050565b600060048201835110151515612df4576040517f08c379a00000000000000000000000000000000000000000000000000000000081526004018080602001828103825260258152602001807f475245415445525f4f525f455155414c5f544f5f345f4c454e4754485f52455181526020017f554952454400000000000000000000000000000000000000000000000000000081525060400191505060405180910390fd5b6020820191508183015190507fffffffff000000000000000000000000000000000000000000000000000000008116905080905092915050565b6000806040516020840160008287838a8c6187965a03f19250505080915050949350505050565b806007600084815260200190815260200160002081905550817f0b237afe65f1514fd7ea3f923ea4fe792bdd07000a912b6cd1602a8e7f573c8d826040518082815260200191505060405180910390a25050565b60008360008173ffffffffffffffffffffffffffffffffffffffff1614151515612ed257600080fd5b60055491506080604051908101604052808673ffffffffffffffffffffffffffffffffffffffff1681526020018581526020018481526020016000151581525060008084815260200190815260200160002060008201518160000160006101000a81548173ffffffffffffffffffffffffffffffffffffffff021916908373ffffffffffffffffffffffffffffffffffffffff160217905550602082015181600101556040820151816002019080519060200190612f91929190613027565b5060608201518160030160006101000a81548160ff0219169083151502179055509050506001600560008282540192505081905550817fc0ba8fe4b176c1714197d43b9cc6bcf797a4a7461c5fe8d0ef6e184ae7601e5160405160405180910390a2509392505050565b8154818355818111156130225781836000526020600020918201910161302191906130a7565b5b505050565b828054600181600116156101000203166002900490600052602060002090601f016020900481019282601f1061306857805160ff1916838001178555613096565b82800160010185558215613096579182015b8281111561309557825182559160200191906001019061307a565b5b5090506130a391906130a7565b5090565b6130c991905b808211156130c55760008160009055506001016130ad565b5090565b905600a165627a7a723058204d895f1e67505cdbdf91b6be200c417623c2df08ed095d720f55f4c458664f0f0029",
  "source": "/*\n\n  Copyright 2018 ZeroEx Intl.\n\n  Licensed under the Apache License, Version 2.0 (the \"License\");\n  you may not use this file except in compliance with the License.\n  You may obtain a copy of the License at\n\n    http://www.apache.org/licenses/LICENSE-2.0\n\n  Unless required by applicable law or agreed to in writing, software\n  distributed under the License is distributed on an \"AS IS\" BASIS,\n  WITHOUT WARRANTIES OR CONDITIONS OF ANY KIND, either express or implied.\n  See the License for the specific language governing permissions and\n  limitations under the License.\n\n*/\n\npragma solidity 0.4.24;\n\nimport \"../../protocol/AssetProxyOwner/AssetProxyOwner.sol\";\n\n\n// solhint-disable no-empty-blocks\ncontract TestAssetProxyOwner is\n    AssetProxyOwner\n{\n    constructor (\n        address[] memory _owners,\n        address[] memory _assetProxyContracts,\n        uint256 _required,\n        uint256 _secondsTimeLocked\n    )\n        public\n        AssetProxyOwner(_owners, _assetProxyContracts, _required, _secondsTimeLocked)\n    {}\n    \n    function testValidRemoveAuthorizedAddressAtIndexTx(uint256 id)\n        public\n        view\n        validRemoveAuthorizedAddressAtIndexTx(id)\n        returns (bool)\n    {\n        // Do nothing. We expect reverts through the modifier\n        return true;\n    }\n    \n    /// @dev Compares first 4 bytes of byte array to `removeAuthorizedAddressAtIndex` function selector.\n    /// @param data Transaction data.\n    /// @return Successful if data is a call to `removeAuthorizedAddressAtIndex`.\n    function isFunctionRemoveAuthorizedAddressAtIndex(bytes memory data)\n        public\n        pure\n        returns (bool)\n    {\n        return data.readBytes4(0) == REMOVE_AUTHORIZED_ADDRESS_AT_INDEX_SELECTOR;\n    }\n}\n",
  "sourcePath": "/Users/facu/Documents/Laburo/Spiking/Ethereum/0x/0x-monorepo/packages/contracts/contracts/2.0.0/test/TestAssetProxyOwner/TestAssetProxyOwner.sol",
  "compiler": {
    "name": "solc",
    "version": "0.4.24+commit.e67f0147.Emscripten.clang"
  },
  "schemaVersion": "2.0.1",
  "updatedAt": "2018-10-16T20:38:35.384Z"
}