{
  "contractName": "TestLibs",
  "abi": [
    {
      "constant": false,
      "inputs": [],
      "name": "initialize",
      "outputs": [],
      "payable": false,
      "stateMutability": "nonpayable",
      "type": "function"
    },
    {
      "constant": true,
      "inputs": [],
      "name": "EIP712_DOMAIN_HASH",
      "outputs": [
        {
          "name": "",
          "type": "bytes32"
        }
      ],
      "payable": false,
      "stateMutability": "view",
      "type": "function"
    },
    {
      "constant": true,
      "inputs": [
        {
          "components": [
            {
              "name": "makerAddress",
              "type": "address"
            },
            {
              "name": "takerAddress",
              "type": "address"
            },
            {
              "name": "feeRecipientAddress",
              "type": "address"
            },
            {
              "name": "senderAddress",
              "type": "address"
            },
            {
              "name": "makerAssetAmount",
              "type": "uint256"
            },
            {
              "name": "takerAssetAmount",
              "type": "uint256"
            },
            {
              "name": "makerFee",
              "type": "uint256"
            },
            {
              "name": "takerFee",
              "type": "uint256"
            },
            {
              "name": "expirationTimeSeconds",
              "type": "uint256"
            },
            {
              "name": "salt",
              "type": "uint256"
            },
            {
              "name": "makerAssetData",
              "type": "bytes"
            },
            {
              "name": "takerAssetData",
              "type": "bytes"
            }
          ],
          "name": "order",
          "type": "tuple"
        },
        {
          "name": "takerAssetFillAmount",
          "type": "uint256"
        },
        {
          "name": "signature",
          "type": "bytes"
        }
      ],
      "name": "publicAbiEncodeFillOrder",
      "outputs": [
        {
          "name": "fillOrderCalldata",
          "type": "bytes"
        }
      ],
      "payable": false,
      "stateMutability": "pure",
      "type": "function"
    },
    {
      "constant": true,
      "inputs": [
        {
          "name": "numerator",
          "type": "uint256"
        },
        {
          "name": "denominator",
          "type": "uint256"
        },
        {
          "name": "target",
          "type": "uint256"
        }
      ],
      "name": "publicGetPartialAmountFloor",
      "outputs": [
        {
          "name": "partialAmount",
          "type": "uint256"
        }
      ],
      "payable": false,
      "stateMutability": "pure",
      "type": "function"
    },
    {
      "constant": true,
      "inputs": [
        {
          "name": "numerator",
          "type": "uint256"
        },
        {
          "name": "denominator",
          "type": "uint256"
        },
        {
          "name": "target",
          "type": "uint256"
        }
      ],
      "name": "publicGetPartialAmountCeil",
      "outputs": [
        {
          "name": "partialAmount",
          "type": "uint256"
        }
      ],
      "payable": false,
      "stateMutability": "pure",
      "type": "function"
    },
    {
      "constant": true,
      "inputs": [
        {
          "name": "numerator",
          "type": "uint256"
        },
        {
          "name": "denominator",
          "type": "uint256"
        },
        {
          "name": "target",
          "type": "uint256"
        }
      ],
      "name": "publicIsRoundingErrorFloor",
      "outputs": [
        {
          "name": "isError",
          "type": "bool"
        }
      ],
      "payable": false,
      "stateMutability": "pure",
      "type": "function"
    },
    {
      "constant": true,
      "inputs": [
        {
          "name": "numerator",
          "type": "uint256"
        },
        {
          "name": "denominator",
          "type": "uint256"
        },
        {
          "name": "target",
          "type": "uint256"
        }
      ],
      "name": "publicIsRoundingErrorCeil",
      "outputs": [
        {
          "name": "isError",
          "type": "bool"
        }
      ],
      "payable": false,
      "stateMutability": "pure",
      "type": "function"
    },
    {
      "constant": true,
      "inputs": [
        {
          "components": [
            {
              "name": "makerAddress",
              "type": "address"
            },
            {
              "name": "takerAddress",
              "type": "address"
            },
            {
              "name": "feeRecipientAddress",
              "type": "address"
            },
            {
              "name": "senderAddress",
              "type": "address"
            },
            {
              "name": "makerAssetAmount",
              "type": "uint256"
            },
            {
              "name": "takerAssetAmount",
              "type": "uint256"
            },
            {
              "name": "makerFee",
              "type": "uint256"
            },
            {
              "name": "takerFee",
              "type": "uint256"
            },
            {
              "name": "expirationTimeSeconds",
              "type": "uint256"
            },
            {
              "name": "salt",
              "type": "uint256"
            },
            {
              "name": "makerAssetData",
              "type": "bytes"
            },
            {
              "name": "takerAssetData",
              "type": "bytes"
            }
          ],
          "name": "order",
          "type": "tuple"
        }
      ],
      "name": "publicGetOrderHash",
      "outputs": [
        {
          "name": "orderHash",
          "type": "bytes32"
        }
      ],
      "payable": false,
      "stateMutability": "view",
      "type": "function"
    },
    {
      "constant": true,
      "inputs": [],
      "name": "getOrderSchemaHash",
      "outputs": [
        {
          "name": "",
          "type": "bytes32"
        }
      ],
      "payable": false,
      "stateMutability": "pure",
      "type": "function"
    },
    {
      "constant": true,
      "inputs": [],
      "name": "getDomainSeparatorSchemaHash",
      "outputs": [
        {
          "name": "",
          "type": "bytes32"
        }
      ],
      "payable": false,
      "stateMutability": "pure",
      "type": "function"
    },
    {
      "constant": true,
      "inputs": [
        {
          "components": [
            {
              "name": "makerAssetFilledAmount",
              "type": "uint256"
            },
            {
              "name": "takerAssetFilledAmount",
              "type": "uint256"
            },
            {
              "name": "makerFeePaid",
              "type": "uint256"
            },
            {
              "name": "takerFeePaid",
              "type": "uint256"
            }
          ],
          "name": "totalFillResults",
          "type": "tuple"
        },
        {
          "components": [
            {
              "name": "makerAssetFilledAmount",
              "type": "uint256"
            },
            {
              "name": "takerAssetFilledAmount",
              "type": "uint256"
            },
            {
              "name": "makerFeePaid",
              "type": "uint256"
            },
            {
              "name": "takerFeePaid",
              "type": "uint256"
            }
          ],
          "name": "singleFillResults",
          "type": "tuple"
        }
      ],
      "name": "publicAddFillResults",
      "outputs": [
        {
          "components": [
            {
              "name": "makerAssetFilledAmount",
              "type": "uint256"
            },
            {
              "name": "takerAssetFilledAmount",
              "type": "uint256"
            },
            {
              "name": "makerFeePaid",
              "type": "uint256"
            },
            {
              "name": "takerFeePaid",
              "type": "uint256"
            }
          ],
          "name": "",
          "type": "tuple"
        }
      ],
      "payable": false,
      "stateMutability": "pure",
      "type": "function"
    }
  ],
  "bytecode": "0x608060405234801561001057600080fd5b50611e01806100206000396000f3006080604052600436106100af576000357c0100000000000000000000000000000000000000000000000000000000900463ffffffff1680631be23901146100b457806320777f70146100f1578063494d92971461012e57806366758d7b14610159578063679d2f9a146101965780637d33c6ee146101d35780638129fc1c146101fe578063be7ada1e14610215578063d980208814610252578063e306f7791461028f578063e9c7aa1a146102ba575b600080fd5b3480156100c057600080fd5b506100db60048036036100d69190810190611983565b6102f7565b6040516100e89190611b8c565b60405180910390f35b3480156100fd57600080fd5b5061011860048036036101139190810190611983565b610310565b6040516101259190611c7f565b60405180910390f35b34801561013a57600080fd5b50610143610329565b6040516101509190611ba7565b60405180910390f35b34801561016557600080fd5b50610180600480360361017b9190810190611886565b610472565b60405161018d9190611c64565b60405180910390f35b3480156101a257600080fd5b506101bd60048036036101b89190810190611983565b61048d565b6040516101ca9190611b8c565b60405180910390f35b3480156101df57600080fd5b506101e86104a6565b6040516101f59190611ba7565b60405180910390f35b34801561020a57600080fd5b50610213610757565b005b34801561022157600080fd5b5061023c60048036036102379190810190611983565b610b7f565b6040516102499190611c7f565b60405180910390f35b34801561025e57600080fd5b50610279600480360361027491908101906118c3565b610b98565b6040516102869190611ba7565b60405180910390f35b34801561029b57600080fd5b506102a4610bad565b6040516102b19190611ba7565b60405180910390f35b3480156102c657600080fd5b506102e160048036036102dc9190810190611904565b610bb3565b6040516102ee9190611bc2565b60405180910390f35b6000610304848484610bcc565b90508090509392505050565b600061031d848484610c66565b90508090509392505050565b600060405160200180807f454950373132446f6d61696e2800000000000000000000000000000000000000815250600d01807f737472696e67206e616d652c0000000000000000000000000000000000000000815250600c01807f737472696e672076657273696f6e2c0000000000000000000000000000000000815250600f01807f6164647265737320766572696679696e67436f6e747261637400000000000000815250601901807f290000000000000000000000000000000000000000000000000000000000000081525060010190506040516020818303038152906040526040518082805190602001908083835b602083101515610440578051825260208201915060208101905060208303925061041b565b6001836020036101000a0380198251168184511680821785525050505050509050019150506040518091039020905090565b61047a6115c7565b6104848383610cde565b82905092915050565b600061049a848484610d4e565b90508090509392505050565b600060405160200180807f4f72646572280000000000000000000000000000000000000000000000000000815250600601807f61646472657373206d616b6572416464726573732c0000000000000000000000815250601501807f616464726573732074616b6572416464726573732c0000000000000000000000815250601501807f6164647265737320666565526563697069656e74416464726573732c00000000815250601c01807f616464726573732073656e646572416464726573732c00000000000000000000815250601601807f75696e74323536206d616b65724173736574416d6f756e742c00000000000000815250601901807f75696e743235362074616b65724173736574416d6f756e742c00000000000000815250601901807f75696e74323536206d616b65724665652c000000000000000000000000000000815250601101807f75696e743235362074616b65724665652c000000000000000000000000000000815250601101807f75696e743235362065787069726174696f6e54696d655365636f6e64732c0000815250601e01807f75696e743235362073616c742c00000000000000000000000000000000000000815250600d01807f6279746573206d616b65724173736574446174612c0000000000000000000000815250601501807f62797465732074616b6572417373657444617461000000000000000000000000815250601401807f290000000000000000000000000000000000000000000000000000000000000081525060010190506040516020818303038152906040526040518082805190602001908083835b6020831015156107255780518252602082019150602081019050602083039250610700565b6001836020036101000a0380198251168184511680821785525050505050509050019150506040518091039020905090565b60008060019054906101000a900460ff16806107775750610776610dff565b5b8061078e57506000809054906101000a900460ff16155b15156107cf576040517f08c379a00000000000000000000000000000000000000000000000000000000081526004016107c690611c44565b60405180910390fd5b600060019054906101000a900460ff1690506001600060016101000a81548160ff02191690831515021790555060016000806101000a81548160ff02191690831515021790555060405160200180807f454950373132446f6d61696e2800000000000000000000000000000000000000815250600d01807f737472696e67206e616d652c0000000000000000000000000000000000000000815250600c01807f737472696e672076657273696f6e2c0000000000000000000000000000000000815250600f01807f6164647265737320766572696679696e67436f6e747261637400000000000000815250601901807f290000000000000000000000000000000000000000000000000000000000000081525060010190506040516020818303038152906040526040518082805190602001908083835b60208310151561092b5780518252602082019150602081019050602083039250610906565b6001836020036101000a03801982511681845116808217855250505050505090500191505060405180910390206040805190810160405280600b81526020017f30782050726f746f636f6c0000000000000000000000000000000000000000008152506040518082805190602001908083835b6020831015156109c3578051825260208201915060208101905060208303925061099e565b6001836020036101000a03801982511681845116808217855250505050505090500191505060405180910390206040805190810160405280600181526020017f32000000000000000000000000000000000000000000000000000000000000008152506040518082805190602001908083835b602083101515610a5b5780518252602082019150602081019050602083039250610a36565b6001836020036101000a03801982511681845116808217855250505050505090500191505060405180910390203073ffffffffffffffffffffffffffffffffffffffff166001026040516020018085600019166000191681526020018460001916600019168152602001836000191660001916815260200182600019166000191681526020019450505050506040516020818303038152906040526040518082805190602001908083835b602083101515610b2b5780518252602082019150602081019050602083039250610b06565b6001836020036101000a03801982511681845116808217855250505050505090500191505060405180910390206033816000191690555080600060016101000a81548160ff02191690831515021790555050565b6000610b8c848484610e10565b90508090509392505050565b6000610ba382610e75565b9050809050919050565b60335481565b6060610bc0848484610e92565b90508090509392505050565b600080600084111515610c14576040517f08c379a0000000000000000000000000000000000000000000000000000000008152600401610c0b90611c04565b60405180910390fd5b6000831480610c235750600085145b15610c315760009150610c5e565b83801515610c3b57fe5b8584099050610c4a8584611081565b610c566103e883611081565b101591508191505b509392505050565b60008083111515610cac576040517f08c379a0000000000000000000000000000000000000000000000000000000008152600401610ca390611c04565b60405180910390fd5b610cd2610ccc610cbc8685611081565b610cc78660016110f5565b611147565b8461119e565b90508090509392505050565b610cf082600001518260000151611147565b826000018181525050610d0b82602001518260200151611147565b826020018181525050610d2682604001518260400151611147565b826040018181525050610d4182606001518260600151611147565b8260600181815250505050565b600080600084111515610d96576040517f08c379a0000000000000000000000000000000000000000000000000000000008152600401610d8d90611c04565b60405180910390fd5b6000831480610da55750600085145b15610db35760009150610df7565b83801515610dbd57fe5b858409905083610dcd85836110f5565b811515610dd657fe5b069050610de38584611081565b610def6103e883611081565b101591508191505b509392505050565b600080303b90506000811491505090565b60008083111515610e56576040517f08c379a0000000000000000000000000000000000000000000000000000000008152600401610e4d90611c04565b60405180910390fd5b610e69610e638584611081565b8461119e565b90508090509392505050565b6000610e88610e83836111b9565b61157d565b9050809050919050565b606060405190507fb4be83d5000000000000000000000000000000000000000000000000000000006020820152602481018060608101818180896000808784038652602086019550825184526020830151602085015260408301516040850152606083015160608501526080830151608085015260a083015160a085015260c083015160c085015260e083015160e085015261010083015161010085015261012083015161012085015261014083015161014085015261016083015161016085015261018084019350610180830192508484036020600a028601526101408d01519250825191506020830192506020601f830104905081845260208401935060005b81811015610fb75783518552602085019450602084019350600181019050610f94565b508484036020600b028601526101608d01519250825191506020830192506020601f830104905081845260208401935060005b8181101561100d5783518552602085019450602084019350600181019050610fea565b508b865260208601955087840386528a9250825191506020830192506020601f830104905081845260208401935060005b81811015611061578351855260208501945060208401935060018101905061103e565b5060208a0184038a52836040525050505050505050508090509392505050565b600080600084141561109657600091506110ee565b82840290508284828115156110a757fe5b041415156110ea576040517f08c379a00000000000000000000000000000000000000000000000000000000081526004016110e190611c24565b60405180910390fd5b8091505b5092915050565b600082821115151561113c576040517f08c379a000000000000000000000000000000000000000000000000000000000815260040161113390611be4565b60405180910390fd5b818303905092915050565b6000808284019050838110151515611194576040517f08c379a000000000000000000000000000000000000000000000000000000000815260040161118b90611c24565b60405180910390fd5b8091505092915050565b60008082848115156111ac57fe5b0490508091505092915050565b60008060008060405160200180807f4f72646572280000000000000000000000000000000000000000000000000000815250600601807f61646472657373206d616b6572416464726573732c0000000000000000000000815250601501807f616464726573732074616b6572416464726573732c0000000000000000000000815250601501807f6164647265737320666565526563697069656e74416464726573732c00000000815250601c01807f616464726573732073656e646572416464726573732c00000000000000000000815250601601807f75696e74323536206d616b65724173736574416d6f756e742c00000000000000815250601901807f75696e743235362074616b65724173736574416d6f756e742c00000000000000815250601901807f75696e74323536206d616b65724665652c000000000000000000000000000000815250601101807f75696e743235362074616b65724665652c000000000000000000000000000000815250601101807f75696e743235362065787069726174696f6e54696d655365636f6e64732c0000815250601e01807f75696e743235362073616c742c00000000000000000000000000000000000000815250600d01807f6279746573206d616b65724173736574446174612c0000000000000000000000815250601501807f62797465732074616b6572417373657444617461000000000000000000000000815250601401807f290000000000000000000000000000000000000000000000000000000000000081525060010190506040516020818303038152906040526040518082805190602001908083835b60208310151561143c5780518252602082019150602081019050602083039250611417565b6001836020036101000a038019825116818451168082178552505050505050905001915050604051809103902092508461014001516040518082805190602001908083835b6020831015156114a65780518252602082019150602081019050602083039250611481565b6001836020036101000a038019825116818451168082178552505050505050905001915050604051809103902091508461016001516040518082805190602001908083835b60208310151561151057805182526020820191506020810190506020830392506114eb565b6001836020036101000a0380198251168184511680821785525050505050509050019150506040518091039020905060208503610140860161016087018251825182518886528785528684526101a086209950828652818552808452505050505050839350505050919050565b60008060335490506040517f190100000000000000000000000000000000000000000000000000000000000081528160028201528360228201526042812092505081915050919050565b608060405190810160405280600081526020016000815260200160008152602001600081525090565b60006115fc8235611d4a565b905092915050565b600082601f830112151561161757600080fd5b813561162a61162582611cc7565b611c9a565b9150808252602083016020830185838301111561164657600080fd5b611651838284611d74565b50505092915050565b600082601f830112151561166d57600080fd5b813561168061167b82611cf3565b611c9a565b9150808252602083016020830185838301111561169c57600080fd5b6116a7838284611d74565b50505092915050565b6000608082840312156116c257600080fd5b6116cc6080611c9a565b905060006116dc84828501611872565b60008301525060206116f084828501611872565b602083015250604061170484828501611872565b604083015250606061171884828501611872565b60608301525092915050565b6000610180828403121561173757600080fd5b611742610180611c9a565b90506000611752848285016115f0565b6000830152506020611766848285016115f0565b602083015250604061177a848285016115f0565b604083015250606061178e848285016115f0565b60608301525060806117a284828501611872565b60808301525060a06117b684828501611872565b60a08301525060c06117ca84828501611872565b60c08301525060e06117de84828501611872565b60e0830152506101006117f384828501611872565b6101008301525061012061180984828501611872565b6101208301525061014082013567ffffffffffffffff81111561182b57600080fd5b61183784828501611604565b6101408301525061016082013567ffffffffffffffff81111561185957600080fd5b61186584828501611604565b6101608301525092915050565b600061187e8235611d6a565b905092915050565b600080610100838503121561189a57600080fd5b60006118a8858286016116b0565b92505060806118b9858286016116b0565b9150509250929050565b6000602082840312156118d557600080fd5b600082013567ffffffffffffffff8111156118ef57600080fd5b6118fb84828501611724565b91505092915050565b60008060006060848603121561191957600080fd5b600084013567ffffffffffffffff81111561193357600080fd5b61193f86828701611724565b935050602061195086828701611872565b925050604084013567ffffffffffffffff81111561196d57600080fd5b6119798682870161165a565b9150509250925092565b60008060006060848603121561199857600080fd5b60006119a686828701611872565b93505060206119b786828701611872565b92505060406119c886828701611872565b9150509250925092565b6119db81611d2a565b82525050565b6119ea81611d36565b82525050565b60006119fb82611d1f565b808452611a0f816020860160208601611d83565b611a1881611db6565b602085010191505092915050565b6000601182527f55494e543235365f554e444552464c4f570000000000000000000000000000006020830152604082019050919050565b6000601082527f4449564953494f4e5f42595f5a45524f000000000000000000000000000000006020830152604082019050919050565b6000601082527f55494e543235365f4f564552464c4f57000000000000000000000000000000006020830152604082019050919050565b6000602e82527f436f6e747261637420696e7374616e63652068617320616c726561647920626560208301527f656e20696e697469616c697a65640000000000000000000000000000000000006040830152606082019050919050565b608082016000820151611b3e6000850182611b7d565b506020820151611b516020850182611b7d565b506040820151611b646040850182611b7d565b506060820151611b776060850182611b7d565b50505050565b611b8681611d40565b82525050565b6000602082019050611ba160008301846119d2565b92915050565b6000602082019050611bbc60008301846119e1565b92915050565b60006020820190508181036000830152611bdc81846119f0565b905092915050565b60006020820190508181036000830152611bfd81611a26565b9050919050565b60006020820190508181036000830152611c1d81611a5d565b9050919050565b60006020820190508181036000830152611c3d81611a94565b9050919050565b60006020820190508181036000830152611c5d81611acb565b9050919050565b6000608082019050611c796000830184611b28565b92915050565b6000602082019050611c946000830184611b7d565b92915050565b6000604051905081810181811067ffffffffffffffff82111715611cbd57600080fd5b8060405250919050565b600067ffffffffffffffff821115611cde57600080fd5b601f19601f8301169050602081019050919050565b600067ffffffffffffffff821115611d0a57600080fd5b601f19601f8301169050602081019050919050565b600081519050919050565b60008115159050919050565b6000819050919050565b6000819050919050565b600073ffffffffffffffffffffffffffffffffffffffff82169050919050565b6000819050919050565b82818337600083830152505050565b60005b83811015611da1578082015181840152602081019050611d86565b83811115611db0576000848401525b50505050565b6000601f19601f83011690509190505600a265627a7a723058201e84f396208de4b3998ccc7854817ce9eae7d00ffd89494d5b59673346bbd6b46c6578706572696d656e74616cf50037",
  "source": "/*\n\n  Copyright 2018 ZeroEx Intl.\n\n  Licensed under the Apache License, Version 2.0 (the \"License\");\n  you may not use this file except in compliance with the License.\n  You may obtain a copy of the License at\n\n    http://www.apache.org/licenses/LICENSE-2.0\n\n  Unless required by applicable law or agreed to in writing, software\n  distributed under the License is distributed on an \"AS IS\" BASIS,\n  WITHOUT WARRANTIES OR CONDITIONS OF ANY KIND, either express or implied.\n  See the License for the specific language governing permissions and\n  limitations under the License.\n\n*/\n\npragma solidity 0.4.24;\npragma experimental ABIEncoderV2;\n\nimport \"../../protocol/Exchange/libs/LibMath.sol\";\nimport \"../../protocol/Exchange/libs/LibOrder.sol\";\nimport \"../../protocol/Exchange/libs/LibFillResults.sol\";\nimport \"../../protocol/Exchange/libs/LibAbiEncoder.sol\";\n\n\ncontract TestLibs is \n    LibMath,\n    LibOrder,\n    LibFillResults,\n    LibAbiEncoder\n{\n    function publicAbiEncodeFillOrder(\n        Order memory order,\n        uint256 takerAssetFillAmount,\n        bytes memory signature\n    )\n        public\n        pure\n        returns (bytes memory fillOrderCalldata)\n    {\n        fillOrderCalldata = abiEncodeFillOrder(\n            order,\n            takerAssetFillAmount,\n            signature\n        );\n        return fillOrderCalldata;\n    }\n\n    function publicGetPartialAmountFloor(\n        uint256 numerator,\n        uint256 denominator,\n        uint256 target\n    )\n        public\n        pure\n        returns (uint256 partialAmount)\n    {\n        partialAmount = getPartialAmountFloor(\n            numerator,\n            denominator,\n            target\n        );\n        return partialAmount;\n    }\n\n    function publicGetPartialAmountCeil(\n        uint256 numerator,\n        uint256 denominator,\n        uint256 target\n    )\n        public\n        pure\n        returns (uint256 partialAmount)\n    {\n        partialAmount = getPartialAmountCeil(\n            numerator,\n            denominator,\n            target\n        );\n        return partialAmount;\n    }\n\n    function publicIsRoundingErrorFloor(\n        uint256 numerator,\n        uint256 denominator,\n        uint256 target\n    )\n        public\n        pure\n        returns (bool isError)\n    {\n        isError = isRoundingErrorFloor(\n            numerator,\n            denominator,\n            target\n        );\n        return isError;\n    }\n\n    function publicIsRoundingErrorCeil(\n        uint256 numerator,\n        uint256 denominator,\n        uint256 target\n    )\n        public\n        pure\n        returns (bool isError)\n    {\n        isError = isRoundingErrorCeil(\n            numerator,\n            denominator,\n            target\n        );\n        return isError;\n    }\n\n    function publicGetOrderHash(Order memory order)\n        public\n        view\n        returns (bytes32 orderHash)\n    {\n        orderHash = getOrderHash(order);\n        return orderHash;\n    }\n\n    function getOrderSchemaHash()\n        public\n        pure\n        returns (bytes32)\n    {\n        return EIP712_ORDER_SCHEMA_HASH;\n    }\n\n    function getDomainSeparatorSchemaHash()\n        public\n        pure\n        returns (bytes32)\n    {\n        return EIP712_DOMAIN_SEPARATOR_SCHEMA_HASH;\n    }\n\n    function publicAddFillResults(FillResults memory totalFillResults, FillResults memory singleFillResults)\n        public\n        pure\n        returns (FillResults memory)\n    {\n        addFillResults(totalFillResults, singleFillResults);\n        return totalFillResults;\n    }\n}\n",
  "sourcePath": "/Users/facu/Documents/Laburo/Spiking/Ethereum/0x/0x-monorepo/packages/contracts/contracts/2.0.0/test/TestLibs/TestLibs.sol",
  "compiler": {
    "name": "solc",
    "version": "0.4.24+commit.e67f0147.Emscripten.clang"
  },
  "schemaVersion": "2.0.1",
  "updatedAt": "2018-10-16T20:38:35.392Z"
}