{
  "contractName": "TestSignatureValidator",
  "abi": [
    {
      "constant": false,
      "inputs": [
        {
          "name": "hash",
          "type": "bytes32"
        },
        {
          "name": "signerAddress",
          "type": "address"
        },
        {
          "name": "signature",
          "type": "bytes"
        }
      ],
      "name": "preSign",
      "outputs": [],
      "payable": false,
      "stateMutability": "nonpayable",
      "type": "function"
    },
    {
      "constant": true,
      "inputs": [
        {
          "name": "",
          "type": "bytes32"
        }
      ],
      "name": "transactions",
      "outputs": [
        {
          "name": "",
          "type": "bool"
        }
      ],
      "payable": false,
      "stateMutability": "view",
      "type": "function"
    },
    {
      "constant": false,
      "inputs": [
        {
          "name": "validatorAddress",
          "type": "address"
        },
        {
          "name": "approval",
          "type": "bool"
        }
      ],
      "name": "setSignatureValidatorApproval",
      "outputs": [],
      "payable": false,
      "stateMutability": "nonpayable",
      "type": "function"
    },
    {
      "constant": true,
      "inputs": [
        {
          "name": "",
          "type": "address"
        },
        {
          "name": "",
          "type": "address"
        }
      ],
      "name": "allowedValidators",
      "outputs": [
        {
          "name": "",
          "type": "bool"
        }
      ],
      "payable": false,
      "stateMutability": "view",
      "type": "function"
    },
    {
      "constant": false,
      "inputs": [],
      "name": "initialize",
      "outputs": [],
      "payable": false,
      "stateMutability": "nonpayable",
      "type": "function"
    },
    {
      "constant": true,
      "inputs": [
        {
          "name": "",
          "type": "bytes32"
        },
        {
          "name": "",
          "type": "address"
        }
      ],
      "name": "preSigned",
      "outputs": [
        {
          "name": "",
          "type": "bool"
        }
      ],
      "payable": false,
      "stateMutability": "view",
      "type": "function"
    },
    {
      "constant": true,
      "inputs": [
        {
          "name": "hash",
          "type": "bytes32"
        },
        {
          "name": "signerAddress",
          "type": "address"
        },
        {
          "name": "signature",
          "type": "bytes"
        }
      ],
      "name": "isValidSignature",
      "outputs": [
        {
          "name": "isValid",
          "type": "bool"
        }
      ],
      "payable": false,
      "stateMutability": "view",
      "type": "function"
    },
    {
      "constant": false,
      "inputs": [
        {
          "name": "salt",
          "type": "uint256"
        },
        {
          "name": "signerAddress",
          "type": "address"
        },
        {
          "name": "data",
          "type": "bytes"
        },
        {
          "name": "signature",
          "type": "bytes"
        }
      ],
      "name": "executeTransaction",
      "outputs": [],
      "payable": false,
      "stateMutability": "nonpayable",
      "type": "function"
    },
    {
      "constant": true,
      "inputs": [],
      "name": "EIP712_DOMAIN_HASH",
      "outputs": [
        {
          "name": "",
          "type": "bytes32"
        }
      ],
      "payable": false,
      "stateMutability": "view",
      "type": "function"
    },
    {
      "constant": true,
      "inputs": [],
      "name": "currentContextAddress",
      "outputs": [
        {
          "name": "",
          "type": "address"
        }
      ],
      "payable": false,
      "stateMutability": "view",
      "type": "function"
    },
    {
      "anonymous": false,
      "inputs": [
        {
          "indexed": true,
          "name": "signerAddress",
          "type": "address"
        },
        {
          "indexed": true,
          "name": "validatorAddress",
          "type": "address"
        },
        {
          "indexed": false,
          "name": "approved",
          "type": "bool"
        }
      ],
      "name": "SignatureValidatorApproval",
      "type": "event"
    },
    {
      "constant": true,
      "inputs": [
        {
          "name": "hash",
          "type": "bytes32"
        },
        {
          "name": "signer",
          "type": "address"
        },
        {
          "name": "signature",
          "type": "bytes"
        }
      ],
      "name": "publicIsValidSignature",
      "outputs": [
        {
          "name": "isValid",
          "type": "bool"
        }
      ],
      "payable": false,
      "stateMutability": "view",
      "type": "function"
    }
  ],
  "bytecode": "0x608060405260008060006101000a81548160ff02191690831515021790555034801561002a57600080fd5b5061250b8061003a6000396000f3006080604052600436106100af576000357c0100000000000000000000000000000000000000000000000000000000900463ffffffff1680633683ef8e146100b4578063642f2eaf1461011d57806377fcce68146101665780637b8e3514146101b55780638129fc1c1461023057806382c174d01461024757806393634702146102b0578063abba41cc1461035f578063bfc8bfce1461040e578063e306f7791461048b578063eea086ba146104be575b600080fd5b3480156100c057600080fd5b5061011b6004803603810190808035600019169060200190929190803573ffffffffffffffffffffffffffffffffffffffff169060200190929190803590602001908201803590602001919091929391929390505050610515565b005b34801561012957600080fd5b5061014c6004803603810190808035600019169060200190929190505050610673565b604051808215151515815260200191505060405180910390f35b34801561017257600080fd5b506101b3600480360381019080803573ffffffffffffffffffffffffffffffffffffffff169060200190929190803515159060200190929190505050610693565b005b3480156101c157600080fd5b50610216600480360381019080803573ffffffffffffffffffffffffffffffffffffffff169060200190929190803573ffffffffffffffffffffffffffffffffffffffff169060200190929190505050610859565b604051808215151515815260200191505060405180910390f35b34801561023c57600080fd5b50610245610888565b005b34801561025357600080fd5b506102966004803603810190808035600019169060200190929190803573ffffffffffffffffffffffffffffffffffffffff169060200190929190505050610d0b565b604051808215151515815260200191505060405180910390f35b3480156102bc57600080fd5b506103456004803603810190808035600019169060200190929190803573ffffffffffffffffffffffffffffffffffffffff169060200190929190803590602001908201803590602001908080601f0160208091040260200160405190810160405280939291908181526020018383808284378201915050505050509192919290505050610d3a565b604051808215151515815260200191505060405180910390f35b34801561036b57600080fd5b506103f46004803603810190808035600019169060200190929190803573ffffffffffffffffffffffffffffffffffffffff169060200190929190803590602001908201803590602001908080601f016020809104026020016040519081016040528093929190818152602001838380828437820191505050505050919291929050505061167e565b604051808215151515815260200191505060405180910390f35b34801561041a57600080fd5b5061048960048036038101908080359060200190929190803573ffffffffffffffffffffffffffffffffffffffff169060200190929190803590602001908201803590602001919091929391929390803590602001908201803590602001919091929391929390505050611697565b005b34801561049757600080fd5b506104a0611acf565b60405180826000191660001916815260200191505060405180910390f35b3480156104ca57600080fd5b506104d3611ad5565b604051808273ffffffffffffffffffffffffffffffffffffffff1673ffffffffffffffffffffffffffffffffffffffff16815260200191505060405180910390f35b3373ffffffffffffffffffffffffffffffffffffffff168373ffffffffffffffffffffffffffffffffffffffff161415156105fc57610587848484848080601f016020809104026020016040519081016040528093929190818152602001838380828437820191505050505050610d3a565b15156105fb576040517f08c379a00000000000000000000000000000000000000000000000000000000081526004018080602001828103825260118152602001807f494e56414c49445f5349474e415455524500000000000000000000000000000081525060200191505060405180910390fd5b5b600160346000866000191660001916815260200190815260200160002060008573ffffffffffffffffffffffffffffffffffffffff1673ffffffffffffffffffffffffffffffffffffffff16815260200190815260200160002060006101000a81548160ff02191690831515021790555050505050565b60366020528060005260406000206000915054906101000a900460ff1681565b60008060009054906101000a900460ff16151515610719576040517f08c379a00000000000000000000000000000000000000000000000000000000081526004018080602001828103825260128152602001807f5245454e5452414e43595f494c4c4547414c000000000000000000000000000081525060200191505060405180910390fd5b60016000806101000a81548160ff02191690831515021790555061073b611afb565b905081603560008373ffffffffffffffffffffffffffffffffffffffff1673ffffffffffffffffffffffffffffffffffffffff16815260200190815260200160002060008573ffffffffffffffffffffffffffffffffffffffff1673ffffffffffffffffffffffffffffffffffffffff16815260200190815260200160002060006101000a81548160ff0219169083151502179055508273ffffffffffffffffffffffffffffffffffffffff168173ffffffffffffffffffffffffffffffffffffffff167fa8656e308026eeabce8f0bc18048433252318ab80ac79da0b3d3d8697dfba89184604051808215151515815260200191505060405180910390a360008060006101000a81548160ff021916908315150217905550505050565b60356020528160005260406000206020528060005260406000206000915091509054906101000a900460ff1681565b60008060029054906101000a900460ff16806108a857506108a7611b6b565b5b806108c05750600060019054906101000a900460ff16155b151561095a576040517f08c379a000000000000000000000000000000000000000000000000000000000815260040180806020018281038252602e8152602001807f436f6e747261637420696e7374616e63652068617320616c726561647920626581526020017f656e20696e697469616c697a656400000000000000000000000000000000000081525060400191505060405180910390fd5b600060029054906101000a900460ff1690506001600060026101000a81548160ff0219169083151502179055506001600060016101000a81548160ff02191690831515021790555060405160200180807f454950373132446f6d61696e2800000000000000000000000000000000000000815250600d01807f737472696e67206e616d652c0000000000000000000000000000000000000000815250600c01807f737472696e672076657273696f6e2c0000000000000000000000000000000000815250600f01807f6164647265737320766572696679696e67436f6e747261637400000000000000815250601901807f290000000000000000000000000000000000000000000000000000000000000081525060010190506040516020818303038152906040526040518082805190602001908083835b602083101515610ab75780518252602082019150602081019050602083039250610a92565b6001836020036101000a03801982511681845116808217855250505050505090500191505060405180910390206040805190810160405280600b81526020017f30782050726f746f636f6c0000000000000000000000000000000000000000008152506040518082805190602001908083835b602083101515610b4f5780518252602082019150602081019050602083039250610b2a565b6001836020036101000a03801982511681845116808217855250505050505090500191505060405180910390206040805190810160405280600181526020017f32000000000000000000000000000000000000000000000000000000000000008152506040518082805190602001908083835b602083101515610be75780518252602082019150602081019050602083039250610bc2565b6001836020036101000a03801982511681845116808217855250505050505090500191505060405180910390203073ffffffffffffffffffffffffffffffffffffffff166001026040516020018085600019166000191681526020018460001916600019168152602001836000191660001916815260200182600019166000191681526020019450505050506040516020818303038152906040526040518082805190602001908083835b602083101515610cb75780518252602082019150602081019050602083039250610c92565b6001836020036101000a03801982511681845116808217855250505050505090500191505060405180910390206033816000191690555080600060026101000a81548160ff02191690831515021790555050565b60346020528160005260406000206020528060005260406000206000915091509054906101000a900460ff1681565b60008060008060008060008060008951111515610dbf576040517f08c379a000000000000000000000000000000000000000000000000000000000815260040180806020018281038252601e8152602001807f4c454e4754485f475245415445525f5448414e5f305f5245515549524544000081525060200191505060405180910390fd5b610dc889611b7c565b7f010000000000000000000000000000000000000000000000000000000000000090049650600780811115610df957fe5b60ff168760ff16101515610e75576040517f08c379a00000000000000000000000000000000000000000000000000000000081526004018080602001828103825260158152602001807f5349474e41545552455f554e535550504f52544544000000000000000000000081525060200191505060405180910390fd5b8660ff166007811115610e8457fe5b955060006007811115610e9357fe5b866007811115610e9f57fe5b1415610f13576040517f08c379a00000000000000000000000000000000000000000000000000000000081526004018080602001828103825260118152602001807f5349474e41545552455f494c4c4547414c00000000000000000000000000000081525060200191505060405180910390fd5b60016007811115610f2057fe5b866007811115610f2c57fe5b1415610fb75760008951141515610fab576040517f08c379a00000000000000000000000000000000000000000000000000000000081526004018080602001828103825260118152602001807f4c454e4754485f305f524551554952454400000000000000000000000000000081525060200191505060405180910390fd5b60009750879750611670565b60026007811115610fc457fe5b866007811115610fd057fe5b14156111b6576041895114151561104f576040517f08c379a00000000000000000000000000000000000000000000000000000000081526004018080602001828103825260128152602001807f4c454e4754485f36355f5245515549524544000000000000000000000000000081525060200191505060405180910390fd5b88600081518110151561105e57fe5b9060200101517f010000000000000000000000000000000000000000000000000000000000000090047f0100000000000000000000000000000000000000000000000000000000000000027f0100000000000000000000000000000000000000000000000000000000000000900494506110e260018a611c8c90919063ffffffff16565b93506110f860218a611c8c90919063ffffffff16565b925060018b868686604051600081526020016040526040518085600019166000191681526020018460ff1660ff1681526020018360001916600019168152602001826000191660001916815260200194505050505060206040516020810390808403906000865af1158015611171573d6000803e3d6000fd5b5050506020604051035191508173ffffffffffffffffffffffffffffffffffffffff168a73ffffffffffffffffffffffffffffffffffffffff16149750879750611670565b600360078111156111c357fe5b8660078111156111cf57fe5b1415611466576041895114151561124e576040517f08c379a00000000000000000000000000000000000000000000000000000000081526004018080602001828103825260128152602001807f4c454e4754485f36355f5245515549524544000000000000000000000000000081525060200191505060405180910390fd5b88600081518110151561125d57fe5b9060200101517f010000000000000000000000000000000000000000000000000000000000000090047f0100000000000000000000000000000000000000000000000000000000000000027f0100000000000000000000000000000000000000000000000000000000000000900494506112e160018a611c8c90919063ffffffff16565b93506112f760218a611c8c90919063ffffffff16565b925060018b60405160200180807f19457468657265756d205369676e6564204d6573736167653a0a333200000000815250601c0182600019166000191681526020019150506040516020818303038152906040526040518082805190602001908083835b602083101515611380578051825260208201915060208101905060208303925061135b565b6001836020036101000a0380198251168184511680821785525050505050509050019150506040518091039020868686604051600081526020016040526040518085600019166000191681526020018460ff1660ff1681526020018360001916600019168152602001826000191660001916815260200194505050505060206040516020810390808403906000865af1158015611421573d6000803e3d6000fd5b5050506020604051035191508173ffffffffffffffffffffffffffffffffffffffff168a73ffffffffffffffffffffffffffffffffffffffff16149750879750611670565b6004600781111561147357fe5b86600781111561147f57fe5b141561149a576114908b8b8b611d45565b9750879750611670565b600560078111156114a757fe5b8660078111156114b357fe5b1415611573576114c289611f12565b9050603560008b73ffffffffffffffffffffffffffffffffffffffff1673ffffffffffffffffffffffffffffffffffffffff16815260200190815260200160002060008273ffffffffffffffffffffffffffffffffffffffff1673ffffffffffffffffffffffffffffffffffffffff16815260200190815260200160002060009054906101000a900460ff16151561155d5760009750611670565b611569818c8c8c611fd5565b9750879750611670565b6006600781111561158057fe5b86600781111561158c57fe5b141561160257603460008c6000191660001916815260200190815260200160002060008b73ffffffffffffffffffffffffffffffffffffffff1673ffffffffffffffffffffffffffffffffffffffff16815260200190815260200160002060009054906101000a900460ff169750879750611670565b6040517f08c379a00000000000000000000000000000000000000000000000000000000081526004018080602001828103825260158152602001807f5349474e41545552455f554e535550504f52544544000000000000000000000081525060200191505060405180910390fd5b505050505050509392505050565b600061168b848484610d3a565b90508090509392505050565b60008073ffffffffffffffffffffffffffffffffffffffff16603760009054906101000a900473ffffffffffffffffffffffffffffffffffffffff1673ffffffffffffffffffffffffffffffffffffffff1614151561175e576040517f08c379a00000000000000000000000000000000000000000000000000000000081526004018080602001828103825260128152602001807f5245454e5452414e43595f494c4c4547414c000000000000000000000000000081525060200191505060405180910390fd5b6117a361179e888888888080601f0160208091040260200160405190810160405280939291908181526020018383808284378201915050505050506121d7565b6123c6565b905060366000826000191660001916815260200190815260200160002060009054906101000a900460ff16151515611843576040517f08c379a000000000000000000000000000000000000000000000000000000000815260040180806020018281038252600f8152602001807f494e56414c49445f54585f48415348000000000000000000000000000000000081525060200191505060405180910390fd5b3373ffffffffffffffffffffffffffffffffffffffff168673ffffffffffffffffffffffffffffffffffffffff1614151561196b576118b5818785858080601f016020809104026020016040519081016040528093929190818152602001838380828437820191505050505050610d3a565b1515611929576040517f08c379a00000000000000000000000000000000000000000000000000000000081526004018080602001828103825260148152602001807f494e56414c49445f54585f5349474e415455524500000000000000000000000081525060200191505060405180910390fd5b85603760006101000a81548173ffffffffffffffffffffffffffffffffffffffff021916908373ffffffffffffffffffffffffffffffffffffffff1602179055505b600160366000836000191660001916815260200190815260200160002060006101000a81548160ff0219169083151502179055503073ffffffffffffffffffffffffffffffffffffffff16858560405180838380828437820191505092505050600060405180830381855af49150501515611a4e576040517f08c379a00000000000000000000000000000000000000000000000000000000081526004018080602001828103825260108152602001807f4641494c45445f455845435554494f4e0000000000000000000000000000000081525060200191505060405180910390fd5b3373ffffffffffffffffffffffffffffffffffffffff168673ffffffffffffffffffffffffffffffffffffffff16141515611ac6576000603760006101000a81548173ffffffffffffffffffffffffffffffffffffffff021916908373ffffffffffffffffffffffffffffffffffffffff1602179055505b50505050505050565b60335481565b603760009054906101000a900473ffffffffffffffffffffffffffffffffffffffff1681565b6000806000603760009054906101000a900473ffffffffffffffffffffffffffffffffffffffff169150600073ffffffffffffffffffffffffffffffffffffffff168273ffffffffffffffffffffffffffffffffffffffff1614611b5f5781611b61565b335b9050809250505090565b600080303b90506000811491505090565b6000808251111515611c1c576040517f08c379a00000000000000000000000000000000000000000000000000000000081526004018080602001828103825260218152602001807f475245415445525f5448414e5f5a45524f5f4c454e4754485f5245515549524581526020017f440000000000000000000000000000000000000000000000000000000000000081525060400191505060405180910390fd5b816001835103815181101515611c2e57fe5b9060200101517f010000000000000000000000000000000000000000000000000000000000000090047f0100000000000000000000000000000000000000000000000000000000000000029050600182510380835250809050919050565b600060208201835110151515611d30576040517f08c379a00000000000000000000000000000000000000000000000000000000081526004018080602001828103825260268152602001807f475245415445525f4f525f455155414c5f544f5f33325f4c454e4754485f524581526020017f515549524544000000000000000000000000000000000000000000000000000081525060400191505060405180910390fd5b60208201915081830151905080905092915050565b600060608373ffffffffffffffffffffffffffffffffffffffff16631626ba7e90507c010000000000000000000000000000000000000000000000000000000002858460405160240180836000191660001916815260200180602001828103825283818151815260200191508051906020019080838360005b83811015611dd9578082015181840152602081019050611dbe565b50505050905090810190601f168015611e065780820380516001836020036101000a031916815260200191505b509350505050604051602081830303815290604052907bffffffffffffffffffffffffffffffffffffffffffffffffffffffff19166020820180517bffffffffffffffffffffffffffffffffffffffffffffffffffffffff8381831617835250505050905060208101602081835183885afa8060008114611e8e5760018114611eff57611f04565b7f08c379a0000000000000000000000000000000000000000000000000000000006000527c20000000000000000000000000000000000000000000000000000000006020527c0c57414c4c45545f4552524f5200000000000000000000000000000000604052600060605260646000fd5b825194505b505050819150509392505050565b60006014825110151515611fb4576040517f08c379a00000000000000000000000000000000000000000000000000000000081526004018080602001828103825260268152602001807f475245415445525f4f525f455155414c5f544f5f32305f4c454e4754485f524581526020017f515549524544000000000000000000000000000000000000000000000000000081525060400191505060405180910390fd5b611fc2826014845103612410565b9050601482510380835250809050919050565b600060608373ffffffffffffffffffffffffffffffffffffffff16639363470290507c0100000000000000000000000000000000000000000000000000000000028585856040516024018084600019166000191681526020018373ffffffffffffffffffffffffffffffffffffffff1673ffffffffffffffffffffffffffffffffffffffff16815260200180602001828103825283818151815260200191508051906020019080838360005b8381101561209c578082015181840152602081019050612081565b50505050905090810190601f1680156120c95780820380516001836020036101000a031916815260200191505b50945050505050604051602081830303815290604052907bffffffffffffffffffffffffffffffffffffffffffffffffffffffff19166020820180517bffffffffffffffffffffffffffffffffffffffffffffffffffffffff83818316178352505050509050602081016020818351838a5afa806000811461215257600181146121c3576121c8565b7f08c379a0000000000000000000000000000000000000000000000000000000006000527c20000000000000000000000000000000000000000000000000000000006020527c0f56414c494441544f525f4552524f5200000000000000000000000000604052600060605260646000fd5b825194505b50505081915050949350505050565b600080600060405160200180807f5a65726f45785472616e73616374696f6e280000000000000000000000000000815250601201807f75696e743235362073616c742c00000000000000000000000000000000000000815250600d01807f61646472657373207369676e6572416464726573732c00000000000000000000815250601601807f6279746573206461746100000000000000000000000000000000000000000000815250600a01807f290000000000000000000000000000000000000000000000000000000000000081525060010190506040516020818303038152906040526040518082805190602001908083835b6020831015156122f157805182526020820191506020810190506020830392506122cc565b6001836020036101000a03801982511681845116808217855250505050505090500191505060405180910390209150836040518082805190602001908083835b6020831015156123565780518252602082019150602081019050602083039250612331565b6001836020036101000a0380198251168184511680821785525050505050509050019150506040518091039020905060405182815286602082015273ffffffffffffffffffffffffffffffffffffffff861660408201528160608201526080812093505082925050509392505050565b60008060335490506040517f190100000000000000000000000000000000000000000000000000000000000081528160028201528360228201526042812092505081915050919050565b6000601482018351101515156124b4576040517f08c379a00000000000000000000000000000000000000000000000000000000081526004018080602001828103825260268152602001807f475245415445525f4f525f455155414c5f544f5f32305f4c454e4754485f524581526020017f515549524544000000000000000000000000000000000000000000000000000081525060400191505060405180910390fd5b60148201915073ffffffffffffffffffffffffffffffffffffffff82840151169050809050929150505600a165627a7a723058205e9ee8c9eac5dee0740bcc2da4dc2dc9c9845a96d882eb27ca331ae9f4f5d6760029",
  "source": "/*\n\n  Copyright 2018 ZeroEx Intl.\n\n  Licensed under the Apache License, Version 2.0 (the \"License\");\n  you may not use this file except in compliance with the License.\n  You may obtain a copy of the License at\n\n    http://www.apache.org/licenses/LICENSE-2.0\n\n  Unless required by applicable law or agreed to in writing, software\n  distributed under the License is distributed on an \"AS IS\" BASIS,\n  WITHOUT WARRANTIES OR CONDITIONS OF ANY KIND, either express or implied.\n  See the License for the specific language governing permissions and\n  limitations under the License.\n\n*/\n\npragma solidity 0.4.24;\n\nimport \"../../protocol/Exchange/MixinSignatureValidator.sol\";\nimport \"../../protocol/Exchange/MixinTransactions.sol\";\n\n\ncontract TestSignatureValidator is\n    MixinSignatureValidator,\n    MixinTransactions\n{\n    function publicIsValidSignature(\n        bytes32 hash,\n        address signer,\n        bytes memory signature\n    )\n        public\n        view\n        returns (bool isValid)\n    {\n        isValid = isValidSignature(\n            hash,\n            signer,\n            signature\n        );\n        return isValid;\n    }\n}\n",
  "sourcePath": "/Users/facu/Documents/Laburo/Spiking/Ethereum/0x/0x-monorepo/packages/contracts/contracts/2.0.0/test/TestSignatureValidator/TestSignatureValidator.sol",
  "compiler": {
    "name": "solc",
    "version": "0.4.24+commit.e67f0147.Emscripten.clang"
  },
  "schemaVersion": "2.0.1",
  "updatedAt": "2018-10-16T20:38:35.395Z"
}