{
  "contractName": "TestExchangeInternals",
  "abi": [
    {
      "constant": true,
      "inputs": [
        {
          "name": "",
          "type": "bytes32"
        }
      ],
      "name": "filled",
      "outputs": [
        {
          "name": "",
          "type": "uint256"
        }
      ],
      "payable": false,
      "stateMutability": "view",
      "type": "function"
    },
    {
      "constant": false,
      "inputs": [
        {
          "components": [
            {
              "name": "makerAddress",
              "type": "address"
            },
            {
              "name": "takerAddress",
              "type": "address"
            },
            {
              "name": "feeRecipientAddress",
              "type": "address"
            },
            {
              "name": "senderAddress",
              "type": "address"
            },
            {
              "name": "makerAssetAmount",
              "type": "uint256"
            },
            {
              "name": "takerAssetAmount",
              "type": "uint256"
            },
            {
              "name": "makerFee",
              "type": "uint256"
            },
            {
              "name": "takerFee",
              "type": "uint256"
            },
            {
              "name": "expirationTimeSeconds",
              "type": "uint256"
            },
            {
              "name": "salt",
              "type": "uint256"
            },
            {
              "name": "makerAssetData",
              "type": "bytes"
            },
            {
              "name": "takerAssetData",
              "type": "bytes"
            }
          ],
          "name": "orders",
          "type": "tuple[]"
        },
        {
          "name": "takerAssetFillAmounts",
          "type": "uint256[]"
        },
        {
          "name": "signatures",
          "type": "bytes[]"
        }
      ],
      "name": "batchFillOrders",
      "outputs": [
        {
          "components": [
            {
              "name": "makerAssetFilledAmount",
              "type": "uint256"
            },
            {
              "name": "takerAssetFilledAmount",
              "type": "uint256"
            },
            {
              "name": "makerFeePaid",
              "type": "uint256"
            },
            {
              "name": "takerFeePaid",
              "type": "uint256"
            }
          ],
          "name": "totalFillResults",
          "type": "tuple"
        }
      ],
      "payable": false,
      "stateMutability": "nonpayable",
      "type": "function"
    },
    {
      "constant": true,
      "inputs": [
        {
          "name": "",
          "type": "bytes32"
        }
      ],
      "name": "cancelled",
      "outputs": [
        {
          "name": "",
          "type": "bool"
        }
      ],
      "payable": false,
      "stateMutability": "view",
      "type": "function"
    },
    {
      "constant": false,
      "inputs": [
        {
          "name": "hash",
          "type": "bytes32"
        },
        {
          "name": "signerAddress",
          "type": "address"
        },
        {
          "name": "signature",
          "type": "bytes"
        }
      ],
      "name": "preSign",
      "outputs": [],
      "payable": false,
      "stateMutability": "nonpayable",
      "type": "function"
    },
    {
      "constant": false,
      "inputs": [
        {
          "components": [
            {
              "name": "makerAddress",
              "type": "address"
            },
            {
              "name": "takerAddress",
              "type": "address"
            },
            {
              "name": "feeRecipientAddress",
              "type": "address"
            },
            {
              "name": "senderAddress",
              "type": "address"
            },
            {
              "name": "makerAssetAmount",
              "type": "uint256"
            },
            {
              "name": "takerAssetAmount",
              "type": "uint256"
            },
            {
              "name": "makerFee",
              "type": "uint256"
            },
            {
              "name": "takerFee",
              "type": "uint256"
            },
            {
              "name": "expirationTimeSeconds",
              "type": "uint256"
            },
            {
              "name": "salt",
              "type": "uint256"
            },
            {
              "name": "makerAssetData",
              "type": "bytes"
            },
            {
              "name": "takerAssetData",
              "type": "bytes"
            }
          ],
          "name": "leftOrder",
          "type": "tuple"
        },
        {
          "components": [
            {
              "name": "makerAddress",
              "type": "address"
            },
            {
              "name": "takerAddress",
              "type": "address"
            },
            {
              "name": "feeRecipientAddress",
              "type": "address"
            },
            {
              "name": "senderAddress",
              "type": "address"
            },
            {
              "name": "makerAssetAmount",
              "type": "uint256"
            },
            {
              "name": "takerAssetAmount",
              "type": "uint256"
            },
            {
              "name": "makerFee",
              "type": "uint256"
            },
            {
              "name": "takerFee",
              "type": "uint256"
            },
            {
              "name": "expirationTimeSeconds",
              "type": "uint256"
            },
            {
              "name": "salt",
              "type": "uint256"
            },
            {
              "name": "makerAssetData",
              "type": "bytes"
            },
            {
              "name": "takerAssetData",
              "type": "bytes"
            }
          ],
          "name": "rightOrder",
          "type": "tuple"
        },
        {
          "name": "leftSignature",
          "type": "bytes"
        },
        {
          "name": "rightSignature",
          "type": "bytes"
        }
      ],
      "name": "matchOrders",
      "outputs": [
        {
          "components": [
            {
              "components": [
                {
                  "name": "makerAssetFilledAmount",
                  "type": "uint256"
                },
                {
                  "name": "takerAssetFilledAmount",
                  "type": "uint256"
                },
                {
                  "name": "makerFeePaid",
                  "type": "uint256"
                },
                {
                  "name": "takerFeePaid",
                  "type": "uint256"
                }
              ],
              "name": "left",
              "type": "tuple"
            },
            {
              "components": [
                {
                  "name": "makerAssetFilledAmount",
                  "type": "uint256"
                },
                {
                  "name": "takerAssetFilledAmount",
                  "type": "uint256"
                },
                {
                  "name": "makerFeePaid",
                  "type": "uint256"
                },
                {
                  "name": "takerFeePaid",
                  "type": "uint256"
                }
              ],
              "name": "right",
              "type": "tuple"
            },
            {
              "name": "leftMakerAssetSpreadAmount",
              "type": "uint256"
            }
          ],
          "name": "matchedFillResults",
          "type": "tuple"
        }
      ],
      "payable": false,
      "stateMutability": "nonpayable",
      "type": "function"
    },
    {
      "constant": false,
      "inputs": [
        {
          "components": [
            {
              "name": "makerAddress",
              "type": "address"
            },
            {
              "name": "takerAddress",
              "type": "address"
            },
            {
              "name": "feeRecipientAddress",
              "type": "address"
            },
            {
              "name": "senderAddress",
              "type": "address"
            },
            {
              "name": "makerAssetAmount",
              "type": "uint256"
            },
            {
              "name": "takerAssetAmount",
              "type": "uint256"
            },
            {
              "name": "makerFee",
              "type": "uint256"
            },
            {
              "name": "takerFee",
              "type": "uint256"
            },
            {
              "name": "expirationTimeSeconds",
              "type": "uint256"
            },
            {
              "name": "salt",
              "type": "uint256"
            },
            {
              "name": "makerAssetData",
              "type": "bytes"
            },
            {
              "name": "takerAssetData",
              "type": "bytes"
            }
          ],
          "name": "order",
          "type": "tuple"
        },
        {
          "name": "takerAssetFillAmount",
          "type": "uint256"
        },
        {
          "name": "signature",
          "type": "bytes"
        }
      ],
      "name": "fillOrderNoThrow",
      "outputs": [
        {
          "components": [
            {
              "name": "makerAssetFilledAmount",
              "type": "uint256"
            },
            {
              "name": "takerAssetFilledAmount",
              "type": "uint256"
            },
            {
              "name": "makerFeePaid",
              "type": "uint256"
            },
            {
              "name": "takerFeePaid",
              "type": "uint256"
            }
          ],
          "name": "fillResults",
          "type": "tuple"
        }
      ],
      "payable": false,
      "stateMutability": "nonpayable",
      "type": "function"
    },
    {
      "constant": true,
      "inputs": [
        {
          "name": "",
          "type": "bytes4"
        }
      ],
      "name": "assetProxies",
      "outputs": [
        {
          "name": "",
          "type": "address"
        }
      ],
      "payable": false,
      "stateMutability": "view",
      "type": "function"
    },
    {
      "constant": false,
      "inputs": [
        {
          "components": [
            {
              "name": "makerAddress",
              "type": "address"
            },
            {
              "name": "takerAddress",
              "type": "address"
            },
            {
              "name": "feeRecipientAddress",
              "type": "address"
            },
            {
              "name": "senderAddress",
              "type": "address"
            },
            {
              "name": "makerAssetAmount",
              "type": "uint256"
            },
            {
              "name": "takerAssetAmount",
              "type": "uint256"
            },
            {
              "name": "makerFee",
              "type": "uint256"
            },
            {
              "name": "takerFee",
              "type": "uint256"
            },
            {
              "name": "expirationTimeSeconds",
              "type": "uint256"
            },
            {
              "name": "salt",
              "type": "uint256"
            },
            {
              "name": "makerAssetData",
              "type": "bytes"
            },
            {
              "name": "takerAssetData",
              "type": "bytes"
            }
          ],
          "name": "orders",
          "type": "tuple[]"
        }
      ],
      "name": "batchCancelOrders",
      "outputs": [],
      "payable": false,
      "stateMutability": "nonpayable",
      "type": "function"
    },
    {
      "constant": false,
      "inputs": [
        {
          "components": [
            {
              "name": "makerAddress",
              "type": "address"
            },
            {
              "name": "takerAddress",
              "type": "address"
            },
            {
              "name": "feeRecipientAddress",
              "type": "address"
            },
            {
              "name": "senderAddress",
              "type": "address"
            },
            {
              "name": "makerAssetAmount",
              "type": "uint256"
            },
            {
              "name": "takerAssetAmount",
              "type": "uint256"
            },
            {
              "name": "makerFee",
              "type": "uint256"
            },
            {
              "name": "takerFee",
              "type": "uint256"
            },
            {
              "name": "expirationTimeSeconds",
              "type": "uint256"
            },
            {
              "name": "salt",
              "type": "uint256"
            },
            {
              "name": "makerAssetData",
              "type": "bytes"
            },
            {
              "name": "takerAssetData",
              "type": "bytes"
            }
          ],
          "name": "orders",
          "type": "tuple[]"
        },
        {
          "name": "takerAssetFillAmounts",
          "type": "uint256[]"
        },
        {
          "name": "signatures",
          "type": "bytes[]"
        }
      ],
      "name": "batchFillOrKillOrders",
      "outputs": [
        {
          "components": [
            {
              "name": "makerAssetFilledAmount",
              "type": "uint256"
            },
            {
              "name": "takerAssetFilledAmount",
              "type": "uint256"
            },
            {
              "name": "makerFeePaid",
              "type": "uint256"
            },
            {
              "name": "takerFeePaid",
              "type": "uint256"
            }
          ],
          "name": "totalFillResults",
          "type": "tuple"
        }
      ],
      "payable": false,
      "stateMutability": "nonpayable",
      "type": "function"
    },
    {
      "constant": false,
      "inputs": [
        {
          "name": "targetOrderEpoch",
          "type": "uint256"
        }
      ],
      "name": "cancelOrdersUpTo",
      "outputs": [],
      "payable": false,
      "stateMutability": "nonpayable",
      "type": "function"
    },
    {
      "constant": false,
      "inputs": [
        {
          "components": [
            {
              "name": "makerAddress",
              "type": "address"
            },
            {
              "name": "takerAddress",
              "type": "address"
            },
            {
              "name": "feeRecipientAddress",
              "type": "address"
            },
            {
              "name": "senderAddress",
              "type": "address"
            },
            {
              "name": "makerAssetAmount",
              "type": "uint256"
            },
            {
              "name": "takerAssetAmount",
              "type": "uint256"
            },
            {
              "name": "makerFee",
              "type": "uint256"
            },
            {
              "name": "takerFee",
              "type": "uint256"
            },
            {
              "name": "expirationTimeSeconds",
              "type": "uint256"
            },
            {
              "name": "salt",
              "type": "uint256"
            },
            {
              "name": "makerAssetData",
              "type": "bytes"
            },
            {
              "name": "takerAssetData",
              "type": "bytes"
            }
          ],
          "name": "orders",
          "type": "tuple[]"
        },
        {
          "name": "takerAssetFillAmounts",
          "type": "uint256[]"
        },
        {
          "name": "signatures",
          "type": "bytes[]"
        }
      ],
      "name": "batchFillOrdersNoThrow",
      "outputs": [
        {
          "components": [
            {
              "name": "makerAssetFilledAmount",
              "type": "uint256"
            },
            {
              "name": "takerAssetFilledAmount",
              "type": "uint256"
            },
            {
              "name": "makerFeePaid",
              "type": "uint256"
            },
            {
              "name": "takerFeePaid",
              "type": "uint256"
            }
          ],
          "name": "totalFillResults",
          "type": "tuple"
        }
      ],
      "payable": false,
      "stateMutability": "nonpayable",
      "type": "function"
    },
    {
      "constant": true,
      "inputs": [
        {
          "name": "assetProxyId",
          "type": "bytes4"
        }
      ],
      "name": "getAssetProxy",
      "outputs": [
        {
          "name": "",
          "type": "address"
        }
      ],
      "payable": false,
      "stateMutability": "view",
      "type": "function"
    },
    {
      "constant": true,
      "inputs": [
        {
          "name": "",
          "type": "bytes32"
        }
      ],
      "name": "transactions",
      "outputs": [
        {
          "name": "",
          "type": "bool"
        }
      ],
      "payable": false,
      "stateMutability": "view",
      "type": "function"
    },
    {
      "constant": false,
      "inputs": [
        {
          "components": [
            {
              "name": "makerAddress",
              "type": "address"
            },
            {
              "name": "takerAddress",
              "type": "address"
            },
            {
              "name": "feeRecipientAddress",
              "type": "address"
            },
            {
              "name": "senderAddress",
              "type": "address"
            },
            {
              "name": "makerAssetAmount",
              "type": "uint256"
            },
            {
              "name": "takerAssetAmount",
              "type": "uint256"
            },
            {
              "name": "makerFee",
              "type": "uint256"
            },
            {
              "name": "takerFee",
              "type": "uint256"
            },
            {
              "name": "expirationTimeSeconds",
              "type": "uint256"
            },
            {
              "name": "salt",
              "type": "uint256"
            },
            {
              "name": "makerAssetData",
              "type": "bytes"
            },
            {
              "name": "takerAssetData",
              "type": "bytes"
            }
          ],
          "name": "order",
          "type": "tuple"
        },
        {
          "name": "takerAssetFillAmount",
          "type": "uint256"
        },
        {
          "name": "signature",
          "type": "bytes"
        }
      ],
      "name": "fillOrKillOrder",
      "outputs": [
        {
          "components": [
            {
              "name": "makerAssetFilledAmount",
              "type": "uint256"
            },
            {
              "name": "takerAssetFilledAmount",
              "type": "uint256"
            },
            {
              "name": "makerFeePaid",
              "type": "uint256"
            },
            {
              "name": "takerFeePaid",
              "type": "uint256"
            }
          ],
          "name": "fillResults",
          "type": "tuple"
        }
      ],
      "payable": false,
      "stateMutability": "nonpayable",
      "type": "function"
    },
    {
      "constant": false,
      "inputs": [
        {
          "name": "validatorAddress",
          "type": "address"
        },
        {
          "name": "approval",
          "type": "bool"
        }
      ],
      "name": "setSignatureValidatorApproval",
      "outputs": [],
      "payable": false,
      "stateMutability": "nonpayable",
      "type": "function"
    },
    {
      "constant": true,
      "inputs": [
        {
          "name": "",
          "type": "address"
        },
        {
          "name": "",
          "type": "address"
        }
      ],
      "name": "allowedValidators",
      "outputs": [
        {
          "name": "",
          "type": "bool"
        }
      ],
      "payable": false,
      "stateMutability": "view",
      "type": "function"
    },
    {
      "constant": false,
      "inputs": [
        {
          "components": [
            {
              "name": "makerAddress",
              "type": "address"
            },
            {
              "name": "takerAddress",
              "type": "address"
            },
            {
              "name": "feeRecipientAddress",
              "type": "address"
            },
            {
              "name": "senderAddress",
              "type": "address"
            },
            {
              "name": "makerAssetAmount",
              "type": "uint256"
            },
            {
              "name": "takerAssetAmount",
              "type": "uint256"
            },
            {
              "name": "makerFee",
              "type": "uint256"
            },
            {
              "name": "takerFee",
              "type": "uint256"
            },
            {
              "name": "expirationTimeSeconds",
              "type": "uint256"
            },
            {
              "name": "salt",
              "type": "uint256"
            },
            {
              "name": "makerAssetData",
              "type": "bytes"
            },
            {
              "name": "takerAssetData",
              "type": "bytes"
            }
          ],
          "name": "orders",
          "type": "tuple[]"
        },
        {
          "name": "takerAssetFillAmount",
          "type": "uint256"
        },
        {
          "name": "signatures",
          "type": "bytes[]"
        }
      ],
      "name": "marketSellOrders",
      "outputs": [
        {
          "components": [
            {
              "name": "makerAssetFilledAmount",
              "type": "uint256"
            },
            {
              "name": "takerAssetFilledAmount",
              "type": "uint256"
            },
            {
              "name": "makerFeePaid",
              "type": "uint256"
            },
            {
              "name": "takerFeePaid",
              "type": "uint256"
            }
          ],
          "name": "totalFillResults",
          "type": "tuple"
        }
      ],
      "payable": false,
      "stateMutability": "nonpayable",
      "type": "function"
    },
    {
      "constant": true,
      "inputs": [
        {
          "components": [
            {
              "name": "makerAddress",
              "type": "address"
            },
            {
              "name": "takerAddress",
              "type": "address"
            },
            {
              "name": "feeRecipientAddress",
              "type": "address"
            },
            {
              "name": "senderAddress",
              "type": "address"
            },
            {
              "name": "makerAssetAmount",
              "type": "uint256"
            },
            {
              "name": "takerAssetAmount",
              "type": "uint256"
            },
            {
              "name": "makerFee",
              "type": "uint256"
            },
            {
              "name": "takerFee",
              "type": "uint256"
            },
            {
              "name": "expirationTimeSeconds",
              "type": "uint256"
            },
            {
              "name": "salt",
              "type": "uint256"
            },
            {
              "name": "makerAssetData",
              "type": "bytes"
            },
            {
              "name": "takerAssetData",
              "type": "bytes"
            }
          ],
          "name": "orders",
          "type": "tuple[]"
        }
      ],
      "name": "getOrdersInfo",
      "outputs": [
        {
          "components": [
            {
              "name": "orderStatus",
              "type": "uint8"
            },
            {
              "name": "orderHash",
              "type": "bytes32"
            },
            {
              "name": "orderTakerAssetFilledAmount",
              "type": "uint256"
            }
          ],
          "name": "",
          "type": "tuple[]"
        }
      ],
      "payable": false,
      "stateMutability": "view",
      "type": "function"
    },
    {
      "constant": false,
      "inputs": [],
      "name": "initialize",
      "outputs": [],
      "payable": false,
      "stateMutability": "nonpayable",
      "type": "function"
    },
    {
      "constant": true,
      "inputs": [
        {
          "name": "",
          "type": "bytes32"
        },
        {
          "name": "",
          "type": "address"
        }
      ],
      "name": "preSigned",
      "outputs": [
        {
          "name": "",
          "type": "bool"
        }
      ],
      "payable": false,
      "stateMutability": "view",
      "type": "function"
    },
    {
      "constant": true,
      "inputs": [],
      "name": "owner",
      "outputs": [
        {
          "name": "",
          "type": "address"
        }
      ],
      "payable": false,
      "stateMutability": "view",
      "type": "function"
    },
    {
      "constant": true,
      "inputs": [
        {
          "name": "hash",
          "type": "bytes32"
        },
        {
          "name": "signerAddress",
          "type": "address"
        },
        {
          "name": "signature",
          "type": "bytes"
        }
      ],
      "name": "isValidSignature",
      "outputs": [
        {
          "name": "isValid",
          "type": "bool"
        }
      ],
      "payable": false,
      "stateMutability": "view",
      "type": "function"
    },
    {
      "constant": false,
      "inputs": [
        {
          "components": [
            {
              "name": "makerAddress",
              "type": "address"
            },
            {
              "name": "takerAddress",
              "type": "address"
            },
            {
              "name": "feeRecipientAddress",
              "type": "address"
            },
            {
              "name": "senderAddress",
              "type": "address"
            },
            {
              "name": "makerAssetAmount",
              "type": "uint256"
            },
            {
              "name": "takerAssetAmount",
              "type": "uint256"
            },
            {
              "name": "makerFee",
              "type": "uint256"
            },
            {
              "name": "takerFee",
              "type": "uint256"
            },
            {
              "name": "expirationTimeSeconds",
              "type": "uint256"
            },
            {
              "name": "salt",
              "type": "uint256"
            },
            {
              "name": "makerAssetData",
              "type": "bytes"
            },
            {
              "name": "takerAssetData",
              "type": "bytes"
            }
          ],
          "name": "orders",
          "type": "tuple[]"
        },
        {
          "name": "makerAssetFillAmount",
          "type": "uint256"
        },
        {
          "name": "signatures",
          "type": "bytes[]"
        }
      ],
      "name": "marketBuyOrdersNoThrow",
      "outputs": [
        {
          "components": [
            {
              "name": "makerAssetFilledAmount",
              "type": "uint256"
            },
            {
              "name": "takerAssetFilledAmount",
              "type": "uint256"
            },
            {
              "name": "makerFeePaid",
              "type": "uint256"
            },
            {
              "name": "takerFeePaid",
              "type": "uint256"
            }
          ],
          "name": "totalFillResults",
          "type": "tuple"
        }
      ],
      "payable": false,
      "stateMutability": "nonpayable",
      "type": "function"
    },
    {
      "constant": false,
      "inputs": [
        {
          "components": [
            {
              "name": "makerAddress",
              "type": "address"
            },
            {
              "name": "takerAddress",
              "type": "address"
            },
            {
              "name": "feeRecipientAddress",
              "type": "address"
            },
            {
              "name": "senderAddress",
              "type": "address"
            },
            {
              "name": "makerAssetAmount",
              "type": "uint256"
            },
            {
              "name": "takerAssetAmount",
              "type": "uint256"
            },
            {
              "name": "makerFee",
              "type": "uint256"
            },
            {
              "name": "takerFee",
              "type": "uint256"
            },
            {
              "name": "expirationTimeSeconds",
              "type": "uint256"
            },
            {
              "name": "salt",
              "type": "uint256"
            },
            {
              "name": "makerAssetData",
              "type": "bytes"
            },
            {
              "name": "takerAssetData",
              "type": "bytes"
            }
          ],
          "name": "order",
          "type": "tuple"
        },
        {
          "name": "takerAssetFillAmount",
          "type": "uint256"
        },
        {
          "name": "signature",
          "type": "bytes"
        }
      ],
      "name": "fillOrder",
      "outputs": [
        {
          "components": [
            {
              "name": "makerAssetFilledAmount",
              "type": "uint256"
            },
            {
              "name": "takerAssetFilledAmount",
              "type": "uint256"
            },
            {
              "name": "makerFeePaid",
              "type": "uint256"
            },
            {
              "name": "takerFeePaid",
              "type": "uint256"
            }
          ],
          "name": "fillResults",
          "type": "tuple"
        }
      ],
      "payable": false,
      "stateMutability": "nonpayable",
      "type": "function"
    },
    {
      "constant": false,
      "inputs": [
        {
          "name": "salt",
          "type": "uint256"
        },
        {
          "name": "signerAddress",
          "type": "address"
        },
        {
          "name": "data",
          "type": "bytes"
        },
        {
          "name": "signature",
          "type": "bytes"
        }
      ],
      "name": "executeTransaction",
      "outputs": [],
      "payable": false,
      "stateMutability": "nonpayable",
      "type": "function"
    },
    {
      "constant": false,
      "inputs": [
        {
          "name": "assetProxy",
          "type": "address"
        }
      ],
      "name": "registerAssetProxy",
      "outputs": [],
      "payable": false,
      "stateMutability": "nonpayable",
      "type": "function"
    },
    {
      "constant": true,
      "inputs": [
        {
          "components": [
            {
              "name": "makerAddress",
              "type": "address"
            },
            {
              "name": "takerAddress",
              "type": "address"
            },
            {
              "name": "feeRecipientAddress",
              "type": "address"
            },
            {
              "name": "senderAddress",
              "type": "address"
            },
            {
              "name": "makerAssetAmount",
              "type": "uint256"
            },
            {
              "name": "takerAssetAmount",
              "type": "uint256"
            },
            {
              "name": "makerFee",
              "type": "uint256"
            },
            {
              "name": "takerFee",
              "type": "uint256"
            },
            {
              "name": "expirationTimeSeconds",
              "type": "uint256"
            },
            {
              "name": "salt",
              "type": "uint256"
            },
            {
              "name": "makerAssetData",
              "type": "bytes"
            },
            {
              "name": "takerAssetData",
              "type": "bytes"
            }
          ],
          "name": "order",
          "type": "tuple"
        }
      ],
      "name": "getOrderInfo",
      "outputs": [
        {
          "components": [
            {
              "name": "orderStatus",
              "type": "uint8"
            },
            {
              "name": "orderHash",
              "type": "bytes32"
            },
            {
              "name": "orderTakerAssetFilledAmount",
              "type": "uint256"
            }
          ],
          "name": "orderInfo",
          "type": "tuple"
        }
      ],
      "payable": false,
      "stateMutability": "view",
      "type": "function"
    },
    {
      "constant": false,
      "inputs": [
        {
          "components": [
            {
              "name": "makerAddress",
              "type": "address"
            },
            {
              "name": "takerAddress",
              "type": "address"
            },
            {
              "name": "feeRecipientAddress",
              "type": "address"
            },
            {
              "name": "senderAddress",
              "type": "address"
            },
            {
              "name": "makerAssetAmount",
              "type": "uint256"
            },
            {
              "name": "takerAssetAmount",
              "type": "uint256"
            },
            {
              "name": "makerFee",
              "type": "uint256"
            },
            {
              "name": "takerFee",
              "type": "uint256"
            },
            {
              "name": "expirationTimeSeconds",
              "type": "uint256"
            },
            {
              "name": "salt",
              "type": "uint256"
            },
            {
              "name": "makerAssetData",
              "type": "bytes"
            },
            {
              "name": "takerAssetData",
              "type": "bytes"
            }
          ],
          "name": "order",
          "type": "tuple"
        }
      ],
      "name": "cancelOrder",
      "outputs": [],
      "payable": false,
      "stateMutability": "nonpayable",
      "type": "function"
    },
    {
      "constant": true,
      "inputs": [
        {
          "name": "",
          "type": "address"
        },
        {
          "name": "",
          "type": "address"
        }
      ],
      "name": "orderEpoch",
      "outputs": [
        {
          "name": "",
          "type": "uint256"
        }
      ],
      "payable": false,
      "stateMutability": "view",
      "type": "function"
    },
    {
      "constant": true,
      "inputs": [],
      "name": "ZRX_ASSET_DATA",
      "outputs": [
        {
          "name": "",
          "type": "bytes"
        }
      ],
      "payable": false,
      "stateMutability": "view",
      "type": "function"
    },
    {
      "constant": false,
      "inputs": [
        {
          "components": [
            {
              "name": "makerAddress",
              "type": "address"
            },
            {
              "name": "takerAddress",
              "type": "address"
            },
            {
              "name": "feeRecipientAddress",
              "type": "address"
            },
            {
              "name": "senderAddress",
              "type": "address"
            },
            {
              "name": "makerAssetAmount",
              "type": "uint256"
            },
            {
              "name": "takerAssetAmount",
              "type": "uint256"
            },
            {
              "name": "makerFee",
              "type": "uint256"
            },
            {
              "name": "takerFee",
              "type": "uint256"
            },
            {
              "name": "expirationTimeSeconds",
              "type": "uint256"
            },
            {
              "name": "salt",
              "type": "uint256"
            },
            {
              "name": "makerAssetData",
              "type": "bytes"
            },
            {
              "name": "takerAssetData",
              "type": "bytes"
            }
          ],
          "name": "orders",
          "type": "tuple[]"
        },
        {
          "name": "takerAssetFillAmount",
          "type": "uint256"
        },
        {
          "name": "signatures",
          "type": "bytes[]"
        }
      ],
      "name": "marketSellOrdersNoThrow",
      "outputs": [
        {
          "components": [
            {
              "name": "makerAssetFilledAmount",
              "type": "uint256"
            },
            {
              "name": "takerAssetFilledAmount",
              "type": "uint256"
            },
            {
              "name": "makerFeePaid",
              "type": "uint256"
            },
            {
              "name": "takerFeePaid",
              "type": "uint256"
            }
          ],
          "name": "totalFillResults",
          "type": "tuple"
        }
      ],
      "payable": false,
      "stateMutability": "nonpayable",
      "type": "function"
    },
    {
      "constant": true,
      "inputs": [],
      "name": "EIP712_DOMAIN_HASH",
      "outputs": [
        {
          "name": "",
          "type": "bytes32"
        }
      ],
      "payable": false,
      "stateMutability": "view",
      "type": "function"
    },
    {
      "constant": false,
      "inputs": [
        {
          "components": [
            {
              "name": "makerAddress",
              "type": "address"
            },
            {
              "name": "takerAddress",
              "type": "address"
            },
            {
              "name": "feeRecipientAddress",
              "type": "address"
            },
            {
              "name": "senderAddress",
              "type": "address"
            },
            {
              "name": "makerAssetAmount",
              "type": "uint256"
            },
            {
              "name": "takerAssetAmount",
              "type": "uint256"
            },
            {
              "name": "makerFee",
              "type": "uint256"
            },
            {
              "name": "takerFee",
              "type": "uint256"
            },
            {
              "name": "expirationTimeSeconds",
              "type": "uint256"
            },
            {
              "name": "salt",
              "type": "uint256"
            },
            {
              "name": "makerAssetData",
              "type": "bytes"
            },
            {
              "name": "takerAssetData",
              "type": "bytes"
            }
          ],
          "name": "orders",
          "type": "tuple[]"
        },
        {
          "name": "makerAssetFillAmount",
          "type": "uint256"
        },
        {
          "name": "signatures",
          "type": "bytes[]"
        }
      ],
      "name": "marketBuyOrders",
      "outputs": [
        {
          "components": [
            {
              "name": "makerAssetFilledAmount",
              "type": "uint256"
            },
            {
              "name": "takerAssetFilledAmount",
              "type": "uint256"
            },
            {
              "name": "makerFeePaid",
              "type": "uint256"
            },
            {
              "name": "takerFeePaid",
              "type": "uint256"
            }
          ],
          "name": "totalFillResults",
          "type": "tuple"
        }
      ],
      "payable": false,
      "stateMutability": "nonpayable",
      "type": "function"
    },
    {
      "constant": true,
      "inputs": [],
      "name": "currentContextAddress",
      "outputs": [
        {
          "name": "",
          "type": "address"
        }
      ],
      "payable": false,
      "stateMutability": "view",
      "type": "function"
    },
    {
      "constant": false,
      "inputs": [
        {
          "name": "newOwner",
          "type": "address"
        }
      ],
      "name": "transferOwnership",
      "outputs": [],
      "payable": false,
      "stateMutability": "nonpayable",
      "type": "function"
    },
    {
      "constant": true,
      "inputs": [],
      "name": "VERSION",
      "outputs": [
        {
          "name": "",
          "type": "string"
        }
      ],
      "payable": false,
      "stateMutability": "view",
      "type": "function"
    },
    {
      "inputs": [],
      "payable": false,
      "stateMutability": "nonpayable",
      "type": "constructor"
    },
    {
      "anonymous": false,
      "inputs": [
        {
          "indexed": true,
          "name": "signerAddress",
          "type": "address"
        },
        {
          "indexed": true,
          "name": "validatorAddress",
          "type": "address"
        },
        {
          "indexed": false,
          "name": "approved",
          "type": "bool"
        }
      ],
      "name": "SignatureValidatorApproval",
      "type": "event"
    },
    {
      "anonymous": false,
      "inputs": [
        {
          "indexed": true,
          "name": "makerAddress",
          "type": "address"
        },
        {
          "indexed": true,
          "name": "feeRecipientAddress",
          "type": "address"
        },
        {
          "indexed": false,
          "name": "takerAddress",
          "type": "address"
        },
        {
          "indexed": false,
          "name": "senderAddress",
          "type": "address"
        },
        {
          "indexed": false,
          "name": "makerAssetFilledAmount",
          "type": "uint256"
        },
        {
          "indexed": false,
          "name": "takerAssetFilledAmount",
          "type": "uint256"
        },
        {
          "indexed": false,
          "name": "makerFeePaid",
          "type": "uint256"
        },
        {
          "indexed": false,
          "name": "takerFeePaid",
          "type": "uint256"
        },
        {
          "indexed": true,
          "name": "orderHash",
          "type": "bytes32"
        },
        {
          "indexed": false,
          "name": "makerAssetData",
          "type": "bytes"
        },
        {
          "indexed": false,
          "name": "takerAssetData",
          "type": "bytes"
        }
      ],
      "name": "Fill",
      "type": "event"
    },
    {
      "anonymous": false,
      "inputs": [
        {
          "indexed": true,
          "name": "makerAddress",
          "type": "address"
        },
        {
          "indexed": true,
          "name": "feeRecipientAddress",
          "type": "address"
        },
        {
          "indexed": false,
          "name": "senderAddress",
          "type": "address"
        },
        {
          "indexed": true,
          "name": "orderHash",
          "type": "bytes32"
        },
        {
          "indexed": false,
          "name": "makerAssetData",
          "type": "bytes"
        },
        {
          "indexed": false,
          "name": "takerAssetData",
          "type": "bytes"
        }
      ],
      "name": "Cancel",
      "type": "event"
    },
    {
      "anonymous": false,
      "inputs": [
        {
          "indexed": true,
          "name": "makerAddress",
          "type": "address"
        },
        {
          "indexed": true,
          "name": "senderAddress",
          "type": "address"
        },
        {
          "indexed": false,
          "name": "orderEpoch",
          "type": "uint256"
        }
      ],
      "name": "CancelUpTo",
      "type": "event"
    },
    {
      "anonymous": false,
      "inputs": [
        {
          "indexed": false,
          "name": "id",
          "type": "bytes4"
        },
        {
          "indexed": false,
          "name": "assetProxy",
          "type": "address"
        }
      ],
      "name": "AssetProxyRegistered",
      "type": "event"
    },
    {
      "constant": true,
      "inputs": [
        {
          "components": [
            {
              "name": "makerAssetFilledAmount",
              "type": "uint256"
            },
            {
              "name": "takerAssetFilledAmount",
              "type": "uint256"
            },
            {
              "name": "makerFeePaid",
              "type": "uint256"
            },
            {
              "name": "takerFeePaid",
              "type": "uint256"
            }
          ],
          "name": "totalFillResults",
          "type": "tuple"
        },
        {
          "components": [
            {
              "name": "makerAssetFilledAmount",
              "type": "uint256"
            },
            {
              "name": "takerAssetFilledAmount",
              "type": "uint256"
            },
            {
              "name": "makerFeePaid",
              "type": "uint256"
            },
            {
              "name": "takerFeePaid",
              "type": "uint256"
            }
          ],
          "name": "singleFillResults",
          "type": "tuple"
        }
      ],
      "name": "publicAddFillResults",
      "outputs": [
        {
          "components": [
            {
              "name": "makerAssetFilledAmount",
              "type": "uint256"
            },
            {
              "name": "takerAssetFilledAmount",
              "type": "uint256"
            },
            {
              "name": "makerFeePaid",
              "type": "uint256"
            },
            {
              "name": "takerFeePaid",
              "type": "uint256"
            }
          ],
          "name": "",
          "type": "tuple"
        }
      ],
      "payable": false,
      "stateMutability": "pure",
      "type": "function"
    },
    {
      "constant": true,
      "inputs": [
        {
          "components": [
            {
              "name": "makerAddress",
              "type": "address"
            },
            {
              "name": "takerAddress",
              "type": "address"
            },
            {
              "name": "feeRecipientAddress",
              "type": "address"
            },
            {
              "name": "senderAddress",
              "type": "address"
            },
            {
              "name": "makerAssetAmount",
              "type": "uint256"
            },
            {
              "name": "takerAssetAmount",
              "type": "uint256"
            },
            {
              "name": "makerFee",
              "type": "uint256"
            },
            {
              "name": "takerFee",
              "type": "uint256"
            },
            {
              "name": "expirationTimeSeconds",
              "type": "uint256"
            },
            {
              "name": "salt",
              "type": "uint256"
            },
            {
              "name": "makerAssetData",
              "type": "bytes"
            },
            {
              "name": "takerAssetData",
              "type": "bytes"
            }
          ],
          "name": "order",
          "type": "tuple"
        },
        {
          "name": "takerAssetFilledAmount",
          "type": "uint256"
        }
      ],
      "name": "publicCalculateFillResults",
      "outputs": [
        {
          "components": [
            {
              "name": "makerAssetFilledAmount",
              "type": "uint256"
            },
            {
              "name": "takerAssetFilledAmount",
              "type": "uint256"
            },
            {
              "name": "makerFeePaid",
              "type": "uint256"
            },
            {
              "name": "takerFeePaid",
              "type": "uint256"
            }
          ],
          "name": "fillResults",
          "type": "tuple"
        }
      ],
      "payable": false,
      "stateMutability": "pure",
      "type": "function"
    },
    {
      "constant": true,
      "inputs": [
        {
          "name": "numerator",
          "type": "uint256"
        },
        {
          "name": "denominator",
          "type": "uint256"
        },
        {
          "name": "target",
          "type": "uint256"
        }
      ],
      "name": "publicSafeGetPartialAmountFloor",
      "outputs": [
        {
          "name": "partialAmount",
          "type": "uint256"
        }
      ],
      "payable": false,
      "stateMutability": "pure",
      "type": "function"
    },
    {
      "constant": true,
      "inputs": [
        {
          "name": "numerator",
          "type": "uint256"
        },
        {
          "name": "denominator",
          "type": "uint256"
        },
        {
          "name": "target",
          "type": "uint256"
        }
      ],
      "name": "publicSafeGetPartialAmountCeil",
      "outputs": [
        {
          "name": "partialAmount",
          "type": "uint256"
        }
      ],
      "payable": false,
      "stateMutability": "pure",
      "type": "function"
    },
    {
      "constant": true,
      "inputs": [
        {
          "name": "numerator",
          "type": "uint256"
        },
        {
          "name": "denominator",
          "type": "uint256"
        },
        {
          "name": "target",
          "type": "uint256"
        }
      ],
      "name": "publicGetPartialAmountFloor",
      "outputs": [
        {
          "name": "partialAmount",
          "type": "uint256"
        }
      ],
      "payable": false,
      "stateMutability": "pure",
      "type": "function"
    },
    {
      "constant": true,
      "inputs": [
        {
          "name": "numerator",
          "type": "uint256"
        },
        {
          "name": "denominator",
          "type": "uint256"
        },
        {
          "name": "target",
          "type": "uint256"
        }
      ],
      "name": "publicGetPartialAmountCeil",
      "outputs": [
        {
          "name": "partialAmount",
          "type": "uint256"
        }
      ],
      "payable": false,
      "stateMutability": "pure",
      "type": "function"
    },
    {
      "constant": true,
      "inputs": [
        {
          "name": "numerator",
          "type": "uint256"
        },
        {
          "name": "denominator",
          "type": "uint256"
        },
        {
          "name": "target",
          "type": "uint256"
        }
      ],
      "name": "publicIsRoundingErrorFloor",
      "outputs": [
        {
          "name": "isError",
          "type": "bool"
        }
      ],
      "payable": false,
      "stateMutability": "pure",
      "type": "function"
    },
    {
      "constant": true,
      "inputs": [
        {
          "name": "numerator",
          "type": "uint256"
        },
        {
          "name": "denominator",
          "type": "uint256"
        },
        {
          "name": "target",
          "type": "uint256"
        }
      ],
      "name": "publicIsRoundingErrorCeil",
      "outputs": [
        {
          "name": "isError",
          "type": "bool"
        }
      ],
      "payable": false,
      "stateMutability": "pure",
      "type": "function"
    },
    {
      "constant": false,
      "inputs": [
        {
          "components": [
            {
              "name": "makerAddress",
              "type": "address"
            },
            {
              "name": "takerAddress",
              "type": "address"
            },
            {
              "name": "feeRecipientAddress",
              "type": "address"
            },
            {
              "name": "senderAddress",
              "type": "address"
            },
            {
              "name": "makerAssetAmount",
              "type": "uint256"
            },
            {
              "name": "takerAssetAmount",
              "type": "uint256"
            },
            {
              "name": "makerFee",
              "type": "uint256"
            },
            {
              "name": "takerFee",
              "type": "uint256"
            },
            {
              "name": "expirationTimeSeconds",
              "type": "uint256"
            },
            {
              "name": "salt",
              "type": "uint256"
            },
            {
              "name": "makerAssetData",
              "type": "bytes"
            },
            {
              "name": "takerAssetData",
              "type": "bytes"
            }
          ],
          "name": "order",
          "type": "tuple"
        },
        {
          "name": "takerAddress",
          "type": "address"
        },
        {
          "name": "orderHash",
          "type": "bytes32"
        },
        {
          "name": "orderTakerAssetFilledAmount",
          "type": "uint256"
        },
        {
          "components": [
            {
              "name": "makerAssetFilledAmount",
              "type": "uint256"
            },
            {
              "name": "takerAssetFilledAmount",
              "type": "uint256"
            },
            {
              "name": "makerFeePaid",
              "type": "uint256"
            },
            {
              "name": "takerFeePaid",
              "type": "uint256"
            }
          ],
          "name": "fillResults",
          "type": "tuple"
        }
      ],
      "name": "publicUpdateFilledState",
      "outputs": [],
      "payable": false,
      "stateMutability": "nonpayable",
      "type": "function"
    }
  ],
  "bytecode": "0x608060405260008060006101000a81548160ff0219169083151502179055503480156200002b57600080fd5b50602060405190810160405280600081525080806001908051906020019062000056929190620000a0565b505033603660006101000a81548173ffffffffffffffffffffffffffffffffffffffff021916908373ffffffffffffffffffffffffffffffffffffffff160217905550506200014f565b828054600181600116156101000203166002900490600052602060002090601f016020900481019282601f10620000e357805160ff191683800117855562000114565b8280016001018555821562000114579182015b8281111562000113578251825591602001919060010190620000f6565b5b50905062000123919062000127565b5090565b6200014c91905b80821115620001485760008160009055506001016200012e565b5090565b90565b617c3f806200015f6000396000f300608060405260043610610225576000357c0100000000000000000000000000000000000000000000000000000000900463ffffffff1680631be239011461022a5780631ea1e3d81461026757806320777f7014610290578063288cdc91146102cd578063297bb70b1461030a5780632ac12622146103475780633683ef8e146103845780633c28d861146103ad5780633e228bae146103ea5780633fd3c997146104275780634ac14782146104645780634d0ae5461461048d5780634f9559b1146104ca57806350dde190146104f35780636070410814610530578063642f2eaf1461056d57806364a3bc15146105aa57806366758d7b146105e7578063679d2f9a1461062457806377fcce68146106615780637b8e35141461068a5780637e1d9808146106c75780637e9d74dc146107045780638129fc1c1461074157806382c174d0146107585780638da5cb5b1461079557806393634702146107c0578063a3e20380146107fd578063b4be83d51461083a578063be7ada1e14610877578063bfc8bfce146108b4578063c585bb93146108dd578063c75e0a8114610906578063d46b02c314610943578063d9bfa73e1461096c578063db123b1a146109a9578063dd1c7d18146109d4578063de30200d14610a11578063e0acd33d14610a4e578063e0b701e314610a8b578063e306f77914610ac8578063e5fa431b14610af3578063eea086ba14610b30578063f2fde38b14610b5b578063ffa1ad7414610b84575b600080fd5b34801561023657600080fd5b50610251600480360361024c919081019061673f565b610baf565b60405161025e919061735a565b60405180910390f35b34801561027357600080fd5b5061028e60048036036102899190810190616455565b610bc5565b005b34801561029c57600080fd5b506102b760048036036102b2919081019061673f565b610bd9565b6040516102c4919061795d565b60405180910390f35b3480156102d957600080fd5b506102f460048036036102ef919081019061624d565b610bef565b604051610301919061795d565b60405180910390f35b34801561031657600080fd5b50610331600480360361032c9190810190616137565b610c07565b60405161033e919061790b565b60405180910390f35b34801561035357600080fd5b5061036e6004803603610369919081019061624d565b610d27565b60405161037b919061735a565b60405180910390f35b34801561039057600080fd5b506103ab60048036036103a691908101906162b2565b610d47565b005b3480156103b957600080fd5b506103d460048036036103cf91908101906164e5565b610e72565b6040516103e19190617926565b60405180910390f35b3480156103f657600080fd5b50610411600480360361040c91908101906165fc565b61101d565b60405161041e919061790b565b60405180910390f35b34801561043357600080fd5b5061044e60048036036104499190810190616385565b611075565b60405161045b919061748e565b60405180910390f35b34801561047057600080fd5b5061048b600480360361048691908101906160f6565b6110a8565b005b34801561049957600080fd5b506104b460048036036104af9190810190616137565b611174565b6040516104c1919061790b565b60405180910390f35b3480156104d657600080fd5b506104f160048036036104ec919081019061667b565b611294565b005b3480156104ff57600080fd5b5061051a60048036036105159190810190616137565b61151d565b604051610527919061790b565b60405180910390f35b34801561053c57600080fd5b5061055760048036036105529190810190616385565b6115b8565b604051610564919061724c565b60405180910390f35b34801561057957600080fd5b50610594600480360361058f919081019061624d565b611633565b6040516105a1919061735a565b60405180910390f35b3480156105b657600080fd5b506105d160048036036105cc91908101906165fc565b611653565b6040516105de919061790b565b60405180910390f35b3480156105f357600080fd5b5061060e600480360361060991908101906163d7565b6116f7565b60405161061b919061790b565b60405180910390f35b34801561063057600080fd5b5061064b6004803603610646919081019061673f565b611712565b604051610658919061735a565b60405180910390f35b34801561066d57600080fd5b50610688600480360361068391908101906160ba565b611728565b005b34801561069657600080fd5b506106b160048036036106ac919081019061607e565b6118b7565b6040516106be919061735a565b60405180910390f35b3480156106d357600080fd5b506106ee60048036036106e991908101906161ce565b6118e6565b6040516106fb919061790b565b60405180910390f35b34801561071057600080fd5b5061072b600480360361072691908101906160f6565b611a58565b6040516107389190617338565b60405180910390f35b34801561074d57600080fd5b50610756611b02565b005b34801561076457600080fd5b5061077f600480360361077a9190810190616276565b611f2d565b60405161078c919061735a565b60405180910390f35b3480156107a157600080fd5b506107aa611f5c565b6040516107b7919061724c565b60405180910390f35b3480156107cc57600080fd5b506107e760048036036107e2919081019061631e565b611f82565b6040516107f4919061735a565b60405180910390f35b34801561080957600080fd5b50610824600480360361081f91908101906161ce565b612701565b604051610831919061790b565b60405180910390f35b34801561084657600080fd5b50610861600480360361085c91908101906165fc565b612833565b60405161086e919061790b565b60405180910390f35b34801561088357600080fd5b5061089e6004803603610899919081019061673f565b6128d7565b6040516108ab919061795d565b60405180910390f35b3480156108c057600080fd5b506108db60048036036108d691908101906166a4565b6128ed565b005b3480156108e957600080fd5b5061090460048036036108ff9190810190616055565b612c59565b005b34801561091257600080fd5b5061092d60048036036109289190810190616414565b612f45565b60405161093a9190617942565b60405180910390f35b34801561094f57600080fd5b5061096a60048036036109659190810190616414565b613197565b005b34801561097857600080fd5b50610993600480360361098e919081019061607e565b613228565b6040516109a0919061795d565b60405180910390f35b3480156109b557600080fd5b506109be61324d565b6040516109cb919061746c565b60405180910390f35b3480156109e057600080fd5b506109fb60048036036109f691908101906161ce565b6132eb565b604051610a08919061790b565b60405180910390f35b348015610a1d57600080fd5b50610a386004803603610a33919081019061673f565b6133d8565b604051610a45919061795d565b60405180910390f35b348015610a5a57600080fd5b50610a756004803603610a70919081019061673f565b6133ee565b604051610a82919061795d565b60405180910390f35b348015610a9757600080fd5b50610ab26004803603610aad91908101906165a8565b613404565b604051610abf919061790b565b60405180910390f35b348015610ad457600080fd5b50610add61341e565b604051610aea9190617375565b60405180910390f35b348015610aff57600080fd5b50610b1a6004803603610b1591908101906161ce565b613424565b604051610b27919061790b565b60405180910390f35b348015610b3c57600080fd5b50610b456135db565b604051610b52919061724c565b60405180910390f35b348015610b6757600080fd5b50610b826004803603610b7d9190810190616055565b613601565b005b348015610b9057600080fd5b50610b9961370e565b604051610ba691906174a9565b60405180910390f35b6000610bbc848484613747565b90509392505050565b610bd285858585856137e1565b5050505050565b6000610be68484846138af565b90509392505050565b60376020528060005260406000206000915090505481565b610c0f615993565b600080610c1a615993565b6000809054906101000a900460ff16151515610c6b576040517f08c379a0000000000000000000000000000000000000000000000000000000008152600401610c629061780b565b60405180910390fd5b60016000806101000a81548160ff02191690831515021790555086519250600091505b8282141515610d0057610ce78783815181101515610ca857fe5b906020019060200201518784815181101515610cc057fe5b906020019060200201518785815181101515610cd857fe5b90602001906020020151613927565b9050610cf384826139c8565b8180600101925050610c8e565b83935060008060006101000a81548160ff0219169083151502179055505050509392505050565b60386020528060005260406000206000915054906101000a900460ff1681565b3373ffffffffffffffffffffffffffffffffffffffff168373ffffffffffffffffffffffffffffffffffffffff16141515610dfb57610db9848484848080601f016020809104026020016040519081016040528093929190818152602001838380828437820191505050505050611f82565b1515610dfa576040517f08c379a0000000000000000000000000000000000000000000000000000000008152600401610df19061764b565b60405180910390fd5b5b6001603a6000866000191660001916815260200190815260200160002060008573ffffffffffffffffffffffffffffffffffffffff1673ffffffffffffffffffffffffffffffffffffffff16815260200190815260200160002060006101000a81548160ff02191690831515021790555050505050565b610e7a6159bc565b610e826159eb565b610e8a6159eb565b60008060009054906101000a900460ff16151515610edd576040517f08c379a0000000000000000000000000000000000000000000000000000000008152600401610ed49061780b565b60405180910390fd5b60016000806101000a81548160ff021916908315150217905550876101600151876101400181905250876101400151876101600181905250610f1e88612f45565b9250610f2987612f45565b9150610f33613a38565b9050610f4188848389613aa8565b610f4d87838388613aa8565b610f578888613cc8565b610f6b888885604001518560400151613d33565b9350610f928884866000015160200151876000015160200151886000015160000151613f20565b610fb78783866020015160200151876020015160200151886020015160000151613f20565b610fd088828560200151866040015188600001516137e1565b610fe987828460200151856040015188602001516137e1565b610ff588888387614067565b83935060008060006101000a81548160ff021916908315150217905550505050949350505050565b611025615993565b606061103285858561423b565b9050608081825160208401305af4801561106957815183526020820151602084015260408201516040840152606082015160608401525b50819150509392505050565b603e6020528060005260406000206000915054906101000a900473ffffffffffffffffffffffffffffffffffffffff1681565b6000806000809054906101000a900460ff161515156110fc576040517f08c379a00000000000000000000000000000000000000000000000000000000081526004016110f39061780b565b60405180910390fd5b60016000806101000a81548160ff02191690831515021790555082519150600090505b818114151561115557611148838281518110151561113957fe5b9060200190602002015161442a565b808060010191505061111f565b60008060006101000a81548160ff021916908315150217905550505050565b61117c615993565b600080611187615993565b6000809054906101000a900460ff161515156111d8576040517f08c379a00000000000000000000000000000000000000000000000000000000081526004016111cf9061780b565b60405180910390fd5b60016000806101000a81548160ff02191690831515021790555086519250600091505b828214151561126d57611254878381518110151561121557fe5b90602001906020020151878481518110151561122d57fe5b90602001906020020151878581518110151561124557fe5b90602001906020020151614459565b905061126084826139c8565b81806001019250506111fb565b83935060008060006101000a81548160ff0219169083151502179055505050509392505050565b6000806000806000809054906101000a900460ff161515156112eb576040517f08c379a00000000000000000000000000000000000000000000000000000000081526004016112e29061780b565b60405180910390fd5b60016000806101000a81548160ff02191690831515021790555061130d613a38565b93503373ffffffffffffffffffffffffffffffffffffffff168473ffffffffffffffffffffffffffffffffffffffff1614611348573361134b565b60005b9250600185019150603960008573ffffffffffffffffffffffffffffffffffffffff1673ffffffffffffffffffffffffffffffffffffffff16815260200190815260200160002060008473ffffffffffffffffffffffffffffffffffffffff1673ffffffffffffffffffffffffffffffffffffffff1681526020019081526020016000205490508082111515611416576040517f08c379a000000000000000000000000000000000000000000000000000000000815260040161140d9061778b565b60405180910390fd5b81603960008673ffffffffffffffffffffffffffffffffffffffff1673ffffffffffffffffffffffffffffffffffffffff16815260200190815260200160002060008573ffffffffffffffffffffffffffffffffffffffff1673ffffffffffffffffffffffffffffffffffffffff168152602001908152602001600020819055508273ffffffffffffffffffffffffffffffffffffffff168473ffffffffffffffffffffffffffffffffffffffff167f82af639571738f4ebd4268fb0363d8957ebe1bbb9e78dba5ebd69eed39b154f0846040516114f4919061795d565b60405180910390a360008060006101000a81548160ff0219169083151502179055505050505050565b611525615993565b600080611530615993565b86519250600091505b82821415156115ab57611592878381518110151561155357fe5b90602001906020020151878481518110151561156b57fe5b90602001906020020151878581518110151561158357fe5b9060200190602002015161101d565b905061159e84826139c8565b8180600101925050611539565b8393505050509392505050565b6000603e6000837bffffffffffffffffffffffffffffffffffffffffffffffffffffffff19167bffffffffffffffffffffffffffffffffffffffffffffffffffffffff1916815260200190815260200160002060009054906101000a900473ffffffffffffffffffffffffffffffffffffffff169050919050565b603c6020528060005260406000206000915054906101000a900460ff1681565b61165b615993565b6000809054906101000a900460ff161515156116ac576040517f08c379a00000000000000000000000000000000000000000000000000000000081526004016116a39061780b565b60405180910390fd5b60016000806101000a81548160ff0219169083151502179055506116d1848484614459565b905080905060008060006101000a81548160ff0219169083151502179055509392505050565b6116ff615993565b61170983836139c8565b82905092915050565b600061171f8484846144c0565b90509392505050565b60008060009054906101000a900460ff1615151561177b576040517f08c379a00000000000000000000000000000000000000000000000000000000081526004016117729061780b565b60405180910390fd5b60016000806101000a81548160ff02191690831515021790555061179d613a38565b905081603b60008373ffffffffffffffffffffffffffffffffffffffff1673ffffffffffffffffffffffffffffffffffffffff16815260200190815260200160002060008573ffffffffffffffffffffffffffffffffffffffff1673ffffffffffffffffffffffffffffffffffffffff16815260200190815260200160002060006101000a81548160ff0219169083151502179055508273ffffffffffffffffffffffffffffffffffffffff168173ffffffffffffffffffffffffffffffffffffffff167fa8656e308026eeabce8f0bc18048433252318ab80ac79da0b3d3d8697dfba89184604051611890919061735a565b60405180910390a360008060006101000a81548160ff021916908315150217905550505050565b603b6020528160005260406000206020528060005260406000206000915091509054906101000a900460ff1681565b6118ee615993565b606060008060006118fd615993565b6000809054906101000a900460ff1615151561194e576040517f08c379a00000000000000000000000000000000000000000000000000000000081526004016119459061780b565b60405180910390fd5b60016000806101000a81548160ff02191690831515021790555088600081518110151561197757fe5b906020019060200201516101600151945088519350600092505b8383141515611a2f578489848151811015156119a957fe5b9060200190602002015161016001819052506119c9888760200151614571565b9150611a0489848151811015156119dc57fe5b906020019060200201518389868151811015156119f557fe5b90602001906020020151613927565b9050611a1086826139c8565b878660200151101515611a2257611a2f565b8280600101935050611991565b85955060008060006101000a81548160ff02191690831515021790555050505050509392505050565b60606000606060008451925082604051908082528060200260200182016040528015611a9e57816020015b611a8b615a13565b815260200190600190039081611a835790505b509150600090505b8281141515611af757611acf8582815181101515611ac057fe5b90602001906020020151612f45565b8282815181101515611add57fe5b906020019060200201819052508080600101915050611aa6565b819350505050919050565b6000600260019054906101000a900460ff1680611b235750611b226145c3565b5b80611b3b5750600260009054906101000a900460ff16155b1515611b7c576040517f08c379a0000000000000000000000000000000000000000000000000000000008152600401611b739061774b565b60405180910390fd5b600260019054906101000a900460ff1690506001600260016101000a81548160ff0219169083151502179055506001600260006101000a81548160ff02191690831515021790555060405160200180807f454950373132446f6d61696e2800000000000000000000000000000000000000815250600d01807f737472696e67206e616d652c0000000000000000000000000000000000000000815250600c01807f737472696e672076657273696f6e2c0000000000000000000000000000000000815250600f01807f6164647265737320766572696679696e67436f6e747261637400000000000000815250601901807f290000000000000000000000000000000000000000000000000000000000000081525060010190506040516020818303038152906040526040518082805190602001908083835b602083101515611cd95780518252602082019150602081019050602083039250611cb4565b6001836020036101000a03801982511681845116808217855250505050505090500191505060405180910390206040805190810160405280600b81526020017f30782050726f746f636f6c0000000000000000000000000000000000000000008152506040518082805190602001908083835b602083101515611d715780518252602082019150602081019050602083039250611d4c565b6001836020036101000a03801982511681845116808217855250505050505090500191505060405180910390206040805190810160405280600181526020017f32000000000000000000000000000000000000000000000000000000000000008152506040518082805190602001908083835b602083101515611e095780518252602082019150602081019050602083039250611de4565b6001836020036101000a03801982511681845116808217855250505050505090500191505060405180910390203073ffffffffffffffffffffffffffffffffffffffff166001026040516020018085600019166000191681526020018460001916600019168152602001836000191660001916815260200182600019166000191681526020019450505050506040516020818303038152906040526040518082805190602001908083835b602083101515611ed95780518252602082019150602081019050602083039250611eb4565b6001836020036101000a03801982511681845116808217855250505050505090500191505060405180910390206035816000191690555080600260016101000a81548160ff02191690831515021790555050565b603a6020528160005260406000206020528060005260406000206000915091509054906101000a900460ff1681565b603660009054906101000a900473ffffffffffffffffffffffffffffffffffffffff1681565b60008060008060008060008060008951111515611fd4576040517f08c379a0000000000000000000000000000000000000000000000000000000008152600401611fcb9061776b565b60405180910390fd5b611fdd896145d4565b7f01000000000000000000000000000000000000000000000000000000000000009004965060078081111561200e57fe5b60ff168760ff16101515612057576040517f08c379a000000000000000000000000000000000000000000000000000000000815260040161204e9061758b565b60405180910390fd5b8660ff16600781111561206657fe5b95506000600781111561207557fe5b86600781111561208157fe5b14156120c2576040517f08c379a00000000000000000000000000000000000000000000000000000000081526004016120b99061772b565b60405180910390fd5b600160078111156120cf57fe5b8660078111156120db57fe5b14156121335760008951141515612127576040517f08c379a000000000000000000000000000000000000000000000000000000000815260040161211e906178eb565b60405180910390fd5b600097508797506126f3565b6002600781111561214057fe5b86600781111561214c57fe5b14156122cf5760418951141515612198576040517f08c379a000000000000000000000000000000000000000000000000000000000815260040161218f906174cb565b60405180910390fd5b8860008151811015156121a757fe5b9060200101517f010000000000000000000000000000000000000000000000000000000000000090047f0100000000000000000000000000000000000000000000000000000000000000027f01000000000000000000000000000000000000000000000000000000000000009004945061222b60018a61468b90919063ffffffff16565b935061224160218a61468b90919063ffffffff16565b925060018b8686866040516000815260200160405260405161226694939291906173fe565b60206040516020810390808403906000865af115801561228a573d6000803e3d6000fd5b5050506020604051035191508173ffffffffffffffffffffffffffffffffffffffff168a73ffffffffffffffffffffffffffffffffffffffff161497508797506126f3565b600360078111156122dc57fe5b8660078111156122e857fe5b141561251c5760418951141515612334576040517f08c379a000000000000000000000000000000000000000000000000000000000815260040161232b906174cb565b60405180910390fd5b88600081518110151561234357fe5b9060200101517f010000000000000000000000000000000000000000000000000000000000000090047f0100000000000000000000000000000000000000000000000000000000000000027f0100000000000000000000000000000000000000000000000000000000000000900494506123c760018a61468b90919063ffffffff16565b93506123dd60218a61468b90919063ffffffff16565b925060018b60405160200180807f19457468657265756d205369676e6564204d6573736167653a0a333200000000815250601c0182600019166000191681526020019150506040516020818303038152906040526040518082805190602001908083835b6020831015156124665780518252602082019150602081019050602083039250612441565b6001836020036101000a0380198251168184511680821785525050505050509050019150506040518091039020868686604051600081526020016040526040516124b394939291906173fe565b60206040516020810390808403906000865af11580156124d7573d6000803e3d6000fd5b5050506020604051035191508173ffffffffffffffffffffffffffffffffffffffff168a73ffffffffffffffffffffffffffffffffffffffff161497508797506126f3565b6004600781111561252957fe5b86600781111561253557fe5b1415612550576125468b8b8b6146eb565b97508797506126f3565b6005600781111561255d57fe5b86600781111561256957fe5b14156126295761257889614845565b9050603b60008b73ffffffffffffffffffffffffffffffffffffffff1673ffffffffffffffffffffffffffffffffffffffff16815260200190815260200160002060008273ffffffffffffffffffffffffffffffffffffffff1673ffffffffffffffffffffffffffffffffffffffff16815260200190815260200160002060009054906101000a900460ff16151561261357600097506126f3565b61261f818c8c8c6148af565b97508797506126f3565b6006600781111561263657fe5b86600781111561264257fe5b14156126b857603a60008c6000191660001916815260200190815260200160002060008b73ffffffffffffffffffffffffffffffffffffffff1673ffffffffffffffffffffffffffffffffffffffff16815260200190815260200160002060009054906101000a900460ff1697508797506126f3565b6040517f08c379a00000000000000000000000000000000000000000000000000000000081526004016126ea9061758b565b60405180910390fd5b505050505050509392505050565b612709615993565b6060600080600080612719615993565b89600081518110151561272857fe5b906020019060200201516101400151955089519450600093505b848414151561282357858a8581518110151561275a57fe5b90602001906020020151610140018190525061277a898860000151614571565b92506127bd8a8581518110151561278d57fe5b9060200190602002015160a001518b868151811015156127a957fe5b906020019060200201516080015185614a0c565b91506127f88a858151811015156127d057fe5b90602001906020020151838a878151811015156127e957fe5b9060200190602002015161101d565b905061280487826139c8565b88876000015110151561281657612823565b8380600101945050612742565b8696505050505050509392505050565b61283b615993565b6000809054906101000a900460ff1615151561288c576040517f08c379a00000000000000000000000000000000000000000000000000000000081526004016128839061780b565b60405180910390fd5b60016000806101000a81548160ff0219169083151502179055506128b1848484613927565b905080905060008060006101000a81548160ff0219169083151502179055509392505050565b60006128e4848484614a0c565b90509392505050565b60008073ffffffffffffffffffffffffffffffffffffffff16603d60009054906101000a900473ffffffffffffffffffffffffffffffffffffffff1673ffffffffffffffffffffffffffffffffffffffff16141515612981576040517f08c379a00000000000000000000000000000000000000000000000000000000081526004016129789061780b565b60405180910390fd5b6129c66129c1888888888080601f016020809104026020016040519081016040528093929190818152602001838380828437820191505050505050614a71565b614c60565b9050603c6000826000191660001916815260200190815260200160002060009054906101000a900460ff16151515612a33576040517f08c379a0000000000000000000000000000000000000000000000000000000008152600401612a2a9061762b565b60405180910390fd5b3373ffffffffffffffffffffffffffffffffffffffff168673ffffffffffffffffffffffffffffffffffffffff16141515612b2857612aa5818785858080601f016020809104026020016040519081016040528093929190818152602001838380828437820191505050505050611f82565b1515612ae6576040517f08c379a0000000000000000000000000000000000000000000000000000000008152600401612add906178cb565b60405180910390fd5b85603d60006101000a81548173ffffffffffffffffffffffffffffffffffffffff021916908373ffffffffffffffffffffffffffffffffffffffff1602179055505b6001603c6000836000191660001916815260200190815260200160002060006101000a81548160ff0219169083151502179055503073ffffffffffffffffffffffffffffffffffffffff16858560405180838380828437820191505092505050600060405180830381855af49150501515612bd8576040517f08c379a0000000000000000000000000000000000000000000000000000000008152600401612bcf9061768b565b60405180910390fd5b3373ffffffffffffffffffffffffffffffffffffffff168673ffffffffffffffffffffffffffffffffffffffff16141515612c50576000603d60006101000a81548173ffffffffffffffffffffffffffffffffffffffff021916908373ffffffffffffffffffffffffffffffffffffffff1602179055505b50505050505050565b6000806000603660009054906101000a900473ffffffffffffffffffffffffffffffffffffffff1673ffffffffffffffffffffffffffffffffffffffff163373ffffffffffffffffffffffffffffffffffffffff16141515612cf0576040517f08c379a0000000000000000000000000000000000000000000000000000000008152600401612ce79061782b565b60405180910390fd5b8392508273ffffffffffffffffffffffffffffffffffffffff1663ae25532e6040518163ffffffff167c0100000000000000000000000000000000000000000000000000000000028152600401602060405180830381600087803b158015612d5757600080fd5b505af1158015612d6b573d6000803e3d6000fd5b505050506040513d601f19601f82011682018060405250612d8f91908101906163ae565b9150603e6000837bffffffffffffffffffffffffffffffffffffffffffffffffffffffff19167bffffffffffffffffffffffffffffffffffffffffffffffffffffffff1916815260200190815260200160002060009054906101000a900473ffffffffffffffffffffffffffffffffffffffff169050600073ffffffffffffffffffffffffffffffffffffffff168173ffffffffffffffffffffffffffffffffffffffff16141515612e76576040517f08c379a0000000000000000000000000000000000000000000000000000000008152600401612e6d9061754b565b60405180910390fd5b82603e6000847bffffffffffffffffffffffffffffffffffffffffffffffffffffffff19167bffffffffffffffffffffffffffffffffffffffffffffffffffffffff1916815260200190815260200160002060006101000a81548173ffffffffffffffffffffffffffffffffffffffff021916908373ffffffffffffffffffffffffffffffffffffffff1602179055507fd2c6b762299c609bdb96520b58a49bfb80186934d4f71a86a367571a15c031948285604051612f37929190617443565b60405180910390a150505050565b612f4d6159eb565b612f5682614caa565b816020019060001916908160001916815250506037600082602001516000191660001916815260200190815260200160002054816040018181525050600082608001511415612fc55760016006811115612fac57fe5b816000019060ff16908160ff1681525050809050613192565b60008260a001511415612ff85760026006811115612fdf57fe5b816000019060ff16908160ff1681525050809050613192565b8160a00151816040015110151561302f576005600681111561301657fe5b816000019060ff16908160ff1681525050809050613192565b81610100015142101515613063576004600681111561304a57fe5b816000019060ff16908160ff1681525050809050613192565b6038600082602001516000191660001916815260200190815260200160002060009054906101000a900460ff16156130ba576006808111156130a157fe5b816000019060ff16908160ff1681525050809050613192565b81610120015160396000846000015173ffffffffffffffffffffffffffffffffffffffff1673ffffffffffffffffffffffffffffffffffffffff1681526020019081526020016000206000846060015173ffffffffffffffffffffffffffffffffffffffff1673ffffffffffffffffffffffffffffffffffffffff1681526020019081526020016000205411156131705760068081111561315757fe5b816000019060ff16908160ff1681525050809050613192565b6003600681111561317d57fe5b816000019060ff16908160ff16815250508090505b919050565b6000809054906101000a900460ff161515156131e8576040517f08c379a00000000000000000000000000000000000000000000000000000000081526004016131df9061780b565b60405180910390fd5b60016000806101000a81548160ff02191690831515021790555061320b8161442a565b60008060006101000a81548160ff02191690831515021790555050565b6039602052816000526040600020602052806000526040600020600091509150505481565b60018054600181600116156101000203166002900480601f0160208091040260200160405190810160405280929190818152602001828054600181600116156101000203166002900480156132e35780601f106132b8576101008083540402835291602001916132e3565b820191906000526020600020905b8154815290600101906020018083116132c657829003601f168201915b505050505081565b6132f3615993565b60606000806000613302615993565b88600081518110151561331157fe5b906020019060200201516101600151945088519350600092505b83831415156133c95784898481518110151561334357fe5b906020019060200201516101600181905250613363888760200151614571565b915061339e898481518110151561337657fe5b9060200190602002015183898681518110151561338f57fe5b9060200190602002015161101d565b90506133aa86826139c8565b8786602001511015156133bc576133c9565b828060010193505061332b565b85955050505050509392505050565b60006133e5848484614cc7565b90509392505050565b60006133fb848484614d79565b90509392505050565b61340c615993565b6134168383614e3e565b905092915050565b60355481565b61342c615993565b606060008060008061343c615993565b6000809054906101000a900460ff1615151561348d576040517f08c379a00000000000000000000000000000000000000000000000000000000081526004016134849061780b565b60405180910390fd5b60016000806101000a81548160ff0219169083151502179055508960008151811015156134b657fe5b906020019060200201516101400151955089519450600093505b84841415156135b157858a858151811015156134e857fe5b906020019060200201516101400181905250613508898860000151614571565b925061354b8a8581518110151561351b57fe5b9060200190602002015160a001518b8681518110151561353757fe5b906020019060200201516080015185614a0c565b91506135868a8581518110151561355e57fe5b90602001906020020151838a8781518110151561357757fe5b90602001906020020151613927565b905061359287826139c8565b8887600001511015156135a4576135b1565b83806001019450506134d0565b86965060008060006101000a81548160ff0219169083151502179055505050505050509392505050565b603d60009054906101000a900473ffffffffffffffffffffffffffffffffffffffff1681565b603660009054906101000a900473ffffffffffffffffffffffffffffffffffffffff1673ffffffffffffffffffffffffffffffffffffffff163373ffffffffffffffffffffffffffffffffffffffff16141515613693576040517f08c379a000000000000000000000000000000000000000000000000000000000815260040161368a9061782b565b60405180910390fd5b600073ffffffffffffffffffffffffffffffffffffffff168173ffffffffffffffffffffffffffffffffffffffff1614151561370b5780603660006101000a81548173ffffffffffffffffffffffffffffffffffffffff021916908373ffffffffffffffffffffffffffffffffffffffff1602179055505b50565b6040805190810160405280600b81526020017f322e302e312d616c70686100000000000000000000000000000000000000000081525081565b60008060008411151561378f576040517f08c379a0000000000000000000000000000000000000000000000000000000008152600401613786906175ab565b60405180910390fd5b600083148061379e5750600085145b156137ac57600091506137d9565b838015156137b657fe5b85840990506137c58584614eb1565b6137d16103e883614eb1565b101591508191505b509392505050565b6137ef828260200151614f25565b603760008560001916600019168152602001908152602001600020819055508260001916856040015173ffffffffffffffffffffffffffffffffffffffff16866000015173ffffffffffffffffffffffffffffffffffffffff167f0bcc4c97732e47d9946f229edb95f5b6323f601300e4690de719993f3c371129873386600001518760200151886040015189606001518e61014001518f61016001516040516138a0989796959493929190617267565b60405180910390a45050505050565b600080831115156138f5576040517f08c379a00000000000000000000000000000000000000000000000000000000081526004016138ec906175ab565b60405180910390fd5b61391b6139156139058685614eb1565b613910866001614571565b614f25565b84614f7c565b90508090509392505050565b61392f615993565b6139376159eb565b600080600061394588612f45565b935061394f613a38565b925061395d88858589613aa8565b61396f8860a001518560400151614571565b915061397b8783614f97565b905061398e888589848960000151613f20565b6139988882614e3e565b94506139af888486602001518760400151896137e1565b6139ba888487614fb0565b849450505050509392505050565b6139da82600001518260000151614f25565b8260000181815250506139f582602001518260200151614f25565b826020018181525050613a1082604001518260400151614f25565b826040018181525050613a2b82606001518260600151614f25565b8260600181815250505050565b6000806000603d60009054906101000a900473ffffffffffffffffffffffffffffffffffffffff169150600073ffffffffffffffffffffffffffffffffffffffff168273ffffffffffffffffffffffffffffffffffffffff1614613a9c5781613a9e565b335b9050809250505090565b60036006811115613ab557fe5b60ff16836000015160ff16141515613b02576040517f08c379a0000000000000000000000000000000000000000000000000000000008152600401613af99061786b565b60405180910390fd5b600073ffffffffffffffffffffffffffffffffffffffff16846060015173ffffffffffffffffffffffffffffffffffffffff16141515613bb1573373ffffffffffffffffffffffffffffffffffffffff16846060015173ffffffffffffffffffffffffffffffffffffffff16141515613bb0576040517f08c379a0000000000000000000000000000000000000000000000000000000008152600401613ba79061788b565b60405180910390fd5b5b600073ffffffffffffffffffffffffffffffffffffffff16846020015173ffffffffffffffffffffffffffffffffffffffff16141515613c60578173ffffffffffffffffffffffffffffffffffffffff16846020015173ffffffffffffffffffffffffffffffffffffffff16141515613c5f576040517f08c379a0000000000000000000000000000000000000000000000000000000008152600401613c56906174eb565b60405180910390fd5b5b600083604001511415613cc257613c808360200151856000015183611f82565b1515613cc1576040517f08c379a0000000000000000000000000000000000000000000000000000000008152600401613cb8906175cb565b60405180910390fd5b5b50505050565b613cda8260a001518260a00151614eb1565b613cec83608001518360800151614eb1565b10151515613d2f576040517f08c379a0000000000000000000000000000000000000000000000000000000008152600401613d26906178ab565b60405180910390fd5b5050565b613d3b6159bc565b600080600080613d4f8960a0015188614571565b9350613d6489608001518a60a0015186614cc7565b9250613d748860a0015187614571565b9150613d8988608001518960a0015184614cc7565b90508084101515613df3578085602001516000018181525050818560200151602001818152505084602001516000015185600001516020018181525050613de189608001518a60a00151876000015160200151614cc7565b85600001516000018181525050613e4e565b8285600001516000018181525050838560000151602001818152505084600001516020015185602001516000018181525050613e408860a001518960800151876020015160000151614d79565b856020015160200181815250505b613e68856000015160000151866020015160200151614571565b856040018181525050613e8c8560000151600001518a608001518b60c00151614cc7565b85600001516040018181525050613eb48560000151602001518a60a001518b60e00151614cc7565b85600001516060018181525050613edc85602001516000015189608001518a60c00151614cc7565b85602001516040018181525050613f048560200151602001518960a001518a60e00151614cc7565b8560200151606001818152505084945050505050949350505050565b60008314151515613f66576040517f08c379a0000000000000000000000000000000000000000000000000000000008152600401613f5d906176cb565b60405180910390fd5b828211151515613fab576040517f08c379a0000000000000000000000000000000000000000000000000000000008152600401613fa2906176ab565b60405180910390fd5b8460a00151613fbe856040015184614f25565b11151515614001576040517f08c379a0000000000000000000000000000000000000000000000000000000008152600401613ff89061750b565b60405180910390fd5b61400f856080015183614eb1565b61401d828760a00151614eb1565b11151515614060576040517f08c379a0000000000000000000000000000000000000000000000000000000008152600401614057906177eb565b60405180910390fd5b5050505050565b606060018054600181600116156101000203166002900480601f0160208091040260200160405190810160405280929190818152602001828054600181600116156101000203166002900480156140ff5780601f106140d4576101008083540402835291602001916140ff565b820191906000526020600020905b8154815290600101906020018083116140e257829003601f168201915b50505050509050614127856101400151866000015186600001518560200151602001516150b3565b614148846101400151856000015187600001518560000151602001516150b3565b61416185610140015186600001518585604001516150b3565b61417d81866000015187604001518560000151604001516150b3565b61419981856000015186604001518560200151604001516150b3565b836040015173ffffffffffffffffffffffffffffffffffffffff16856040015173ffffffffffffffffffffffffffffffffffffffff161415614203576141fe818487604001516141f9866000015160600151876020015160600151614f25565b6150b3565b614234565b61421b818487604001518560000151606001516150b3565b614233818486604001518560200151606001516150b3565b5b5050505050565b606060405190507fb4be83d5000000000000000000000000000000000000000000000000000000006020820152602481018060608101818180896000808784038652602086019550825184526020830151602085015260408301516040850152606083015160608501526080830151608085015260a083015160a085015260c083015160c085015260e083015160e085015261010083015161010085015261012083015161012085015261014083015161014085015261016083015161016085015261018084019350610180830192508484036020600a028601526101408d01519250825191506020830192506020601f830104905081845260208401935060005b81811015614360578351855260208501945060208401935060018101905061433d565b508484036020600b028601526101608d01519250825191506020830192506020601f830104905081845260208401935060005b818110156143b65783518552602085019450602084019350600181019050614393565b508b865260208601955087840386528a9250825191506020830192506020601f830104905081845260208401935060005b8181101561440a57835185526020850194506020840193506001810190506143e7565b5060208a0184038a52836040525050505050505050508090509392505050565b6144326159eb565b61443b82612f45565b90506144478282615313565b6144558282602001516154a1565b5050565b614461615993565b61446c848484613927565b90508281602001511415156144b6576040517f08c379a00000000000000000000000000000000000000000000000000000000081526004016144ad906177cb565b60405180910390fd5b8090509392505050565b600080600084111515614508576040517f08c379a00000000000000000000000000000000000000000000000000000000081526004016144ff906175ab565b60405180910390fd5b60008314806145175750600085145b156145255760009150614569565b8380151561452f57fe5b85840990508361453f8583614571565b81151561454857fe5b0690506145558584614eb1565b6145616103e883614eb1565b101591508191505b509392505050565b60008282111515156145b8576040517f08c379a00000000000000000000000000000000000000000000000000000000081526004016145af9061752b565b60405180910390fd5b818303905092915050565b600080303b90506000811491505090565b600080825111151561461b576040517f08c379a00000000000000000000000000000000000000000000000000000000081526004016146129061770b565b60405180910390fd5b81600183510381518110151561462d57fe5b9060200101517f010000000000000000000000000000000000000000000000000000000000000090047f0100000000000000000000000000000000000000000000000000000000000000029050600182510380835250809050919050565b6000602082018351101515156146d6576040517f08c379a00000000000000000000000000000000000000000000000000000000081526004016146cd9061756b565b60405180910390fd5b60208201915081830151905080905092915050565b600060608373ffffffffffffffffffffffffffffffffffffffff16631626ba7e90507c010000000000000000000000000000000000000000000000000000000002858460405160240161473f9291906173ce565b604051602081830303815290604052907bffffffffffffffffffffffffffffffffffffffffffffffffffffffff19166020820180517bffffffffffffffffffffffffffffffffffffffffffffffffffffffff8381831617835250505050905060208101602081835183885afa80600081146147c1576001811461483257614837565b7f08c379a0000000000000000000000000000000000000000000000000000000006000527c20000000000000000000000000000000000000000000000000000000006020527c0c57414c4c45545f4552524f5200000000000000000000000000000000604052600060605260646000fd5b825194505b505050819150509392505050565b6000601482511015151561488e576040517f08c379a00000000000000000000000000000000000000000000000000000000081526004016148859061784b565b60405180910390fd5b61489c826014845103615559565b9050601482510380835250809050919050565b600060608373ffffffffffffffffffffffffffffffffffffffff16639363470290507c01000000000000000000000000000000000000000000000000000000000285858560405160240161490593929190617390565b604051602081830303815290604052907bffffffffffffffffffffffffffffffffffffffffffffffffffffffff19166020820180517bffffffffffffffffffffffffffffffffffffffffffffffffffffffff83818316178352505050509050602081016020818351838a5afa806000811461498757600181146149f8576149fd565b7f08c379a0000000000000000000000000000000000000000000000000000000006000527c20000000000000000000000000000000000000000000000000000000006020527c0f56414c494441544f525f4552524f5200000000000000000000000000604052600060605260646000fd5b825194505b50505081915050949350505050565b60008083111515614a52576040517f08c379a0000000000000000000000000000000000000000000000000000000008152600401614a49906175ab565b60405180910390fd5b614a65614a5f8584614eb1565b84614f7c565b90508090509392505050565b600080600060405160200180807f5a65726f45785472616e73616374696f6e280000000000000000000000000000815250601201807f75696e743235362073616c742c00000000000000000000000000000000000000815250600d01807f61646472657373207369676e6572416464726573732c00000000000000000000815250601601807f6279746573206461746100000000000000000000000000000000000000000000815250600a01807f290000000000000000000000000000000000000000000000000000000000000081525060010190506040516020818303038152906040526040518082805190602001908083835b602083101515614b8b5780518252602082019150602081019050602083039250614b66565b6001836020036101000a03801982511681845116808217855250505050505090500191505060405180910390209150836040518082805190602001908083835b602083101515614bf05780518252602082019150602081019050602083039250614bcb565b6001836020036101000a0380198251168184511680821785525050505050509050019150506040518091039020905060405182815286602082015273ffffffffffffffffffffffffffffffffffffffff861660408201528160608201526080812093505082925050509392505050565b60008060355490506040517f190100000000000000000000000000000000000000000000000000000000000081528160028201528360228201526042812092505081915050919050565b6000614cbd614cb8836155cf565b614c60565b9050809050919050565b60008083111515614d0d576040517f08c379a0000000000000000000000000000000000000000000000000000000008152600401614d04906175ab565b60405180910390fd5b614d18848484613747565b151515614d5a576040517f08c379a0000000000000000000000000000000000000000000000000000000008152600401614d519061766b565b60405180910390fd5b614d6d614d678584614eb1565b84614f7c565b90508090509392505050565b60008083111515614dbf576040517f08c379a0000000000000000000000000000000000000000000000000000000008152600401614db6906175ab565b60405180910390fd5b614dca8484846144c0565b151515614e0c576040517f08c379a0000000000000000000000000000000000000000000000000000000008152600401614e039061766b565b60405180910390fd5b614e32614e2c614e1c8685614eb1565b614e27866001614571565b614f25565b84614f7c565b90508090509392505050565b614e46615993565b81816020018181525050614e63828460a001518560800151614cc7565b816000018181525050614e83816000015184608001518560c00151614cc7565b816040018181525050614e9f828460a001518560e00151614cc7565b81606001818152505080905092915050565b6000806000841415614ec65760009150614f1e565b8284029050828482811515614ed757fe5b04141515614f1a576040517f08c379a0000000000000000000000000000000000000000000000000000000008152600401614f119061760b565b60405180910390fd5b8091505b5092915050565b6000808284019050838110151515614f72576040517f08c379a0000000000000000000000000000000000000000000000000000000008152600401614f699061760b565b60405180910390fd5b8091505092915050565b6000808284811515614f8a57fe5b0490508091505092915050565b6000818310614fa65781614fa8565b825b905092915050565b606060018054600181600116156101000203166002900480601f0160208091040260200160405190810160405280929190818152602001828054600181600116156101000203166002900480156150485780601f1061501d57610100808354040283529160200191615048565b820191906000526020600020905b81548152906001019060200180831161502b57829003601f168201915b5050505050905061506884610140015185600001518585600001516150b3565b61508184610160015184866000015185602001516150b3565b615099818560000151866040015185604001516150b3565b6150ad8184866040015185606001516150b3565b50505050565b6000806000831180156150f257508373ffffffffffffffffffffffffffffffffffffffff168573ffffffffffffffffffffffffffffffffffffffff1614155b1561530b576003865111151561513d576040517f08c379a0000000000000000000000000000000000000000000000000000000008152600401615134906177ab565b60405180910390fd5b7fffffffff000000000000000000000000000000000000000000000000000000006020870151169150603e6000837bffffffffffffffffffffffffffffffffffffffffffffffffffffffff19167bffffffffffffffffffffffffffffffffffffffffffffffffffffffff1916815260200190815260200160002060009054906101000a900473ffffffffffffffffffffffffffffffffffffffff169050600073ffffffffffffffffffffffffffffffffffffffff168173ffffffffffffffffffffffffffffffffffffffff161415151561524c576040517f08c379a0000000000000000000000000000000000000000000000000000000008152600401615243906176eb565b60405180910390fd5b604051660fffffffffffe0603f885101168060840182017fa85e59e40000000000000000000000000000000000000000000000000000000083526080600484015273ffffffffffffffffffffffffffffffffffffffff8816602484015273ffffffffffffffffffffffffffffffffffffffff87166044840152856064840152608483015b818110156152ed578951815260208101905060208a0199506152d0565b61020084858403866000895af1801515615305573d85fd5b50505050505b505050505050565b60006003600681111561532257fe5b60ff16826000015160ff1614151561536f576040517f08c379a00000000000000000000000000000000000000000000000000000000081526004016153669061786b565b60405180910390fd5b600073ffffffffffffffffffffffffffffffffffffffff16836060015173ffffffffffffffffffffffffffffffffffffffff1614151561541e573373ffffffffffffffffffffffffffffffffffffffff16836060015173ffffffffffffffffffffffffffffffffffffffff1614151561541d576040517f08c379a00000000000000000000000000000000000000000000000000000000081526004016154149061788b565b60405180910390fd5b5b615426613a38565b90508073ffffffffffffffffffffffffffffffffffffffff16836000015173ffffffffffffffffffffffffffffffffffffffff1614151561549c576040517f08c379a0000000000000000000000000000000000000000000000000000000008152600401615493906175eb565b60405180910390fd5b505050565b600160386000836000191660001916815260200190815260200160002060006101000a81548160ff0219169083151502179055508060001916826040015173ffffffffffffffffffffffffffffffffffffffff16836000015173ffffffffffffffffffffffffffffffffffffffff167fdc47b3613d9fe400085f6dbdc99453462279057e6207385042827ed6b1a62cf73386610140015187610160015160405161554d939291906172f3565b60405180910390a45050565b6000601482018351101515156155a4576040517f08c379a000000000000000000000000000000000000000000000000000000000815260040161559b9061784b565b60405180910390fd5b60148201915073ffffffffffffffffffffffffffffffffffffffff8284015116905080905092915050565b60008060008060405160200180807f4f72646572280000000000000000000000000000000000000000000000000000815250600601807f61646472657373206d616b6572416464726573732c0000000000000000000000815250601501807f616464726573732074616b6572416464726573732c0000000000000000000000815250601501807f6164647265737320666565526563697069656e74416464726573732c00000000815250601c01807f616464726573732073656e646572416464726573732c00000000000000000000815250601601807f75696e74323536206d616b65724173736574416d6f756e742c00000000000000815250601901807f75696e743235362074616b65724173736574416d6f756e742c00000000000000815250601901807f75696e74323536206d616b65724665652c000000000000000000000000000000815250601101807f75696e743235362074616b65724665652c000000000000000000000000000000815250601101807f75696e743235362065787069726174696f6e54696d655365636f6e64732c0000815250601e01807f75696e743235362073616c742c00000000000000000000000000000000000000815250600d01807f6279746573206d616b65724173736574446174612c0000000000000000000000815250601501807f62797465732074616b6572417373657444617461000000000000000000000000815250601401807f290000000000000000000000000000000000000000000000000000000000000081525060010190506040516020818303038152906040526040518082805190602001908083835b602083101515615852578051825260208201915060208101905060208303925061582d565b6001836020036101000a038019825116818451168082178552505050505050905001915050604051809103902092508461014001516040518082805190602001908083835b6020831015156158bc5780518252602082019150602081019050602083039250615897565b6001836020036101000a038019825116818451168082178552505050505050905001915050604051809103902091508461016001516040518082805190602001908083835b6020831015156159265780518252602082019150602081019050602083039250615901565b6001836020036101000a0380198251168184511680821785525050505050509050019150506040518091039020905060208503610140860161016087018251825182518886528785528684526101a086209950828652818552808452505050505050839350505050919050565b608060405190810160405280600081526020016000815260200160008152602001600081525090565b610120604051908101604052806159d1615a3b565b81526020016159de615a3b565b8152602001600081525090565b606060405190810160405280600060ff16815260200160008019168152602001600081525090565b606060405190810160405280600060ff16815260200160008019168152602001600081525090565b608060405190810160405280600081526020016000815260200160008152602001600081525090565b6000615a708235617b34565b905092915050565b600082601f8301121515615a8b57600080fd5b8135615a9e615a99826179a5565b617978565b9150818183526020840193506020810190508360005b83811015615ae45781358601615aca8882615c85565b845260208401935060208301925050600181019050615ab4565b5050505092915050565b600082601f8301121515615b0157600080fd5b8135615b14615b0f826179cd565b617978565b9150818183526020840193506020810190508360005b83811015615b5a5781358601615b408882615da5565b845260208401935060208301925050600181019050615b2a565b5050505092915050565b600082601f8301121515615b7757600080fd5b8135615b8a615b85826179f5565b617978565b91508181835260208401935060208101905083856020840282011115615baf57600080fd5b60005b83811015615bdf5781615bc58882616041565b845260208401935060208301925050600181019050615bb2565b5050505092915050565b6000615bf58235617b54565b905092915050565b6000615c098235617b60565b905092915050565b6000615c1d8235617b6a565b905092915050565b6000615c318251617b6a565b905092915050565b60008083601f8401121515615c4d57600080fd5b8235905067ffffffffffffffff811115615c6657600080fd5b602083019150836001820283011115615c7e57600080fd5b9250929050565b600082601f8301121515615c9857600080fd5b8135615cab615ca682617a1d565b617978565b91508082526020830160208301858383011115615cc757600080fd5b615cd2838284617bb2565b50505092915050565b600082601f8301121515615cee57600080fd5b8135615d01615cfc82617a49565b617978565b91508082526020830160208301858383011115615d1d57600080fd5b615d28838284617bb2565b50505092915050565b600060808284031215615d4357600080fd5b615d4d6080617978565b90506000615d5d84828501616041565b6000830152506020615d7184828501616041565b6020830152506040615d8584828501616041565b6040830152506060615d9984828501616041565b60608301525092915050565b60006101808284031215615db857600080fd5b615dc3610180617978565b90506000615dd384828501615a64565b6000830152506020615de784828501615a64565b6020830152506040615dfb84828501615a64565b6040830152506060615e0f84828501615a64565b6060830152506080615e2384828501616041565b60808301525060a0615e3784828501616041565b60a08301525060c0615e4b84828501616041565b60c08301525060e0615e5f84828501616041565b60e083015250610100615e7484828501616041565b61010083015250610120615e8a84828501616041565b6101208301525061014082013567ffffffffffffffff811115615eac57600080fd5b615eb884828501615c85565b6101408301525061016082013567ffffffffffffffff811115615eda57600080fd5b615ee684828501615c85565b6101608301525092915050565b60006101808284031215615f0657600080fd5b615f11610180617978565b90506000615f2184828501615a64565b6000830152506020615f3584828501615a64565b6020830152506040615f4984828501615a64565b6040830152506060615f5d84828501615a64565b6060830152506080615f7184828501616041565b60808301525060a0615f8584828501616041565b60a08301525060c0615f9984828501616041565b60c08301525060e0615fad84828501616041565b60e083015250610100615fc284828501616041565b61010083015250610120615fd884828501616041565b6101208301525061014082013567ffffffffffffffff811115615ffa57600080fd5b61600684828501615c85565b6101408301525061016082013567ffffffffffffffff81111561602857600080fd5b61603484828501615c85565b6101608301525092915050565b600061604d8235617b96565b905092915050565b60006020828403121561606757600080fd5b600061607584828501615a64565b91505092915050565b6000806040838503121561609157600080fd5b600061609f85828601615a64565b92505060206160b085828601615a64565b9150509250929050565b600080604083850312156160cd57600080fd5b60006160db85828601615a64565b92505060206160ec85828601615be9565b9150509250929050565b60006020828403121561610857600080fd5b600082013567ffffffffffffffff81111561612257600080fd5b61612e84828501615aee565b91505092915050565b60008060006060848603121561614c57600080fd5b600084013567ffffffffffffffff81111561616657600080fd5b61617286828701615aee565b935050602084013567ffffffffffffffff81111561618f57600080fd5b61619b86828701615b64565b925050604084013567ffffffffffffffff8111156161b857600080fd5b6161c486828701615a78565b9150509250925092565b6000806000606084860312156161e357600080fd5b600084013567ffffffffffffffff8111156161fd57600080fd5b61620986828701615aee565b935050602061621a86828701616041565b925050604084013567ffffffffffffffff81111561623757600080fd5b61624386828701615a78565b9150509250925092565b60006020828403121561625f57600080fd5b600061626d84828501615bfd565b91505092915050565b6000806040838503121561628957600080fd5b600061629785828601615bfd565b92505060206162a885828601615a64565b9150509250929050565b600080600080606085870312156162c857600080fd5b60006162d687828801615bfd565b94505060206162e787828801615a64565b935050604085013567ffffffffffffffff81111561630457600080fd5b61631087828801615c39565b925092505092959194509250565b60008060006060848603121561633357600080fd5b600061634186828701615bfd565b935050602061635286828701615a64565b925050604084013567ffffffffffffffff81111561636f57600080fd5b61637b86828701615cdb565b9150509250925092565b60006020828403121561639757600080fd5b60006163a584828501615c11565b91505092915050565b6000602082840312156163c057600080fd5b60006163ce84828501615c25565b91505092915050565b60008061010083850312156163eb57600080fd5b60006163f985828601615d31565b925050608061640a85828601615d31565b9150509250929050565b60006020828403121561642657600080fd5b600082013567ffffffffffffffff81111561644057600080fd5b61644c84828501615ef3565b91505092915050565b6000806000806000610100868803121561646e57600080fd5b600086013567ffffffffffffffff81111561648857600080fd5b61649488828901615ef3565b95505060206164a588828901615a64565b94505060406164b688828901615bfd565b93505060606164c788828901616041565b92505060806164d888828901615d31565b9150509295509295909350565b600080600080608085870312156164fb57600080fd5b600085013567ffffffffffffffff81111561651557600080fd5b61652187828801615ef3565b945050602085013567ffffffffffffffff81111561653e57600080fd5b61654a87828801615ef3565b935050604085013567ffffffffffffffff81111561656757600080fd5b61657387828801615cdb565b925050606085013567ffffffffffffffff81111561659057600080fd5b61659c87828801615cdb565b91505092959194509250565b600080604083850312156165bb57600080fd5b600083013567ffffffffffffffff8111156165d557600080fd5b6165e185828601615ef3565b92505060206165f285828601616041565b9150509250929050565b60008060006060848603121561661157600080fd5b600084013567ffffffffffffffff81111561662b57600080fd5b61663786828701615ef3565b935050602061664886828701616041565b925050604084013567ffffffffffffffff81111561666557600080fd5b61667186828701615cdb565b9150509250925092565b60006020828403121561668d57600080fd5b600061669b84828501616041565b91505092915050565b600080600080600080608087890312156166bd57600080fd5b60006166cb89828a01616041565b96505060206166dc89828a01615a64565b955050604087013567ffffffffffffffff8111156166f957600080fd5b61670589828a01615c39565b9450945050606087013567ffffffffffffffff81111561672457600080fd5b61673089828a01615c39565b92509250509295509295509295565b60008060006060848603121561675457600080fd5b600061676286828701616041565b935050602061677386828701616041565b925050604061678486828701616041565b9150509250925092565b61679781617abb565b82525050565b60006167a882617a82565b8084526020840193506167ba83617a75565b60005b828110156167ec576167d08683516171ec565b6167d982617aae565b91506060860195506001810190506167bd565b50849250505092915050565b61680181617adb565b82525050565b61681081617ae7565b82525050565b61681f81617af1565b82525050565b600061683082617a98565b808452616844816020860160208601617bc1565b61684d81617bf4565b602085010191505092915050565b600061686682617a8d565b80845261687a816020860160208601617bc1565b61688381617bf4565b602085010191505092915050565b61689a81617ba0565b82525050565b60006168ab82617aa3565b8084526168bf816020860160208601617bc1565b6168c881617bf4565b602085010191505092915050565b6000601282527f4c454e4754485f36355f524551554952454400000000000000000000000000006020830152604082019050919050565b6000600d82527f494e56414c49445f54414b4552000000000000000000000000000000000000006020830152604082019050919050565b6000600e82527f4f524445525f4f56455246494c4c0000000000000000000000000000000000006020830152604082019050919050565b6000601182527f55494e543235365f554e444552464c4f570000000000000000000000000000006020830152604082019050919050565b6000601a82527f41535345545f50524f58595f414c52454144595f4558495354530000000000006020830152604082019050919050565b6000602682527f475245415445525f4f525f455155414c5f544f5f33325f4c454e4754485f524560208301527f51554952454400000000000000000000000000000000000000000000000000006040830152606082019050919050565b6000601582527f5349474e41545552455f554e535550504f5254454400000000000000000000006020830152604082019050919050565b6000601082527f4449564953494f4e5f42595f5a45524f000000000000000000000000000000006020830152604082019050919050565b6000601782527f494e56414c49445f4f524445525f5349474e41545552450000000000000000006020830152604082019050919050565b6000600d82527f494e56414c49445f4d414b4552000000000000000000000000000000000000006020830152604082019050919050565b6000601082527f55494e543235365f4f564552464c4f57000000000000000000000000000000006020830152604082019050919050565b6000600f82527f494e56414c49445f54585f4841534800000000000000000000000000000000006020830152604082019050919050565b6000601182527f494e56414c49445f5349474e41545552450000000000000000000000000000006020830152604082019050919050565b6000600e82527f524f554e44494e475f4552524f520000000000000000000000000000000000006020830152604082019050919050565b6000601082527f4641494c45445f455845435554494f4e000000000000000000000000000000006020830152604082019050919050565b6000600d82527f54414b45525f4f564552504159000000000000000000000000000000000000006020830152604082019050919050565b6000601482527f494e56414c49445f54414b45525f414d4f554e540000000000000000000000006020830152604082019050919050565b6000601a82527f41535345545f50524f58595f444f45535f4e4f545f45584953540000000000006020830152604082019050919050565b6000602182527f475245415445525f5448414e5f5a45524f5f4c454e4754485f5245515549524560208301527f44000000000000000000000000000000000000000000000000000000000000006040830152606082019050919050565b6000601182527f5349474e41545552455f494c4c4547414c0000000000000000000000000000006020830152604082019050919050565b6000602e82527f436f6e747261637420696e7374616e63652068617320616c726561647920626560208301527f656e20696e697469616c697a65640000000000000000000000000000000000006040830152606082019050919050565b6000601e82527f4c454e4754485f475245415445525f5448414e5f305f524551554952454400006020830152604082019050919050565b6000601782527f494e56414c49445f4e45575f4f524445525f45504f43480000000000000000006020830152604082019050919050565b6000601e82527f4c454e4754485f475245415445525f5448414e5f335f524551554952454400006020830152604082019050919050565b6000601482527f434f4d504c4554455f46494c4c5f4641494c45440000000000000000000000006020830152604082019050919050565b6000601282527f494e56414c49445f46494c4c5f505249434500000000000000000000000000006020830152604082019050919050565b6000601282527f5245454e5452414e43595f494c4c4547414c00000000000000000000000000006020830152604082019050919050565b6000601382527f4f4e4c595f434f4e54524143545f4f574e4552000000000000000000000000006020830152604082019050919050565b6000602682527f475245415445525f4f525f455155414c5f544f5f32305f4c454e4754485f524560208301527f51554952454400000000000000000000000000000000000000000000000000006040830152606082019050919050565b6000601082527f4f524445525f554e46494c4c41424c45000000000000000000000000000000006020830152604082019050919050565b6000600e82527f494e56414c49445f53454e4445520000000000000000000000000000000000006020830152604082019050919050565b6000601882527f4e454741544956455f5350524541445f524551554952454400000000000000006020830152604082019050919050565b6000601482527f494e56414c49445f54585f5349474e41545552450000000000000000000000006020830152604082019050919050565b6000601182527f4c454e4754485f305f52455155495245440000000000000000000000000000006020830152604082019050919050565b6080820160008201516170d2600085018261722e565b5060208201516170e5602085018261722e565b5060408201516170f8604085018261722e565b50606082015161710b606085018261722e565b50505050565b608082016000820151617127600085018261722e565b50602082015161713a602085018261722e565b50604082015161714d604085018261722e565b506060820151617160606085018261722e565b50505050565b6101208201600082015161717d6000850182617111565b5060208201516171906080850182617111565b5060408201516171a461010085018261722e565b50505050565b6060820160008201516171c0600085018261723d565b5060208201516171d36020850182616807565b5060408201516171e6604085018261722e565b50505050565b606082016000820151617202600085018261723d565b5060208201516172156020850182616807565b506040820151617228604085018261722e565b50505050565b61723781617b1d565b82525050565b61724681617b27565b82525050565b6000602082019050617261600083018461678e565b92915050565b60006101008201905061727d600083018b61678e565b61728a602083018a61678e565b617297604083018961722e565b6172a4606083018861722e565b6172b1608083018761722e565b6172be60a083018661722e565b81810360c08301526172d0818561685b565b905081810360e08301526172e4818461685b565b90509998505050505050505050565b6000606082019050617308600083018661678e565b818103602083015261731a818561685b565b9050818103604083015261732e818461685b565b9050949350505050565b60006020820190508181036000830152617352818461679d565b905092915050565b600060208201905061736f60008301846167f8565b92915050565b600060208201905061738a6000830184616807565b92915050565b60006060820190506173a56000830186616807565b6173b2602083018561678e565b81810360408301526173c48184616825565b9050949350505050565b60006040820190506173e36000830185616807565b81810360208301526173f58184616825565b90509392505050565b60006080820190506174136000830187616807565b617420602083018661723d565b61742d6040830185616807565b61743a6060830184616807565b95945050505050565b60006040820190506174586000830185616816565b617465602083018461678e565b9392505050565b60006020820190508181036000830152617486818461685b565b905092915050565b60006020820190506174a36000830184616891565b92915050565b600060208201905081810360008301526174c381846168a0565b905092915050565b600060208201905081810360008301526174e4816168d6565b9050919050565b600060208201905081810360008301526175048161690d565b9050919050565b6000602082019050818103600083015261752481616944565b9050919050565b600060208201905081810360008301526175448161697b565b9050919050565b60006020820190508181036000830152617564816169b2565b9050919050565b60006020820190508181036000830152617584816169e9565b9050919050565b600060208201905081810360008301526175a481616a46565b9050919050565b600060208201905081810360008301526175c481616a7d565b9050919050565b600060208201905081810360008301526175e481616ab4565b9050919050565b6000602082019050818103600083015261760481616aeb565b9050919050565b6000602082019050818103600083015261762481616b22565b9050919050565b6000602082019050818103600083015261764481616b59565b9050919050565b6000602082019050818103600083015261766481616b90565b9050919050565b6000602082019050818103600083015261768481616bc7565b9050919050565b600060208201905081810360008301526176a481616bfe565b9050919050565b600060208201905081810360008301526176c481616c35565b9050919050565b600060208201905081810360008301526176e481616c6c565b9050919050565b6000602082019050818103600083015261770481616ca3565b9050919050565b6000602082019050818103600083015261772481616cda565b9050919050565b6000602082019050818103600083015261774481616d37565b9050919050565b6000602082019050818103600083015261776481616d6e565b9050919050565b6000602082019050818103600083015261778481616dcb565b9050919050565b600060208201905081810360008301526177a481616e02565b9050919050565b600060208201905081810360008301526177c481616e39565b9050919050565b600060208201905081810360008301526177e481616e70565b9050919050565b6000602082019050818103600083015261780481616ea7565b9050919050565b6000602082019050818103600083015261782481616ede565b9050919050565b6000602082019050818103600083015261784481616f15565b9050919050565b6000602082019050818103600083015261786481616f4c565b9050919050565b6000602082019050818103600083015261788481616fa9565b9050919050565b600060208201905081810360008301526178a481616fe0565b9050919050565b600060208201905081810360008301526178c481617017565b9050919050565b600060208201905081810360008301526178e48161704e565b9050919050565b6000602082019050818103600083015261790481617085565b9050919050565b600060808201905061792060008301846170bc565b92915050565b60006101208201905061793c6000830184617166565b92915050565b600060608201905061795760008301846171aa565b92915050565b6000602082019050617972600083018461722e565b92915050565b6000604051905081810181811067ffffffffffffffff8211171561799b57600080fd5b8060405250919050565b600067ffffffffffffffff8211156179bc57600080fd5b602082029050602081019050919050565b600067ffffffffffffffff8211156179e457600080fd5b602082029050602081019050919050565b600067ffffffffffffffff821115617a0c57600080fd5b602082029050602081019050919050565b600067ffffffffffffffff821115617a3457600080fd5b601f19601f8301169050602081019050919050565b600067ffffffffffffffff821115617a6057600080fd5b601f19601f8301169050602081019050919050565b6000602082019050919050565b600081519050919050565b600081519050919050565b600081519050919050565b600081519050919050565b6000602082019050919050565b600073ffffffffffffffffffffffffffffffffffffffff82169050919050565b60008115159050919050565b6000819050919050565b60007fffffffff0000000000000000000000000000000000000000000000000000000082169050919050565b6000819050919050565b600060ff82169050919050565b600073ffffffffffffffffffffffffffffffffffffffff82169050919050565b60008115159050919050565b6000819050919050565b60007fffffffff0000000000000000000000000000000000000000000000000000000082169050919050565b6000819050919050565b6000617bab82617abb565b9050919050565b82818337600083830152505050565b60005b83811015617bdf578082015181840152602081019050617bc4565b83811115617bee576000848401525b50505050565b6000601f19601f83011690509190505600a265627a7a723058201f189ea5c2c356585a8b4e8977cfcbfc0a5738d305051a4087e8dec3ca55d7ac6c6578706572696d656e74616cf50037",
  "source": "/*\n\n  Copyright 2018 ZeroEx Intl.\n\n  Licensed under the Apache License, Version 2.0 (the \"License\");\n  you may not use this file except in compliance with the License.\n  You may obtain a copy of the License at\n\n    http://www.apache.org/licenses/LICENSE-2.0\n\n  Unless required by applicable law or agreed to in writing, software\n  distributed under the License is distributed on an \"AS IS\" BASIS,\n  WITHOUT WARRANTIES OR CONDITIONS OF ANY KIND, either express or implied.\n  See the License for the specific language governing permissions and\n  limitations under the License.\n\n*/\n\npragma solidity 0.4.24;\npragma experimental ABIEncoderV2;\n\nimport \"../../protocol/Exchange/Exchange.sol\";\n\n\n// solhint-disable no-empty-blocks\ncontract TestExchangeInternals is\n    Exchange\n{\n    constructor ()\n        public\n        Exchange(\"\")\n    {}\n\n    /// @dev Adds properties of both FillResults instances.\n    ///      Modifies the first FillResults instance specified.\n    ///      Note that this function has been modified from the original\n    //       internal version to return the FillResults.\n    /// @param totalFillResults Fill results instance that will be added onto.\n    /// @param singleFillResults Fill results instance that will be added to totalFillResults.\n    /// @return newTotalFillResults The result of adding singleFillResults to totalFilResults.\n    function publicAddFillResults(FillResults memory totalFillResults, FillResults memory singleFillResults)\n        public\n        pure\n        returns (FillResults memory)\n    {\n        addFillResults(totalFillResults, singleFillResults);\n        return totalFillResults;\n    }\n\n    /// @dev Calculates amounts filled and fees paid by maker and taker.\n    /// @param order to be filled.\n    /// @param takerAssetFilledAmount Amount of takerAsset that will be filled.\n    /// @return fillResults Amounts filled and fees paid by maker and taker.\n    function publicCalculateFillResults(\n        Order memory order,\n        uint256 takerAssetFilledAmount\n    )\n        public\n        pure\n        returns (FillResults memory fillResults)\n    {\n        return calculateFillResults(order, takerAssetFilledAmount);\n    }\n\n    /// @dev Calculates partial value given a numerator and denominator.\n    ///      Reverts if rounding error is >= 0.1%\n    /// @param numerator Numerator.\n    /// @param denominator Denominator.\n    /// @param target Value to calculate partial of.\n    /// @return Partial value of target.\n    function publicSafeGetPartialAmountFloor(\n        uint256 numerator,\n        uint256 denominator,\n        uint256 target\n    )\n        public\n        pure\n        returns (uint256 partialAmount)\n    {\n        return safeGetPartialAmountFloor(numerator, denominator, target);\n    }\n\n    /// @dev Calculates partial value given a numerator and denominator.\n    ///      Reverts if rounding error is >= 0.1%\n    /// @param numerator Numerator.\n    /// @param denominator Denominator.\n    /// @param target Value to calculate partial of.\n    /// @return Partial value of target.\n    function publicSafeGetPartialAmountCeil(\n        uint256 numerator,\n        uint256 denominator,\n        uint256 target\n    )\n        public\n        pure\n        returns (uint256 partialAmount)\n    {\n        return safeGetPartialAmountCeil(numerator, denominator, target);\n    }\n\n    /// @dev Calculates partial value given a numerator and denominator.\n    /// @param numerator Numerator.\n    /// @param denominator Denominator.\n    /// @param target Value to calculate partial of.\n    /// @return Partial value of target.\n    function publicGetPartialAmountFloor(\n        uint256 numerator,\n        uint256 denominator,\n        uint256 target\n    )\n        public\n        pure\n        returns (uint256 partialAmount)\n    {\n        return getPartialAmountFloor(numerator, denominator, target);\n    }\n\n    /// @dev Calculates partial value given a numerator and denominator.\n    /// @param numerator Numerator.\n    /// @param denominator Denominator.\n    /// @param target Value to calculate partial of.\n    /// @return Partial value of target.\n    function publicGetPartialAmountCeil(\n        uint256 numerator,\n        uint256 denominator,\n        uint256 target\n    )\n        public\n        pure\n        returns (uint256 partialAmount)\n    {\n        return getPartialAmountCeil(numerator, denominator, target);\n    }\n\n    /// @dev Checks if rounding error >= 0.1%.\n    /// @param numerator Numerator.\n    /// @param denominator Denominator.\n    /// @param target Value to multiply with numerator/denominator.\n    /// @return Rounding error is present.\n    function publicIsRoundingErrorFloor(\n        uint256 numerator,\n        uint256 denominator,\n        uint256 target\n    )\n        public\n        pure\n        returns (bool isError)\n    {\n        return isRoundingErrorFloor(numerator, denominator, target);\n    }\n\n    /// @dev Checks if rounding error >= 0.1%.\n    /// @param numerator Numerator.\n    /// @param denominator Denominator.\n    /// @param target Value to multiply with numerator/denominator.\n    /// @return Rounding error is present.\n    function publicIsRoundingErrorCeil(\n        uint256 numerator,\n        uint256 denominator,\n        uint256 target\n    )\n        public\n        pure\n        returns (bool isError)\n    {\n        return isRoundingErrorCeil(numerator, denominator, target);\n    }\n \n    /// @dev Updates state with results of a fill order.\n    /// @param order that was filled.\n    /// @param takerAddress Address of taker who filled the order.\n    /// @param orderTakerAssetFilledAmount Amount of order already filled.\n    /// @return fillResults Amounts filled and fees paid by maker and taker.\n    function publicUpdateFilledState(\n        Order memory order,\n        address takerAddress,\n        bytes32 orderHash,\n        uint256 orderTakerAssetFilledAmount,\n        FillResults memory fillResults\n    )\n        public\n    {\n        updateFilledState(\n            order,\n            takerAddress,\n            orderHash,\n            orderTakerAssetFilledAmount,\n            fillResults\n        );\n    }\n}\n",
  "sourcePath": "/Users/facu/Documents/Laburo/Spiking/Ethereum/0x/0x-monorepo/packages/contracts/contracts/2.0.0/test/TestExchangeInternals/TestExchangeInternals.sol",
  "compiler": {
    "name": "solc",
    "version": "0.4.24+commit.e67f0147.Emscripten.clang"
  },
  "schemaVersion": "2.0.1",
  "updatedAt": "2018-10-16T20:38:35.385Z"
}