{
  "contractName": "TestLibBytes",
  "abi": [
    {
      "constant": true,
      "inputs": [
        {
          "name": "b",
          "type": "bytes"
        }
      ],
      "name": "publicPopLastByte",
      "outputs": [
        {
          "name": "",
          "type": "bytes"
        },
        {
          "name": "result",
          "type": "bytes1"
        }
      ],
      "payable": false,
      "stateMutability": "pure",
      "type": "function"
    },
    {
      "constant": true,
      "inputs": [
        {
          "name": "b",
          "type": "bytes"
        }
      ],
      "name": "publicPopLast20Bytes",
      "outputs": [
        {
          "name": "",
          "type": "bytes"
        },
        {
          "name": "result",
          "type": "address"
        }
      ],
      "payable": false,
      "stateMutability": "pure",
      "type": "function"
    },
    {
      "constant": true,
      "inputs": [
        {
          "name": "lhs",
          "type": "bytes"
        },
        {
          "name": "rhs",
          "type": "bytes"
        }
      ],
      "name": "publicEquals",
      "outputs": [
        {
          "name": "equal",
          "type": "bool"
        }
      ],
      "payable": false,
      "stateMutability": "pure",
      "type": "function"
    },
    {
      "constant": true,
      "inputs": [
        {
          "name": "lhs",
          "type": "bytes"
        },
        {
          "name": "rhs",
          "type": "bytes"
        }
      ],
      "name": "publicEqualsPop1",
      "outputs": [
        {
          "name": "equal",
          "type": "bool"
        }
      ],
      "payable": false,
      "stateMutability": "pure",
      "type": "function"
    },
    {
      "constant": true,
      "inputs": [
        {
          "name": "dest",
          "type": "bytes"
        },
        {
          "name": "source",
          "type": "bytes"
        }
      ],
      "name": "publicDeepCopyBytes",
      "outputs": [
        {
          "name": "",
          "type": "bytes"
        }
      ],
      "payable": false,
      "stateMutability": "pure",
      "type": "function"
    },
    {
      "constant": true,
      "inputs": [
        {
          "name": "b",
          "type": "bytes"
        },
        {
          "name": "index",
          "type": "uint256"
        }
      ],
      "name": "publicReadAddress",
      "outputs": [
        {
          "name": "result",
          "type": "address"
        }
      ],
      "payable": false,
      "stateMutability": "pure",
      "type": "function"
    },
    {
      "constant": true,
      "inputs": [
        {
          "name": "b",
          "type": "bytes"
        },
        {
          "name": "index",
          "type": "uint256"
        },
        {
          "name": "input",
          "type": "address"
        }
      ],
      "name": "publicWriteAddress",
      "outputs": [
        {
          "name": "",
          "type": "bytes"
        }
      ],
      "payable": false,
      "stateMutability": "pure",
      "type": "function"
    },
    {
      "constant": true,
      "inputs": [
        {
          "name": "b",
          "type": "bytes"
        },
        {
          "name": "index",
          "type": "uint256"
        }
      ],
      "name": "publicReadBytes32",
      "outputs": [
        {
          "name": "result",
          "type": "bytes32"
        }
      ],
      "payable": false,
      "stateMutability": "pure",
      "type": "function"
    },
    {
      "constant": true,
      "inputs": [
        {
          "name": "b",
          "type": "bytes"
        },
        {
          "name": "index",
          "type": "uint256"
        },
        {
          "name": "input",
          "type": "bytes32"
        }
      ],
      "name": "publicWriteBytes32",
      "outputs": [
        {
          "name": "",
          "type": "bytes"
        }
      ],
      "payable": false,
      "stateMutability": "pure",
      "type": "function"
    },
    {
      "constant": true,
      "inputs": [
        {
          "name": "b",
          "type": "bytes"
        },
        {
          "name": "index",
          "type": "uint256"
        }
      ],
      "name": "publicReadUint256",
      "outputs": [
        {
          "name": "result",
          "type": "uint256"
        }
      ],
      "payable": false,
      "stateMutability": "pure",
      "type": "function"
    },
    {
      "constant": true,
      "inputs": [
        {
          "name": "b",
          "type": "bytes"
        },
        {
          "name": "index",
          "type": "uint256"
        },
        {
          "name": "input",
          "type": "uint256"
        }
      ],
      "name": "publicWriteUint256",
      "outputs": [
        {
          "name": "",
          "type": "bytes"
        }
      ],
      "payable": false,
      "stateMutability": "pure",
      "type": "function"
    },
    {
      "constant": true,
      "inputs": [
        {
          "name": "b",
          "type": "bytes"
        },
        {
          "name": "index",
          "type": "uint256"
        }
      ],
      "name": "publicReadBytes4",
      "outputs": [
        {
          "name": "result",
          "type": "bytes4"
        }
      ],
      "payable": false,
      "stateMutability": "pure",
      "type": "function"
    },
    {
      "constant": true,
      "inputs": [
        {
          "name": "b",
          "type": "bytes"
        },
        {
          "name": "index",
          "type": "uint256"
        }
      ],
      "name": "publicReadBytesWithLength",
      "outputs": [
        {
          "name": "result",
          "type": "bytes"
        }
      ],
      "payable": false,
      "stateMutability": "pure",
      "type": "function"
    },
    {
      "constant": true,
      "inputs": [
        {
          "name": "b",
          "type": "bytes"
        },
        {
          "name": "index",
          "type": "uint256"
        },
        {
          "name": "input",
          "type": "bytes"
        }
      ],
      "name": "publicWriteBytesWithLength",
      "outputs": [
        {
          "name": "",
          "type": "bytes"
        }
      ],
      "payable": false,
      "stateMutability": "pure",
      "type": "function"
    },
    {
      "constant": true,
      "inputs": [
        {
          "name": "mem",
          "type": "bytes"
        },
        {
          "name": "dest",
          "type": "uint256"
        },
        {
          "name": "source",
          "type": "uint256"
        },
        {
          "name": "length",
          "type": "uint256"
        }
      ],
      "name": "testMemcpy",
      "outputs": [
        {
          "name": "",
          "type": "bytes"
        }
      ],
      "payable": false,
      "stateMutability": "pure",
      "type": "function"
    }
  ],
  "bytecode": "0x608060405234801561001057600080fd5b50611ad1806100206000396000f3006080604052600436106100db576000357c0100000000000000000000000000000000000000000000000000000000900463ffffffff1680630301d5e1146100e0578063076eec081461020d57806318c535d9146102f95780633f2a25ec146104215780634b3687681461052d57806378bbae9b1461065f57806382e2fa241461075f57806384f8775814610812578063a4b196541461090c578063b1840e8d14610a21578063b79650a414610ae8578063be766f1b14610bde578063cc12cb2814610c6d578063e3a85ce414610d32578063f06f300d14610db9575b600080fd5b3480156100ec57600080fd5b50610147600480360381019080803590602001908201803590602001908080601f0160208091040260200160405190810160405280939291908181526020018383808284378201915050505050509192919290505050610e80565b6040518080602001837effffffffffffffffffffffffffffffffffffffffffffffffffffffffffffff19167effffffffffffffffffffffffffffffffffffffffffffffffffffffffffffff19168152602001828103825284818151815260200191508051906020019080838360005b838110156101d15780820151818401526020810190506101b6565b50505050905090810190601f1680156101fe5780820380516001836020036101000a031916815260200191505b50935050505060405180910390f35b34801561021957600080fd5b5061027e600480360381019080803590602001908201803590602001908080601f016020809104026020016040519081016040528093929190818152602001838380828437820191505050505050919291929080359060200190929190505050610e9a565b6040518080602001828103825283818151815260200191508051906020019080838360005b838110156102be5780820151818401526020810190506102a3565b50505050905090810190601f1680156102eb5780820380516001836020036101000a031916815260200191505b509250505060405180910390f35b34801561030557600080fd5b506103a6600480360381019080803590602001908201803590602001908080601f0160208091040260200160405190810160405280939291908181526020018383808284378201915050505050509192919290803590602001908201803590602001908080601f0160208091040260200160405190810160405280939291908181526020018383808284378201915050505050509192919290505050610eba565b6040518080602001828103825283818151815260200191508051906020019080838360005b838110156103e65780820151818401526020810190506103cb565b50505050905090810190601f1680156104135780820380516001836020036101000a031916815260200191505b509250505060405180910390f35b34801561042d57600080fd5b506104b2600480360381019080803590602001908201803590602001908080601f016020809104026020016040519081016040528093929190818152602001838380828437820191505050505050919291929080359060200190929190803573ffffffffffffffffffffffffffffffffffffffff169060200190929190505050610ecf565b6040518080602001828103825283818151815260200191508051906020019080838360005b838110156104f25780820151818401526020810190506104d7565b50505050905090810190601f16801561051f5780820380516001836020036101000a031916815260200191505b509250505060405180910390f35b34801561053957600080fd5b506105e4600480360381019080803590602001908201803590602001908080601f016020809104026020016040519081016040528093929190818152602001838380828437820191505050505050919291929080359060200190929190803590602001908201803590602001908080601f0160208091040260200160405190810160405280939291908181526020018383808284378201915050505050509192919290505050610ef0565b6040518080602001828103825283818151815260200191508051906020019080838360005b83811015610624578082015181840152602081019050610609565b50505050905090810190601f1680156106515780820380516001836020036101000a031916815260200191505b509250505060405180910390f35b34801561066b57600080fd5b506106e4600480360381019080803590602001908201803590602001908080601f0160208091040260200160405190810160405280939291908181526020018383808284378201915050505050509192919290803590602001909291908035906020019092919080359060200190929190505050610f11565b6040518080602001828103825283818151815260200191508051906020019080838360005b83811015610724578082015181840152602081019050610709565b50505050905090810190601f1680156107515780820380516001836020036101000a031916815260200191505b509250505060405180910390f35b34801561076b57600080fd5b506107d0600480360381019080803590602001908201803590602001908080601f016020809104026020016040519081016040528093929190818152602001838380828437820191505050505050919291929080359060200190929190505050610f5f565b604051808273ffffffffffffffffffffffffffffffffffffffff1673ffffffffffffffffffffffffffffffffffffffff16815260200191505060405180910390f35b34801561081e57600080fd5b50610891600480360381019080803590602001908201803590602001908080601f0160208091040260200160405190810160405280939291908181526020018383808284378201915050505050509192919290803590602001909291908035600019169060200190929190505050610f7f565b6040518080602001828103825283818151815260200191508051906020019080838360005b838110156108d15780820151818401526020810190506108b6565b50505050905090810190601f1680156108fe5780820380516001836020036101000a031916815260200191505b509250505060405180910390f35b34801561091857600080fd5b50610973600480360381019080803590602001908201803590602001908080601f0160208091040260200160405190810160405280939291908181526020018383808284378201915050505050509192919290505050610fa0565b60405180806020018373ffffffffffffffffffffffffffffffffffffffff1673ffffffffffffffffffffffffffffffffffffffff168152602001828103825284818151815260200191508051906020019080838360005b838110156109e55780820151818401526020810190506109ca565b50505050905090810190601f168015610a125780820380516001836020036101000a031916815260200191505b50935050505060405180910390f35b348015610a2d57600080fd5b50610ace600480360381019080803590602001908201803590602001908080601f0160208091040260200160405190810160405280939291908181526020018383808284378201915050505050509192919290803590602001908201803590602001908080601f0160208091040260200160405190810160405280939291908181526020018383808284378201915050505050509192919290505050610fba565b604051808215151515815260200191505060405180910390f35b348015610af457600080fd5b50610b63600480360381019080803590602001908201803590602001908080601f01602080910402602001604051908101604052809392919081815260200183838082843782019150505050505091929192908035906020019092919080359060200190929190505050610fee565b6040518080602001828103825283818151815260200191508051906020019080838360005b83811015610ba3578082015181840152602081019050610b88565b50505050905090810190601f168015610bd05780820380516001836020036101000a031916815260200191505b509250505060405180910390f35b348015610bea57600080fd5b50610c4f600480360381019080803590602001908201803590602001908080601f01602080910402602001604051908101604052809392919081815260200183838082843782019150505050505091929192908035906020019092919050505061100f565b60405180826000191660001916815260200191505060405180910390f35b348015610c7957600080fd5b50610cde600480360381019080803590602001908201803590602001908080601f01602080910402602001604051908101604052809392919081815260200183838082843782019150505050505091929192908035906020019092919050505061102f565b60405180827bffffffffffffffffffffffffffffffffffffffffffffffffffffffff19167bffffffffffffffffffffffffffffffffffffffffffffffffffffffff1916815260200191505060405180910390f35b348015610d3e57600080fd5b50610da3600480360381019080803590602001908201803590602001908080601f01602080910402602001604051908101604052809392919081815260200183838082843782019150505050505091929192908035906020019092919050505061104f565b6040518082815260200191505060405180910390f35b348015610dc557600080fd5b50610e66600480360381019080803590602001908201803590602001908080601f0160208091040260200160405190810160405280939291908181526020018383808284378201915050505050509192919290803590602001908201803590602001908080601f016020809104026020016040519081016040528093929190818152602001838380828437820191505050505050919291929050505061106f565b604051808215151515815260200191505060405180910390f35b60606000610e8d8361108f565b9050828191509150915091565b6060610eaf828461119f90919063ffffffff16565b905080905092915050565b6060610ec68383611265565b82905092915050565b6060610ee683838661132a9092919063ffffffff16565b8390509392505050565b6060610f0783838661141e9092919063ffffffff16565b8390509392505050565b60606000855183850111151515610f2757600080fd5b855183860111151515610f3957600080fd5b610f42866114e9565b9050610f53858201858301856114f9565b85915050949350505050565b6000610f7482846115a990919063ffffffff16565b905080905092915050565b6060610f968383866116789092919063ffffffff16565b8390509392505050565b60606000610fad8361172a565b9050828191509150915091565b6000610fc58361108f565b50610fcf8261108f565b50610fe382846117ed90919063ffffffff16565b905080905092915050565b60606110058383866118d39092919063ffffffff16565b8390509392505050565b600061102482846118e690919063ffffffff16565b905080905092915050565b6000611044828461199f90919063ffffffff16565b905080905092915050565b60006110648284611a7d90919063ffffffff16565b905080905092915050565b600061108482846117ed90919063ffffffff16565b905080905092915050565b600080825111151561112f576040517f08c379a00000000000000000000000000000000000000000000000000000000081526004018080602001828103825260218152602001807f475245415445525f5448414e5f5a45524f5f4c454e4754485f5245515549524581526020017f440000000000000000000000000000000000000000000000000000000000000081525060400191505060405180910390fd5b81600183510381518110151561114157fe5b9060200101517f010000000000000000000000000000000000000000000000000000000000000090047f0100000000000000000000000000000000000000000000000000000000000000029050600182510380835250809050919050565b606060006111ad8484611a7d565b9050602083019250808301845110151515611256576040517f08c379a00000000000000000000000000000000000000000000000000000000081526004018080602001828103825260308152602001807f475245415445525f4f525f455155414c5f544f5f4e45535445445f425954455381526020017f5f4c454e4754485f52455155495245440000000000000000000000000000000081525060400191505060405180910390fd5b82840191508191505092915050565b6000815190508083511015151561130a576040517f08c379a00000000000000000000000000000000000000000000000000000000081526004018080602001828103825260308152602001807f475245415445525f4f525f455155414c5f544f5f534f555243455f425954455381526020017f5f4c454e4754485f52455155495245440000000000000000000000000000000081525060400191505060405180910390fd5b611325611316846114e9565b61131f846114e9565b836114f9565b505050565b601482018351101515156113cc576040517f08c379a00000000000000000000000000000000000000000000000000000000081526004018080602001828103825260268152602001807f475245415445525f4f525f455155414c5f544f5f32305f4c454e4754485f524581526020017f515549524544000000000000000000000000000000000000000000000000000081525060400191505060405180910390fd5b6014820191507fffffffffffffffffffffffff0000000000000000000000000000000000000000828401511673ffffffffffffffffffffffffffffffffffffffff821691508082188385015250505050565b805160208301018351101515156114c3576040517f08c379a00000000000000000000000000000000000000000000000000000000081526004018080602001828103825260308152602001807f475245415445525f4f525f455155414c5f544f5f4e45535445445f425954455381526020017f5f4c454e4754485f52455155495245440000000000000000000000000000000081525060400191505060405180910390fd5b6114e4826114d0856114e9565b016114da83611a98565b60208451016114f9565b505050565b6000602082019050809050919050565b6020811015611523576001816020036101000a0380198351168185511680821786525050506115a3565b82821415611530576115a4565b8282111561156f5760208103905080820181840181515b828510156115645784518652602085019450602086019550611547565b8082525050506115a2565b60208103905080820181840183515b8186121561159b578251825260208303925060208203915061157e565b8086525050505b5b5b505050565b60006014820183511015151561164d576040517f08c379a00000000000000000000000000000000000000000000000000000000081526004018080602001828103825260268152602001807f475245415445525f4f525f455155414c5f544f5f32305f4c454e4754485f524581526020017f515549524544000000000000000000000000000000000000000000000000000081525060400191505060405180910390fd5b60148201915073ffffffffffffffffffffffffffffffffffffffff8284015116905080905092915050565b6020820183511015151561171a576040517f08c379a00000000000000000000000000000000000000000000000000000000081526004018080602001828103825260268152602001807f475245415445525f4f525f455155414c5f544f5f33325f4c454e4754485f524581526020017f515549524544000000000000000000000000000000000000000000000000000081525060400191505060405180910390fd5b6020820191508082840152505050565b600060148251101515156117cc576040517f08c379a00000000000000000000000000000000000000000000000000000000081526004018080602001828103825260268152602001807f475245415445525f4f525f455155414c5f544f5f32305f4c454e4754485f524581526020017f515549524544000000000000000000000000000000000000000000000000000081525060400191505060405180910390fd5b6117da8260148451036115a9565b9050601482510380835250809050919050565b6000815183511480156118cb5750816040518082805190602001908083835b602083101515611831578051825260208201915060208101905060208303925061180c565b6001836020036101000a038019825116818451168082178552505050505050905001915050604051809103902060001916836040518082805190602001908083835b6020831015156118985780518252602082019150602081019050602083039250611873565b6001836020036101000a038019825116818451168082178552505050505050905001915050604051809103902060001916145b905092915050565b6118e1838383600102611678565b505050565b60006020820183511015151561198a576040517f08c379a00000000000000000000000000000000000000000000000000000000081526004018080602001828103825260268152602001807f475245415445525f4f525f455155414c5f544f5f33325f4c454e4754485f524581526020017f515549524544000000000000000000000000000000000000000000000000000081525060400191505060405180910390fd5b60208201915081830151905080905092915050565b600060048201835110151515611a43576040517f08c379a00000000000000000000000000000000000000000000000000000000081526004018080602001828103825260258152602001807f475245415445525f4f525f455155414c5f544f5f345f4c454e4754485f52455181526020017f554952454400000000000000000000000000000000000000000000000000000081525060400191505060405180910390fd5b6020820191508183015190507fffffffff000000000000000000000000000000000000000000000000000000008116905080905092915050565b6000611a8983836118e6565b60019004905080905092915050565b60008190508090509190505600a165627a7a72305820af8824607fb095412e16f925518b788f9a3191e2ac1a20166439876aa60ac0160029",
  "source": "/*\n\n  Copyright 2018 ZeroEx Intl.\n\n  Licensed under the Apache License, Version 2.0 (the \"License\");\n  you may not use this file except in compliance with the License.\n  You may obtain a copy of the License at\n\n    http://www.apache.org/licenses/LICENSE-2.0\n\n  Unless required by applicable law or agreed to in writing, software\n  distributed under the License is distributed on an \"AS IS\" BASIS,\n  WITHOUT WARRANTIES OR CONDITIONS OF ANY KIND, either express or implied.\n  See the License for the specific language governing permissions and\n  limitations under the License.\n\n*/\n\npragma solidity 0.4.24;\n\nimport \"../../utils/LibBytes/LibBytes.sol\";\n\n\ncontract TestLibBytes {\n    \n    using LibBytes for bytes;\n\n    /// @dev Pops the last byte off of a byte array by modifying its length.\n    /// @param b Byte array that will be modified.\n    /// @return The byte that was popped off.\n    function publicPopLastByte(bytes memory b)\n        public\n        pure\n        returns (bytes memory, bytes1 result)\n    {\n        result = b.popLastByte();\n        return (b, result);\n    }\n\n    /// @dev Pops the last 20 bytes off of a byte array by modifying its length.\n    /// @param b Byte array that will be modified.\n    /// @return The 20 byte address that was popped off.\n    function publicPopLast20Bytes(bytes memory b)\n        public\n        pure\n        returns (bytes memory, address result)\n    {\n        result = b.popLast20Bytes();\n        return (b, result);\n    }\n\n    /// @dev Tests equality of two byte arrays.\n    /// @param lhs First byte array to compare.\n    /// @param rhs Second byte array to compare.\n    /// @return True if arrays are the same. False otherwise.\n    function publicEquals(bytes memory lhs, bytes memory rhs)\n        public\n        pure\n        returns (bool equal)\n    {\n        equal = lhs.equals(rhs);\n        return equal;\n    }\n    \n    function publicEqualsPop1(bytes memory lhs, bytes memory rhs)\n        public\n        pure\n        returns (bool equal)\n    {\n        lhs.popLastByte();\n        rhs.popLastByte();\n        equal = lhs.equals(rhs);\n        return equal;\n    }\n\n    /// @dev Performs a deep copy of a byte array onto another byte array of greater than or equal length.\n    /// @param dest Byte array that will be overwritten with source bytes.\n    /// @param source Byte array to copy onto dest bytes.\n    function publicDeepCopyBytes(\n        bytes memory dest,\n        bytes memory source\n    )\n        public\n        pure\n        returns (bytes memory)\n    {\n        LibBytes.deepCopyBytes(dest, source);\n        return dest;\n    }\n\n    /// @dev Reads an address from a position in a byte array.\n    /// @param b Byte array containing an address.\n    /// @param index Index in byte array of address.\n    /// @return address from byte array.\n    function publicReadAddress(\n        bytes memory b,\n        uint256 index\n    )\n        public\n        pure\n        returns (address result)\n    {\n        result = b.readAddress(index);\n        return result;\n    }\n\n    /// @dev Writes an address into a specific position in a byte array.\n    /// @param b Byte array to insert address into.\n    /// @param index Index in byte array of address.\n    /// @param input Address to put into byte array.\n    function publicWriteAddress(\n        bytes memory b,\n        uint256 index,\n        address input\n    )\n        public\n        pure\n        returns (bytes memory)\n    {\n        b.writeAddress(index, input);\n        return b;\n    }\n\n    /// @dev Reads a bytes32 value from a position in a byte array.\n    /// @param b Byte array containing a bytes32 value.\n    /// @param index Index in byte array of bytes32 value.\n    /// @return bytes32 value from byte array.\n    function publicReadBytes32(\n        bytes memory b,\n        uint256 index\n    )\n        public\n        pure\n        returns (bytes32 result)\n    {\n        result = b.readBytes32(index);\n        return result;\n    }\n\n    /// @dev Writes a bytes32 into a specific position in a byte array.\n    /// @param b Byte array to insert <input> into.\n    /// @param index Index in byte array of <input>.\n    /// @param input bytes32 to put into byte array.\n    function publicWriteBytes32(\n        bytes memory b,\n        uint256 index,\n        bytes32 input\n    )\n        public\n        pure\n        returns (bytes memory)\n    {\n        b.writeBytes32(index, input);\n        return b;\n    }\n\n    /// @dev Reads a uint256 value from a position in a byte array.\n    /// @param b Byte array containing a uint256 value.\n    /// @param index Index in byte array of uint256 value.\n    /// @return uint256 value from byte array.\n    function publicReadUint256(\n        bytes memory b,\n        uint256 index\n    )\n        public\n        pure\n        returns (uint256 result)\n    {\n        result = b.readUint256(index);\n        return result;\n    }\n\n    /// @dev Writes a uint256 into a specific position in a byte array.\n    /// @param b Byte array to insert <input> into.\n    /// @param index Index in byte array of <input>.\n    /// @param input uint256 to put into byte array.\n    function publicWriteUint256(\n        bytes memory b,\n        uint256 index,\n        uint256 input\n    )\n        public\n        pure\n        returns (bytes memory)\n    {\n        b.writeUint256(index, input);\n        return b;\n    }\n\n    /// @dev Reads an unpadded bytes4 value from a position in a byte array.\n    /// @param b Byte array containing a bytes4 value.\n    /// @param index Index in byte array of bytes4 value.\n    /// @return bytes4 value from byte array.\n    function publicReadBytes4(\n        bytes memory b,\n        uint256 index\n    )\n        public\n        pure\n        returns (bytes4 result)\n    {\n        result = b.readBytes4(index);\n        return result;\n    }\n\n    /// @dev Reads nested bytes from a specific position.\n    /// @param b Byte array containing nested bytes.\n    /// @param index Index of nested bytes.\n    /// @return result Nested bytes.\n    function publicReadBytesWithLength(\n        bytes memory b,\n        uint256 index\n    )\n        public\n        pure\n        returns (bytes memory result)\n    {\n        result = b.readBytesWithLength(index);\n        return result;\n    }\n\n    /// @dev Inserts bytes at a specific position in a byte array.\n    /// @param b Byte array to insert <input> into.\n    /// @param index Index in byte array of <input>.\n    /// @param input bytes to insert.\n    /// @return b Updated input byte array\n    function publicWriteBytesWithLength(\n        bytes memory b,\n        uint256 index,\n        bytes memory input\n    )\n        public\n        pure\n        returns (bytes memory)\n    {\n        b.writeBytesWithLength(index, input);\n        return b;\n    }\n    \n    /// @dev Copies a block of memory from one location to another.\n    /// @param mem Memory contents we want to apply memCopy to\n    /// @param dest Destination offset into <mem>.\n    /// @param source Source offset into <mem>.\n    /// @param length Length of bytes to copy from <source> to <dest>\n    /// @return mem Memory contents after calling memCopy.\n    function testMemcpy(\n        bytes mem,\n        uint256 dest,\n        uint256 source,\n        uint256 length\n    )\n        public // not external, we need input in memory\n        pure\n        returns (bytes)\n    {\n        // Sanity check. Overflows are not checked.\n        require(source + length <= mem.length);\n        require(dest + length <= mem.length);\n\n        // Get pointer to memory contents\n        uint256 offset = mem.contentAddress();\n\n        // Execute memCopy adjusted for memory array location\n        LibBytes.memCopy(offset + dest, offset + source, length);\n\n        // Return modified memory contents\n        return mem;\n    }\n}\n",
  "sourcePath": "/Users/facu/Documents/Laburo/Spiking/Ethereum/0x/0x-monorepo/packages/contracts/contracts/2.0.0/test/TestLibBytes/TestLibBytes.sol",
  "compiler": {
    "name": "solc",
    "version": "0.4.24+commit.e67f0147.Emscripten.clang"
  },
  "schemaVersion": "2.0.1",
  "updatedAt": "2018-10-16T20:38:35.389Z"
}