{
  "contractName": "TokenRegistry",
  "abi": [
    {
      "constant": true,
      "inputs": [],
      "name": "owner",
      "outputs": [
        {
          "name": "",
          "type": "address"
        }
      ],
      "payable": false,
      "stateMutability": "view",
      "type": "function"
    },
    {
      "constant": true,
      "inputs": [
        {
          "name": "",
          "type": "address"
        }
      ],
      "name": "tokens",
      "outputs": [
        {
          "name": "token",
          "type": "address"
        },
        {
          "name": "name",
          "type": "string"
        },
        {
          "name": "symbol",
          "type": "string"
        },
        {
          "name": "decimals",
          "type": "uint8"
        },
        {
          "name": "ipfsHash",
          "type": "bytes"
        },
        {
          "name": "swarmHash",
          "type": "bytes"
        }
      ],
      "payable": false,
      "stateMutability": "view",
      "type": "function"
    },
    {
      "constant": true,
      "inputs": [
        {
          "name": "",
          "type": "uint256"
        }
      ],
      "name": "tokenAddresses",
      "outputs": [
        {
          "name": "",
          "type": "address"
        }
      ],
      "payable": false,
      "stateMutability": "view",
      "type": "function"
    },
    {
      "constant": false,
      "inputs": [
        {
          "name": "newOwner",
          "type": "address"
        }
      ],
      "name": "transferOwnership",
      "outputs": [],
      "payable": false,
      "stateMutability": "nonpayable",
      "type": "function"
    },
    {
      "anonymous": false,
      "inputs": [
        {
          "indexed": true,
          "name": "token",
          "type": "address"
        },
        {
          "indexed": false,
          "name": "name",
          "type": "string"
        },
        {
          "indexed": false,
          "name": "symbol",
          "type": "string"
        },
        {
          "indexed": false,
          "name": "decimals",
          "type": "uint8"
        },
        {
          "indexed": false,
          "name": "ipfsHash",
          "type": "bytes"
        },
        {
          "indexed": false,
          "name": "swarmHash",
          "type": "bytes"
        }
      ],
      "name": "LogAddToken",
      "type": "event"
    },
    {
      "anonymous": false,
      "inputs": [
        {
          "indexed": true,
          "name": "token",
          "type": "address"
        },
        {
          "indexed": false,
          "name": "name",
          "type": "string"
        },
        {
          "indexed": false,
          "name": "symbol",
          "type": "string"
        },
        {
          "indexed": false,
          "name": "decimals",
          "type": "uint8"
        },
        {
          "indexed": false,
          "name": "ipfsHash",
          "type": "bytes"
        },
        {
          "indexed": false,
          "name": "swarmHash",
          "type": "bytes"
        }
      ],
      "name": "LogRemoveToken",
      "type": "event"
    },
    {
      "anonymous": false,
      "inputs": [
        {
          "indexed": true,
          "name": "token",
          "type": "address"
        },
        {
          "indexed": false,
          "name": "oldName",
          "type": "string"
        },
        {
          "indexed": false,
          "name": "newName",
          "type": "string"
        }
      ],
      "name": "LogTokenNameChange",
      "type": "event"
    },
    {
      "anonymous": false,
      "inputs": [
        {
          "indexed": true,
          "name": "token",
          "type": "address"
        },
        {
          "indexed": false,
          "name": "oldSymbol",
          "type": "string"
        },
        {
          "indexed": false,
          "name": "newSymbol",
          "type": "string"
        }
      ],
      "name": "LogTokenSymbolChange",
      "type": "event"
    },
    {
      "anonymous": false,
      "inputs": [
        {
          "indexed": true,
          "name": "token",
          "type": "address"
        },
        {
          "indexed": false,
          "name": "oldIpfsHash",
          "type": "bytes"
        },
        {
          "indexed": false,
          "name": "newIpfsHash",
          "type": "bytes"
        }
      ],
      "name": "LogTokenIpfsHashChange",
      "type": "event"
    },
    {
      "anonymous": false,
      "inputs": [
        {
          "indexed": true,
          "name": "token",
          "type": "address"
        },
        {
          "indexed": false,
          "name": "oldSwarmHash",
          "type": "bytes"
        },
        {
          "indexed": false,
          "name": "newSwarmHash",
          "type": "bytes"
        }
      ],
      "name": "LogTokenSwarmHashChange",
      "type": "event"
    },
    {
      "constant": false,
      "inputs": [
        {
          "name": "_token",
          "type": "address"
        },
        {
          "name": "_name",
          "type": "string"
        },
        {
          "name": "_symbol",
          "type": "string"
        },
        {
          "name": "_decimals",
          "type": "uint8"
        },
        {
          "name": "_ipfsHash",
          "type": "bytes"
        },
        {
          "name": "_swarmHash",
          "type": "bytes"
        }
      ],
      "name": "addToken",
      "outputs": [],
      "payable": false,
      "stateMutability": "nonpayable",
      "type": "function"
    },
    {
      "constant": false,
      "inputs": [
        {
          "name": "_token",
          "type": "address"
        },
        {
          "name": "_index",
          "type": "uint256"
        }
      ],
      "name": "removeToken",
      "outputs": [],
      "payable": false,
      "stateMutability": "nonpayable",
      "type": "function"
    },
    {
      "constant": false,
      "inputs": [
        {
          "name": "_token",
          "type": "address"
        },
        {
          "name": "_name",
          "type": "string"
        }
      ],
      "name": "setTokenName",
      "outputs": [],
      "payable": false,
      "stateMutability": "nonpayable",
      "type": "function"
    },
    {
      "constant": false,
      "inputs": [
        {
          "name": "_token",
          "type": "address"
        },
        {
          "name": "_symbol",
          "type": "string"
        }
      ],
      "name": "setTokenSymbol",
      "outputs": [],
      "payable": false,
      "stateMutability": "nonpayable",
      "type": "function"
    },
    {
      "constant": false,
      "inputs": [
        {
          "name": "_token",
          "type": "address"
        },
        {
          "name": "_ipfsHash",
          "type": "bytes"
        }
      ],
      "name": "setTokenIpfsHash",
      "outputs": [],
      "payable": false,
      "stateMutability": "nonpayable",
      "type": "function"
    },
    {
      "constant": false,
      "inputs": [
        {
          "name": "_token",
          "type": "address"
        },
        {
          "name": "_swarmHash",
          "type": "bytes"
        }
      ],
      "name": "setTokenSwarmHash",
      "outputs": [],
      "payable": false,
      "stateMutability": "nonpayable",
      "type": "function"
    },
    {
      "constant": true,
      "inputs": [
        {
          "name": "_symbol",
          "type": "string"
        }
      ],
      "name": "getTokenAddressBySymbol",
      "outputs": [
        {
          "name": "",
          "type": "address"
        }
      ],
      "payable": false,
      "stateMutability": "view",
      "type": "function"
    },
    {
      "constant": true,
      "inputs": [
        {
          "name": "_name",
          "type": "string"
        }
      ],
      "name": "getTokenAddressByName",
      "outputs": [
        {
          "name": "",
          "type": "address"
        }
      ],
      "payable": false,
      "stateMutability": "view",
      "type": "function"
    },
    {
      "constant": true,
      "inputs": [
        {
          "name": "_token",
          "type": "address"
        }
      ],
      "name": "getTokenMetaData",
      "outputs": [
        {
          "name": "",
          "type": "address"
        },
        {
          "name": "",
          "type": "string"
        },
        {
          "name": "",
          "type": "string"
        },
        {
          "name": "",
          "type": "uint8"
        },
        {
          "name": "",
          "type": "bytes"
        },
        {
          "name": "",
          "type": "bytes"
        }
      ],
      "payable": false,
      "stateMutability": "view",
      "type": "function"
    },
    {
      "constant": true,
      "inputs": [
        {
          "name": "_name",
          "type": "string"
        }
      ],
      "name": "getTokenByName",
      "outputs": [
        {
          "name": "",
          "type": "address"
        },
        {
          "name": "",
          "type": "string"
        },
        {
          "name": "",
          "type": "string"
        },
        {
          "name": "",
          "type": "uint8"
        },
        {
          "name": "",
          "type": "bytes"
        },
        {
          "name": "",
          "type": "bytes"
        }
      ],
      "payable": false,
      "stateMutability": "view",
      "type": "function"
    },
    {
      "constant": true,
      "inputs": [
        {
          "name": "_symbol",
          "type": "string"
        }
      ],
      "name": "getTokenBySymbol",
      "outputs": [
        {
          "name": "",
          "type": "address"
        },
        {
          "name": "",
          "type": "string"
        },
        {
          "name": "",
          "type": "string"
        },
        {
          "name": "",
          "type": "uint8"
        },
        {
          "name": "",
          "type": "bytes"
        },
        {
          "name": "",
          "type": "bytes"
        }
      ],
      "payable": false,
      "stateMutability": "view",
      "type": "function"
    },
    {
      "constant": true,
      "inputs": [],
      "name": "getTokenAddresses",
      "outputs": [
        {
          "name": "",
          "type": "address[]"
        }
      ],
      "payable": false,
      "stateMutability": "view",
      "type": "function"
    }
  ],
  "bytecode": "0x6080604052336000806101000a81548173ffffffffffffffffffffffffffffffffffffffff021916908373ffffffffffffffffffffffffffffffffffffffff160217905550613c80806100536000396000f3006080604052600436106100e6576000357c0100000000000000000000000000000000000000000000000000000000900463ffffffff16806313baf1e6146100eb5780632fbfeba9146101385780633550b6d9146101e1578063563188201461028a5780637abccac9146103135780638da5cb5b14610553578063a880319d146105aa578063c370c86d14610712578063e48603391461079b578063e5df8b84146109db578063e73fc0c314610a48578063ee8c24b814610cae578063eef05f6514610d1a578063efa74f1f14610da3578063f036417f14611009578063f2fde38b14611092575b600080fd5b3480156100f757600080fd5b50610136600480360381019080803573ffffffffffffffffffffffffffffffffffffffff169060200190929190803590602001909291905050506110d5565b005b34801561014457600080fd5b5061019f600480360381019080803590602001908201803590602001908080601f01602080910402602001604051908101604052809392919081815260200183838082843782019150505050505091929192905050506117e5565b604051808273ffffffffffffffffffffffffffffffffffffffff1673ffffffffffffffffffffffffffffffffffffffff16815260200191505060405180910390f35b3480156101ed57600080fd5b50610248600480360381019080803590602001908201803590602001908080601f016020809104026020016040519081016040528093929190818152602001838380828437820191505050505050919291929050505061187a565b604051808273ffffffffffffffffffffffffffffffffffffffff1673ffffffffffffffffffffffffffffffffffffffff16815260200191505060405180910390f35b34801561029657600080fd5b50610311600480360381019080803573ffffffffffffffffffffffffffffffffffffffff169060200190929190803590602001908201803590602001908080601f016020809104026020016040519081016040528093929190818152602001838380828437820191505050505050919291929050505061190f565b005b34801561031f57600080fd5b50610354600480360381019080803573ffffffffffffffffffffffffffffffffffffffff169060200190929190505050611bab565b604051808773ffffffffffffffffffffffffffffffffffffffff1673ffffffffffffffffffffffffffffffffffffffff16815260200180602001806020018660ff1660ff168152602001806020018060200185810385528a818151815260200191508051906020019080838360005b838110156103de5780820151818401526020810190506103c3565b50505050905090810190601f16801561040b5780820380516001836020036101000a031916815260200191505b50858103845289818151815260200191508051906020019080838360005b83811015610444578082015181840152602081019050610429565b50505050905090810190601f1680156104715780820380516001836020036101000a031916815260200191505b50858103835287818151815260200191508051906020019080838360005b838110156104aa57808201518184015260208101905061048f565b50505050905090810190601f1680156104d75780820380516001836020036101000a031916815260200191505b50858103825286818151815260200191508051906020019080838360005b838110156105105780820151818401526020810190506104f5565b50505050905090810190601f16801561053d5780820380516001836020036101000a031916815260200191505b509a505050505050505050505060405180910390f35b34801561055f57600080fd5b50610568611f45565b604051808273ffffffffffffffffffffffffffffffffffffffff1673ffffffffffffffffffffffffffffffffffffffff16815260200191505060405180910390f35b3480156105b657600080fd5b50610710600480360381019080803573ffffffffffffffffffffffffffffffffffffffff169060200190929190803590602001908201803590602001908080601f0160208091040260200160405190810160405280939291908181526020018383808284378201915050505050509192919290803590602001908201803590602001908080601f0160208091040260200160405190810160405280939291908181526020018383808284378201915050505050509192919290803560ff169060200190929190803590602001908201803590602001908080601f0160208091040260200160405190810160405280939291908181526020018383808284378201915050505050509192919290803590602001908201803590602001908080601f0160208091040260200160405190810160405280939291908181526020018383808284378201915050505050509192919290505050611f6a565b005b34801561071e57600080fd5b50610799600480360381019080803573ffffffffffffffffffffffffffffffffffffffff169060200190929190803590602001908201803590602001908080601f0160208091040260200160405190810160405280939291908181526020018383808284378201915050505050509192919290505050612761565b005b3480156107a757600080fd5b506107dc600480360381019080803573ffffffffffffffffffffffffffffffffffffffff169060200190929190505050612c06565b604051808773ffffffffffffffffffffffffffffffffffffffff1673ffffffffffffffffffffffffffffffffffffffff16815260200180602001806020018660ff1660ff168152602001806020018060200185810385528a818151815260200191508051906020019080838360005b8381101561086657808201518184015260208101905061084b565b50505050905090810190601f1680156108935780820380516001836020036101000a031916815260200191505b50858103845289818151815260200191508051906020019080838360005b838110156108cc5780820151818401526020810190506108b1565b50505050905090810190601f1680156108f95780820380516001836020036101000a031916815260200191505b50858103835287818151815260200191508051906020019080838360005b83811015610932578082015181840152602081019050610917565b50505050905090810190601f16801561095f5780820380516001836020036101000a031916815260200191505b50858103825286818151815260200191508051906020019080838360005b8381101561099857808201518184015260208101905061097d565b50505050905090810190601f1680156109c55780820380516001836020036101000a031916815260200191505b509a505050505050505050505060405180910390f35b3480156109e757600080fd5b50610a0660048036038101908080359060200190929190505050612ecf565b604051808273ffffffffffffffffffffffffffffffffffffffff1673ffffffffffffffffffffffffffffffffffffffff16815260200191505060405180910390f35b348015610a5457600080fd5b50610aaf600480360381019080803590602001908201803590602001908080601f0160208091040260200160405190810160405280939291908181526020018383808284378201915050505050509192919290505050612f0d565b604051808773ffffffffffffffffffffffffffffffffffffffff1673ffffffffffffffffffffffffffffffffffffffff16815260200180602001806020018660ff1660ff168152602001806020018060200185810385528a818151815260200191508051906020019080838360005b83811015610b39578082015181840152602081019050610b1e565b50505050905090810190601f168015610b665780820380516001836020036101000a031916815260200191505b50858103845289818151815260200191508051906020019080838360005b83811015610b9f578082015181840152602081019050610b84565b50505050905090810190601f168015610bcc5780820380516001836020036101000a031916815260200191505b50858103835287818151815260200191508051906020019080838360005b83811015610c05578082015181840152602081019050610bea565b50505050905090810190601f168015610c325780820380516001836020036101000a031916815260200191505b50858103825286818151815260200191508051906020019080838360005b83811015610c6b578082015181840152602081019050610c50565b50505050905090810190601f168015610c985780820380516001836020036101000a031916815260200191505b509a505050505050505050505060405180910390f35b348015610cba57600080fd5b50610cc3612fc6565b6040518080602001828103825283818151815260200191508051906020019060200280838360005b83811015610d06578082015181840152602081019050610ceb565b505050509050019250505060405180910390f35b348015610d2657600080fd5b50610da1600480360381019080803573ffffffffffffffffffffffffffffffffffffffff169060200190929190803590602001908201803590602001908080601f0160208091040260200160405190810160405280939291908181526020018383808284378201915050505050509192919290505050613054565b005b348015610daf57600080fd5b50610e0a600480360381019080803590602001908201803590602001908080601f01602080910402602001604051908101604052809392919081815260200183838082843782019150505050505091929192905050506132f0565b604051808773ffffffffffffffffffffffffffffffffffffffff1673ffffffffffffffffffffffffffffffffffffffff16815260200180602001806020018660ff1660ff168152602001806020018060200185810385528a818151815260200191508051906020019080838360005b83811015610e94578082015181840152602081019050610e79565b50505050905090810190601f168015610ec15780820380516001836020036101000a031916815260200191505b50858103845289818151815260200191508051906020019080838360005b83811015610efa578082015181840152602081019050610edf565b50505050905090810190601f168015610f275780820380516001836020036101000a031916815260200191505b50858103835287818151815260200191508051906020019080838360005b83811015610f60578082015181840152602081019050610f45565b50505050905090810190601f168015610f8d5780820380516001836020036101000a031916815260200191505b50858103825286818151815260200191508051906020019080838360005b83811015610fc6578082015181840152602081019050610fab565b50505050905090810190601f168015610ff35780820380516001836020036101000a031916815260200191505b509a505050505050505050505060405180910390f35b34801561101557600080fd5b50611090600480360381019080803573ffffffffffffffffffffffffffffffffffffffff169060200190929190803590602001908201803590602001908080601f01602080910402602001604051908101604052809392919081815260200183838082843782019150505050505091929192905050506133a9565b005b34801561109e57600080fd5b506110d3600480360381019080803573ffffffffffffffffffffffffffffffffffffffff16906020019092919050505061384e565b005b60008060009054906101000a900473ffffffffffffffffffffffffffffffffffffffff1673ffffffffffffffffffffffffffffffffffffffff163373ffffffffffffffffffffffffffffffffffffffff1614151561113257600080fd5b82600073ffffffffffffffffffffffffffffffffffffffff16600160008373ffffffffffffffffffffffffffffffffffffffff1673ffffffffffffffffffffffffffffffffffffffff16815260200190815260200160002060000160009054906101000a900473ffffffffffffffffffffffffffffffffffffffff1673ffffffffffffffffffffffffffffffffffffffff16141515156111d157600080fd5b8373ffffffffffffffffffffffffffffffffffffffff166004848154811015156111f757fe5b9060005260206000200160009054906101000a900473ffffffffffffffffffffffffffffffffffffffff1673ffffffffffffffffffffffffffffffffffffffff1614151561124457600080fd5b600460016004805490500381548110151561125b57fe5b9060005260206000200160009054906101000a900473ffffffffffffffffffffffffffffffffffffffff1660048481548110151561129557fe5b9060005260206000200160006101000a81548173ffffffffffffffffffffffffffffffffffffffff021916908373ffffffffffffffffffffffffffffffffffffffff16021790555060016004818180549050039150816112f59190613923565b50600160008573ffffffffffffffffffffffffffffffffffffffff1673ffffffffffffffffffffffffffffffffffffffff16815260200190815260200160002091508160000160009054906101000a900473ffffffffffffffffffffffffffffffffffffffff1673ffffffffffffffffffffffffffffffffffffffff167f32c54f1e2ea75844ded7517e7dbcd3895da7cd0c28f9ab9f9cf6ecf5f83762c683600101846002018560030160009054906101000a900460ff1686600401876005016040518080602001806020018660ff1660ff168152602001806020018060200185810385528a8181546001816001161561010002031660029004815260200191508054600181600116156101000203166002900480156114565780601f1061142b57610100808354040283529160200191611456565b820191906000526020600020905b81548152906001019060200180831161143957829003601f168201915b50508581038452898181546001816001161561010002031660029004815260200191508054600181600116156101000203166002900480156114d95780601f106114ae576101008083540402835291602001916114d9565b820191906000526020600020905b8154815290600101906020018083116114bc57829003601f168201915b505085810383528781815460018160011615610100020316600290048152602001915080546001816001161561010002031660029004801561155c5780601f106115315761010080835404028352916020019161155c565b820191906000526020600020905b81548152906001019060200180831161153f57829003601f168201915b50508581038252868181546001816001161561010002031660029004815260200191508054600181600116156101000203166002900480156115df5780601f106115b4576101008083540402835291602001916115df565b820191906000526020600020905b8154815290600101906020018083116115c257829003601f168201915b5050995050505050505050505060405180910390a260028260020160405180828054600181600116156101000203166002900480156116555780601f10611633576101008083540402835291820191611655565b820191906000526020600020905b815481529060010190602001808311611641575b5050915050908152602001604051809103902060006101000a81549073ffffffffffffffffffffffffffffffffffffffff021916905560038260010160405180828054600181600116156101000203166002900480156116ec5780601f106116ca5761010080835404028352918201916116ec565b820191906000526020600020905b8154815290600101906020018083116116d8575b5050915050908152602001604051809103902060006101000a81549073ffffffffffffffffffffffffffffffffffffffff0219169055600160008573ffffffffffffffffffffffffffffffffffffffff1673ffffffffffffffffffffffffffffffffffffffff168152602001908152602001600020600080820160006101000a81549073ffffffffffffffffffffffffffffffffffffffff0219169055600182016000611799919061394f565b6002820160006117a9919061394f565b6003820160006101000a81549060ff02191690556004820160006117cd9190613997565b6005820160006117dd9190613997565b505050505050565b60006003826040518082805190602001908083835b60208310151561181f57805182526020820191506020810190506020830392506117fa565b6001836020036101000a038019825116818451168082178552505050505050905001915050908152602001604051809103902060009054906101000a900473ffffffffffffffffffffffffffffffffffffffff169050919050565b60006002826040518082805190602001908083835b6020831015156118b4578051825260208201915060208101905060208303925061188f565b6001836020036101000a038019825116818451168082178552505050505050905001915050908152602001604051809103902060009054906101000a900473ffffffffffffffffffffffffffffffffffffffff169050919050565b60008060009054906101000a900473ffffffffffffffffffffffffffffffffffffffff1673ffffffffffffffffffffffffffffffffffffffff163373ffffffffffffffffffffffffffffffffffffffff1614151561196c57600080fd5b82600073ffffffffffffffffffffffffffffffffffffffff16600160008373ffffffffffffffffffffffffffffffffffffffff1673ffffffffffffffffffffffffffffffffffffffff16815260200190815260200160002060000160009054906101000a900473ffffffffffffffffffffffffffffffffffffffff1673ffffffffffffffffffffffffffffffffffffffff1614151515611a0b57600080fd5b600160008573ffffffffffffffffffffffffffffffffffffffff1673ffffffffffffffffffffffffffffffffffffffff16815260200190815260200160002091508373ffffffffffffffffffffffffffffffffffffffff167fc3168fdc13112e44a031057dbf6c609b33353addb4d8037d24543e22cbfe2acd8360050185604051808060200180602001838103835285818154600181600116156101000203166002900481526020019150805460018160011615610100020316600290048015611b165780601f10611aeb57610100808354040283529160200191611b16565b820191906000526020600020905b815481529060010190602001808311611af957829003601f168201915b5050838103825284818151815260200191508051906020019080838360005b83811015611b50578082015181840152602081019050611b35565b50505050905090810190601f168015611b7d5780820380516001836020036101000a031916815260200191505b5094505050505060405180910390a282826005019080519060200190611ba49291906139df565b5050505050565b60006060806000606080611bbd613a5f565b600160008973ffffffffffffffffffffffffffffffffffffffff1673ffffffffffffffffffffffffffffffffffffffff16815260200190815260200160002060c060405190810160405290816000820160009054906101000a900473ffffffffffffffffffffffffffffffffffffffff1673ffffffffffffffffffffffffffffffffffffffff1673ffffffffffffffffffffffffffffffffffffffff168152602001600182018054600181600116156101000203166002900480601f016020809104026020016040519081016040528092919081815260200182805460018160011615610100020316600290048015611cf75780601f10611ccc57610100808354040283529160200191611cf7565b820191906000526020600020905b815481529060010190602001808311611cda57829003601f168201915b50505050508152602001600282018054600181600116156101000203166002900480601f016020809104026020016040519081016040528092919081815260200182805460018160011615610100020316600290048015611d995780601f10611d6e57610100808354040283529160200191611d99565b820191906000526020600020905b815481529060010190602001808311611d7c57829003601f168201915b505050505081526020016003820160009054906101000a900460ff1660ff1660ff168152602001600482018054600181600116156101000203166002900480601f016020809104026020016040519081016040528092919081815260200182805460018160011615610100020316600290048015611e585780601f10611e2d57610100808354040283529160200191611e58565b820191906000526020600020905b815481529060010190602001808311611e3b57829003601f168201915b50505050508152602001600582018054600181600116156101000203166002900480601f016020809104026020016040519081016040528092919081815260200182805460018160011615610100020316600290048015611efa5780601f10611ecf57610100808354040283529160200191611efa565b820191906000526020600020905b815481529060010190602001808311611edd57829003601f168201915b5050505050815250509050806000015181602001518260400151836060015184608001518560a001518494508393508191508090509650965096509650965096505091939550919395565b6000809054906101000a900473ffffffffffffffffffffffffffffffffffffffff1681565b6000809054906101000a900473ffffffffffffffffffffffffffffffffffffffff1673ffffffffffffffffffffffffffffffffffffffff163373ffffffffffffffffffffffffffffffffffffffff16141515611fc557600080fd5b85600073ffffffffffffffffffffffffffffffffffffffff16600160008373ffffffffffffffffffffffffffffffffffffffff1673ffffffffffffffffffffffffffffffffffffffff16815260200190815260200160002060000160009054906101000a900473ffffffffffffffffffffffffffffffffffffffff1673ffffffffffffffffffffffffffffffffffffffff1614151561206357600080fd5b86600073ffffffffffffffffffffffffffffffffffffffff168173ffffffffffffffffffffffffffffffffffffffff16141515156120a057600080fd5b85600073ffffffffffffffffffffffffffffffffffffffff166002826040518082805190602001908083835b6020831015156120f157805182526020820191506020810190506020830392506120cc565b6001836020036101000a038019825116818451168082178552505050505050905001915050908152602001604051809103902060009054906101000a900473ffffffffffffffffffffffffffffffffffffffff1673ffffffffffffffffffffffffffffffffffffffff1614151561216757600080fd5b87600073ffffffffffffffffffffffffffffffffffffffff166003826040518082805190602001908083835b6020831015156121b85780518252602082019150602081019050602083039250612193565b6001836020036101000a038019825116818451168082178552505050505050905001915050908152602001604051809103902060009054906101000a900473ffffffffffffffffffffffffffffffffffffffff1673ffffffffffffffffffffffffffffffffffffffff1614151561222e57600080fd5b60c0604051908101604052808b73ffffffffffffffffffffffffffffffffffffffff1681526020018a81526020018981526020018860ff16815260200187815260200186815250600160008c73ffffffffffffffffffffffffffffffffffffffff1673ffffffffffffffffffffffffffffffffffffffff16815260200190815260200160002060008201518160000160006101000a81548173ffffffffffffffffffffffffffffffffffffffff021916908373ffffffffffffffffffffffffffffffffffffffff1602179055506020820151816001019080519060200190612317929190613aaf565b506040820151816002019080519060200190612334929190613aaf565b5060608201518160030160006101000a81548160ff021916908360ff1602179055506080820151816004019080519060200190612372929190613b2f565b5060a082015181600501908051906020019061238f929190613b2f565b5090505060048a90806001815401808255809150509060018203906000526020600020016000909192909190916101000a81548173ffffffffffffffffffffffffffffffffffffffff021916908373ffffffffffffffffffffffffffffffffffffffff16021790555050896002896040518082805190602001908083835b602083101515612432578051825260208201915060208101905060208303925061240d565b6001836020036101000a038019825116818451168082178552505050505050905001915050908152602001604051809103902060006101000a81548173ffffffffffffffffffffffffffffffffffffffff021916908373ffffffffffffffffffffffffffffffffffffffff1602179055508960038a6040518082805190602001908083835b6020831015156124dc57805182526020820191506020810190506020830392506124b7565b6001836020036101000a038019825116818451168082178552505050505050905001915050908152602001604051809103902060006101000a81548173ffffffffffffffffffffffffffffffffffffffff021916908373ffffffffffffffffffffffffffffffffffffffff1602179055508973ffffffffffffffffffffffffffffffffffffffff167fd8d928b0b50ca11d9dc273236b46f3526515b03602f71f3a6af4f45bd9fa91448a8a8a8a8a6040518080602001806020018660ff1660ff168152602001806020018060200185810385528a818151815260200191508051906020019080838360005b838110156125e25780820151818401526020810190506125c7565b50505050905090810190601f16801561260f5780820380516001836020036101000a031916815260200191505b50858103845289818151815260200191508051906020019080838360005b8381101561264857808201518184015260208101905061262d565b50505050905090810190601f1680156126755780820380516001836020036101000a031916815260200191505b50858103835287818151815260200191508051906020019080838360005b838110156126ae578082015181840152602081019050612693565b50505050905090810190601f1680156126db5780820380516001836020036101000a031916815260200191505b50858103825286818151815260200191508051906020019080838360005b838110156127145780820151818401526020810190506126f9565b50505050905090810190601f1680156127415780820380516001836020036101000a031916815260200191505b50995050505050505050505060405180910390a250505050505050505050565b60008060009054906101000a900473ffffffffffffffffffffffffffffffffffffffff1673ffffffffffffffffffffffffffffffffffffffff163373ffffffffffffffffffffffffffffffffffffffff161415156127be57600080fd5b82600073ffffffffffffffffffffffffffffffffffffffff16600160008373ffffffffffffffffffffffffffffffffffffffff1673ffffffffffffffffffffffffffffffffffffffff16815260200190815260200160002060000160009054906101000a900473ffffffffffffffffffffffffffffffffffffffff1673ffffffffffffffffffffffffffffffffffffffff161415151561285d57600080fd5b82600073ffffffffffffffffffffffffffffffffffffffff166003826040518082805190602001908083835b6020831015156128ae5780518252602082019150602081019050602083039250612889565b6001836020036101000a038019825116818451168082178552505050505050905001915050908152602001604051809103902060009054906101000a900473ffffffffffffffffffffffffffffffffffffffff1673ffffffffffffffffffffffffffffffffffffffff1614151561292457600080fd5b600160008673ffffffffffffffffffffffffffffffffffffffff1673ffffffffffffffffffffffffffffffffffffffff16815260200190815260200160002092508473ffffffffffffffffffffffffffffffffffffffff167f4a6dbfc867b179991dec22ff19960f0a94d8d9d891fc556f547764670340e8ae8460010186604051808060200180602001838103835285818154600181600116156101000203166002900481526020019150805460018160011615610100020316600290048015612a2f5780601f10612a0457610100808354040283529160200191612a2f565b820191906000526020600020905b815481529060010190602001808311612a1257829003601f168201915b5050838103825284818151815260200191508051906020019080838360005b83811015612a69578082015181840152602081019050612a4e565b50505050905090810190601f168015612a965780820380516001836020036101000a031916815260200191505b5094505050505060405180910390a26003836001016040518082805460018160011615610100020316600290048015612b065780601f10612ae4576101008083540402835291820191612b06565b820191906000526020600020905b815481529060010190602001808311612af2575b5050915050908152602001604051809103902060006101000a81549073ffffffffffffffffffffffffffffffffffffffff0219169055846003856040518082805190602001908083835b602083101515612b755780518252602082019150602081019050602083039250612b50565b6001836020036101000a038019825116818451168082178552505050505050905001915050908152602001604051809103902060006101000a81548173ffffffffffffffffffffffffffffffffffffffff021916908373ffffffffffffffffffffffffffffffffffffffff16021790555083836001019080519060200190612bfe929190613baf565b505050505050565b60016020528060005260406000206000915090508060000160009054906101000a900473ffffffffffffffffffffffffffffffffffffffff1690806001018054600181600116156101000203166002900480601f016020809104026020016040519081016040528092919081815260200182805460018160011615610100020316600290048015612cd85780601f10612cad57610100808354040283529160200191612cd8565b820191906000526020600020905b815481529060010190602001808311612cbb57829003601f168201915b505050505090806002018054600181600116156101000203166002900480601f016020809104026020016040519081016040528092919081815260200182805460018160011615610100020316600290048015612d765780601f10612d4b57610100808354040283529160200191612d76565b820191906000526020600020905b815481529060010190602001808311612d5957829003601f168201915b5050505050908060030160009054906101000a900460ff1690806004018054600181600116156101000203166002900480601f016020809104026020016040519081016040528092919081815260200182805460018160011615610100020316600290048015612e275780601f10612dfc57610100808354040283529160200191612e27565b820191906000526020600020905b815481529060010190602001808311612e0a57829003601f168201915b505050505090806005018054600181600116156101000203166002900480601f016020809104026020016040519081016040528092919081815260200182805460018160011615610100020316600290048015612ec55780601f10612e9a57610100808354040283529160200191612ec5565b820191906000526020600020905b815481529060010190602001808311612ea857829003601f168201915b5050505050905086565b600481815481101515612ede57fe5b906000526020600020016000915054906101000a900473ffffffffffffffffffffffffffffffffffffffff1681565b6000606080600060608060006003886040518082805190602001908083835b602083101515612f515780518252602082019150602081019050602083039250612f2c565b6001836020036101000a038019825116818451168082178552505050505050905001915050908152602001604051809103902060009054906101000a900473ffffffffffffffffffffffffffffffffffffffff169050612fb081611bab565b9650965096509650965096505091939550919395565b6060600480548060200260200160405190810160405280929190818152602001828054801561304a57602002820191906000526020600020905b8160009054906101000a900473ffffffffffffffffffffffffffffffffffffffff1673ffffffffffffffffffffffffffffffffffffffff1681526020019060010190808311613000575b5050505050905090565b60008060009054906101000a900473ffffffffffffffffffffffffffffffffffffffff1673ffffffffffffffffffffffffffffffffffffffff163373ffffffffffffffffffffffffffffffffffffffff161415156130b157600080fd5b82600073ffffffffffffffffffffffffffffffffffffffff16600160008373ffffffffffffffffffffffffffffffffffffffff1673ffffffffffffffffffffffffffffffffffffffff16815260200190815260200160002060000160009054906101000a900473ffffffffffffffffffffffffffffffffffffffff1673ffffffffffffffffffffffffffffffffffffffff161415151561315057600080fd5b600160008573ffffffffffffffffffffffffffffffffffffffff1673ffffffffffffffffffffffffffffffffffffffff16815260200190815260200160002091508373ffffffffffffffffffffffffffffffffffffffff167f5b19f79ac4e8cfa820815502e11615f1a449e28155dc289ec5cac1a11f908694836004018560405180806020018060200183810383528581815460018160011615610100020316600290048152602001915080546001816001161561010002031660029004801561325b5780601f106132305761010080835404028352916020019161325b565b820191906000526020600020905b81548152906001019060200180831161323e57829003601f168201915b5050838103825284818151815260200191508051906020019080838360005b8381101561329557808201518184015260208101905061327a565b50505050905090810190601f1680156132c25780820380516001836020036101000a031916815260200191505b5094505050505060405180910390a2828260040190805190602001906132e99291906139df565b5050505050565b6000606080600060608060006002886040518082805190602001908083835b602083101515613334578051825260208201915060208101905060208303925061330f565b6001836020036101000a038019825116818451168082178552505050505050905001915050908152602001604051809103902060009054906101000a900473ffffffffffffffffffffffffffffffffffffffff16905061339381611bab565b9650965096509650965096505091939550919395565b60008060009054906101000a900473ffffffffffffffffffffffffffffffffffffffff1673ffffffffffffffffffffffffffffffffffffffff163373ffffffffffffffffffffffffffffffffffffffff1614151561340657600080fd5b82600073ffffffffffffffffffffffffffffffffffffffff16600160008373ffffffffffffffffffffffffffffffffffffffff1673ffffffffffffffffffffffffffffffffffffffff16815260200190815260200160002060000160009054906101000a900473ffffffffffffffffffffffffffffffffffffffff1673ffffffffffffffffffffffffffffffffffffffff16141515156134a557600080fd5b82600073ffffffffffffffffffffffffffffffffffffffff166002826040518082805190602001908083835b6020831015156134f657805182526020820191506020810190506020830392506134d1565b6001836020036101000a038019825116818451168082178552505050505050905001915050908152602001604051809103902060009054906101000a900473ffffffffffffffffffffffffffffffffffffffff1673ffffffffffffffffffffffffffffffffffffffff1614151561356c57600080fd5b600160008673ffffffffffffffffffffffffffffffffffffffff1673ffffffffffffffffffffffffffffffffffffffff16815260200190815260200160002092508473ffffffffffffffffffffffffffffffffffffffff167f53d878a6530e56c9bc96548fa0a8cae4f1d1f49c86b0e934c086b992ebb6998f84600201866040518080602001806020018381038352858181546001816001161561010002031660029004815260200191508054600181600116156101000203166002900480156136775780601f1061364c57610100808354040283529160200191613677565b820191906000526020600020905b81548152906001019060200180831161365a57829003601f168201915b5050838103825284818151815260200191508051906020019080838360005b838110156136b1578082015181840152602081019050613696565b50505050905090810190601f1680156136de5780820380516001836020036101000a031916815260200191505b5094505050505060405180910390a2600283600201604051808280546001816001161561010002031660029004801561374e5780601f1061372c57610100808354040283529182019161374e565b820191906000526020600020905b81548152906001019060200180831161373a575b5050915050908152602001604051809103902060006101000a81549073ffffffffffffffffffffffffffffffffffffffff0219169055846002856040518082805190602001908083835b6020831015156137bd5780518252602082019150602081019050602083039250613798565b6001836020036101000a038019825116818451168082178552505050505050905001915050908152602001604051809103902060006101000a81548173ffffffffffffffffffffffffffffffffffffffff021916908373ffffffffffffffffffffffffffffffffffffffff16021790555083836002019080519060200190613846929190613baf565b505050505050565b6000809054906101000a900473ffffffffffffffffffffffffffffffffffffffff1673ffffffffffffffffffffffffffffffffffffffff163373ffffffffffffffffffffffffffffffffffffffff161415156138a957600080fd5b600073ffffffffffffffffffffffffffffffffffffffff168173ffffffffffffffffffffffffffffffffffffffff1614151561392057806000806101000a81548173ffffffffffffffffffffffffffffffffffffffff021916908373ffffffffffffffffffffffffffffffffffffffff1602179055505b50565b81548183558181111561394a578183600052602060002091820191016139499190613c2f565b5b505050565b50805460018160011615610100020316600290046000825580601f106139755750613994565b601f0160209004906000526020600020908101906139939190613c2f565b5b50565b50805460018160011615610100020316600290046000825580601f106139bd57506139dc565b601f0160209004906000526020600020908101906139db9190613c2f565b5b50565b828054600181600116156101000203166002900490600052602060002090601f016020900481019282601f10613a2057805160ff1916838001178555613a4e565b82800160010185558215613a4e579182015b82811115613a4d578251825591602001919060010190613a32565b5b509050613a5b9190613c2f565b5090565b60c060405190810160405280600073ffffffffffffffffffffffffffffffffffffffff1681526020016060815260200160608152602001600060ff16815260200160608152602001606081525090565b828054600181600116156101000203166002900490600052602060002090601f016020900481019282601f10613af057805160ff1916838001178555613b1e565b82800160010185558215613b1e579182015b82811115613b1d578251825591602001919060010190613b02565b5b509050613b2b9190613c2f565b5090565b828054600181600116156101000203166002900490600052602060002090601f016020900481019282601f10613b7057805160ff1916838001178555613b9e565b82800160010185558215613b9e579182015b82811115613b9d578251825591602001919060010190613b82565b5b509050613bab9190613c2f565b5090565b828054600181600116156101000203166002900490600052602060002090601f016020900481019282601f10613bf057805160ff1916838001178555613c1e565b82800160010185558215613c1e579182015b82811115613c1d578251825591602001919060010190613c02565b5b509050613c2b9190613c2f565b5090565b613c5191905b80821115613c4d576000816000905550600101613c35565b5090565b905600a165627a7a723058205cb43011e63c9f03b93a11b1707d5eb1ba9eb4930dfd9744bc24b168798f02d20029",
  "source": "/*\n\n  Copyright 2018 ZeroEx Intl.\n\n  Licensed under the Apache License, Version 2.0 (the \"License\");\n  you may not use this file except in compliance with the License.\n  You may obtain a copy of the License at\n\n    http://www.apache.org/licenses/LICENSE-2.0\n\n  Unless required by applicable law or agreed to in writing, software\n  distributed under the License is distributed on an \"AS IS\" BASIS,\n  WITHOUT WARRANTIES OR CONDITIONS OF ANY KIND, either express or implied.\n  See the License for the specific language governing permissions and\n  limitations under the License.\n\n*/\n\npragma solidity ^0.4.11;\n\nimport { Ownable_v1 as Ownable } from \"../Ownable/Ownable_v1.sol\";\n\n/// @title Token Registry - Stores metadata associated with ERC20 tokens. See ERC22 https://github.com/ethereum/EIPs/issues/22\n/// @author Amir Bandeali - <amir@0xProject.com>, Will Warren - <will@0xProject.com>\ncontract TokenRegistry is Ownable {\n\n    event LogAddToken(\n        address indexed token,\n        string name,\n        string symbol,\n        uint8 decimals,\n        bytes ipfsHash,\n        bytes swarmHash\n    );\n\n    event LogRemoveToken(\n        address indexed token,\n        string name,\n        string symbol,\n        uint8 decimals,\n        bytes ipfsHash,\n        bytes swarmHash\n    );\n\n    event LogTokenNameChange(address indexed token, string oldName, string newName);\n    event LogTokenSymbolChange(address indexed token, string oldSymbol, string newSymbol);\n    event LogTokenIpfsHashChange(address indexed token, bytes oldIpfsHash, bytes newIpfsHash);\n    event LogTokenSwarmHashChange(address indexed token, bytes oldSwarmHash, bytes newSwarmHash);\n\n    mapping (address => TokenMetadata) public tokens;\n    mapping (string => address) tokenBySymbol;\n    mapping (string => address) tokenByName;\n\n    address[] public tokenAddresses;\n\n    struct TokenMetadata {\n        address token;\n        string name;\n        string symbol;\n        uint8 decimals;\n        bytes ipfsHash;\n        bytes swarmHash;\n    }\n\n    modifier tokenExists(address _token) {\n        require(tokens[_token].token != address(0));\n        _;\n    }\n\n    modifier tokenDoesNotExist(address _token) {\n        require(tokens[_token].token == address(0));\n        _;\n    }\n\n    modifier nameDoesNotExist(string _name) {\n        require(tokenByName[_name] == address(0));\n        _;\n    }\n\n    modifier symbolDoesNotExist(string _symbol) {\n        require(tokenBySymbol[_symbol] == address(0));\n        _;\n    }\n\n    modifier addressNotNull(address _address) {\n        require(_address != address(0));\n        _;\n    }\n\n\n    /// @dev Allows owner to add a new token to the registry.\n    /// @param _token Address of new token.\n    /// @param _name Name of new token.\n    /// @param _symbol Symbol for new token.\n    /// @param _decimals Number of decimals, divisibility of new token.\n    /// @param _ipfsHash IPFS hash of token icon.\n    /// @param _swarmHash Swarm hash of token icon.\n    function addToken(\n        address _token,\n        string _name,\n        string _symbol,\n        uint8 _decimals,\n        bytes _ipfsHash,\n        bytes _swarmHash)\n        public\n        onlyOwner\n        tokenDoesNotExist(_token)\n        addressNotNull(_token)\n        symbolDoesNotExist(_symbol)\n        nameDoesNotExist(_name)\n    {\n        tokens[_token] = TokenMetadata({\n            token: _token,\n            name: _name,\n            symbol: _symbol,\n            decimals: _decimals,\n            ipfsHash: _ipfsHash,\n            swarmHash: _swarmHash\n        });\n        tokenAddresses.push(_token);\n        tokenBySymbol[_symbol] = _token;\n        tokenByName[_name] = _token;\n        LogAddToken(\n            _token,\n            _name,\n            _symbol,\n            _decimals,\n            _ipfsHash,\n            _swarmHash\n        );\n    }\n\n    /// @dev Allows owner to remove an existing token from the registry.\n    /// @param _token Address of existing token.\n    function removeToken(address _token, uint _index)\n        public\n        onlyOwner\n        tokenExists(_token)\n    {\n        require(tokenAddresses[_index] == _token);\n\n        tokenAddresses[_index] = tokenAddresses[tokenAddresses.length - 1];\n        tokenAddresses.length -= 1;\n\n        TokenMetadata storage token = tokens[_token];\n        LogRemoveToken(\n            token.token,\n            token.name,\n            token.symbol,\n            token.decimals,\n            token.ipfsHash,\n            token.swarmHash\n        );\n        delete tokenBySymbol[token.symbol];\n        delete tokenByName[token.name];\n        delete tokens[_token];\n    }\n\n    /// @dev Allows owner to modify an existing token's name.\n    /// @param _token Address of existing token.\n    /// @param _name New name.\n    function setTokenName(address _token, string _name)\n        public\n        onlyOwner\n        tokenExists(_token)\n        nameDoesNotExist(_name)\n    {\n        TokenMetadata storage token = tokens[_token];\n        LogTokenNameChange(_token, token.name, _name);\n        delete tokenByName[token.name];\n        tokenByName[_name] = _token;\n        token.name = _name;\n    }\n\n    /// @dev Allows owner to modify an existing token's symbol.\n    /// @param _token Address of existing token.\n    /// @param _symbol New symbol.\n    function setTokenSymbol(address _token, string _symbol)\n        public\n        onlyOwner\n        tokenExists(_token)\n        symbolDoesNotExist(_symbol)\n    {\n        TokenMetadata storage token = tokens[_token];\n        LogTokenSymbolChange(_token, token.symbol, _symbol);\n        delete tokenBySymbol[token.symbol];\n        tokenBySymbol[_symbol] = _token;\n        token.symbol = _symbol;\n    }\n\n    /// @dev Allows owner to modify an existing token's IPFS hash.\n    /// @param _token Address of existing token.\n    /// @param _ipfsHash New IPFS hash.\n    function setTokenIpfsHash(address _token, bytes _ipfsHash)\n        public\n        onlyOwner\n        tokenExists(_token)\n    {\n        TokenMetadata storage token = tokens[_token];\n        LogTokenIpfsHashChange(_token, token.ipfsHash, _ipfsHash);\n        token.ipfsHash = _ipfsHash;\n    }\n\n    /// @dev Allows owner to modify an existing token's Swarm hash.\n    /// @param _token Address of existing token.\n    /// @param _swarmHash New Swarm hash.\n    function setTokenSwarmHash(address _token, bytes _swarmHash)\n        public\n        onlyOwner\n        tokenExists(_token)\n    {\n        TokenMetadata storage token = tokens[_token];\n        LogTokenSwarmHashChange(_token, token.swarmHash, _swarmHash);\n        token.swarmHash = _swarmHash;\n    }\n\n    /*\n     * Web3 call functions\n     */\n\n    /// @dev Provides a registered token's address when given the token symbol.\n    /// @param _symbol Symbol of registered token.\n    /// @return Token's address.\n    function getTokenAddressBySymbol(string _symbol) constant returns (address) {\n        return tokenBySymbol[_symbol];\n    }\n\n    /// @dev Provides a registered token's address when given the token name.\n    /// @param _name Name of registered token.\n    /// @return Token's address.\n    function getTokenAddressByName(string _name) constant returns (address) {\n        return tokenByName[_name];\n    }\n\n    /// @dev Provides a registered token's metadata, looked up by address.\n    /// @param _token Address of registered token.\n    /// @return Token metadata.\n    function getTokenMetaData(address _token)\n        public\n        constant\n        returns (\n            address,  //tokenAddress\n            string,   //name\n            string,   //symbol\n            uint8,    //decimals\n            bytes,    //ipfsHash\n            bytes     //swarmHash\n        )\n    {\n        TokenMetadata memory token = tokens[_token];\n        return (\n            token.token,\n            token.name,\n            token.symbol,\n            token.decimals,\n            token.ipfsHash,\n            token.swarmHash\n        );\n    }\n\n    /// @dev Provides a registered token's metadata, looked up by name.\n    /// @param _name Name of registered token.\n    /// @return Token metadata.\n    function getTokenByName(string _name)\n        public\n        constant\n        returns (\n            address,  //tokenAddress\n            string,   //name\n            string,   //symbol\n            uint8,    //decimals\n            bytes,    //ipfsHash\n            bytes     //swarmHash\n        )\n    {\n        address _token = tokenByName[_name];\n        return getTokenMetaData(_token);\n    }\n\n    /// @dev Provides a registered token's metadata, looked up by symbol.\n    /// @param _symbol Symbol of registered token.\n    /// @return Token metadata.\n    function getTokenBySymbol(string _symbol)\n        public\n        constant\n        returns (\n            address,  //tokenAddress\n            string,   //name\n            string,   //symbol\n            uint8,    //decimals\n            bytes,    //ipfsHash\n            bytes     //swarmHash\n        )\n    {\n        address _token = tokenBySymbol[_symbol];\n        return getTokenMetaData(_token);\n    }\n\n    /// @dev Returns an array containing all token addresses.\n    /// @return Array of token addresses.\n    function getTokenAddresses()\n        public\n        constant\n        returns (address[])\n    {\n        return tokenAddresses;\n    }\n}\n",
  "sourcePath": "/Users/facu/Documents/Laburo/Spiking/Ethereum/0x/0x-monorepo/packages/contracts/contracts/1.0.0/TokenRegistry/TokenRegistry.sol",
  "compiler": {
    "name": "solc",
    "version": "0.4.24+commit.e67f0147.Emscripten.clang"
  },
  "schemaVersion": "2.0.1",
  "updatedAt": "2018-10-16T20:38:35.285Z"
}