{
  "contractName": "Validator",
  "abi": [
    {
      "inputs": [
        {
          "name": "validSigner",
          "type": "address"
        }
      ],
      "payable": false,
      "stateMutability": "nonpayable",
      "type": "constructor"
    },
    {
      "constant": true,
      "inputs": [
        {
          "name": "hash",
          "type": "bytes32"
        },
        {
          "name": "signerAddress",
          "type": "address"
        },
        {
          "name": "signature",
          "type": "bytes"
        }
      ],
      "name": "isValidSignature",
      "outputs": [
        {
          "name": "isValid",
          "type": "bool"
        }
      ],
      "payable": false,
      "stateMutability": "view",
      "type": "function"
    }
  ],
  "bytecode": "0x608060405234801561001057600080fd5b506040516020806101d283398101806040528101908080519060200190929190505050806000806101000a81548173ffffffffffffffffffffffffffffffffffffffff021916908373ffffffffffffffffffffffffffffffffffffffff1602179055505061014f806100836000396000f300608060405260043610610041576000357c0100000000000000000000000000000000000000000000000000000000900463ffffffff1680639363470214610046575b600080fd5b34801561005257600080fd5b506100ad6004803603810190808035600019169060200190929190803573ffffffffffffffffffffffffffffffffffffffff1690602001909291908035906020019082018035906020019190919293919293905050506100c7565b604051808215151515815260200191505060405180910390f35b60008060009054906101000a900473ffffffffffffffffffffffffffffffffffffffff1673ffffffffffffffffffffffffffffffffffffffff168473ffffffffffffffffffffffffffffffffffffffff161490509493505050505600a165627a7a7230582063d859c7885916a07a42fab6dc9fec7381c24810f165c1760124456cbc9bc89d0029",
  "source": "/*\n\n  Copyright 2018 ZeroEx Intl.\n\n  Licensed under the Apache License, Version 2.0 (the \"License\");\n  you may not use this file except in compliance with the License.\n  You may obtain a copy of the License at\n\n    http://www.apache.org/licenses/LICENSE-2.0\n\n  Unless required by applicable law or agreed to in writing, software\n  distributed under the License is distributed on an \"AS IS\" BASIS,\n  WITHOUT WARRANTIES OR CONDITIONS OF ANY KIND, either express or implied.\n  See the License for the specific language governing permissions and\n  limitations under the License.\n\n*/\n\npragma solidity 0.4.24;\n\nimport \"../../protocol/Exchange/interfaces/IValidator.sol\";\n\n\ncontract Validator is \n    IValidator\n{\n\n    // The single valid signer for this wallet.\n    // solhint-disable-next-line var-name-mixedcase\n    address internal VALID_SIGNER;\n\n    /// @dev constructs a new `Validator` with a single valid signer.\n    /// @param validSigner The sole, valid signer.\n    constructor (address validSigner) public {\n        VALID_SIGNER = validSigner;\n    }\n\n    /// @dev Verifies that a signature is valid. `signer` must match `VALID_SIGNER`.\n    /// @param hash Message hash that is signed.\n    /// @param signerAddress Address that should have signed the given hash.\n    /// @param signature Proof of signing.\n    /// @return Validity of signature.\n    // solhint-disable no-unused-vars\n    function isValidSignature(\n        bytes32 hash,\n        address signerAddress,\n        bytes signature\n    )\n        external\n        view\n        returns (bool isValid)\n    {\n        return (signerAddress == VALID_SIGNER);\n    }\n    // solhint-enable no-unused-vars\n}\n",
  "sourcePath": "/Users/facu/Documents/Laburo/Spiking/Ethereum/0x/0x-monorepo/packages/contracts/contracts/2.0.0/examples/Validator/Validator.sol",
  "compiler": {
    "name": "solc",
    "version": "0.4.24+commit.e67f0147.Emscripten.clang"
  },
  "schemaVersion": "2.0.1",
  "updatedAt": "2018-10-16T20:38:35.295Z"
}