{
  "contractName": "Wallet",
  "abi": [
    {
      "inputs": [
        {
          "name": "walletOwner",
          "type": "address"
        }
      ],
      "payable": false,
      "stateMutability": "nonpayable",
      "type": "constructor"
    },
    {
      "constant": true,
      "inputs": [
        {
          "name": "hash",
          "type": "bytes32"
        },
        {
          "name": "eip712Signature",
          "type": "bytes"
        }
      ],
      "name": "isValidSignature",
      "outputs": [
        {
          "name": "isValid",
          "type": "bool"
        }
      ],
      "payable": false,
      "stateMutability": "view",
      "type": "function"
    }
  ],
  "bytecode": "0x608060405234801561001057600080fd5b506040516020806104a483398101806040528101908080519060200190929190505050806000806101000a81548173ffffffffffffffffffffffffffffffffffffffff021916908373ffffffffffffffffffffffffffffffffffffffff16021790555050610421806100836000396000f300608060405260043610610041576000357c0100000000000000000000000000000000000000000000000000000000900463ffffffff1680631626ba7e14610046575b600080fd5b34801561005257600080fd5b5061008d60048036038101908080356000191690602001909291908035906020019082018035906020019190919293919293905050506100a7565b604051808215151515815260200191505060405180910390f35b600080600080600060418787905014151561012a576040517f08c379a00000000000000000000000000000000000000000000000000000000081526004018080602001828103825260128152602001807f4c454e4754485f36355f5245515549524544000000000000000000000000000081525060200191505060405180910390fd5b86866000818110151561013957fe5b905001357f010000000000000000000000000000000000000000000000000000000000000090047f0100000000000000000000000000000000000000000000000000000000000000027effffffffffffffffffffffffffffffffffffffffffffffffffffffffffffff19167f01000000000000000000000000000000000000000000000000000000000000009004935061020f600188888080601f01602080910402602001604051908101604052809392919081815260200183838082843782019150505050505061033c90919063ffffffff16565b9250610257602188888080601f01602080910402602001604051908101604052809392919081815260200183838082843782019150505050505061033c90919063ffffffff16565b9150600188858585604051600081526020016040526040518085600019166000191681526020018460ff1660ff1681526020018360001916600019168152602001826000191660001916815260200194505050505060206040516020810390808403906000865af11580156102d0573d6000803e3d6000fd5b5050506020604051035190508073ffffffffffffffffffffffffffffffffffffffff166000809054906101000a900473ffffffffffffffffffffffffffffffffffffffff1673ffffffffffffffffffffffffffffffffffffffff16149450849450505050509392505050565b6000602082018351101515156103e0576040517f08c379a00000000000000000000000000000000000000000000000000000000081526004018080602001828103825260268152602001807f475245415445525f4f525f455155414c5f544f5f33325f4c454e4754485f524581526020017f515549524544000000000000000000000000000000000000000000000000000081525060400191505060405180910390fd5b602082019150818301519050809050929150505600a165627a7a72305820fcf5db0eb76ccee48f832053525963a0f6e3dc8a40ee8d8b8830e9c7fc8ac0a30029",
  "source": "/*\n\n  Copyright 2018 ZeroEx Intl.\n\n  Licensed under the Apache License, Version 2.0 (the \"License\");\n  you may not use this file except in compliance with the License.\n  You may obtain a copy of the License at\n\n    http://www.apache.org/licenses/LICENSE-2.0\n\n  Unless required by applicable law or agreed to in writing, software\n  distributed under the License is distributed on an \"AS IS\" BASIS,\n  WITHOUT WARRANTIES OR CONDITIONS OF ANY KIND, either express or implied.\n  See the License for the specific language governing permissions and\n  limitations under the License.\n\n*/\n\npragma solidity 0.4.24;\n\nimport \"../../protocol/Exchange/interfaces/IWallet.sol\";\nimport \"../../utils/LibBytes/LibBytes.sol\";\n\n\ncontract Wallet is \n    IWallet\n{\n    using LibBytes for bytes;\n\n    // The owner of this wallet.\n    // solhint-disable-next-line var-name-mixedcase\n    address internal WALLET_OWNER;\n\n    /// @dev constructs a new `Wallet` with a single owner.\n    /// @param walletOwner The owner of this wallet.\n    constructor (address walletOwner) public {\n        WALLET_OWNER = walletOwner;\n    }\n\n    /// @dev Validates an EIP712 signature.\n    ///      The signer must match the owner of this wallet.\n    /// @param hash Message hash that is signed.\n    /// @param eip712Signature Proof of signing.\n    /// @return Validity of signature.\n    function isValidSignature(\n        bytes32 hash,\n        bytes eip712Signature\n    )\n        external\n        view\n        returns (bool isValid)\n    {\n        require(\n            eip712Signature.length == 65,\n            \"LENGTH_65_REQUIRED\"\n        );\n\n        uint8 v = uint8(eip712Signature[0]);\n        bytes32 r = eip712Signature.readBytes32(1);\n        bytes32 s = eip712Signature.readBytes32(33);\n        address recoveredAddress = ecrecover(hash, v, r, s);\n        isValid = WALLET_OWNER == recoveredAddress;\n        return isValid;\n    }\n}\n",
  "sourcePath": "/Users/facu/Documents/Laburo/Spiking/Ethereum/0x/0x-monorepo/packages/contracts/contracts/2.0.0/examples/Wallet/Wallet.sol",
  "compiler": {
    "name": "solc",
    "version": "0.4.24+commit.e67f0147.Emscripten.clang"
  },
  "schemaVersion": "2.0.1",
  "updatedAt": "2018-10-16T20:38:35.295Z"
}